:1000000000000420190200000102000003020000A9
:1000100005020000070200000902000000000000C5
:100020000000000000000000000000000B020000C3
:100030000D020000000000000F020000110200008D
:100040001302000095110000C11900001302000006
:10005000130200001302000013020000130200004C
:10006000130200001302000013020000F912000046
:10007000130200001302000013020000130200002C
:10008000130200001302000013020000130200001C
:1000900031130000130200001302000013020000DD
:1000A00013020000130200001302000013020000FC
:1000B0001302000013020000000000000000000016
:1000C00013020000130200001302000013020000DC
:1000D00013020000130200001302000013020000CC
:1000E00013020000130200001302000000000000D1
:1000F00000000000130200000000000013020000D6
:1001000000000000000000000000000000000000EF
:1001100000000000000000000000000000000000DF
:1001200000000000000000000000000000000000CF
:1001300000000000000000000000000000000000BF
:1001400000000000000000000000000000000000AF
:10015000000000000000000000000000000000009F
:10016000000000000000000000000000000000008F
:10017000000000000000000000000000000000007F
:10018000000000000000000000000000000000006F
:10019000000000000000000000000000000000005F
:1001A000000000000000000000000000000000004F
:1001B000000000000000000000000000000000003F
:1001C000000000000000000000000000000000002F
:1001D000000000000000000000000000000000001F
:1001E000000000000000000000000000000000000F
:1001F00000000000000000000000000000000000FF
:10020000FEE7FEE7FEE7FEE7FEE7FEE7FEE7FEE7C6
:10021000FEE7FEE700F002B8FFF7FCBF0A484FF028
:100220000701884385460948804709480949016014
:100230000948016841F470010160BFF34F8FBFF3BB
:100240006F8F00F00BB8000000000420BD16000006
:1002500008ED00E00000000088ED00E0334934487C
:100260000A1A02D0072291438D46324932480A1AAF
:1002700006D00722914381F30988022282F3148871
:100280002E482F492F4A00F03FF82F482F49304A77
:1002900000F03AF82F483049304A00F035F830483D
:1002A0003049314A00F030F830483149314A00F0E5
:1002B0002BF831483149324A00F026F831483249AA
:1002C000324A00F021F832483249002200F027F883
:1002D00031483249002200F022F831483149091AE8
:1002E00001F026FC1F482049884205D002680430EE
:1002F00003B4904703BCF7E700208646EC46002095
:100300000021294A9047FEE7884207D0521A05D0BB
:10031000037801300B700131013AF9D170478842FE
:1003200002D002700130FAE770470000000004209C
:1003300000E003200000042000000420481B00000F
:100340000000002020000020AC030000AC030000EF
:10035000441B0000481B000000000020000000209B
:10036000441B0000441B0000441B0000441B000011
:10037000441B0000441B0000441B0000441B000001
:10038000481B0000681B0000200000202000002007
:10039000200000206001002060010020600100209A
:0C03A0006001002060210020FB0900002B
:1003AC0000B585B000238DF80D3088220021B348AC
:1003BC0001F088FB00F021FBB149B24801F0B2FA20
:1003CC0001F0BEFAAD4B01221A70AF4800F064FD8B
:1003DC00AE4800F06BFDA94B7F2283F884200023EC
:1003EC008DF80F300AE09DF80F30A44A13442A22EE
:1003FC005A719DF80F3001338DF80F309F4B93F8E5
:10040C0084309DF80F209A42EDD3A14800F01EFFD6
:10041C0000F05AFF034603F6FF73184600F020FF66
:10042C0000F05AFF00F06CFD02210A2000F048FD9C
:10043C0000F0ECFD914B02221A71904BDB7843F0EB
:10044C000403DAB28D4BDA7001E000F0F7FA8B4B53
:10045C00DB78002BF9D02AE2884BDB7803F0010320
:10046C00002B12D0854B1B79012B04D0022B05D10C
:10047C0000F0AFFB02E000F0D3FB00BF7F4BDB785A
:10048C0023F00103DAB27D4BDA707C4BDB7803F09E
:10049C000203002B00F09E81784B1B79012B00F09E
:1004AC008881022B40F08F81744B7F2283F884204B
:1004BC00784B0193784B0093784B7F22784979489D
:1004CC0000F0D4FD00F018FD03468DF80C309DF8BB
:1004DC000C30DB098DF80B309DF80B30002B05D060
:1004EC009DF80C305B428DF80E3003E09DF80C301B
:1004FC008DF80E3000238DF80F30604B93F884305C
:10050C00694AA2FB0323DB08DAB29DF80F30591CB1
:10051C008DF80F10194602F13003DAB2634B5A54BE
:10052C00564B93F88420604BA3FB0213D9080B465F
:10053C009B000B445B00D31ADAB29DF80F30591CA8
:10054C008DF80F10194602F13003DAB2574B5A549A
:10055C009DF80F305A1C8DF80F201A46534B202152
:10056C009954464B5B79524AA2FB03235B09DAB2DE
:10057C009DF80F30591C8DF80F10194602F13003FD
:10058C00DAB24A4B5A543D4B5B79474AA2FB0323E0
:10059C00DB08DAB2444BA3FB0213D9080B469B00D1
:1005AC000B445B00D31ADAB29DF80F30591C8DF84E
:1005BC000F10194602F13003DAB23C4B5A542F4B50
:1005CC005A79394BA3FB0213D9080B469B000B44F9
:1005DC005B00D31ADAB29DF80F30591C8DF80F104E
:1005EC00194602F13003DAB2304B5A549DF80F30F1
:1005FC005A1C8DF80F201A462C4B202199541F4B56
:10060C0093F887209DF80F30591C8DF80F10194660
:10061C0002F13003DAB2254B5A549DF80F305A1CB4
:10062C008DF80F201A46214B20219954134B93F926
:10063C008530DB11DBB203F001038DF80B309DF834
:10064C000B30002B07D00D4B93F98530DBB25B429E
:10065C008DF80E3004E0094B93F985308DF80E308F
:10066C009DF80B30002B25D09DF80F305A1C8DF8BF
:10067C000F201A460D4B2D21995424E02800002000
:10068C00D509000095090000DD0800001D090000D7
:10069C005D090000AF000020AE000020AD0000207E
:1006AC00AC0000202D000020CDCCCCCC00000020D4
:1006BC001F85EB519DF80F305A1C8DF80F201A46F0
:1006CC007E4B2B2199549DF80E307D4AA2FB0323BF
:1006DC005B09DAB29DF80F30591C8DF80F101946D2
:1006EC0002F13003DAB2754B5A549DF80E30754A4C
:1006FC00A2FB0323DB08DAB2724BA3FB0213D9086B
:10070C000B469B000B445B00D31ADAB29DF80F30FA
:10071C00591C8DF80F10194602F13003DAB2674BF1
:10072C005A549DF80E20674BA3FB0213D9080B46B5
:10073C009B000B445B00D31ADAB29DF80F30591CA6
:10074C008DF80F10194602F13003DAB25B4B5A5494
:10075C009DF80F305A1C8DF80F201A46574B0D215F
:10076C0099549DF80F305A1C8DF80F201A46534B94
:10077C000A2199549DF80F305A1C8DF80F201A46F7
:10078C004E4B00219954504B1B78DBB2012B0DD1F1
:10079C004D4B00221A704C4B00229A704A4B9B789E
:1007AC001A46464B9B5C184601F0D2F800F009FA49
:1007BC0009E000F02BFC00F047FC434B02221A71BD
:1007CC0000F026FA00BF404BDB7823F00203DAB2CC
:1007DC003D4BDA703C4BDB7803F00403002B66D006
:1007EC00394B1B79022B5BD100F098FB364B7F22E7
:1007FC0083F8842000238DF80F309DF80D305A1C9F
:10080C008DF80D209DF80F20511C8DF80F101146FE
:10081C002D4A0A4453719DF80F305A1C8DF80F2045
:10082C001A46294B134465225A719DF80F305A1CF5
:10083C008DF80F201A46244B134473225A719DF8DD
:10084C000F305A1C8DF80F201A461F4B134474227C
:10085C005A719DF80F305A1C8DF80F201A461A4BFE
:10086C0013440A225A7109E09DF80F305A1C8DF876
:10087C000F201A46144B13442A225A71124B93F828
:10088C0084309DF80F209A42EED316210F4800F0C9
:10089C0063FB00F091FB00F0ADFB0B4B01221A71D6
:1008AC00094BDB7823F00403DAB2074BDA70064B02
:1008BC00DB78002B7FF4D0ADC9E500BF0000002031
:1008CC001F85EB51CDCCCCCC280000202D00002076
:1008DC0082B001900C4BDB7843F00103DAB20A4B87
:1008EC00DA700A4B1B780133DAB2084B1A70064BDC
:1008FC001B79022B05D1054BDB780133DAB2034BA4
:10090C00DA7000BF02B070472800002020000020E1
:10091C0082B001900C4BDB7843F00203DAB20A4B45
:10092C00DA700A4B5B780133DAB2084B5A70064B1B
:10093C001B79022B05D1054B1B790133DAB2034B22
:10094C001A7100BF02B07047280000202000002060
:10095C0008B50B4BDB7843F00403DAB2084BDA70C2
:10096C00084B9B780133DAB2064B9A7000F0ACFC62
:10097C00034603F6FF73184600F072FC00BF08BD77
:10098C00280000202000002008B50D4B9B78013377
:10099C00DAB20B4B9A700A4B9B781A46094B9B5C4C
:1009AC00002B08D0064B9B781A46064B9B5C1846CE
:1009BC0000F0CEFF02E0024B01221A7000BF08BD0E
:1009CC00280000200000002000B583B000F009F9D9
:1009DC0000F0E8FF03468DF807309DF80730184605
:1009EC0000F0B6FF0023184603B05DF804FB08B511
:1009FC00FFF7D6FC0346184608BD08B54FF08043F8
:100A0C000022C3F800214FF0804301221A6000BF7E
:100A1C004FF08043D3F80031002BF9D000F0B4F83C
:100A2C0000F028F800F036FF00F0B8FB00F0A4F955
:100A3C0000F066F800F006F800BF08BD20BF20BF2C
:100A4C0000BF704782B04FF08043D3F8403601931B
:100A5C00019B002B0BD104E04FF080430122C3F823
:100A6C0078254FF08043D3F87835002BF4D000BFB5
:100A7C0002B070474FF0A0434FF08062C3F81825C6
:100A8C004FF0A0434FF00062C3F818254FF0A0437D
:100A9C004FF08052C3F818254FF0A0434FF000528E
:100AAC00C3F818254FF0A0434FF08042C3F8182527
:100ABC004FF0A0434FF00042C3F8182500BF704719
:100ACC004FF0A0434FF08042C3F8082500BF704799
:100ADC004FF0A0434FF08042C3F80C2500BF704785
:100AEC004FF0A0434FF00042C3F8082500BF7047F9
:100AFC004FF0A0434FF00042C3F80C2500BF7047E5
:100B0C0008B5202000F022F8182000F01FF80E4B3A
:100B1C000022C3F800250C4B2022C3F808250A4BF1
:100B2C001822C3F80C25084B4FF0C862C3F82425D3
:100B3C00054B4FF49052C3F80022034B0622C3F826
:100B4C00002500BF08BD00BF0030004084B00190FC
:100B5C00019B1F2B05D84FF0A0430393019B0293DD
:100B6C0005E0084B0393019B03F01F030293039BC7
:100B7C00029A02F5E07240F20C6143F8221000BFB9
:100B8C0004B070470003005008B54FF0A0434FF479
:100B9C000052C3F818254FF0A0434FF48042C3F81D
:100BAC0018254FF0A0434FF40042C3F818254FF01E
:100BBC00A0434FF48032C3F8182500F051F800BF61
:100BCC0008BD4FF0A0434FF40052C3F8082500BFF6
:100BDC0070474FF0A0434FF40052C3F80C2500BFF0
:100BEC0070474FF0A043D3F8043503F40053002BA7
:100BFC0006D04FF0A0434FF40052C3F80C2505E08B
:100C0C004FF0A0434FF40052C3F8082500BF7047C3
:100C1C004FF0A0434FF48042C3F8082500BF704743
:100C2C004FF0A0434FF48042C3F80C2500BF70472F
:100C3C004FF0A0434FF40042C3F8082500BF7047A3
:100C4C004FF0A0434FF40042C3F80C2500BF70478F
:100C5C004FF0A0434FF48032C3F8082500BF704713
:100C6C0008B5FFF7E5FFFFF7D3FFFFF7F1FFFFF73D
:100C7C00A8FF00BF08BD000082B003468DF8073006
:100C8C009DF90730002B0CDB9DF8073003F01F0299
:100C9C0005499DF907305B09012000FA02F241F881
:100CAC00232000BF02B0704700E100E082B0034691
:100CBC008DF807309DF90730002B13DB9DF80730BA
:100CCC0003F01F0209499DF907305B09012000FA66
:100CDC0002F2203341F82320BFF34F8F00BFBFF344
:100CEC006F8F00BF00BF02B0704700BF00E100E093
:100CFC0082B003468DF807309DF90730002B0DDBD1
:100D0C009DF8073003F01F0206499DF907305B0977
:100D1C00012000FA02F2603341F8232000BF02B038
:100D2C00704700BF00E100E082B0034600918DF8EF
:100D3C0007309DF90730002B0ADB009BDAB20C4917
:100D4C009DF907305201D2B20B4483F800230BE01B
:100D5C00009BDAB207499DF8073003F00F03043B00
:100D6C005201D2B20B441A7600BF02B0704700BFDA
:100D7C0000E100E000ED00E008B5444B0F22C3F8A1
:100D8C001025424BD3F81435404A23F00F03C2F818
:100D9C0014353E4BD3F814353C4A43F00803C2F8E3
:100DAC0014353A4BD3F81435384A23F04073C2F853
:100DBC001435364BD3F81435344A43F00073C2F86B
:100DCC001435324BD3F81835304A23F0FF03C2F8F0
:100DDC0018352E4BD3F818352C4A43F07F03C2F844
:100DEC0018352A4BA722C3F86026284BD3F81435A4
:100DFC00264A23F08063C2F81435244BD3F81435FB
:100E0C00224A43F08063C2F81435204BD3F83435B2
:100E1C001E4A23F00303C2F834351C4BD3F8343587
:100E2C001A4A43F00203C2F83435184BD3F8343560
:100E3C00164A23F44073C2F83435144BD3F83435C6
:100E4C00124A43F40073C2F83435104B104AC3F8FD
:100E5C0038250E4B0022C3F83C250C4B0D4AC3F829
:100E6C0004250120FFF722FF084B44F20802C3F8C7
:100E7C00042300210120FFF757FF0120FFF738FF63
:100E8C000120FFF7F9FE00BF08BD00BF00100040B5
:100E9C0021100100C000002082B00190024A019B89
:100EAC00136000BF02B07047B000002082B0019008
:100EBC00024A019B536000BF02B07047B000002093
:100ECC0082B003460A468DF8073013468DF806307B
:100EDC009DF80730A3F10A0213469B001A44044BF9
:100EEC00C3F80825034B03221A7200BF02B07047E7
:100EFC0000100040B000002000231846704700008E
:100F0C00044B0122C3F8FC2F034B00221A7200BFC2
:100F1C00704700BF00100040B000002008B50C4B1B
:100F2C000D221A720B4B0022C3F81021094B01221F
:100F3C001A6100BF074BD3F81031002BFAD0FFF722
:100F4C0077FEFFF7D5FD024B01221A7200BF08BDD8
:100F5C00B00000200010004000B583B001900B469B
:100F6C00ADF80230104B04221A72BDF80230002B7F
:100F7C000FD0BDF802307F2B0BD8BDF80230DAB29F
:100F8C00094B1A74BDF802301A460199074800F053
:100F9C0063FD074B074AC3F80425034B05221A725D
:100FAC0000BF03B05DF804FBB0000020C1000020BE
:100FBC0000100040C000002008B50C4B06221A722D
:100FCC000B4B0022C3F80021094B01221A6000BF11
:100FDC00074BD3F80031002BFAD0FFF781FDFFF758
:100FEC002FFE024B07221A7200BF08BDB000002072
:100FFC0000100040034B01229A60034B08221A7226
:10100C0000BF704700100040B000002008B50C4B2A
:10101C0009221A720B4BD3F85035032B0ED0FFF765
:10102C007DFF084B0022C3F80021064B01225A60B9
:10103C0000BF044BD3F80031002BFAD000BF08BD21
:10104C00B00000200010004008B5064B01229A6049
:10105C00FFF746FDFFF7F4FD034B0A221A7200BF9F
:10106C0008BD00BF00100040B000002000B587B0E4
:10107C0003900291009313468DF80730224B1B7C92
:10108C008DF817309DF81730002B38D09DF917309C
:10109C00002B02DA7F238DF817309DF817209DF86E
:1010AC0007309A4203D99DF807308DF817309DF818
:1010BC0017301A461549039800F0CEFC029B9DF898
:1010CC0017201A70104B1B7C013B0F4A13441A7CDF
:1010DC00089B1A700E4BD3F84835DBB25B42DBB27F
:1010EC005AB2009B1A700A4BD3F80034012B0CBF78
:1010FC0001230023DBB21A46099B1A7000E000BFE3
:10110C0007B05DF804FB00BFB0000020C100002058
:10111C000010004000B583B0184BD3F80435019390
:10112C00174BD3F83831002B10D0154B01225A61D4
:10113C00144B1B68002B03D0124B1B68019898476B
:10114C000F4B0022C3F83821012313E00C4BD3F8CA
:10115C000C31002B0DD00B4B5B68002B03D0094BD3
:10116C005B6801989847064B0022C3F80C210123B9
:10117C0000E00023184603B05DF804FB00B000400B
:10118C0000100040B000002008B5FFF799FCFFF7F5
:10119C00C1FFFFF79DFC00BF08BD000008B5082289
:1011AC000021264800F08EFC254B002283F80B23EF
:1011BC00234B4FF400621A604FF080430122DA6037
:1011CC0000BF4FF08043D3F8183403F48033012B65
:1011DC00F7D01C4B0022C3F808254FF080430122A6
:1011EC00C3F818254FF0804301229A6000BF4FF0DE
:1011FC008043D3F8183403F48033002BF7D0114B11
:10120C000022C3F840210F4B4FF48032C3F8042363
:10121C000C4B01221A600A4B002283F81423084B52
:10122C004FF480121A60084B0022C3F80021064BC1
:10123C000122C3F8042300BF08BD00BF48010020F1
:10124C0000E100E000B000400040014082B001909D
:10125C00024A019B136000BF02B070474801002096
:10126C0084B00190154BD3F804350393039A019B7A
:10127C00D31A23F07F434FF6FE72934206D8104BDD
:10128C0001221A600F4B01221A7114E0019A039B80
:10129C00D31A23F07F43042B06D8094B01221A6082
:1012AC00084B02221A7106E0044A019BC2F8403531
:1012BC00044B00221A7100BF04B0704700B000400C
:1012CC000040014048010020024BD3F80435184679
:1012DC00704700BF00B00040034B4FF48032C3F89E
:1012EC00042300BF704700BF00B0004008B5FFF7F3
:1012FC00E7FB0A4BD3F84031002B0AD0074B0022F6
:10130C00C3F84021064B1B68002B02D0044B1B6812
:10131C009847FFF7DDFB00BF08BD00BF00B00040E1
:10132C004801002008B5FFF7CBFB0A4BD3F800317E
:10133C00002B0AD0074B0022C3F80021064B1B6878
:10134C00002B02D0044B1B689847FFF7C1FB00BF72
:10135C0008BD00BF004001404801002082B0164B80
:10136C001B680193154B1B680093019B082B1FD125
:10137C00009B052B1AD801A252F823F0A1130000F0
:10138C00A5130000A9130000AD130000B113000059
:10139C00B513000001230CE001230AE0012308E04F
:1013AC00012306E0012304E0012302E0012300E015
:1013BC000023184602B070473001001034010010B1
:1013CC0082B0164B1B680193154B1B680093019B55
:1013DC00082B1FD1009B052B1AD801A252F823F021
:1013EC0005140000091400000D1400001114000075
:1013FC00151400001914000001230CE001230AE06D
:10140C00012308E0012306E0012304E0012302E0AC
:10141C00012300E00023184602B070473001001091
:10142C003401001082B0164B1B680193154B1B68DE
:10143C000093019B082B1FD1009B052B1AD801A2EE
:10144C0052F823F0691400006D14000071140000B0
:10145C0075140000791400007D14000001230CE0C9
:10146C0000230AE0002308E0002306E0002304E048
:10147C00002302E0002300E00023184602B070476E
:10148C00300100103401001082B0164B1B68019320
:10149C00154B1B680093019B082B1FD1009B052B40
:1014AC001AD801A252F823F0CD140000D114000078
:1014BC00D5140000D9140000DD140000E114000064
:1014CC0001230CE000230AE0002308E0002306E0DF
:1014DC00002304E0002302E0002300E00023184670
:1014EC0002B07047300100103401001082B0164B6E
:1014FC001B680193154B1B680093019B082B1FD194
:10150C00009B052B1AD801A252F823F031150000CC
:10151C0035150000391500003D150000411500007F
:10152C004515000001230CE000230AE0002308E02D
:10153C00002306E0002304E0002302E0002300E087
:10154C000023184602B0704730010010340100101F
:10155C0082B0164B1B680193154B1B680093019BC3
:10156C00082B1FD1009B052B1AD801A252F823F08F
:10157C0095150000991500009D150000A11500009F
:10158C00A5150000A915000001230CE000230AE0BA
:10159C00002308E0002306E0002304E0002302E01F
:1015AC00002300E00023184602B070473001001001
:1015BC003401001082B0164B1B680193154B1B684D
:1015CC000093019B082B1FD1009B052B1AD801A25D
:1015DC0052F823F0F9150000FD150000011600006B
:1015EC0005160000091600000D16000001230CE082
:1015FC0001230AE0012308E0012306E0012304E0B3
:10160C00012302E0012300E00023184602B07047DA
:10161C00300100103401001082B0164B1B6801938E
:10162C00154B1B680093019B082B1FD1009B052BAE
:10163C001AD801A252F823F05D16000061160000C2
:10164C0065160000691600006D160000711600008A
:10165C0000230CE000230AE0002308E0002306E04E
:10166C00012304E0012302E0012300E000231846DB
:10167C0002B07047300100103401001008B5FFF7BC
:10168C00CBFF0346002B07D04FF010234FF08042C6
:10169C00D3F80832C2F8583500BF08BD024B034AD4
:1016AC001A6000BF704700BF1C0000200090D003E0
:1016BC0008B5FFF753FE0346002B0ED04FF08043C6
:1016CC000022C3F80C214FF080430022C3F81021F4
:1016DC004FF080430022C3F83825FFF771FE034614
:1016EC00002B76D04FF08053624AD3F80434C2F802
:1016FC0020354FF080535F4AD3F80834C2F82435B4
:10170C004FF080535B4AD3F80C34C2F828354FF0B5
:10171C008053584AD3F81034C2F82C354FF080530C
:10172C00544AD3F81434C2F830354FF08053514A30
:10173C00D3F81834C2F834354FF080534D4AD3F8EF
:10174C001C34C2F840354FF080534A4AD3F8203449
:10175C00C2F844354FF08053464AD3F82434C2F8CB
:10176C0048354FF08053434AD3F82834C2F84C35EF
:10177C004FF080533F4AD3F82C34C2F850354FF019
:10178C0080533C4AD3F83034C2F854354FF0805370
:10179C00384AD3F83434C2F860354FF08053354AA8
:1017AC00D3F83834C2F864354FF08053314AD3F84B
:1017BC003C34C2F868354FF080532E4AD3F840348D
:1017CC00C2F86C354FF080532A4AD3F84434C2F82F
:1017DC007035FFF727FE0346002B02D0264B274A15
:1017EC001A60FFF751FE0346002B03D0244BFB225B
:1017FC00C3F81825FFF77AFE0346002B0AD0214BBD
:10180C001B6823F00F02204B1B6803F00F031D49CC
:10181C0013430B60FFF79CFE0346002B03D01B4BBE
:10182C004FF400721A60FFF7C5FE0346002B0DD073
:10183C004FF08043D3F8003403F00103002B05D0A4
:10184C004FF080436FF00102C3F80024104BD3F823
:10185C0088300F4A43F47003C2F88830BFF34F8FBF
:10186C0000BFBFF36F8F00BFFFF708FFFFF716FF36
:10187C0000BF08BD00C000408C56004048810300EA
:10188C0000F00040E40E0040580200104096024068
:10189C0000ED00E008B50C2200211E4800F012F902
:1018AC004FF0A0430322C3F818274FF0A0430022A7
:1018BC00C3F82027184B0622C3F80C25164B082218
:1018CC00C3F81425144B0022C3F86C25124B134A91
:1018DC00C3F82425104B0022C3F81C210E4B002208
:1018EC00C3F808210C4B8422C3F804230C4B402270
:1018FC0083F802230A4B04221A60074B0422C3F814
:10190C000025054B01229A60034B01221A6000BF8F
:10191C0008BD00BF500100200020004000E0D701AE
:10192C0000E100E082B001900091044A019B136039
:10193C00024A009B536000BF02B070475001002068
:10194C00024B8422C3F8042300BF704700200040E0
:10195C0082B003468DF807309DF80730112B07D065
:10196C009DF80730132B03D09DF80730122B0BD1A9
:10197C000A4B01221A72094A9DF807305372084B20
:10198C001222C3F81C2505E0054A9DF80730C2F861
:10199C001C3500BF00BF02B0704700BF50010020D3
:1019AC0000200040024BD3F81835DBB218467047C4
:1019BC000020004008B5FFF783F80D4BD3F8083131
:1019CC00002B05D00A4B0022C3F8082100F034F894
:1019DC00074BD3F81C31002B05D0054B0022C3F864
:1019EC001C2100F007F8FFF773F800BF08BD00BF1B
:1019FC000020004008B50E4B1B7A012B0BD10C4B71
:101A0C0000221A720A4B5B7A83F01003DAB2094B8C
:101A1C00C3F81C2508E0064B1B68002B04D0044BB4
:101A2C001B689847012300E00023184608BD00BF3F
:101A3C00500100200020004008B5064B5B68002BCD
:101A4C0004D0044B5B689847012300E00023184640
:101A5C0008BD00BF5001002072B3844690EA010318
:101A6C009B0721D1830709D011F8013B00F8013BFA
:101A7C00013A20D08307F7D100E08446202A0AD30C
:101A8C002DE9F007B1E8F807A0E8F807203A202A7A
:101A9C00F8D2BDE8F007042A06D351F8043B40F80D
:101AAC00043B043A042AF8D22AB111F8013B00F89D
:101ABC00013B013AF9D16046704700BF00220B0090
:101ACC0011001A0084465AB3830704D000F8011B96
:101ADC00013AF9D124E0C9B241EA012141EA0141BC
:101AEC00202A11D3203A2DE9F0030B460C460D4663
:101AFC000E460F4688468946A0E8FA03203AFBD2E8
:101B0C00BDE8F00320320BD0042A05D340F8041BA7
:101B1C00043A05D0042AF9D200F8011B013AFBD192
:101B2C0060467047072904D90023024AC0E90031F6
:081B3C00106070475C010020FD
:101B48002B3030322050746573742E32342E30307E
:101B58002E31322E2D3031300A0000000090D00393
:0400000300000219DE
:00000001FF
