:1000000000000420190200000102000003020000A9
:1000100005020000070200000902000000000000C5
:100020000000000000000000000000000B020000C3
:100030000D020000000000000F020000110200008D
:1000400013020000890900001111000013020000D2
:10005000130200001302000013020000130200004C
:10006000130200001302000013020000D90A00006E
:10007000130200001302000013020000130200002C
:10008000130200001302000013020000130200001C
:10009000110B000013020000130200001302000005
:1000A00013020000130200001302000013020000FC
:1000B0001302000013020000000000000000000016
:1000C00013020000130200001302000013020000DC
:1000D00013020000130200001302000013020000CC
:1000E00013020000130200001302000000000000D1
:1000F00000000000130200000000000013020000D6
:1001000000000000000000000000000000000000EF
:1001100000000000000000000000000000000000DF
:1001200000000000000000000000000000000000CF
:1001300000000000000000000000000000000000BF
:1001400000000000000000000000000000000000AF
:10015000000000000000000000000000000000009F
:10016000000000000000000000000000000000008F
:10017000000000000000000000000000000000007F
:10018000000000000000000000000000000000006F
:10019000000000000000000000000000000000005F
:1001A000000000000000000000000000000000004F
:1001B000000000000000000000000000000000003F
:1001C000000000000000000000000000000000002F
:1001D000000000000000000000000000000000001F
:1001E000000000000000000000000000000000000F
:1001F00000000000000000000000000000000000FF
:10020000FEE7FEE7FEE7FEE7FEE7FEE7FEE7FEE7C6
:10021000FEE7FEE700F002B8FFF7FCBF0A484FF028
:100220000701884385460948804709480949016014
:100230000948016841F470010160BFF34F8FBFF3BB
:100240006F8F00F00BB80000000004209D0E00002E
:1002500008ED00E00000000088ED00E0334934487C
:100260000A1A02D0072291438D46324932480A1AAF
:1002700006D00722914381F30988022282F3148871
:100280002E482F492F4A00F03FF82F482F49304A77
:1002900000F03AF82F483049304A00F035F830483D
:1002A0003049314A00F030F830483149314A00F0E5
:1002B0002BF831483149324A00F026F831483249AA
:1002C000324A00F021F832483249002200F027F883
:1002D00031483249002200F022F831483149091AE8
:1002E00000F09CFF1F482049884205D00268043076
:1002F00003B4904703BCF7E700208646EC46002095
:100300000021294A9047FEE7884207D0521A05D0BB
:10031000037801300B700131013AF9D170478842FE
:1003200002D002700130FAE770470000000004209C
:1003300000E003200000042000000420341200002C
:100340000000002004000020AC030000AC0300000B
:1003500030120000341200000000002000000020D5
:100360003012000030120000301200003012000085
:100370003012000030120000301200003012000075
:100380003412000038120000040000200400002095
:1003900004000020B8000020B8000020B8000020B1
:0C03A000B8000020B820002095040000E8
:1003AC0000B583B000F076F8184800F049FB00F077
:1003BC0085FB034603F26663184600F04BFB00F026
:1003CC0064F900F027F800F040F900F023F800235E
:1003DC008DF807300EE000BF0D4B1B78012BFBD1C5
:1003EC0000F05EF90A4B00221A709DF807300133B9
:1003FC008DF807309DF80730082BECD900F06BF81E
:10040C000023184603B05DF804FB00BF4D04000048
:10041C000400002082B04FF6FF73ADF8063006E002
:10042C00BDF806309BB2013B9BB2ADF80630BDF86F
:10043C0006309BB2002BF3D100BF00BF02B0704757
:10044C0008B5064B01221A7000F038FB034603F284
:10045C006663184600F0FEFA00BF08BD04000020D9
:10046C00BFF34F8F00BF064BDB6803F4E062044917
:10047C00044B1343CB60BFF34F8F00BF00BFFDE7AE
:10048C0000ED00E00400FA0508B5FFF789FF03460C
:10049C00184608BD08B54FF080430022C3F8002170
:1004AC004FF0804301221A6000BF4FF08043D3F815
:1004BC000031002BF9D000F0A3F800F027F800F081
:1004CC00D9FD00F065FA00F08FF900F055F800F056
:1004DC0005F800BF08BD08B5FFF7C2FF82B04FF0AA
:1004EC008043D3F840360193019B002B0BD104E0E1
:1004FC004FF080430122C3F878254FF08043D3F8A6
:10050C007835002BF4D000BF02B070474FF0A043F9
:10051C004FF08062C3F818254FF0A0434FF00062F3
:10052C00C3F818254FF0A0434FF08052C3F818259C
:10053C004FF0A0434FF00052C3F818254FF0A043E2
:10054C004FF08042C3F818254FF0A0434FF0004203
:10055C00C3F8182500BF70474FF0A0434FF08042FE
:10056C00C3F8082500BF70474FF0A0434FF08042FE
:10057C00C3F80C2500BF704708B5202000F022F806
:10058C00182000F01FF80E4B0022C3F800250C4B6E
:10059C002022C3F808250A4B1822C3F80C25084B57
:1005AC004FF0C862C3F82425054B4FF49052C3F8A2
:1005BC000022034B0622C3F8002500BF08BD00BF74
:1005CC000030004084B00190019B1F2B05D84FF0E8
:1005DC00A0430393019B029305E0084B0393019BFB
:1005EC0003F01F030293039B029A02F5E07240F2A0
:1005FC000C6143F8221000BF04B070470003005098
:10060C0008B54FF0A0434FF40052C3F818254FF033
:10061C00A0434FF48042C3F818254FF0A0434FF489
:10062C000042C3F818254FF0A0434FF48032C3F8B2
:10063C00182500F02AF800BF08BD4FF0A0434FF476
:10064C000052C3F8082500BF70474FF0A0434FF489
:10065C000052C3F80C2500BF70474FF0A0434FF475
:10066C008042C3F8082500BF70474FF0A0434FF4F9
:10067C000042C3F8082500BF70474FF0A0434FF469
:10068C008032C3F8082500BF704708B5FFF7EDFFAF
:10069C00FFF7E3FFFFF7F1FFFFF7CFFF00BF08BD48
:1006AC0000B585B04FF0A043D3F8043503F4F03314
:1006BC0003934FF0A043D3F80435DB0803F4005345
:1006CC000293039B5B0003F4F033029A13430193F0
:1006DC00FFF7DBFF4FF0A042019BDB43C2F80C3568
:1006EC0000BF05B05DF804FB82B003468DF80730FF
:1006FC009DF90730002B0CDB9DF8073003F01F022F
:10070C0005499DF907305B09012000FA02F241F816
:10071C00232000BF02B0704700E100E082B0034626
:10072C008DF807309DF90730002B13DB9DF807304F
:10073C0003F01F0209499DF907305B09012000FAFB
:10074C0002F2203341F82320BFF34F8F00BFBFF3D9
:10075C006F8F00BF00BF02B0704700BF00E100E028
:10076C0082B003468DF807309DF90730002B0DDB66
:10077C009DF8073003F01F0206499DF907305B090D
:10078C00012000FA02F2603341F8232000BF02B0CE
:10079C00704700BF00E100E082B0034600918DF885
:1007AC0007309DF90730002B0ADB009BDAB20C49AD
:1007BC009DF907305201D2B20B4483F800230BE0B1
:1007CC00009BDAB207499DF8073003F00F03043B96
:1007DC005201D2B20B441A7600BF02B0704700BF70
:1007EC0000E100E000ED00E008B5444B0F22C3F837
:1007FC001025424BD3F81435404A23F00F03C2F8AE
:10080C0014353E4BD3F814353C4A43F00803C2F878
:10081C0014353A4BD3F81435384A23F04073C2F8E8
:10082C001435364BD3F81435344A43F00073C2F800
:10083C001435324BD3F81835304A23F0FF03C2F885
:10084C0018352E4BD3F818352C4A43F07F03C2F8D9
:10085C0018352A4BA722C3F86026284BD3F8143539
:10086C00264A23F08063C2F81435244BD3F8143590
:10087C00224A43F08063C2F81435204BD3F8343548
:10088C001E4A23F00303C2F834351C4BD3F834351D
:10089C001A4A43F00203C2F83435184BD3F83435F6
:1008AC00164A23F44073C2F83435144BD3F834355C
:1008BC00124A43F40073C2F83435104B104AC3F893
:1008CC0038250E4B0022C3F83C250C4B0D4AC3F8BF
:1008DC0004250120FFF722FF084B44F20802C3F85D
:1008EC00042300210120FFF757FF0120FFF738FFF9
:1008FC000120FFF7F9FE00BF08BD00BF001000404B
:10090C00211001001800002000B583B0184BD3F85B
:10091C0004350193174BD3F83831002B10D0154BFD
:10092C0001225A61144B1B68002B03D0124B1B681D
:10093C00019898470F4B0022C3F83821012313E08C
:10094C000C4BD3F80C31002B0DD00B4B5B68002BF0
:10095C0003D0094B5B6801989847064B0022C3F8FB
:10096C000C21012300E00023184603B05DF804FBC2
:10097C0000B00040001000400800002008B5FFF750
:10098C00EBFDFFF7C1FFFFF7EFFD00BF08BD000057
:10099C0008B508220021264800F00AFC254B00224D
:1009AC0083F80B23234B4FF400621A604FF0804303
:1009BC000122DA6000BF4FF08043D3F8183403F4FF
:1009CC008033012BF7D01C4B0022C3F808254FF0C5
:1009DC0080430122C3F818254FF0804301229A600E
:1009EC0000BF4FF08043D3F8183403F48033002B4E
:1009FC00F7D0114B0022C3F840210F4B4FF480323B
:100A0C00C3F804230C4B01221A600A4B002283F812
:100A1C001423084B4FF480121A60084B0022C3F8C1
:100A2C000021064B0122C3F8042300BF08BD00BF00
:100A3C00A000002000E100E000B0004000400140B8
:100A4C0082B00190024A019B136000BF02B0704754
:100A5C00A000002084B00190154BD3F8043503930B
:100A6C00039A019BD31A23F07F434FF6FE729342F5
:100A7C0006D8104B01221A600F4B01221A7114E098
:100A8C00019A039BD31A23F07F43042B06D8094BFE
:100A9C0001221A60084B02221A7106E0044A019BDB
:100AAC00C2F84035044B00221A7100BF04B07047E5
:100ABC0000B0004000400140A0000020024BD3F8E1
:100ACC0004351846704700BF00B0004008B5FFF76A
:100ADC0043FD0A4BD3F84031002B0AD0074B0022C0
:100AEC00C3F84021064B1B68002B02D0044B1B683B
:100AFC009847FFF739FD00BF08BD00BF00B00040AC
:100B0C00A000002008B5FFF727FD0A4BD3F80031F1
:100B1C00002B0AD0074B0022C3F80021064B1B68A0
:100B2C00002B02D0044B1B689847FFF71DFD00BF3C
:100B3C0008BD00BF00400140A000002082B0164B51
:100B4C001B680193154B1B680093019B082B1FD14D
:100B5C00009B052B1AD801A252F823F0810B000040
:100B6C00850B0000890B00008D0B0000910B000021
:100B7C00950B000001230CE001230AE0012308E09F
:100B8C00012306E0012304E0012302E0012300E03D
:100B9C000023184602B070473001001034010010D9
:100BAC0082B0164B1B680193154B1B680093019B7D
:100BBC00082B1FD1009B052B1AD801A252F823F049
:100BCC00E50B0000E90B0000ED0B0000F10B000041
:100BDC00F50B0000F90B000001230CE001230AE0E7
:100BEC00012308E0012306E0012304E0012302E0D5
:100BFC00012300E00023184602B0704730010010BA
:100C0C003401001082B0164B1B680193154B1B6806
:100C1C000093019B082B1FD1009B052B1AD801A216
:100C2C0052F823F0490C00004D0C0000510C000050
:100C3C00550C0000590C00005D0C000001230CE069
:100C4C0000230AE0002308E0002306E0002304E070
:100C5C00002302E0002300E00023184602B0704796
:100C6C00300100103401001082B0164B1B68019348
:100C7C00154B1B680093019B082B1FD1009B052B68
:100C8C001AD801A252F823F0AD0C0000B10C0000F0
:100C9C00B50C0000B90C0000BD0C0000C10C00002C
:100CAC0001230CE000230AE0002308E0002306E007
:100CBC00002304E0002302E0002300E00023184698
:100CCC0002B07047300100103401001082B0164B96
:100CDC001B680193154B1B680093019B082B1FD1BC
:100CEC00009B052B1AD801A252F823F0110D00001D
:100CFC00150D0000190D00001D0D0000210D000048
:100D0C00250D000001230CE000230AE0002308E07D
:100D1C00002306E0002304E0002302E0002300E0AF
:100D2C000023184602B07047300100103401001047
:100D3C0082B0164B1B680193154B1B680093019BEB
:100D4C00082B1FD1009B052B1AD801A252F823F0B7
:100D5C00750D0000790D00007D0D0000810D000067
:100D6C00850D0000890D000001230CE000230AE032
:100D7C00002308E0002306E0002304E0002302E047
:100D8C00002300E00023184602B070473001001029
:100D9C003401001082B0164B1B680193154B1B6875
:100DAC000093019B082B1FD1009B052B1AD801A285
:100DBC0052F823F0D90D0000DD0D0000E10D00000C
:100DCC00E50D0000E90D0000ED0D000001230CE025
:100DDC0001230AE0012308E0012306E0012304E0DB
:100DEC00012302E0012300E00023184602B0704703
:100DFC00300100103401001082B0164B1B680193B7
:100E0C00154B1B680093019B082B1FD1009B052BD6
:100E1C001AD801A252F823F03D0E0000410E00003A
:100E2C00450E0000490E00004D0E0000510E000052
:100E3C0000230CE000230AE0002308E0002306E076
:100E4C00012304E0012302E0012300E00023184603
:100E5C0002B07047300100103401001008B5FFF7E4
:100E6C00CBFF0346002B07D04FF010234FF08042EE
:100E7C00D3F80832C2F8583500BF08BD024B034AFC
:100E8C001A6000BF704700BF000000200090D00324
:100E9C0008B5FFF753FE0346002B0ED04FF08043EE
:100EAC000022C3F80C214FF080430022C3F810211C
:100EBC004FF080430022C3F83825FFF771FE03463C
:100ECC00002B76D04FF08053624AD3F80434C2F82A
:100EDC0020354FF080535F4AD3F80834C2F82435DC
:100EEC004FF080535B4AD3F80C34C2F828354FF0DE
:100EFC008053584AD3F81034C2F82C354FF0805335
:100F0C00544AD3F81434C2F830354FF08053514A58
:100F1C00D3F81834C2F834354FF080534D4AD3F817
:100F2C001C34C2F840354FF080534A4AD3F8203471
:100F3C00C2F844354FF08053464AD3F82434C2F8F3
:100F4C0048354FF08053434AD3F82834C2F84C3517
:100F5C004FF080533F4AD3F82C34C2F850354FF041
:100F6C0080533C4AD3F83034C2F854354FF0805398
:100F7C00384AD3F83434C2F860354FF08053354AD0
:100F8C00D3F83834C2F864354FF08053314AD3F873
:100F9C003C34C2F868354FF080532E4AD3F84034B5
:100FAC00C2F86C354FF080532A4AD3F84434C2F857
:100FBC007035FFF727FE0346002B02D0264B274A3D
:100FCC001A60FFF751FE0346002B03D0244BFB2283
:100FDC00C3F81825FFF77AFE0346002B0AD0214BE5
:100FEC001B6823F00F02204B1B6803F00F031D49F5
:100FFC0013430B60FFF79CFE0346002B03D01B4BE7
:10100C004FF400721A60FFF7C5FE0346002B0DD09B
:10101C004FF08043D3F8003403F00103002B05D0CC
:10102C004FF080436FF00102C3F80024104BD3F84B
:10103C0088300F4A43F47003C2F88830BFF34F8FE7
:10104C0000BFBFF36F8F00BFFFF708FFFFF716FF5E
:10105C0000BF08BD00C000408C5600404881030012
:10106C0000F00040E40E0040580200104096024090
:10107C0000ED00E008B50C2200211E4800F098F8A5
:10108C004FF0A0430322C3F818274FF0A0430022CF
:10109C00C3F82027184B0622C3F80C25164B082240
:1010AC00C3F81425144B0022C3F86C25124B134AB9
:1010BC00C3F82425104B0022C3F81C210E4B002230
:1010CC00C3F808210C4B8422C3F804230C4B402298
:1010DC0083F802230A4B04221A60074B0422C3F83C
:1010EC000025054B01229A60034B01221A6000BFB8
:1010FC0008BD00BFA80000200020004000E0D70180
:10110C0000E100E008B5FFF727FA0D4BD3F80831E2
:10111C00002B05D00A4B0022C3F8082100F034F84C
:10112C00074BD3F81C31002B05D0054B0022C3F81C
:10113C001C2100F007F8FFF717FA00BF08BD00BF2D
:10114C000020004008B50E4B1B7A012B0BD10C4B29
:10115C0000221A720A4B5B7A83F01003DAB2094B45
:10116C00C3F81C2508E0064B1B68002B04D0044B6D
:10117C001B689847012300E00023184608BD00BFF8
:10118C00A80000200020004008B5064B5B68002B2F
:10119C0004D0044B5B689847012300E000231846F9
:1011AC0008BD00BFA800002000220B0011001A008F
:1011BC0084465AB3830704D000F8011B013AF9D1D5
:1011CC0024E0C9B241EA012141EA0141202A11D3AC
:1011DC00203A2DE9F0030B460C460D460E460F4601
:1011EC0088468946A0E8FA03203AFBD2BDE8F00312
:1011FC0020320BD0042A05D340F8041B043A05D046
:10120C00042AF9D200F8011B013AFBD16046704761
:10121C00072904D90023024AC0E900311060704745
:04122C00B4000020EA
:041234000090D00353
:0400000300000219DE
:00000001FF
