:1000000000000420190200000102000003020000A9
:1000100005020000070200000902000000000000C5
:100020000000000000000000000000000B020000C3
:100030000D020000000000000F020000110200008D
:1000400013020000450A000089120000130200009C
:10005000130200001302000013020000130200004C
:10006000130200001302000013020000950B0000B1
:10007000130200001302000013020000130200002C
:10008000130200001302000013020000130200001C
:10009000CD0B000013020000130200001302000049
:1000A00013020000130200001302000013020000FC
:1000B0001302000013020000000000000000000016
:1000C00013020000130200001302000013020000DC
:1000D00013020000130200001302000013020000CC
:1000E00013020000130200001302000000000000D1
:1000F00000000000130200000000000013020000D6
:1001000000000000000000000000000000000000EF
:1001100000000000000000000000000000000000DF
:1001200000000000000000000000000000000000CF
:1001300000000000000000000000000000000000BF
:1001400000000000000000000000000000000000AF
:10015000000000000000000000000000000000009F
:10016000000000000000000000000000000000008F
:10017000000000000000000000000000000000007F
:10018000000000000000000000000000000000006F
:10019000000000000000000000000000000000005F
:1001A000000000000000000000000000000000004F
:1001B000000000000000000000000000000000003F
:1001C000000000000000000000000000000000002F
:1001D000000000000000000000000000000000001F
:1001E000000000000000000000000000000000000F
:1001F00000000000000000000000000000000000FF
:10020000FEE7FEE7FEE7FEE7FEE7FEE7FEE7FEE7C6
:10021000FEE7FEE700F002B8FFF7FCBF0A484FF028
:100220000701884385460948804709480949016014
:100230000948016841F470010160BFF34F8FBFF3BB
:100240006F8F00F00BB8000000000420590F000071
:1002500008ED00E00000000088ED00E0334934487C
:100260000A1A02D0072291438D46324932480A1AAF
:1002700006D00722914381F30988022282F3148871
:100280002E482F492F4A00F03FF82F482F49304A77
:1002900000F03AF82F483049304A00F035F830483D
:1002A0003049314A00F030F830483149314A00F0E5
:1002B0002BF831483149324A00F026F831483249AA
:1002C000324A00F021F832483249002200F027F883
:1002D00031483249002200F022F831483149091AE8
:1002E00002F048FE1F482049884205D002680430C9
:1002F00003B4904703BCF7E700208646EC46002095
:100300000021294A9047FEE7884207D0521A05D0BB
:10031000037801300B700131013AF9D170478842FE
:1003200002D002700130FAE770470000000004209C
:1003300000E003200000042000000420043400003A
:10034000000000202C000020AC030000AC030000E3
:10035000882F00000434000000000020000000206E
:10036000882F0000882F0000882F0000882F0000B1
:10037000882F0000882F0000882F0000882F0000A1
:1003800004340000303400002C0000202C00002039
:100390002C00002084070020840700208407002010
:0C03A000840700208427002009050000CD
:1003AC0008B513220021124802F044F900F0ACF811
:1003BC0000F0D2FF0F4800F0A1FB00F0DDFB03467C
:1003CC0003F5A473184600F0A3FB00F0BEF800F090
:1003DC0001F9074B1B78012B06D1054B00221A7033
:1003EC000549064801F00EF900F0FCF8EDE700BFF6
:1003FC002C0000200D04000000000020882F0000BD
:10040C0008B5064B01221A7000F0B6FB034603F543
:10041C00A473184600F07CFB00BF08BD2C00002024
:10042C0082B003468DF80730014B184602B0704776
:10043C002E00002082B001900B468DF8033000BFD7
:10044C0002B0704782B00190019B00221A70019B90
:10045C00013301221A70019B023302221A70019B94
:10046C00033303221A70019B043304221A7000BF59
:10047C0002B0704700BF704782B001900B468DF8F8
:10048C00033000BF02B0704700BF7047002318460E
:10049C007047002318467047002318467047002306
:1004AC0018467047002318467047002318467047BB
:1004BC00002318467047002318467047002318463F
:1004CC0070470023184670470023184670470023D6
:1004DC0018467047BFF34F8F00BF064BDB6803F421
:1004EC00E0620449044B1343CB60BFF34F8F00BF52
:1004FC0000BFFDE700ED00E00400FA0508B5FFF7CA
:10050C004FFF0346184608BD08B54FF08043002244
:10051C00C3F800214FF0804301221A6000BF4FF056
:10052C008043D3F80031002BF9D000F0B7F800F07D
:10053C002BF800F0FDFD00F089FA00F0B3F900F0A3
:10054C0069F800F009F800BF08BD20BF20BF00BF4C
:10055C00704708B5FFF7BEFF82B04FF08043D3F869
:10056C0040360193019B002B0BD104E04FF08043EC
:10057C000122C3F878254FF08043D3F87835002B4F
:10058C00F4D000BF02B070474FF0A0434FF0806230
:10059C00C3F818254FF0A0434FF00062C3F818259C
:1005AC004FF0A0434FF08052C3F818254FF0A043F2
:1005BC004FF00052C3F818254FF0A0434FF0804283
:1005CC00C3F818254FF0A0434FF00042C3F818258C
:1005DC0000BF70474FF0A0434FF00052C3F80825FE
:1005EC0000BF70474FF0A0434FF00052C3F80C25EA
:1005FC0000BF70474FF0A0434FF08042C3F808256E
:10060C0000BF70474FF0A0434FF08042C3F80C2559
:10061C0000BF704708B5202000F022F8182000F029
:10062C001FF80E4B0022C3F800250C4B2022C3F8F8
:10063C0008250A4B1822C3F80C25084B4FF0C8624A
:10064C00C3F82425054B4FF49052C3F80022034BFA
:10065C000622C3F8002500BF08BD00BF00300040D3
:10066C0084B00190019B1F2B05D84FF0A04303933E
:10067C00019B029305E0084B0393019B03F01F03BE
:10068C000293039B029A02F5E07240F20C6143F86C
:10069C00221000BF04B070470003005008B54FF0A3
:1006AC00A0434FF40052C3F818254FF0A0434FF469
:1006BC008042C3F818254FF0A0434FF40042C3F812
:1006CC0018254FF0A0434FF48032C3F8182500F0E2
:1006DC0039F800BF08BD4FF0A0434FF40052C3F8E7
:1006EC00082500BF70474FF0A043D3F8043503F43E
:1006FC000053002B06D04FF0A0434FF40052C3F828
:10070C000C2505E04FF0A0434FF40052C3F8082528
:10071C0000BF70474FF0A0434FF48042C3F8082548
:10072C0000BF70474FF0A0434FF40042C3F80825B8
:10073C0000BF70474FF0A0434FF48032C3F8082538
:10074C0000BF704708B5FFF7EDFFFFF7E3FFFFF7BA
:10075C00F1FFFFF7C0FF00BF08BD000000B583B07C
:10076C00FFF7F0FF00238DF8073010E0FFF7BBFF19
:10077C000023009302E0009B01330093009B084A86
:10078C009342F8D99DF8073001338DF807309DF866
:10079C000730632BEAD900BF00BF03B05DF804FB40
:1007AC00FEFF010082B003468DF807309DF907303B
:1007BC00002B0CDB9DF8073003F01F0205499DF957
:1007CC0007305B09012000FA02F241F8232000BF38
:1007DC0002B0704700E100E082B003468DF80730AC
:1007EC009DF90730002B13DB9DF8073003F01F0237
:1007FC0009499DF907305B09012000FA02F2203308
:10080C0041F82320BFF34F8F00BFBFF36F8F00BFA2
:10081C0000BF02B0704700BF00E100E082B00346A9
:10082C008DF807309DF90730002B0DDB9DF8073054
:10083C0003F01F0206499DF907305B09012000FAFD
:10084C0002F2603341F8232000BF02B0704700BFB2
:10085C0000E100E082B0034600918DF807309DF96D
:10086C000730002B0ADB009BDAB20C499DF90730EC
:10087C005201D2B20B4483F800230BE0009BDAB296
:10088C0007499DF8073003F00F03043B5201D2B225
:10089C000B441A7600BF02B0704700BF00E100E0C5
:1008AC0000ED00E008B5444B0F22C3F81025424B75
:1008BC00D3F81435404A23F00F03C2F814353E4BDD
:1008CC00D3F814353C4A43F00803C2F814353A4BBC
:1008DC00D3F81435384A23F04073C2F81435364B2C
:1008EC00D3F81435344A43F00073C2F81435324B44
:1008FC00D3F81835304A23F0FF03C2F818352E4BC5
:10090C00D3F818352C4A43F07F03C2F818352A4B1C
:10091C00A722C3F86026284BD3F81435264A23F0B7
:10092C008063C2F81435244BD3F81435224A43F0B3
:10093C008063C2F81435204BD3F834351E4A23F0AB
:10094C000303C2F834351C4BD3F834351A4A43F040
:10095C000203C2F83435184BD3F83435164A23F455
:10096C004073C2F83435144BD3F83435124A43F47F
:10097C000073C2F83435104B104AC3F838250E4BAF
:10098C000022C3F83C250C4B0D4AC3F8042501206A
:10099C00FFF722FF084B44F20802C3F8042300219E
:1009AC000120FFF757FF0120FFF738FF0120FFF769
:1009BC00F9FE00BF08BD00BF00100040211001006F
:1009CC005000002000B583B0184BD3F804350193C8
:1009DC00174BD3F83831002B10D0154B01225A612C
:1009EC00144B1B68002B03D0124B1B6801989847C3
:1009FC000F4B0022C3F83821012313E00C4BD3F822
:100A0C000C31002B0DD00B4B5B68002B03D0094B2A
:100A1C005B6801989847064B0022C3F80C21012310
:100A2C0000E00023184603B05DF804FB00B0004062
:100A3C00001000404000002008B5FFF7DBFDFFF779
:100A4C00C1FFFFF7DFFD00BF08BD000008B508229D
:100A5C000021264801F0EEFD254B002283F80B23E4
:100A6C00234B4FF400621A604FF080430122DA608E
:100A7C0000BF4FF08043D3F8183403F48033012BBC
:100A8C00F7D01C4B0022C3F808254FF080430122FD
:100A9C00C3F818254FF0804301229A6000BF4FF035
:100AAC008043D3F8183403F48033002BF7D0114B68
:100ABC000022C3F840210F4B4FF48032C3F80423BB
:100ACC000C4B01221A600A4B002283F81423084BAA
:100ADC004FF480121A60084B0022C3F80021064B19
:100AEC000122C3F8042300BF08BD00BFD8000020BA
:100AFC0000E100E000B000400040014082B00190F5
:100B0C00024A019B136000BF02B07047D80000205E
:100B1C0084B00190154BD3F804350393039A019BD1
:100B2C00D31A23F07F434FF6FE72934206D8104B34
:100B3C0001221A600F4B01221A7114E0019A039BD7
:100B4C00D31A23F07F43042B06D8094B01221A60D9
:100B5C00084B02221A7106E0044A019BC2F8403588
:100B6C00044B00221A7100BF04B0704700B0004063
:100B7C0000400140D8000020024BD3F80435184641
:100B8C00704700BF00B0004008B5FFF733FD0A4BBB
:100B9C00D3F84031002B0AD0074B0022C3F8402178
:100BAC00064B1B68002B02D0044B1B689847FFF7C1
:100BBC0029FD00BF08BD00BF00B00040D8000020D8
:100BCC0008B5FFF717FD0A4BD3F80031002B0AD0FC
:100BDC00074B0022C3F80021064B1B68002B02D0E8
:100BEC00044B1B689847FFF70DFD00BF08BD00BF05
:100BFC0000400140D800002082B0164B1B680193C6
:100C0C00154B1B680093019B082B1FD1009B052BD8
:100C1C001AD801A252F823F03D0C0000410C000040
:100C2C00450C0000490C00004D0C0000510C00005C
:100C3C0001230CE001230AE0012308E0012306E074
:100C4C00012304E0012302E0012300E00023184605
:100C5C0002B07047300100103401001082B0164B06
:100C6C001B680193154B1B680093019B082B1FD12C
:100C7C00009B052B1AD801A252F823F0A10C0000FE
:100C8C00A50C0000A90C0000AD0C0000B10C00007C
:100C9C00B50C000001230CE001230AE0012308E05D
:100CAC00012306E0012304E0012302E0012300E01C
:100CBC000023184602B070473001001034010010B8
:100CCC0082B0164B1B680193154B1B680093019B5C
:100CDC00082B1FD1009B052B1AD801A252F823F028
:100CEC00050D0000090D00000D0D0000110D000098
:100CFC00150D0000190D000001230CE000230AE083
:100D0C00002308E0002306E0002304E0002302E0B7
:100D1C00002300E00023184602B070473001001099
:100D2C003401001082B0164B1B680193154B1B68E5
:100D3C000093019B082B1FD1009B052B1AD801A2F5
:100D4C0052F823F0690D00006D0D0000710D0000CC
:100D5C00750D0000790D00007D0D000001230CE0E5
:100D6C0000230AE0002308E0002306E0002304E04F
:100D7C00002302E0002300E00023184602B0704775
:100D8C00300100103401001082B0164B1B68019327
:100D9C00154B1B680093019B082B1FD1009B052B47
:100DAC001AD801A252F823F0CD0D0000D10D00008D
:100DBC00D50D0000D90D0000DD0D0000E10D000087
:100DCC0001230CE000230AE0002308E0002306E0E6
:100DDC00002304E0002302E0002300E00023184677
:100DEC0002B07047300100103401001082B0164B75
:100DFC001B680193154B1B680093019B082B1FD19B
:100E0C00009B052B1AD801A252F823F0310E0000DA
:100E1C00350E0000390E00003D0E0000410E0000A2
:100E2C00450E000001230CE000230AE0002308E03B
:100E3C00002306E0002304E0002302E0002300E08E
:100E4C000023184602B07047300100103401001026
:100E5C0082B0164B1B680193154B1B680093019BCA
:100E6C00082B1FD1009B052B1AD801A252F823F096
:100E7C00950E0000990E00009D0E0000A10E0000C2
:100E8C00A50E0000A90E000001230CE001230AE0CE
:100E9C00012308E0012306E0012304E0012302E022
:100EAC00012300E00023184602B070473001001007
:100EBC003401001082B0164B1B680193154B1B6854
:100ECC000093019B082B1FD1009B052B1AD801A264
:100EDC0052F823F0F90E0000FD0E0000010F000087
:100EEC00050F0000090F00000D0F000000230CE09F
:100EFC0000230AE0002308E0002306E0012304E0BD
:100F0C00012302E0012300E00023184602B07047E1
:100F1C00300100103401001008B5FFF7CBFF034679
:100F2C00002B07D04FF010234FF08042D3F808323B
:100F3C00C2F8583500BF08BD024B034A1A6000BF07
:100F4C00704700BF140000200090D00308B5FFF7D5
:100F5C0053FE0346002B0ED04FF080430022C3F803
:100F6C000C214FF080430022C3F810214FF0804336
:100F7C000022C3F83825FFF771FE0346002B76D00C
:100F8C004FF08053624AD3F80434C2F820354FF046
:100F9C0080535F4AD3F80834C2F824354FF080539D
:100FAC005B4AD3F80C34C2F828354FF08053584ABA
:100FBC00D3F81034C2F82C354FF08053544AD3F880
:100FCC001434C2F830354FF08053514AD3F81834EA
:100FDC00C2F834354FF080534D4AD3F81C34C2F864
:100FEC0040354FF080534A4AD3F82034C2F8443588
:100FFC004FF08053464AD3F82434C2F848354FF0AA
:10100C008053434AD3F82834C2F84C354FF0805300
:10101C003F4AD3F82C34C2F850354FF080533C4A39
:10102C00D3F83034C2F854354FF08053384AD3F8E3
:10103C003434C2F860354FF08053354AD3F8383425
:10104C00C2F864354FF08053314AD3F83C34C2F8BF
:10105C0068354FF080532E4AD3F84034C2F86C35C3
:10106C004FF080532A4AD3F84434C2F87035FFF756
:10107C0027FE0346002B02D0264B274A1A60FFF7A7
:10108C0051FE0346002B03D0244BFB22C3F818253A
:10109C00FFF77AFE0346002B0AD0214B1B6823F086
:1010AC000F02204B1B6803F00F031D4913430B6009
:1010BC00FFF79CFE0346002B03D01B4B4FF4007232
:1010CC001A60FFF7C5FE0346002B0DD04FF080438E
:1010DC00D3F8003403F00103002B05D04FF080430C
:1010EC006FF00102C3F80024104BD3F888300F4A7C
:1010FC0043F47003C2F88830BFF34F8F00BFBFF3C7
:10110C006F8F00BFFFF708FFFFF716FF00BF08BD8A
:10111C0000C000408C5600404881030000F00040A5
:10112C00E40E0040580200104096024000ED00E032
:10113C0008B50C2200211E4801F07CFA4FF0A043A8
:10114C000322C3F818274FF0A0430022C3F820272E
:10115C00184B0622C3F80C25164B0822C3F814258D
:10116C00144B0022C3F86C25124B134AC3F82425E8
:10117C00104B0022C3F81C210E4B0022C3F808218F
:10118C000C4B8422C3F804230C4B402283F802231B
:10119C000A4B04221A60074B0422C3F80025054BA6
:1011AC0001229A60034B01221A6000BF08BD00BFE8
:1011BC00E00000200020004000E0D70100E100E04A
:1011CC0082B001900091044A019B1360024A009B7B
:1011DC00536000BF02B07047E0000020024B842235
:1011EC00C3F8042300BF70470020004082B00346C0
:1011FC008DF807309DF80730012B04D1054B1122D7
:10120C00C3F81C2503E0034B1322C3F81C2500BFB5
:10121C0002B070470020004082B003468DF80730C2
:10122C009DF80730112B07D09DF80730132B03D0F6
:10123C009DF80730122B0BD10A4B01221A72094A66
:10124C009DF807305372084B1222C3F81C2505E099
:10125C00054A9DF80730C2F81C3500BF00BF02B02C
:10126C00704700BFE000002000200040024BD3F884
:10127C001835DBB2184670470020004008B5FFF760
:10128C00B9F90D4BD3F80831002B05D00A4B0022CD
:10129C00C3F8082100F034F8074BD3F81C31002BAD
:1012AC0005D0054B0022C3F81C2100F007F8FFF70E
:1012BC00A9F900BF08BD00BF0020004008B50E4BC7
:1012CC001B7A012B0BD10C4B00221A720A4B5B7A46
:1012DC0083F01003DAB2094BC3F81C2508E0064B67
:1012EC001B68002B04D0044B1B689847012300E0BB
:1012FC000023184608BD00BFE0000020002000407D
:10130C0008B5064B5B68002B04D0044B5B68984710
:10131C00012300E00023184608BD00BFE0000020B8
:10132C0082B003460A46ADF8063013468DF80530F8
:10133C00BDF806301B0A9AB2BDF806109DF80530B0
:10134C004B40DBB2034931F8133053409BB2184683
:10135C0002B070478C2F000000B583B040F2DC4225
:10136C000021234801F066F9214B00221A70204B12
:10137C0000225A701E4B00229A701D4B002283F8DB
:10138C00CF201B4B002283F8D220194B002283F86C
:10139C00CD20174B0022A3F8D624154B0022A3F81E
:1013AC00D424134B002283F8D8240F21FF2000F003
:1013BC00DBFD03461A460E4BDA700F21FF2000F0BE
:1013CC00D3FD03461A460A4B1A71094B1879094B7F
:1013DC00009300230022642100F036FE06490748E2
:1013EC00FFF7EEFEFFF7FAFE00BF03B05DF804FB5B
:1013FC00EC000020951B0000851E0000F51D000070
:10140C0000B585B0034600918DF8073013468DF872
:10141C00063000F0CFFB532000F0E8FB0120FEF774
:10142C00FFFF03465B78184600F0E0FB0120FEF757
:10143C00F7FF03469B78184600F0D8FB9DF8073061
:10144C00184600F0D3FB00238DF80F300CE09DF80C
:10145C000F30009A13441B78184600F0C7FB9DF818
:10146C000F3001338DF80F309DF80F209DF80630AA
:10147C009A42ECD300F004FC00F06CFA00231846FE
:10148C0005B05DF804FB000010B586B004460846B4
:10149C0011461A4623468DF80F3003468DF80E3050
:1014AC000B468DF80D301346ADF80A309DF80F3011
:1014BC00013B052B35D801A252F823F00915000089
:1014CC0001150000F9140000F1140000E9140000EB
:1014DC00E114000056238DF8173024E049238DF8D1
:1014EC00173020E057238DF817301CE055238DF86A
:1014FC00173018E045238DF8173014E043238DF88E
:10150C001730FFF72BF901F05BF804900F4BD878EC
:10151C000F4B00930023049A42F2107100F0F6FE78
:10152C0001E001230EE0BDF80A409DF80D209DF866
:10153C000E109DF81700BDF820300093234600F0E4
:10154C0069FA0346184606B010BD00BFEC00002037
:10155C00AB1B000000B585B001900B468DF8033035
:10156C0002AB1846FEF76EFF00F024FB442000F09F
:10157C003DFB0120FEF754FF03465B78184600F054
:10158C0035FB0120FEF74CFF03469B78184600F014
:10159C002DFB9DF80830184600F028FB9DF809300B
:1015AC00184600F023FB9DF80A30184600F01EFB8D
:1015BC009DF80B30184600F019FB9DF80C301846BE
:1015CC0000F014FB00238DF80F300CE09DF80F3069
:1015DC00019A13441B78184600F008FB9DF80F3055
:1015EC0001338DF80F309DF80F209DF803309A428F
:1015FC00ECD300F045FB00F0ADF90023184605B024
:10160C005DF804FB0FB400B58DB0784B09930FABAC
:10161C00019300F0CFFA462000F0E8FA0E9B0B93F2
:10162C00D4E00B9B1B78252B40F0C8800B9B01331F
:10163C000B930B9B1B78252B00F0AC80252BC0F259
:10164C00AD80782B00F3AA80632BC0F2A780633B9C
:10165C00152B00F2A38001A252F823F0C116000052
:10166C00FF160000A9170000A9170000A917000019
:10167C00A9170000A9170000A9170000A91700005E
:10168C00A9170000A9170000A9170000A91700004E
:10169C006B170000A9170000A9170000D91600004D
:1016AC00A9170000A9170000A9170000A91700002E
:1016BC0035170000019B1A1D01921B688DF81B3019
:1016CC009DF81B30184600F091FA7CE0019B1A1D26
:1016DC0001921B680A9307E00A9B1B78184600F0DE
:1016EC0085FA0A9B01330A930A9B1B78002BF3D1D2
:1016FC0069E0019B1A1D01921B68089302A8089BC4
:10170C003B4A102101F063F802AB0A9307E00A9BF5
:10171C001B78184600F06AFA0A9B01330A930A9B5D
:10172C001B78002BF3D14EE0019B1A1D01921B6814
:10173C00089302A8089B2F4A102101F048F802AB2D
:10174C000A9307E00A9B1B78184600F04FFA0A9B95
:10175C0001330A930A9B1B78002BF3D133E0019BD6
:10176C001A1D01921B68079302A8079B224A10219D
:10177C0001F02DF802AB0A9307E00A9B1B78184680
:10178C0000F034FA0A9B01330A930A9B1B78002B56
:10179C00F3D118E0252000F029FA14E0099B0A93F4
:1017AC0007E00A9B1B78184600F020FA0A9B0133CD
:1017BC000A930A9B1B78002BF3D104E00B9B1B783C
:1017CC00184600F013FA0B9B01330B930B9B1B7801
:1017DC00002B7FF426AF00F053FA00F0BBF8002387
:1017EC0018460DB05DF804EB04B070478C31000066
:1017FC00AC310000B0310000B431000000B583B052
:10180C0072B600BF524B9B788DF8073062B600BFA2
:10181C004F4BB3F8D4244E4BB3F8D6349A4240F025
:10182C0093809DF8073001338DF807309DF8073011
:10183C000D2B02D100238DF807309DF807300C2BAF
:10184C005DD801A252F823F089180000931800000B
:10185C009D180000A7180000B1180000BB1800006C
:10186C00C5180000CF180000D9180000E3180000BC
:10187C00ED180000F718000001190000FEF706FE35
:10188C000346012B3FD0FEF704FE0346012B3CD050
:10189C00FEF705FE0346012B39D000F09DF80346F8
:1018AC00012B36D0FEF7FEFD0346012B33D0FEF79D
:1018BC00FCFD0346012B30D0FEF7FAFD0346012B4D
:1018CC002DD0FEF7F8FD0346012B2AD0FEF7F6FDCE
:1018DC000346012B27D0FEF7F4FD0346012B24D041
:1018EC00FEF7DAFD0346012B21D0FEF7EDFD034692
:1018FC00012B1ED0FEF7EBFD0346012B1BD0002362
:10190C008DF8073018E000BF16E000BF14E000BFF0
:10191C0012E000BF10E000BF0EE000BF0CE000BF03
:10192C000AE000BF08E000BF06E000BF04E000BF13
:10193C0002E000BF00E000BF72B600BF044A9DF891
:10194C000730937062B600E000BF03B05DF804FB93
:10195C00EC00002008B572B600BF1E4B93F8D834CB
:10196C00002B33D11B4B5B78012B0ED1194B1B7801
:10197C00012B03D10020FFF739FC02E00120FFF717
:10198C0035FC144B00225A7020E0124B1B78012BB3
:10199C001CD0104BB3F8D4240E4BB3F8D6349A4267
:1019AC0014D00C4BB3F8D6345A1C91B2094AA2F895
:1019BC00D614C3F30903074A134493F8D3301846DB
:1019CC00FFF72AFC034B012283F8D82462B600BF30
:1019DC0000BF08BDEC00002000B583B072B600BF9C
:1019EC000B4BB3F8D434ADF80430094BB3F8D63400
:1019FC00ADF8063062B600BF01AB042219460320D5
:101A0C00FFF7FEFC0123184603B05DF804FB00BF92
:101A1C00EC00002010B582B00446084611461A4668
:101A2C0023468DF8073003468DF806300B468DF8AB
:101A3C0005301346ADF8023000F0BCF89DF80730C5
:101A4C00184600F0D3F80120FEF7EAFC03465B7859
:101A5C00184600F0CBF80120FEF7E2FC03469B7819
:101A6C00184600F0C3F89DF80630184600F0BEF892
:101A7C009DF80530184600F0B9F8BDF802301B0A85
:101A8C009BB2DBB2184600F0B1F8BDF80230DBB205
:101A9C00184600F0ABF8BDF810301B0A9BB2DBB255
:101AAC00184600F0A3F8BDF81030DBB2184600F071
:101ABC009DF800F0E5F8FFF74DFF0023184602B043
:101ACC0010BD000000B583B0254B5B798DF8073055
:101ADC009DF80730443B0F2B3ED801A252F823F05F
:101AEC00391B0000651B0000651B0000651B000016
:101AFC00651B0000651B0000651B0000651B0000DA
:101B0C00651B0000531B0000651B0000651B0000DB
:101B1C00651B0000331B00002D1B00003F1B000049
:101B2C00FEF7A8FC18E0FEF714FD15E0FEF7ACFC80
:101B3C0012E00B4B93F8CD30013BDBB21946094850
:101B4C0000F012F808E0064B93F8CD30013B194633
:101B5C000448FEF791FC00BF00BF03B05DF804FB26
:101B6C00EC000020F200002000B583B001900B4681
:101B7C008DF803309DF8033019460198FFF7EAFC05
:101B8C0000BF03B05DF804FB00B583B003468DF8CD
:101B9C000730FFF733FE00BF03B05DF804FB00B560
:101BAC0083B003468DF80730FEF7D3FC00BF03B0BB
:101BBC005DF804FB72B600BF0B4B4FF6FF72A3F837
:101BCC00DA24094BB3F8D4345A1C91B2064AA2F861
:101BDC00D414C3F30903044A13447E2283F8D3209C
:101BEC0062B600BF00BF7047EC00002000B583B0A8
:101BFC0003468DF8073072B600BF204BB3F8DA34C9
:101C0C009DF8072011461846FFF78AFB03461A4633
:101C1C001A4BA3F8DA249DF807307E2B03D09DF8DD
:101C2C0007307D2B14D1154BB3F8D4345A1C91B218
:101C3C00124AA2F8D414C3F30903104A13447D22A8
:101C4C0083F8D3209DF8073083F020038DF80730FC
:101C5C000A4BB3F8D4345A1C91B2084AA2F8D414E3
:101C6C00C3F30903054A13449DF8072083F8D320D6
:101C7C0062B600BF00BF03B05DF804FBEC000020AF
:101C8C0000B583B072B600BF144BB3F8DA34DB4343
:101C9C00ADF80630BDF80630DBB21846FFF7A6FFEC
:101CAC00BDF806301B0A9BB2DBB21846FFF79EFF4D
:101CBC000A4BB3F8D4345A1C91B2084AA2F8D41483
:101CCC00C3F30903054A13447E2283F8D32062B67A
:101CDC0000BF00BF03B05DF804FB00BFEC000020A8
:101CEC00054B002283F8CD20034B4FF6FF72A3F86F
:101CFC00D02000BF704700BFEC00002000B583B0BF
:101D0C0003468DF807309DF807307D2B04D11B4B13
:101D1C00012283F8D2202DE0184B93F8D230012BFE
:101D2C0009D19DF8073083F020038DF80730134B51
:101D3C00002283F8D220114B93F8CD301A460F4B6A
:101D4C0013449DF807205A710C4B93F8CD30013396
:101D5C00DAB20A4B83F8CD20084BB3F8D0309DF89B
:101D6C00072011461846FFF7DBFA03461A46034BC9
:101D7C00A3F8D02000BF03B05DF804FBEC000020FA
:101D8C000A4BB3F8D0304FF2B802934208D1074B4C
:101D9C0093F8CD30023BDAB2044B83F8CD2003E04C
:101DAC00024B002283F8CD2000BF7047EC000020CE
:101DBC0000B583B0002300930023432204210220AA
:101DCC00FFF762FB00BF03B05DF804FB00B583B006
:101DDC00002300930023422204210220FFF754FB2E
:101DEC0000BF03B05DF804FB08B5224B5B78012BF8
:101DFC0012D1204B1B78012B07D10020FFF7F6F9ED
:101E0C001C4B002283F8D82402E00120FFF7EEF9E6
:101E1C00184B00225A702AE0164B1B78012B04D168
:101E2C00144B002283F8D82421E0124BB3F8D424AD
:101E3C00104BB3F8D6349A4215D00E4BB3F8D634B7
:101E4C005A1C91B20B4AA2F8D614C3F30903094ADF
:101E5C00134493F8D3301846FFF7DEF9054B0122F3
:101E6C0083F8D82403E0034B002283F8D82400BF66
:101E7C0008BD00BFEC00002000B583B000238DF836
:101E8C000730FFF7F3F903468DF80630334B93F820
:101E9C00CF30002B14D1314B93F8CE307E2B0FD199
:101EAC009DF806307E2B0BD02C4B012283F8CF20D3
:101EBC00FFF716FF9DF806301846FFF71FFF41E0AD
:101ECC00264B93F8CF30012B1AD19DF806307E2B80
:101EDC0016D09DF806301846FFF710FF1F4B93F8ED
:101EEC00CD30C72B2ED90F211D48FEF7A3FA1B4B63
:101EFC00002283F8CD20194B002283F8CF2021E05B
:101F0C00164B93F8CF30012B1CD19DF806307E2B4D
:101F1C0018D1FFF735FF114B002283F8CF200F4B60
:101F2C0093F8CD30002B04D10F210E48FEF782FA26
:101F3C0008E0FFF7C7FD094B002283F8CD200123F1
:101F4C008DF80730054A9DF8063082F8CE309DF8A2
:101F5C000730184603B05DF804FB00BFEC0000200E
:101F6C00BD1D0000D91D000084B003460A468DF843
:101F7C00073013468DF8063072B600BF9DF8073057
:101F8C00012B03D09DF80730002B1BD19DF80720A7
:101F9C002C491346DB009B1A9B000B4411331B7816
:101FAC00002B0FD19DF8072026491346DB009B1A06
:101FBC009B000B44113301221A7062B600BF9DF8CE
:101FCC0007303BE09DF80730FF2B34D102238DF80E
:101FDC000F302CE09DF80F201A491346DB009B1A9A
:101FEC009B000B4411331B78002B1BD19DF80F2049
:101FFC0014491346DB009B1A9B000B44113301223E
:10200C001A709DF80F200F491346DB009B1A9B009A
:10201C000B4418339DF806201A7062B600BF9DF869
:10202C000F300BE09DF80F3001338DF80F309DF819
:10203C000F300E2BCED962B600BFFF23184604B06A
:10204C00704700BFC805002010B586B0009111463E
:10205C001A4603468DF807300B468DF806301346AA
:10206C008DF8053000238DF8173016E09DF81720F9
:10207C00A5491346DB009B1A9B000B4411331B78BC
:10208C00002B05D09DF817209DF807309A4209D0F7
:10209C009DF8173001338DF817309DF817300E2B43
:1020AC00E4D900E000BF9DF817300F2B00F0288119
:1020BC0072B600BF9DF8072093491346DB009B1AAC
:1020CC009B000B4412339DF805201A709DF80630C6
:1020DC00002B02D0012B26D045E09DF8072000995B
:1020EC000B465B01194488481346DB009B1A9B0086
:1020FC0003441960009A13465B011A4440F2011321
:10210C00A3FB0213D21A52081344DB0D9DF80720CF
:10211C0098B27D491346DB009B1A9B000B44083395
:10212C0002461A801FE09DF8072077491346DB0012
:10213C009B1A9B000B44009A1A60009A40F2011300
:10214C00A3FB0213D21A52081344DB0D9DF807208F
:10215C0098B26D491346DB009B1A9B000B44083365
:10216C0002461A8000BF9DF8072067491346DB0022
:10217C009B1A9B000B4408331B88002B19D19DF82C
:10218C00072061491346DB009B1A9B000B441C681B
:10219C00FEF7F2FC034623449DF8072023F07F4111
:1021AC0059481346DB009B1A9B0003440433196007
:1021BC0012E0FEF7E1FC034603F1FF1303F57F4346
:1021CC009DF8072023F07F414F481346DB009B1AF4
:1021DC009B000344043319609DF807204A491346B9
:1021EC00DB009B1A9B000B44103301221A709DF8E4
:1021FC00072045491346DB009B1A9B000B44143304
:10220C00089A1A60404B93F8B031002B72D100231E
:10221C008DF8173004E09DF8173001338DF8173026
:10222C009DF8172038491346DB009B1A9B000B4482
:10223C0010331B78002BEED09DF817203249134633
:10224C00DB009B1A9B000B4404331A682E4BD3F80B
:10225C00AC31D31A23F07F4304939DF817308DF8DB
:10226C0016309DF8163001338DF817302BE09DF8A1
:10227C00172025491346DB009B1A9B000B44103397
:10228C001B78002B1AD09DF817201F491346DB0032
:10229C009B1A9B000B4404331A681B4BD3F8AC31CC
:1022AC00D31A23F07F430393039A049B9A4205D2DB
:1022BC00039B04939DF817308DF816309DF817305A
:1022CC0001338DF817309DF817300E2BCFD99DF8B0
:1022DC0016200D491346DB009B1A9B000B4404335C
:1022EC001B68094AC2F8A831074BD3F8A831184625
:1022FC00FEF70EFC044B012283F8A42162B600E029
:10230C0000BF06B010BD00BFC805002000B589B0E5
:10231C00029101921A4603468DF80F3013468DF840
:10232C000E3000238DF81F3016E09DF81F20A349B6
:10233C001346DB009B1A9B000B4411331B78002BBC
:10234C0005D09DF81F209DF80F309A4209D09DF8BA
:10235C001F3001338DF81F309DF81F300E2BE4D940
:10236C0000E000BF9DF81F300F2B00F0238172B6E8
:10237C0000BF9DF80F2091491346DB009B1A9B0070
:10238C000B44123301221A709DF80E30002B02D030
:10239C00012B26D045E09DF80F2002990B465B01DE
:1023AC00194486481346DB009B1A9B0003441960B2
:1023BC00029A13465B011A4440F20113A3FB021369
:1023CC00D21A52081344DB0D9DF80F2098B27B49AA
:1023DC001346DB009B1A9B000B44083302461A8001
:1023EC001FE09DF80F2075491346DB009B1A9B00DC
:1023FC000B44029A1A60029A40F20113A3FB0213D7
:10240C00D21A52081344DB0D9DF80F2098B26B4979
:10241C001346DB009B1A9B000B44083302461A80C0
:10242C0000BF9DF80F2065491346DB009B1A9B00EB
:10243C000B4408331B88002B17D19DF80F205F49E4
:10244C001346DB009B1A9B000B441A68019B134438
:10245C009DF80F2023F07F4158481346DB009B1A50
:10246C009B0003440433196010E0019B03F1FF133C
:10247C0003F57F439DF80F2023F07F414F4813460F
:10248C00DB009B1A9B000344043319609DF80F205A
:10249C004A491346DB009B1A9B000B441033012264
:1024AC001A709DF80F2045491346DB009B1A9B00C0
:1024BC000B4414330A9A1A60404B93F8B031002B3A
:1024CC0072D100238DF81F3004E09DF81F300133CA
:1024DC008DF81F309DF81F2038491346DB009B1ADE
:1024EC009B000B4410331B78002BEED09DF81F2063
:1024FC0032491346DB009B1A9B000B4404331A68C9
:10250C002E4BD3F8AC31D31A23F07F4306939DF8AE
:10251C001F308DF81E309DF81E3001338DF81F30A2
:10252C002BE09DF81F2025491346DB009B1A9B00CE
:10253C000B4410331B78002B1AD09DF81F201F4919
:10254C001346DB009B1A9B000B4404331A681B4B8D
:10255C00D3F8AC31D31A23F07F430593059A069B2D
:10256C009A4205D2059B06939DF81F308DF81E30BC
:10257C009DF81F3001338DF81F309DF81F300E2B46
:10258C00CFD99DF81E200D491346DB009B1A9B00EA
:10259C000B4404331B68094AC2F8A831074BD3F823
:1025AC00A8311846FEF7B4FA044B012283F8A42193
:1025BC0062B600E000BF09B05DF804FBC80500205E
:1025CC0008B5FEF7D9FA0346184608BD411C820728
:1025DC000CD010F8012B3AB3820707D010F8012B5E
:1025EC0012B3820702D010F8012BEAB14FF0013C74
:1025FC0050F8042BCCFA52F37BB950F8042BCCFADC
:10260C0052F353B950F8042BCCFA52F32BB950F8BF
:10261C00042BCCFA52F3002BEAD004381BBAB3FAD1
:10262C0083F300EBD3000130401A704700220B00FB
:10263C0011001A0084465AB3830704D000F8011B1A
:10264C00013AF9D124E0C9B241EA012141EA014140
:10265C00202A11D3203A2DE9F0030B460C460D46E7
:10266C000E460F4688468946A0E8FA03203AFBD26C
:10267C00BDE8F00320320BD0042A05D340F8041B2C
:10268C00043A05D0042AF9D200F8011B013AFBD117
:10269C006046704700B539B102782AB1D0F800E035
:1026AC00042903D203460CE0002000BD4FF0013C8E
:1026BC000346CCFA5EF222B953F804EF043903292D
:1026CC00F7D8181A4FF00132C2FA5EF292FAA2F25F
:1026DC00B2FA82F2B1EBD20F28BFD108084400BD88
:1026EC0010B582B0044600698DF8071078B1D4E9B2
:1026FC0000239A421CD26269531C63618154D4E951
:10270C000501884214D1204600F032F810E0D4F8CC
:10271C000CC0BCF1000F10D0D4E90023501C98421F
:10272C0004BF00218DF807109A4238BF0CF8021034
:10273C0020680130206002B010BDA06858B1D4E907
:10274C00002C6245F4D2531CB3EB0C0318BFCBB274
:10275C0040F82230ECE7236A002BE9D0D4E90001E1
:10276C008842E5D20DF10701204601229847DFE7A8
:10277C0010B5426932B10446036A0BB1216998471E
:10278C000020606110BD70B5012AB8BF70BD0C4649
:10279C000546561C28462146FFF7A2FF013E012E96
:1027AC00F8D870BDCB0648BF704789054CBF3021A7
:1027BC002021FFF7E8BF38B5044600F071FB054651
:1027CC00204600212422FFF735FFE56138BD81B09A
:1027DC00F0B58AB014460D4606460F930FA800902C
:1027EC0001AF3846FFF7E7FF0295009A049638468A
:1027FC00214600F005F80AB0BDE8F04001B0704782
:10280C002DE9F04F8DB00692894683460020CBF817
:10281C0000000DF11E04A4F10108CDF81080CDF8D4
:10282C0004B019F8011B252906D0002900F0898273
:10283C005846FFF755FFF4E70027484619F8012BD7
:10284C00A2F12003102B0DD88021DFE803F0091B27
:10285C001B191B1B1B101B1B31131B151B1B1700E0
:10286C0040210DE05E2A0DD14FF4805108E04FF469
:10287C00004105E0202103E0102101E04FF400713C
:10288C000F43DAE700F10109A2F13000C0B20928C8
:10289C001DD8002119F8010B01EB810102EB41015C
:1028AC003039A0F13002D2B20A2A0246F2D30BE040
:1028BC00069A52F8041B0692002944BF47F01007F1
:1028CC004942427800F1020921EAE17A01E04FF035
:1028DC00000A2E2A0DD1484610F8012B2A2A0AD1BB
:1028EC00069899F8012050F8045B069009F102094A
:1028FC0016E000251CE0A2F13001C9B2002509291F
:10290C0013D810F8011B05EB850302EB4302A2F16F
:10291C003005A1F13002D2B20A2A0A46F1D381461F
:10292C00002D58BF47F4807702E0814647F480774A
:10293C00A2F16800C1B2C00140EA5100C0B209283E
:10294C002AD8DFE800F008141729292905292905B8
:10295C0019F8012B20E0484610F8012B682A15D1F4
:10296C0099F8012009F1020947F0080714E019F859
:10297C00012B08E0484610F8012B6C2A09D199F874
:10298C00012009F1020947F0020705E047F00407AE
:10299C0001E047F001078146622A15DDA2F16300D0
:1029AC0015283FF63EAFDFE800F0240C0B0B0B0BA9
:1029BC000C0B0B0B0B37434D0B0B5B0B6A0B0B17F9
:1029CC002FE747F480475EE0252A00F0A980582ABB
:1029DC0040F07C8147F40057F8054FEA076048BF88
:1029EC0027F40077782A43F2580108BF43F27801A4
:1029FC0025E0069DA0462C78AAF1010658463946DA
:102A0C003246FFF7CFFE584621464446DDF810808B
:102A1C00FFF766FE28467FE1380700F15B81B807B7
:102A2C0000F18581069A1068DBF80010016056E110
:102A3C00F8054FEA076048BF27F40077302101EA18
:102A4C00E07321E03806232101EAE070059047F499
:102A5C008077069A002152F8040B06920825CEE0E6
:102A6C0006980468002C04BF43F2D714C0F200048B
:102A7C00F80500F136812046FFF7A8FD35E1F80591
:102A8C0048BF27F40077002307F002007904059370
:102A9C0005D4AC4650B90698031D00210DE0A8B929
:102AAC00069951F8040B0691C11717E006980730E8
:102ABC0020F0070000F10803416800687D0715D479
:102ACC0017F008051CBFC0B2002111E006980730B2
:102ADC0020F00703596853F8080B06937B070AD4B8
:102AEC0017F008031CBFC0B2002107E080B2002120
:102AFC00069365461BE040F3C03100B2002909DBA8
:102B0C00BB0612D47B06A446059C48BF2024059422
:102B1C0064460CE00023404263EB01012D2305E0E9
:102B2C0058462521FFF7DCFD7BE62B230593FB059F
:102B3C0048BF27F40077FB0558BF012500266E2AF5
:102B4C0023DD6F3A092A00F28080DFE802F0055895
:102B5C007E7E7E7E247E7E5850EA010274D0AC4686
:102B6C00C20842EA417200260625134665F3DF00CF
:102B7C00A055013652EAD1004FEAD1014FEAD200FA
:102B8C0040EA41721846F0D15CE0582A37D0642AEA
:102B9C0018BF692A59D150EA010255D0CDE9025A21
:102BAC00A24607F4004B00260C460546BBF1000F6D
:102BBC0009D006F00300032805D1D0462C200AF8D2
:102BCC000600013600E0D046284621460A220023A2
:102BDC0000F0CEF800EB8002A5EB420242F030028E
:102BEC0008F806200136D5F109024FF00002A24187
:102BFC00DAD35446DDE903A8DDE901B525E050EA56
:102C0C00010221D0AC46BA0443F2B712C0F2000262
:102C1C005CBF43F2C712C0F200024FEA101343EA42
:102C2C0001734FF0000600F00F051846535DA355D5
:102C3C00013650EA11134FEA11114FEA101343EA0F
:102C4C000173F0D1654600E00026AAEB0600059959
:102C5C00FF2988BF013800290A4618BF0122801AB3
:102C6C00AA1B22EAE275A0EB050AB80507D4584660
:102C7C0039465246FFF796FD05994FF0000AFF2999
:102C8C0004D9090A5846FFF72BFD059911B158468E
:102C9C00FFF726FD584639465246FFF783FD584646
:102CAC0030212A46FFF76FFD012E06DB18F80610BF
:102CBC005846FFF715FD013EF8D8F8067FF5B1AD83
:102CCC00584620215246FFF75EFDAAE5002A7FF404
:102CDC00A8AD47E0069A1068DBF8001001701046AA
:102CEC002CE020462946FFF7D5FC054627F4007753
:102CFC00AAEB0006584639463246FFF753FD35B16C
:102D0C0014F8011B5846FFF7EBFC013DF8D1DDF838
:102D1C00108006980DF11E0404300690F8067FF51D
:102D2C0080AD584620213246FFF72DFD79E5069BF4
:102D3C00DBF800101868002206C018460430069014
:102D4C006FE5DBF80C0028B1DBE9001291423CBFC7
:102D5C00002242545846FFF70BFDDBF800000DB083
:102D6C00BDE8F08F5846FFF703FD4FF0FF30F6E754
:102D7C00002B35D129B9B0FBF2FC0CFB12026046DA
:102D8C007047914215D22DE9F041B2FA82F39A4084
:102D9C009940D3F1200C30FA0CFC51EA0C0198400C
:102DAC0000F04EF8280036FA03F200210023BDE8AB
:102DBC00F081F0B5B1FBF2FC0CFB1211B2FA82F30C
:102DCC009A409940D3F1200630FA06F631439840E8
:102DDC0000F036F8614628003200DA400023F0BDDE
:102DEC00F3B5B3FA83FC49085FEA300013FA0CF32D
:102DFC00DCF1200432FA04F423430CB41A0000F082
:102E0C001FF80CBC33FA0CF3DCF11F0C35FA0CF583
:102E1C0018BF013D03BCA5FB026705FB0377801BB4
:102E2C00B941904271EB030C05D3821A71EB030389
:102E3C00681C0021F0BD02000B0028000021F0BD31
:102E4C00940D4FF6C2752D02B5FBF4F4D60A01367B
:102E5C0004FB04F5A5FB0656F64306EB04165508D1
:102E6C0032BF00277708013505FB1677A6FB07470D
:102E7C007F0807EBC63714001500E7FB02457F1BE4
:102E8C004D1C0400E7FB014505FB1206A64284BF5E
:102E9C00013DB618964224BF0135B61A704700BFE3
:102EAC0040F27C71C2F20001086800B1704740F238
:102EBC001800C2F20000086070479AB18446097885
:102ECC0048B2002844BF6FF001007047BCF1000FFE
:102EDC0018BFCCF800100021C3E90011002818BF5E
:102EEC0001207047002070477F298EBF6FF00100D2
:102EFC000170012070477F2884BF0020704743F287
:102F0C00F432C0F20002515C43F27432C0F200029F
:102F1C00105C08407047A0F161011A2938BF2038B5
:102F2C007047A0F141011A2938BF203070477F2823
:102F3C0084BF0020704743F2F432C0F20002515CAF
:102F4C0043F27432C0F20002105C08407047A0F1EA
:102F5C0061011A2938BF20387047A0F141011A29A4
:102F6C0038BF203070470000072904D90023024ADB
:0C2F7C00C0E900311060704780070020A1
:102F8800257300000000891112239B322446AD5797
:102F98003665BF74488CC19D5AAFD3BE6CCAE5DB99
:102FA8007EE9F7F88110080193331A22A5562C47B9
:102FB800B7753E64C99C408DDBBF52AEEDDA64CB79
:102FC800FFF976E802218B30100299132667AF7655
:102FD8003444BD554AADC3BC588ED19F6EEBE7FA59
:102FE8007CC8F5D983310A2091121803A7772E6679
:102FF800B5543C45CBBD42ACD99E508FEFFB66EA39
:10300800FDD874C904428D5316619F702004A91518
:103018003227BB364CCEC5DF5EEDD7FC6888E19918
:103028007AABF3BA85520C4397711E60A114280538
:10303800B3373A26CDDE44CFDFFD56ECE9986089F8
:10304800FBBB72AA06638F7214409D512225AB34D4
:103058003006B9174EEFC7FE5CCCD5DD6AA9E3B8D8
:10306800788AF19B87730E6295501C41A3352A24F8
:10307800B1163807CFFF46EEDDDC54CDEBB962A8B8
:10308800F99A708B088481951AA793B62CC2A5D398
:103098003EE1B7F04008C919522BDB3A644EED5FA8
:1030A800766DFF7C899400859BB712A6ADD224C3A8
:1030B800BFF136E0C1184809D33B5A2AE55E6C4F88
:1030C800F77D7E6C0AA583B4188691972EE3A7F244
:1030D8003CC0B5D14229CB38500AD91B666FEF7E68
:1030E800744CFD5D8BB502A499961087AFF326E268
:1030F800BDD034C1C3394A28D11A580BE77F6E6E48
:10310800F55C7C4D0CC685D71EE597F42880A19107
:103118003AA3B3B2444ACD5B5669DF78600CE91D27
:10312800722FFB3E8DD604C79FF516E4A990208127
:10313800BBB332A2C55A4C4BD7795E68E11C680D07
:10314800F33F7A2E0EE787F61CC495D52AA1A3B0C3
:103158003882B193466BCF7A5448DD59622DEB3CE7
:10316800700EF91F8FF706E69DD414C5ABB122A0E7
:10317800B9923083C77B4E6AD5585C49E33D6A2CC7
:10318800F11E780F202D20756E6B6E6F776E20669E
:103198006F726D617420737065636966696572200A
:1031A8002D200000256400002578000025700030DF
:1031B8003132333435363738394142434445463065
:1031C800313233343536373839616263646566289D
:1031D8006E756C6C29000000EC3100001C33000097
:1031E800F031000043000000032F0000232F0000EF
:1031F8002F2F00003B2F00005B2F0000672F0000DF
:10320800F52E0000C72E000053756E004D6F6E003E
:103218005475650057656400546875004672690006
:1032280053617400004A616E00466562004D617228
:1032380000417072004D6179004A756E004A756CE4
:103248000041756700536570004F6374004E6F76D8
:103258000044656300002E000053756E64617900B8
:103268004D6F6E64617900547565736461790057B8
:1032780065646E657364617900546875727364611E
:10328800790046726964617900536174757264618A
:103298007900004A616E75617279004665627275DF
:1032A800617279004D6172636800417072696C00E7
:1032B8004D6179004A756E65004A756C79004175F3
:1032C800677573740053657074656D626572004F3D
:1032D80063746F626572004E6F76656D6265720029
:1032E800446563656D6265720000414D00504D0094
:1032F80000256D2F25642F25790025483A254D3A5C
:103308002553002561202562202565202554202588
:10331800590000005E320000603200006032000098
:10332800603200006032000060320000603200004D
:10333800603200006032000060320000FFFFFFFFD3
:10334800FFFFFFFFFFFFFFFFFFFF000061320000EC
:10335800103200009B3200002D320000F2320000D3
:10336800F9320000023300000B3300002020202037
:1033780020202020206828282828202020202020DD
:10338800202020202020202020202020481010103D
:103398001010101010101010101010108484848455
:1033A800848484848484101010101010108181810A
:1033B8008181810101010101010101010101010175
:1033C8000101010101010110101010101082828208
:1033D8008282820202020202020202020202020245
:1033E800020202020202021010101020000703203D
:0C33F8000417020108571040800000007C
:1034040030326472765F6F70656E73657269616C79
:103414000D0A00000090D003E0310000E03100000C
:0C342400E0310000E0310000E031000069
:0400000300000219DE
:00000001FF
