:1000000000000420190200000102000003020000A9
:1000100005020000070200000902000000000000C5
:100020000000000000000000000000000B020000C3
:100030000D020000000000000F020000110200008D
:1000400013020000110D00005515000013020000FE
:10005000130200001302000013020000130200004C
:10006000130200001302000013020000610E0000E2
:10007000130200001302000013020000130200002C
:10008000130200001302000013020000130200001C
:10009000990E00001302000013020000130200007A
:1000A00013020000130200001302000013020000FC
:1000B0001302000013020000000000000000000016
:1000C00013020000130200001302000013020000DC
:1000D00013020000130200001302000013020000CC
:1000E00013020000130200001302000000000000D1
:1000F00000000000130200000000000013020000D6
:1001000000000000000000000000000000000000EF
:1001100000000000000000000000000000000000DF
:1001200000000000000000000000000000000000CF
:1001300000000000000000000000000000000000BF
:1001400000000000000000000000000000000000AF
:10015000000000000000000000000000000000009F
:10016000000000000000000000000000000000008F
:10017000000000000000000000000000000000007F
:10018000000000000000000000000000000000006F
:10019000000000000000000000000000000000005F
:1001A000000000000000000000000000000000004F
:1001B000000000000000000000000000000000003F
:1001C000000000000000000000000000000000002F
:1001D000000000000000000000000000000000001F
:1001E000000000000000000000000000000000000F
:1001F00000000000000000000000000000000000FF
:10020000FEE7FEE7FEE7FEE7FEE7FEE7FEE7FEE7C6
:10021000FEE7FEE700F002B8FFF7FCBF0A484FF028
:100220000701884385460948804709480949016014
:100230000948016841F470010160BFF34F8FBFF3BB
:100240006F8F00F00BB800000000042025120000A2
:1002500008ED00E00000000088ED00E0334934487C
:100260000A1A02D0072291438D46324932480A1AAF
:1002700006D00722914381F30988022282F3148871
:100280002E482F492F4A00F03FF82F482F49304A77
:1002900000F03AF82F483049304A00F035F830483D
:1002A0003049314A00F030F830483149314A00F0E5
:1002B0002BF831483149324A00F026F831483249AA
:1002C000324A00F021F832483249002200F027F883
:1002D00031483249002200F022F831483149091AE8
:1002E00011F054FE1F482049884205D002680430AE
:1002F00003B4904703BCF7E700208646EC46002095
:100300000021294A9047FEE7884207D0521A05D0BB
:10031000037801300B700131013AF9D170478842FE
:1003200002D002700130FAE770470000000004209C
:1003300000E00320000004200000042078220100D7
:100340000000002004000020AC030000AC0300000B
:10035000A01F010078220100000000200000002002
:10036000A01F0100A01F0100A01F0100A01F01008D
:10037000A01F0100A01F0100A01F0100A01F01007D
:10038000782201007C2201000400002004000020EB
:10039000040000209832002098320020983200207B
:0C03A0009832002098520020ED0300006D
:1003AC0008B500F023F802F0DBFC11F01AFC02F0A7
:1003BC00E1FC0023184608BDBFF34F8F00BF064B6E
:1003CC00DB6803F4E0620449044B1343CB60BFF3D6
:1003DC004F8F00BF00BFFDE700ED00E00400FA0501
:1003EC0008B5FFF7DDFF0346184608BD08B54FF00A
:1003FC0080430022C3F800214FF0804301221A6091
:10040C0000BF4FF08043D3F80031002BF9D000F03F
:10041C0061F900F02BF800F0F1FF00F07DFC00F02A
:10042C006DFA00F013F900F009F800BF08BD20BF09
:10043C0020BF00BF704708B5FFF7BEFF82B04FF07A
:10044C008043D3F840360193019B002B0BD104E081
:10045C004FF080430122C3F878254FF08043D3F846
:10046C007835002BF4D000BF02B070474FF0A0439A
:10047C004FF08062C3F818254FF0A0434FF0006294
:10048C00C3F818254FF0A0434FF08052C3F818253D
:10049C004FF0A0434FF00052C3F818254FF0A04383
:1004AC004FF08042C3F818254FF0A0434FF00042A4
:1004BC00C3F8182500BF70474FF0A043D3F804359C
:1004CC0003F08063002B06D04FF0A0434FF0806206
:1004DC00C3F80C2505E04FF0A0434FF08062C3F841
:1004EC00082500BF70474FF0A043D3F8043503F044
:1004FC000063002B06D04FF0A0434FF00062C3F80E
:10050C000C2505E04FF0A0434FF00062C3F808251E
:10051C0000BF70474FF0A0434FF08052C3F808253E
:10052C0000BF70474FF0A0434FF08052C3F80C252A
:10053C0000BF70474FF0A043D3F8043503F080534D
:10054C00002B06D04FF0A0434FF08052C3F80C257F
:10055C0005E04FF0A0434FF08052C3F8082500BFD0
:10056C0070474FF0A0434FF00052C3F8082500BF6E
:10057C0070474FF0A0434FF00052C3F80C2500BF5A
:10058C0070474FF0A0434FF08042C3F8082500BFDE
:10059C0070474FF0A0434FF08042C3F80C2500BFCA
:1005AC0070474FF0A0434FF00042C3F8082500BF3E
:1005BC0070474FF0A0434FF00042C3F80C2500BF2A
:1005CC00704784B0019000238DF80F304FF08053AA
:1005DC001B6E029300238DF80F3010E09DF80F3046
:1005EC00DB00029A22FA03F19DF80F30019A1344B2
:1005FC00CAB21A709DF80F3001338DF80F309DF888
:10060C000F30032BEAD94FF080535B6E029300231B
:10061C008DF80F3011E09DF80F30DB00029A22FAB2
:10062C0003F19DF80F300433019A1344CAB21A70C7
:10063C009DF80F3001338DF80F309DF80F30032BE0
:10064C00E9D900BF00BF04B07047000008B52020F6
:10065C0000F022F8182000F01FF80E4B0022C3F80F
:10066C0000250C4B2022C3F808250A4B1822C3F88E
:10067C000C25084B4FF0C862C3F82425054B4FF4EA
:10068C009052C3F80022034B0622C3F8002500BF8A
:10069C0008BD00BF0030004084B00190019B1F2BAF
:1006AC0005D84FF0A0430393019B029305E0084B40
:1006BC000393019B03F01F030293039B029A02F521
:1006CC00E07240F20C6143F8221000BF04B0704796
:1006DC000003005008B54FF0A0434FF40052C3F88C
:1006EC0018254FF0A0434FF48042C3F818254FF063
:1006FC00A0434FF40042C3F818254FF0A0434FF429
:10070C008032C3F8182500F049F800BF08BD4FF03F
:10071C00A0434FF40052C3F8082500BF70474FF0B8
:10072C00A043D3F8043503F40053002B06D04FF04C
:10073C00A0434FF40052C3F80C2505E04FF0A04342
:10074C004FF40052C3F8082500BF70474FF0A04388
:10075C004FF48042C3F8082500BF70474FF0A04308
:10076C004FF48042C3F80C2500BF70474FF0A043F4
:10077C004FF40042C3F8082500BF70474FF0A04368
:10078C004FF40042C3F80C2500BF70474FF0A04354
:10079C004FF48032C3F8082500BF704708B5FFF747
:1007AC00E5FFFFF7D3FFFFF7F1FFFFF7B0FF00BF47
:1007BC0008BD000000B583B0FFF7F0FF00238DF8F3
:1007CC00073010E0FFF7ABFF0023009302E0009B23
:1007DC0001330093009B084A9342F8D99DF80730E7
:1007EC0001338DF807309DF80730632BEAD900BF31
:1007FC0000BF03B05DF804FBFEFF010082B00346AE
:10080C008DF807309DF90730002B0CDB9DF8073075
:10081C0003F01F0205499DF907305B09012000FA1E
:10082C0002F241F8232000BF02B0704700E100E063
:10083C0082B003468DF807309DF90730002B13DB8F
:10084C009DF8073003F01F0209499DF907305B0939
:10085C00012000FA02F2203341F82320BFF34F8F1E
:10086C0000BFBFF36F8F00BF00BF02B0704700BF67
:10087C0000E100E082B003468DF807309DF90730A7
:10088C00002B0DDB9DF8073003F01F0206499DF984
:10089C0007305B09012000FA02F2603341F8232093
:1008AC0000BF02B0704700BF00E100E082B0034619
:1008BC0000918DF807309DF90730002B0ADB009B67
:1008CC00DAB20C499DF907305201D2B20B4483F8CD
:1008DC0000230BE0009BDAB207499DF8073003F0C8
:1008EC000F03043B5201D2B20B441A7600BF02B084
:1008FC00704700BF00E100E000ED00E008B5444B9C
:10090C000F22C3F81025424BD3F81435404A23F07C
:10091C000F03C2F814353E4BD3F814353C4A43F060
:10092C000803C2F814353A4BD3F81435384A23F07F
:10093C004073C2F81435364BD3F81435344A43F0AF
:10094C000073C2F81435324BD3F81835304A23F003
:10095C00FF03C2F818352E4BD3F818352C4A43F048
:10096C007F03C2F818352A4BA722C3F86026284B00
:10097C00D3F81435264A23F08063C2F81435244B7F
:10098C00D3F81435224A43F08063C2F81435204B57
:10099C00D3F834351E4A23F00303C2F834351C4B0C
:1009AC00D3F834351A4A43F00203C2F83435184BE5
:1009BC00D3F83435164A23F44073C2F83435144B4B
:1009CC00D3F83435124A43F40073C2F83435104B63
:1009DC00104AC3F838250E4B0022C3F83C250C4BAB
:1009EC000D4AC3F804250120FFF722FF084B44F2FF
:1009FC000802C3F8042300210120FFF757FF012050
:100A0C00FFF738FF0120FFF7F9FE00BF08BD00BF5C
:100A1C0000100040211001001800002082B001904D
:100A2C00024A019B136000BF02B07047080000200F
:100A3C0082B00190024A019B536000BF02B0704724
:100A4C000800002082B003460A468DF80730134692
:100A5C008DF806309DF80730A3F10A0213469B006F
:100A6C001A44044BC3F80825034B03221A7200BF27
:100A7C0002B070470010004008000020044B012217
:100A8C00C3F8FC2F034B00221A7200BF704700BF43
:100A9C00001000400800002008B50C4B0D221A7203
:100AAC000B4B0022C3F81021094B01221A6100BF25
:100ABC00074BD3F81031002BFAD0FFF757FEFFF796
:100ACC0078FD024B01221A7200BF08BD08000020FD
:100ADC000010004000B583B001900B46ADF8023019
:100AEC00104B04221A72BDF80230002B0FD0BDF847
:100AFC0002307F2B0BD8BDF80230DAB2094B1A74D6
:100B0C00BDF802301A460199074811F0AFF9074BAE
:100B1C00074AC3F80425034B05221A7200BF03B021
:100B2C005DF804FB080000201900002000100040B4
:100B3C001800002008B50C4B06221A720B4B002231
:100B4C00C3F80021094B01221A6000BF074BD3F8F0
:100B5C000031002BFAD0FFF724FDFFF70FFE024BFC
:100B6C0007221A7200BF08BD0800002000100040C8
:100B7C00034B01229A60034B08221A7200BF704784
:100B8C00001000400800002008B50C4B09221A7216
:100B9C000B4BD3F85035032B0ED0FFF77DFF084BD2
:100BAC000022C3F80021064B01225A6000BF044BFF
:100BBC00D3F80031002BFAD000BF08BD080000208C
:100BCC000010004008B5064B01229A60FFF7E9FCC3
:100BDC00FFF7D4FD034B0A221A7200BF08BD00BFF9
:100BEC00001000400800002000B587B0039002916F
:100BFC00009313468DF80730224B1B7C8DF8173071
:100C0C009DF81730002B38D09DF91730002B02DAE5
:100C1C007F238DF817309DF817209DF807309A42E6
:100C2C0003D99DF807308DF817309DF817301A4608
:100C3C001549039811F01AF9029B9DF817201A70A8
:100C4C00104B1B7C013B0F4A13441A7C089B1A70F7
:100C5C000E4BD3F84835DBB25B42DBB25AB2009B89
:100C6C001A700A4BD3F80034012B0CBF012300235C
:100C7C00DBB21A46099B1A7000E000BF07B05DF8A2
:100C8C0004FB00BF080000201900002000100040E9
:100C9C0000B583B0184BD3F804350193174BD3F838
:100CAC003831002B10D0154B01225A61144B1B68A4
:100CBC00002B03D0124B1B68019898470F4B002256
:100CCC00C3F83821012313E00C4BD3F80C31002B63
:100CDC000DD00B4B5B68002B03D0094B5B68019864
:100CEC009847064B0022C3F80C21012300E0002397
:100CFC00184603B05DF804FB00B000400010004043
:100D0C000800002008B5FFF73CFCFFF7C1FFFFF718
:100D1C0040FC00BF08BD000008B508220021264891
:100D2C0011F0DAF8254B002283F80B23234B4FF4F8
:100D3C0000621A604FF080430122DA6000BF4FF06E
:100D4C008043D3F8183403F48033012BF7D01C4BB9
:100D5C000022C3F808254FF080430122C3F8182560
:100D6C004FF0804301229A6000BF4FF08043D3F8CC
:100D7C00183403F48033002BF7D0114B0022C3F846
:100D8C0040210F4B4FF48032C3F804230C4B01224B
:100D9C001A600A4B002283F81423084B4FF480127C
:100DAC001A60084B0022C3F80021064B0122C3F83D
:100DBC00042300BF08BD00BFA000002000E100E03C
:100DCC0000B000400040014082B00190024A019BFB
:100DDC00136000BF02B07047A000002084B00190E7
:100DEC00154BD3F804350393039A019BD31A23F0C4
:100DFC007F434FF6FE72934206D8104B01221A60C5
:100E0C000F4B01221A7114E0019A039BD31A23F0A1
:100E1C007F43042B06D8094B01221A60084B02228F
:100E2C001A7106E0044A019BC2F84035044B0022BB
:100E3C001A7100BF04B0704700B000400040014080
:100E4C00A0000020024BD3F804351846704700BFB1
:100E5C0000B0004008B5FFF794FB0A4BD3F84031C3
:100E6C00002B0AD0074B0022C3F84021064B1B680D
:100E7C00002B02D0044B1B689847FFF78AFB00BF7E
:100E8C0008BD00BF00B00040A000002008B5FFF76F
:100E9C0078FB0A4BD3F80031002B0AD0074B002209
:100EAC00C3F80021064B1B68002B02D0044B1B68B7
:100EBC009847FFF76EFB00BF08BD00BF0040014024
:100ECC00A000002082B0164B1B680193154B1B68C9
:100EDC000093019B082B1FD1009B052B1AD801A254
:100EEC0052F823F0090F00000D0F0000110F000045
:100EFC00150F0000190F00001D0F000001230CE05E
:100F0C0001230AE0012308E0012306E0012304E0A9
:100F1C00012302E0012300E00023184602B07047D1
:100F2C00300100103401001082B0164B1B68019385
:100F3C00154B1B680093019B082B1FD1009B052BA5
:100F4C001AD801A252F823F06D0F0000710F0000A7
:100F5C00750F0000790F00007D0F0000810F00005D
:100F6C0001230CE001230AE0012308E0012306E041
:100F7C00012304E0012302E0012300E000231846D2
:100F8C0002B07047300100103401001082B0164BD3
:100F9C001B680193154B1B680093019B082B1FD1F9
:100FAC00009B052B1AD801A252F823F0D10F000098
:100FBC00D50F0000D90F0000DD0F0000E10F00007D
:100FCC00E50F000001230CE000230AE0002308E0F9
:100FDC00002306E0002304E0002302E0002300E0ED
:100FEC000023184602B07047300100103401001085
:100FFC0082B0164B1B680193154B1B680093019B29
:10100C00082B1FD1009B052B1AD801A252F823F0F4
:10101C0035100000391000003D1000004110000098
:10102C00451000004910000001230CE000230AE0E9
:10103C00002308E0002306E0002304E0002302E084
:10104C00002300E00023184602B070473001001066
:10105C003401001082B0164B1B680193154B1B68B2
:10106C000093019B082B1FD1009B052B1AD801A2C2
:10107C0052F823F0991000009D100000A110000000
:10108C00A5100000A9100000AD10000001230CE019
:10109C0000230AE0002308E0002306E0002304E01C
:1010AC00002302E0002300E00023184602B0704742
:1010BC00300100103401001082B0164B1B680193F4
:1010CC00154B1B680093019B082B1FD1009B052B14
:1010DC001AD801A252F823F0FD10000001110000F3
:1010EC0005110000091100000D1100001111000084
:1010FC0001230CE000230AE0002308E0002306E0B3
:10110C00002304E0002302E0002300E00023184643
:10111C0002B07047300100103401001082B0164B41
:10112C001B680193154B1B680093019B082B1FD167
:10113C00009B052B1AD801A252F823F06111000074
:10114C0065110000691100006D11000071110000A3
:10115C007511000001230CE001230AE0012308E0D3
:10116C00012306E0012304E0012302E0012300E057
:10117C000023184602B070473001001034010010F3
:10118C0082B0164B1B680193154B1B680093019B97
:10119C00082B1FD1009B052B1AD801A252F823F063
:1011AC00C5110000C9110000CD110000D1110000C3
:1011BC00D5110000D911000000230CE000230AE037
:1011CC00002308E0002306E0012304E0012302E0F1
:1011DC00012300E00023184602B0704730010010D4
:1011EC003401001008B5FFF7CBFF0346002B07D0E6
:1011FC004FF010234FF08042D3F80832C2F8583524
:10120C0000BF08BD024B034A1A6000BF704700BF05
:10121C00000000200090D00308B5FFF753FE0346F2
:10122C00002B0ED04FF080430022C3F80C214FF05E
:10123C0080430022C3F810214FF080430022C3F8F2
:10124C003825FFF771FE0346002B76D04FF0805304
:10125C00624AD3F80434C2F820354FF080535F4A09
:10126C00D3F80834C2F824354FF080535B4AD3F8D6
:10127C000C34C2F828354FF08053584AD3F8103448
:10128C00C2F82C354FF08053544AD3F81434C2F8BA
:10129C0030354FF08053514AD3F81834C2F83435F6
:1012AC004FF080534D4AD3F81C34C2F840354FF000
:1012BC0080534A4AD3F82034C2F844354FF0805357
:1012CC00464AD3F82434C2F848354FF08053434A89
:1012DC00D3F82834C2F84C354FF080533F4AD3F83A
:1012EC002C34C2F850354FF080533C4AD3F830348C
:1012FC00C2F854354FF08053384AD3F83434C2F81E
:10130C0060354FF08053354AD3F83834C2F8643521
:10131C004FF08053314AD3F83C34C2F868354FF063
:10132C0080532E4AD3F84034C2F86C354FF08053BA
:10133C002A4AD3F84434C2F87035FFF727FE034627
:10134C00002B02D0264B274A1A60FFF751FE0346AA
:10135C00002B03D0244BFB22C3F81825FFF77AFE91
:10136C000346002B0AD0214B1B6823F00F02204BA5
:10137C001B6803F00F031D4913430B60FFF79CFE22
:10138C000346002B03D01B4B4FF400721A60FFF77F
:10139C00C5FE0346002B0DD04FF08043D3F800342C
:1013AC0003F00103002B05D04FF080436FF00102D6
:1013BC00C3F80024104BD3F888300F4A43F4700361
:1013CC00C2F88830BFF34F8F00BFBFF36F8F00BFE1
:1013DC00FFF708FFFFF716FF00BF08BD00C0004075
:1013EC008C5600404881030000F00040E40E0040A1
:1013FC00580200104096024000ED00E008B50C22A7
:10140C0000211E4810F068FD4FF0A0430322C3F8E2
:10141C0018274FF0A0430022C3F82027184B0622B0
:10142C00C3F80C25164B0822C3F81425144B0022C4
:10143C00C3F86C25124B134AC3F82425104B002219
:10144C00C3F81C210E4B0022C3F808210C4B84223C
:10145C00C3F804230C4B402283F802230A4B0422CA
:10146C001A60074B0422C3F80025054B01229A6031
:10147C00034B01221A6000BF08BD00BFA80000206A
:10148C000020004000E0D70100E100E082B00190B4
:10149C000091044A019B1360024A009B536000BFF9
:1014AC0002B07047A8000020024B8422C3F804232A
:1014BC0000BF70470020004082B003468DF8073013
:1014CC009DF80730012B04D1054B1122C3F81C25C4
:1014DC0003E0034B1322C3F81C2500BF02B0704776
:1014EC000020004082B003468DF807309DF807308D
:1014FC00112B07D09DF80730132B03D09DF8073024
:10150C00122B0BD10A4B01221A72094A9DF8073093
:10151C005372084B1222C3F81C2505E0054A9DF8AE
:10152C000730C2F81C3500BF00BF02B0704700BFC7
:10153C00A800002000200040024BD3F81835DBB285
:10154C00184670470020004008B5FFF71AF80D4BFD
:10155C00D3F80831002B05D00A4B0022C3F8082120
:10156C0000F034F8074BD3F81C31002B05D0054B99
:10157C000022C3F81C2100F007F8FFF70AF800BF9F
:10158C0008BD00BF0020004008B50E4B1B7A012B94
:10159C000BD10C4B00221A720A4B5B7A83F01003AE
:1015AC00DAB2094BC3F81C2508E0064B1B68002B6C
:1015BC0004D0044B1B689847012300E00023184615
:1015CC0008BD00BFA80000200020004008B5064B55
:1015DC005B68002B04D0044B5B689847012300E048
:1015EC000023184608BD00BFA800002082B00346A7
:1015FC000A46ADF8063013468DF80530BDF80630B6
:10160C001B0A9AB2BDF806109DF805304B40DBB2B0
:10161C00034931F8133053409BB2184602B070475F
:10162C00A01F010000B583B040F2DC42002123482A
:10163C0010F052FC214B00221A70204B00225A70E1
:10164C001E4B00229A701D4B002283F8CF201B4B9F
:10165C00002283F8D220194B002283F8CD20174B9F
:10166C000022A3F8D624154B0022A3F8D424134B44
:10167C00002283F8D8240F21FF2000F065FD0346DB
:10168C001A460E4BDA700F21FF2000F05DFD034669
:10169C001A460A4B1A71094B1879094B009300230F
:1016AC000022642100F0C0FD06490748FFF7EEFE5A
:1016BC00FFF7FAFE00BF03B05DF804FBB400002096
:1016CC00551D000045200000B51F000000B585B079
:1016DC00034600918DF8073013468DF8063000F064
:1016EC0049FB532000F062FB01200EF00DFD034678
:1016FC005B78184600F05AFB01200EF005FD0346FE
:10170C009B78184600F052FB9DF80730184600F005
:10171C004DFB00238DF80F300CE09DF80F30009A34
:10172C0013441B78184600F041FB9DF80F30013331
:10173C008DF80F309DF80F209DF806309A42ECD3AF
:10174C0000F07EFB00F0CEF90023184605B05DF8E2
:10175C0004FB000010B586B00446084611461A4634
:10176C0023468DF80F3003468DF80E300B468DF85E
:10177C000D301346ADF80A309DF80F30013B052BA8
:10178C0035D801A252F823F0D5170000CD17000070
:10179C00C5170000BD170000B5170000AD170000FD
:1017AC0056238DF8173024E049238DF8173020E0AC
:1017BC0057238DF817301CE055238DF8173018E09F
:1017CC0045238DF8173014E043238DF81730FEF7BE
:1017DC00F1FF01F041F804900F4BD8780F4B0093B8
:1017EC000023049A42F2107100F080FE01E0012304
:1017FC000EE0BDF80A409DF80D209DF80E109DF8E6
:10180C001700BDF820300093234600F0EBF9034697
:10181C00184606B010BD00BFB40000206B1D0000C0
:10182C0000B585B001900B468DF8033002AB18461D
:10183C0004F028F800F09EFA442000F0B7FA0120DA
:10184C000EF062FC03465B78184600F0AFFA0120FC
:10185C000EF05AFC03469B78184600F0A7FA9DF848
:10186C000830184600F0A2FA9DF80930184600F02E
:10187C009DFA9DF80A30184600F098FA9DF80B3046
:10188C00184600F093FA9DF80C30184600F08EFACA
:10189C0000238DF80F300CE09DF80F30019A1344A3
:1018AC001B78184600F082FA9DF80F3001338DF842
:1018BC000F309DF80F209DF803309A42ECD300F0C6
:1018CC00BFFA00F00FF90023184605B05DF804FBD1
:1018DC000FB40023184604B07047000000B583B065
:1018EC0072B600BF524B9B788DF8073062B600BFC2
:1018FC004F4BB3F8D4244E4BB3F8D6349A4240F045
:10190C0093809DF8073001338DF807309DF8073030
:10191C000D2B02D100238DF807309DF807300C2BCE
:10192C005DD801A252F823F0691900007319000068
:10193C007D19000087190000911900009B19000007
:10194C00A5190000AF190000B9190000C319000057
:10195C00CD190000D7190000E119000002F068FA57
:10196C000346012B3FD00EF083FD0346012B3CD0E8
:10197C0008F0CAFA0346012B39D000F015F90346DA
:10198C00012B36D002F034FA0346012B33D002F08F
:10199C0067FA0346012B30D006F026FB0346012BD9
:1019AC002DD006F0C5FB0346012B2AD00EF0CEFD40
:1019BC000346012B27D005F0DBFF0346012B24D077
:1019CC0008F0B8FA0346012B21D00EF07DFD03463A
:1019DC00012B1ED005F060F80346012B1BD0002311
:1019EC008DF8073018E000BF16E000BF14E000BF10
:1019FC0012E000BF10E000BF0EE000BF0CE000BF23
:101A0C000AE000BF08E000BF06E000BF04E000BF32
:101A1C0002E000BF00E000BF72B600BF044A9DF8B0
:101A2C000730937062B600E000BF03B05DF804FBB2
:101A3C00B400002082B072B600BF074B93F8CD30D3
:101A4C008DF8073062B600BF9DF80730013BDBB262
:101A5C00184602B0704700BFB400002000B587B034
:101A6C0003900B468DF80B3072B600BF1B4B93F8EE
:101A7C00CD308DF8163062B600BF9DF80B209DF866
:101A8C001630013B9A4212DA9DF80B309AB29DF84F
:101A9C0016309BB2013B9BB20093134641220421AA
:101AAC000220FFF757FE00238DF817300FE09DF84A
:101ABC001630013B8DF8173072B600BF9DF8173009
:101ACC001A460749039810F0D1F962B600BF9DF889
:101ADC001730184607B05DF804FB00BFB4000020B7
:101AEC00BA00002008B572B600BF1E4B93F8D8346C
:101AFC00002B33D11B4B5B78012B0ED1194B1B7870
:101B0C00012B03D10020FFF7D7FC02E00120FFF7E7
:101B1C00D3FC144B00225A7020E0124B1B78012B83
:101B2C001CD0104BB3F8D4240E4BB3F8D6349A42D5
:101B3C0014D00C4BB3F8D6345A1C91B2094AA2F803
:101B4C00D614C3F30903074A134493F8D330184649
:101B5C00FFF7C8FC034B012283F8D82462B600BF00
:101B6C0000BF08BDB400002008B5054B01221A7057
:101B7C00034B01225A70FFF7B5FF00BF08BD00BF31
:101B8C00B400002008B572B600BF064B00221A70D4
:101B9C00044B01225A7062B600BFFFF7A3FF00BFCF
:101BAC0008BD00BFB400002000B583B072B600BF02
:101BBC000B4BB3F8D434ADF80430094BB3F8D6342E
:101BCC00ADF8063062B600BF01AB04221946032003
:101BDC00FFF77CFD0123184603B05DF804FB00BF42
:101BEC00B400002010B582B00446084611461A46CF
:101BFC0023468DF8073003468DF806300B468DF8DA
:101C0C0005301346ADF8023000F0B4F89DF80730FB
:101C1C00184600F0CBF801200EF076FA03465B78FC
:101C2C00184600F0C3F801200EF06EFA03469B78BC
:101C3C00184600F0BBF89DF80630184600F0B6F8D0
:101C4C009DF80530184600F0B1F8BDF802301B0ABB
:101C5C009BB2DBB2184600F0A9F8BDF80230DBB23B
:101C6C00184600F0A3F8BDF810301B0A9BB2DBB28B
:101C7C00184600F09BF8BDF81030DBB2184600F0A7
:101C8C0095F800F0DDF8FFF72DFF0023184602B0A1
:101C9C0010BD000000B583B0214B5B798DF8073087
:101CAC009DF80730443B0F2B35D801A252F823F096
:101CBC00091D0000231D0000231D0000231D000032
:101CCC00231D0000231D0000231D0000231D000008
:101CDC00231D0000231D0000231D0000231D0000F8
:101CEC00231D0000031D0000FD1C00000F1D000043
:101CFC000EF034FB0FE0FEF79EFB0CE00BF072FDD8
:101D0C0009E0074B93F8CD30013BDBB2194605488F
:101D1C0000F00AF800BF00BF03B05DF804FB00BF81
:101D2C00B4000020BA00002000B583B001900B462F
:101D3C008DF803309DF8033019460198FFF770FDBC
:101D4C0000BF03B05DF804FB00B583B003468DF80B
:101D5C000730FFF7C3FD00BF03B05DF804FB00B50F
:101D6C0083B003468DF80730FEF765FB00BF03B068
:101D7C005DF804FB72B600BF0B4B4FF6FF72A3F875
:101D8C00DA24094BB3F8D4345A1C91B2064AA2F89F
:101D9C00D414C3F30903044A13447E2283F8D320DA
:101DAC0062B600BF00BF7047B400002000B583B01E
:101DBC0003468DF8073072B600BF204BB3F8DA3407
:101DCC009DF8072011461846FFF710FC03461A46EB
:101DDC001A4BA3F8DA249DF807307E2B03D09DF81C
:101DEC0007307D2B14D1154BB3F8D4345A1C91B257
:101DFC00124AA2F8D414C3F30903104A13447D22E7
:101E0C0083F8D3209DF8073083F020038DF807303A
:101E1C000A4BB3F8D4345A1C91B2084AA2F8D41421
:101E2C00C3F30903054A13449DF8072083F8D32014
:101E3C0062B600BF00BF03B05DF804FBB400002025
:101E4C0000B583B072B600BF144BB3F8DA34DB4381
:101E5C00ADF80630BDF80630DBB21846FFF7A6FF2A
:101E6C00BDF806301B0A9BB2DBB21846FFF79EFF8B
:101E7C000A4BB3F8D4345A1C91B2084AA2F8D414C1
:101E8C00C3F30903054A13447E2283F8D32062B6B8
:101E9C0000BF00BF03B05DF804FB00BFB40000201E
:101EAC00054B002283F8CD20034B4FF6FF72A3F8AD
:101EBC00D02000BF704700BFB400002000B583B035
:101ECC0003468DF807309DF807307D2B04D11B4B52
:101EDC00012283F8D2202DE0184B93F8D230012B3D
:101EEC0009D19DF8073083F020038DF80730134B90
:101EFC00002283F8D220114B93F8CD301A460F4BA9
:101F0C0013449DF807205A710C4B93F8CD300133D4
:101F1C00DAB20A4B83F8CD20084BB3F8D0309DF8D9
:101F2C00072011461846FFF761FB03461A46034B80
:101F3C00A3F8D02000BF03B05DF804FBB400002070
:101F4C000A4BB3F8D0304FF2B802934208D1074B8A
:101F5C0093F8CD30023BDAB2044B83F8CD2003E08A
:101F6C00024B002283F8CD2000BF7047B400002044
:101F7C0000B583B0002300930023432204210220E8
:101F8C00FFF7E8FB00BF03B05DF804FB00B583B0BE
:101F9C00002300930023422204210220FFF7DAFBE6
:101FAC0000BF03B05DF804FB08B5224B5B78012B36
:101FBC0012D1204B1B78012B07D10020FFF77CFAA4
:101FCC001C4B002283F8D82402E00120FFF774FA9E
:101FDC00184B00225A702AE0164B1B78012B04D1A7
:101FEC00144B002283F8D82421E0124BB3F8D424EC
:101FFC00104BB3F8D6349A4215D00E4BB3F8D634F6
:10200C005A1C91B20B4AA2F8D614C3F30903094A1D
:10201C00134493F8D3301846FFF764FA054B0122AA
:10202C0083F8D82403E0034B002283F8D82400BFA4
:10203C0008BD00BFB400002000B583B000238DF8AC
:10204C000730FFF779FA03468DF80630334B93F8D7
:10205C00CF30002B14D1314B93F8CE307E2B0FD1D7
:10206C009DF806307E2B0BD02C4B012283F8CF2011
:10207C00FFF716FF9DF806301846FFF71FFF41E0EB
:10208C00264B93F8CF30012B1AD19DF806307E2BBE
:10209C0016D09DF806301846FFF710FF1F4B93F82B
:1020AC00CD30C72B2ED90F211D4800F08BFE1B4BBA
:1020BC00002283F8CD20194B002283F8CF2021E099
:1020CC00164B93F8CF30012B1CD19DF806307E2B8C
:1020DC0018D1FFF735FF114B002283F8CF200F4B9F
:1020EC0093F8CD30002B04D10F210E4800F06AFE7E
:1020FC0008E0FFF7CFFD094B002283F8CD20012328
:10210C008DF80730054A9DF8063082F8CE309DF8E0
:10211C000730184603B05DF804FB00BFB400002084
:10212C007D1F0000991F000008B54FF4DA720021E2
:10213C0003480FF0D1FE0348FEF746FE00BF08BD72
:10214C00900500208128000084B003460A468DF8D3
:10215C00073013468DF8063072B600BF9DF8073075
:10216C00012B03D09DF80730002B1BD19DF80720C5
:10217C002C491346DB009B1A9B000B4411331B7834
:10218C00002B0FD19DF8072026491346DB009B1A24
:10219C009B000B44113301221A7062B600BF9DF8EC
:1021AC0007303BE09DF80730FF2B34D102238DF82C
:1021BC000F302CE09DF80F201A491346DB009B1AB8
:1021CC009B000B4411331B78002B1BD19DF80F2067
:1021DC0014491346DB009B1A9B000B44113301225C
:1021EC001A709DF80F200F491346DB009B1A9B00B9
:1021FC000B4418339DF806201A7062B600BF9DF888
:10220C000F300BE09DF80F3001338DF80F309DF837
:10221C000F300E2BCED962B600BFFF23184604B088
:10222C00704700BF9005002010B586B00091114694
:10223C001A4603468DF807300B468DF806301346C8
:10224C008DF8053000238DF8173016E09DF8172017
:10225C00A5491346DB009B1A9B000B4411331B78DA
:10226C00002B05D09DF817209DF807309A4209D015
:10227C009DF8173001338DF817309DF817300E2B61
:10228C00E4D900E000BF9DF817300F2B00F0288137
:10229C0072B600BF9DF8072093491346DB009B1ACA
:1022AC009B000B4412339DF805201A709DF80630E4
:1022BC00002B02D0012B26D045E09DF80720009979
:1022CC000B465B01194488481346DB009B1A9B00A4
:1022DC0003441960009A13465B011A4440F201133F
:1022EC00A3FB0213D21A52081344DB0D9DF80720EE
:1022FC0098B27D491346DB009B1A9B000B440833B4
:10230C0002461A801FE09DF8072077491346DB0030
:10231C009B1A9B000B44009A1A60009A40F201131E
:10232C00A3FB0213D21A52081344DB0D9DF80720AD
:10233C0098B26D491346DB009B1A9B000B44083383
:10234C0002461A8000BF9DF8072067491346DB0040
:10235C009B1A9B000B4408331B88002B19D19DF84A
:10236C00072061491346DB009B1A9B000B441C6839
:10237C00FEF768FD034623449DF8072023F07F41B8
:10238C0059481346DB009B1A9B0003440433196025
:10239C0012E0FEF757FD034603F1FF1303F57F43ED
:1023AC009DF8072023F07F414F481346DB009B1A12
:1023BC009B000344043319609DF807204A491346D7
:1023CC00DB009B1A9B000B44103301221A709DF802
:1023DC00072045491346DB009B1A9B000B44143322
:1023EC00089A1A60404B93F8B031002B72D100233D
:1023FC008DF8173004E09DF8173001338DF8173045
:10240C009DF8172038491346DB009B1A9B000B44A0
:10241C0010331B78002BEED09DF817203249134651
:10242C00DB009B1A9B000B4404331A682E4BD3F829
:10243C00AC31D31A23F07F4304939DF817308DF8F9
:10244C0016309DF8163001338DF817302BE09DF8BF
:10245C00172025491346DB009B1A9B000B441033B5
:10246C001B78002B1AD09DF817201F491346DB0050
:10247C009B1A9B000B4404331A681B4BD3F8AC31EA
:10248C00D31A23F07F430393039A049B9A4205D2F9
:10249C00039B04939DF817308DF816309DF8173078
:1024AC0001338DF817309DF817300E2BCFD99DF8CE
:1024BC0016200D491346DB009B1A9B000B4404337A
:1024CC001B68094AC2F8A831074BD3F8A831184643
:1024DC00FEF784FC044B012283F8A42162B600E0D1
:1024EC0000BF06B010BD00BF9005002000B589B03C
:1024FC00029101921A4603468DF80F3013468DF85F
:10250C000E3000238DF81F3016E09DF81F20A349D4
:10251C001346DB009B1A9B000B4411331B78002BDA
:10252C0005D09DF81F209DF80F309A4209D09DF8D8
:10253C001F3001338DF81F309DF81F300E2BE4D95E
:10254C0000E000BF9DF81F300F2B00F0238172B606
:10255C0000BF9DF80F2091491346DB009B1A9B008E
:10256C000B44123301221A709DF80E30002B02D04E
:10257C00012B26D045E09DF80F2002990B465B01FC
:10258C00194486481346DB009B1A9B0003441960D0
:10259C00029A13465B011A4440F20113A3FB021387
:1025AC00D21A52081344DB0D9DF80F2098B27B49C8
:1025BC001346DB009B1A9B000B44083302461A801F
:1025CC001FE09DF80F2075491346DB009B1A9B00FA
:1025DC000B44029A1A60029A40F20113A3FB0213F5
:1025EC00D21A52081344DB0D9DF80F2098B26B4998
:1025FC001346DB009B1A9B000B44083302461A80DF
:10260C0000BF9DF80F2065491346DB009B1A9B0009
:10261C000B4408331B88002B17D19DF80F205F4902
:10262C001346DB009B1A9B000B441A68019B134456
:10263C009DF80F2023F07F4158481346DB009B1A6E
:10264C009B0003440433196010E0019B03F1FF135A
:10265C0003F57F439DF80F2023F07F414F4813462D
:10266C00DB009B1A9B000344043319609DF80F2078
:10267C004A491346DB009B1A9B000B441033012282
:10268C001A709DF80F2045491346DB009B1A9B00DE
:10269C000B4414330A9A1A60404B93F8B031002B58
:1026AC0072D100238DF81F3004E09DF81F300133E8
:1026BC008DF81F309DF81F2038491346DB009B1AFC
:1026CC009B000B4410331B78002BEED09DF81F2081
:1026DC0032491346DB009B1A9B000B4404331A68E7
:1026EC002E4BD3F8AC31D31A23F07F4306939DF8CD
:1026FC001F308DF81E309DF81E3001338DF81F30C1
:10270C002BE09DF81F2025491346DB009B1A9B00EC
:10271C000B4410331B78002B1AD09DF81F201F4937
:10272C001346DB009B1A9B000B4404331A681B4BAB
:10273C00D3F8AC31D31A23F07F430593059A069B4B
:10274C009A4205D2059B06939DF81F308DF81E30DA
:10275C009DF81F3001338DF81F309DF81F300E2B64
:10276C00CFD99DF81E200D491346DB009B1A9B0008
:10277C000B4404331B68094AC2F8A831074BD3F841
:10278C00A8311846FEF72AFB044B012283F8A4213A
:10279C0062B600E000BF09B05DF804FB90050020B4
:1027AC0082B0034600918DF8073072B600BF9DF8D9
:1027BC00072006491346DB009B1A9B000B44009A2A
:1027CC001A6062B600BF00BF02B0704790050020CF
:1027DC0082B003468DF8073072B600BF9DF8072013
:1027EC000C491346DB009B1A9B000B441033002250
:1027FC001A709DF8072007491346DB009B1A9B00B3
:10280C000B44143300221A6062B600BF00BF02B042
:10281C00704700BF9005002000B583B003468DF8CB
:10282C0007309DF807300E2B0ED89DF80720134665
:10283C00DB009B1A9B00074A13441C2200211846FC
:10284C000FF04AFB012300E00023184603B05DF8AB
:10285C0004FB00BF9005002008B5FEF7F3FA034611
:10286C00184608BD024BD3F8A8311846704700BF74
:10287C009005002000B587B08D4B1B7C012B15D12A
:10288C008B4BD3F8A8218A4B5B689A420ED1884BAC
:10289C0000221A74864B5B6900209847FEF7D2FA27
:1028AC0003460F331846FEF799FA53E2804B5A68E9
:1028BC007F4BD3F8A8319A4240D100238DF81730C2
:1028CC0038E09DF817207A491346DB009B1A9B00D1
:1028DC000B4410331B78012B27D19DF81730012B9B
:1028EC0023D09DF81730002B1FD09DF8172070496E
:1028FC001346DB009B1A9B000B4404331A686C4B89
:10290C00D3F8A831D31A23F07F43B3F5247F0CD22C
:10291C009DF81720664BD3F8A81165481346DB00C9
:10292C009B1A9B000344043319609DF81730013344
:10293C008DF817309DF817300E2BC2D900238DF867
:10294C0017307CE19DF8172059491346DB009B1A80
:10295C009B000B4410331B78012B40F06B81544BC4
:10296C00D3F8A8119DF8172051481346DB009B1A89
:10297C009B00034404331B68994240F05B819DF833
:10298C0017109DF817204A480B46DB005B1A9B007A
:10299C0003440433196846481346DB009B1A9B001A
:1029AC0003440C3319609DF81730012B21D1404B97
:1029BC00012283F8B0219DF817203D491346DB0016
:1029CC009B1A9B000B44103300221A709DF81720A1
:1029DC0037491346DB009B1A9B000B4414331B68CE
:1029EC009DF8172010469847314B002283F8B021F0
:1029FC0020E19DF817202E491346DB009B1A9B0003
:102A0C000B4408331B88002B54D19DF81720284900
:102A1C001346DB009B1A9B000B44103300221A70E8
:102A2C009DF8172022491346DB009B1A9B000B4490
:102A3C00143318689DF817201D491346DB009B1AA8
:102A4C009B000B4418331B78194600F0BBF99DF81A
:102A5C00172017491346DB009B1A9B000B441233BB
:102A6C001B78002B40F0E680114B012283F8B0213B
:102A7C009DF817200E491346DB009B1A9B000B4454
:102A8C0019689DF817200A481346DB009B1A9B0017
:102A9C00034414331B689DF8170000930023012294
:102AAC00FFF7C2FB024B002283F8B021C2E000BF4B
:102ABC00900500209DF81720A8491346DB009B1AAF
:102ACC009B000B4408331B88013B98B2A349134667
:102ADC00DB009B1A9B000B44083302461A809DF8BE
:102AEC0017209E491346DB009B1A9B000B440833AE
:102AFC001B88002B40F084809DF8172097491346C3
:102B0C00DB009B1A9B000B4419689DF81720934817
:102B1C001346DB009B1A9B0003440C331B680B44CD
:102B2C009DF8172023F07F418C481346DB009B1A3D
:102B3C009B000344043319609DF817208749134602
:102B4C00DB009B1A9B000B4404331A68834BD3F8AD
:102B5C00A831D31A23F07F43B3F5247F6AD29DF8B2
:102B6C0017207E491346DB009B1A9B000B44103345
:102B7C0000221A709DF8172078491346DB009B1A27
:102B8C009B000B44143318689DF8172073491346A7
:102B9C00DB009B1A9B000B4418331B78194600F082
:102BAC0011F99DF817206D491346DB009B1A9B0009
:102BBC000B4412331B78002B3CD1684B012283F859
:102BCC00B0219DF8172065491346DB009B1A9B002A
:102BDC000B4419689DF8172060481346DB009B1ABC
:102BEC009B00034414331B689DF8170000930023CB
:102BFC000122FFF719FB594B002283F8B02119E091
:102C0C009DF8172055491346DB009B1A9B000B447B
:102C1C000C331B6803F1FF1303F57F439DF817205A
:102C2C0023F07F414D481346DB009B1A9B00034465
:102C3C00043319609DF8173001338DF817309DF867
:102C4C0017300E2B7FF67EAE444BD3F8A831434A97
:102C5C00C2F8AC3100238DF8173004E09DF8173022
:102C6C0001338DF817309DF817203C491346DB00D3
:102C7C009B1A9B000B4410331B78002B03D19DF83F
:102C8C0017300E2BEAD99DF817300E2B5ED89DF815
:102C9C00172032491346DB009B1A9B000B4404336C
:102CAC001A682E4BD3F8AC31D31A23F07F4304931C
:102CBC009DF817308DF816309DF8163001338DF8CD
:102CCC0017302BE09DF8172024491346DB009B1A84
:102CDC009B000B4410331B78002B1AD09DF8172047
:102CEC001E491346DB009B1A9B000B4404331A68E5
:102CFC001A4BD3F8AC31D31A23F07F430393039AC6
:102D0C00049B9A4205D2039B04939DF817308DF8CF
:102D1C0016309DF8173001338DF817309DF81730A9
:102D2C000E2BCFD99DF816200C491346DB009B1AAD
:102D3C009B000B4404331B68084AC2F8A831074BAC
:102D4C00D3F8A8311846FEF749F803E0034B0022EC
:102D5C0083F8A42107B05DF804FB00BF90050020A8
:102D6C0008B57C22002102480FF0B6F800BF08BD60
:102D7C004407002000B583B016E072B600BF104BBC
:102D8C009B6F0193019B9B680D4A936762B600BFD2
:102D9C00019B1B689847019B00221A60019B002233
:102DAC001A71019B00229A60054B9B6F002BE4D19A
:102DBC00FDF7DFFBFDF73BFBFDF7D3FBF4E700BFB3
:102DCC004407002000B585B001900B468DF8033008
:102DDC0072B600BF1D4B039302E0039B0C330393AD
:102DEC00039B1B68002B03D0039B194A9342F4D915
:102DFC00039B174A934203D9FDF7DCFCFDF71BFB41
:102E0C00039B019A1A60039B9DF803201A71114BC6
:102E1C00029303E0029B1B6808330293029B1B681E
:102E2C00002B06D0029B1B681A79039B1B799A42D4
:102E3C00F0D9029B1A68039B9A60029B039A1A6052
:102E4C0062B600BF00BF05B05DF804FB440700206C
:102E5C00B0070020BC07002000B589B003900846DD
:102E6C0011461A4603468DF80B300B468DF80A3086
:102E7C0013468DF8093000238DF81E3000238DF891
:102E8C001A30FF238DF81B30039B93F8A530002BD1
:102E9C0014BF01230023DBB28DF81930039A039B76
:102EAC0052689A659DF80A30012B15D101238DF8D3
:102EBC001E3003AB022118460EF03CFC0346012BDE
:102ECC0000F09381039B5B6800221A70039B5B6884
:102EDC0001333F221A7025E0039BB3F90830002B15
:102EEC0019D09DF81A30012B1CD101238DF81E30FE
:102EFC0003AB022118460EF01DFC0346012B00F01B
:102F0C007681039B5B6880221A70039B5B6801339C
:102F1C003F221A7006E09DF80B30022B02D10123E0
:102F2C008DF81E309DF80B30022B54D102F0DAFCD8
:102F3C000346ADF8163003AB022118460EF0FAFB2F
:102F4C000346012B00F05581BDF816301A461201CC
:102F5C00D31A5B009BB2ADF81630BDF81630C3F334
:102F6C000B03ADF81C30039B93F8A030002B07D05B
:102F7C00BDF81C306FEA43436FEA5343ADF81C3085
:102F8C00039B5B68BDF81C20D2B21A70BDF81C30D4
:102F9C001B0A9AB2039B5B680133D2B21A7003AB63
:102FAC00022118460EF0C6FB0346012B00F02381CC
:102FBC0040F60273ADF81430039B5B68BDF8142027
:102FCC00D2B21A70BDF814301B0A9AB2039B5B681C
:102FDC000133D2B21A709DF81930002B07D0039B25
:102FEC00184600F05BFC0346012B00F00681022022
:102FFC000DF08AF8014603AB012218460EF030FBA7
:10300C000346012B00F0FB800A980EF050F90346A2
:10301C00002B1AD003AB012118460EF08BFB034694
:10302C00012B00F0EE80039B5B68FF221A7003AB50
:10303C00012118460EF07EFB0346012B00F0E380C5
:10304C00039B5B68FF221A701AE00A9B1B78013BFA
:10305C00012B09D803AB01220A9918460EF000FB8C
:10306C000346012B0BD1D7E00A9B1B789BB20122A4
:10307C0000924B2208210120FEF76CFB00E000BF00
:10308C00039A039B5268C3F8982004200DF03CF877
:10309C00014603AB012218460EF0E2FA0346012B5F
:1030AC0000F0B38003AB012118460EF043FB03463E
:1030BC00012B00F0AC80039B5B689DF809201A7013
:1030CC0003AB012118460EF035FB0346012B00F033
:1030DC00A08000238DF81F300A980EF0E8F8034604
:1030EC00002B09D09DF81F3043F008038DF81F30DA
:1030FC0002238DF81B301AE00A9B1B78012B02D09F
:10310C00022B0AD013E09DF81F3043F008038DF812
:10311C001F3002238DF81B3009E09DF81F3043F05F
:10312C000C038DF81F3003238DF81B3000BF9DF866
:10313C001F3063F03F038DF81F309DF81E305B008D
:10314C005AB29DF91F3013435BB28DF81F309DF8B6
:10315C001F3043F020038DF81F30039B5B689DF8F4
:10316C001F201A7003AB012118460EF0E3FA034638
:10317C00012B50D000238DF81F309DF81F209DF897
:10318C000B3013438DF81F309DF81930DB005AB209
:10319C009DF91F3013435BB28DF81F309DF80B3037
:1031AC00022B0CD00A980EF082F80346002B06D1A5
:1031BC009DF81F3043F020038DF81F3000E000BF56
:1031CC009DF81B30022B06D19DF81F3043F04003B5
:1031DC008DF81F3002E09DF81B30032B039B5B68BE
:1031EC009DF81F201A70002317E000BF14E000BFE9
:1031FC0012E000BF10E000BF0EE000BF0CE000BF0B
:10320C000AE000BF08E000BF06E000BF04E000BF1A
:10321C0002E000BF00E000BF0123184609B05DF8D2
:10322C0004FB000000B589B003900291029B0022C0
:10323C001A70029B00225A70029B5B781A46039B01
:10324C00B3F908309A4200F39282039B5B68029AAE
:10325C00527813441B788DF81D309DF81D3003F007
:10326C000703DAB2029B9A709DF81D30DB08DBB2C3
:10327C0003F00103DAB2029BDA709DF81D301B09D2
:10328C00DBB203F00103DAB2029B1A719DF81D3018
:10329C005B09DBB203F00103DAB2029B5A719DF8B1
:1032AC001D309B09DBB203F00103DAB2029B9A7169
:1032BC00029B5B780133DAB2029B5A70029B5B78FB
:1032CC001A46039BB3F908309A4200F35282039BCF
:1032DC005B68029A527813441B788DF81D309DF868
:1032EC001D305B08DBB203F00103DAB2029BDA712A
:1032FC009DF81D301B09DBB203F00303DAB2029B0D
:10330C001A729DF81D3003F00103DAB2029B9A7217
:10331C00029BDB79012B04D1029B1B7A022B40F020
:10332C002A829DF81D309B08DBB203F00303032BAC
:10333C000ED0032B10DC002B02D0022B04D00BE0A0
:10334C00029B00221A7717E0029B01221A7713E0E6
:10335C00029B02221A770FE09DF81D309B08DBB20E
:10336C009BB203F003039BB2009301232E2208218E
:10337C000220FEF7EFF911E29DF81D309B09DBB23C
:10338C0003F00303032B10D0032B13DC002B02D010
:10339C00022B05D00EE0029B002283F82D2019E0B1
:1033AC00029B012283F82D2014E0029B022283F859
:1033BC002D200FE09DF81D309B09DBB29BB203F072
:1033CC0003039BB2009302232E2208210220FEF756
:1033DC00C1F9E3E1029B5B780133DAB2029B5A70CC
:1033EC00029B9B7A002B16D1029B5B781A46039B9F
:1033FC00B3F908309A4200F3C081039B5B68029AD0
:10340C00527813441A78029B5A72029B5B780133F0
:10341C00DAB2029B5A70029B5B781A46039BB3F993
:10342C0008309A4200F3AB81039B5B68029A527896
:10343C009818029B03F10B02012304210EF0A6F84D
:10344C00029B5B780233DAB2029B5A70029B5B7868
:10345C001A46039BB3F908309A4200F39281029BFF
:10346C001B7F022B20D0022B3DDC002B38D0012BF4
:10347C0039D1039B5B68029A52789818029B03F12E
:10348C001C02012301210EF081F8029B5B780233B0
:10349C00DAB2029B5A70029B5B781A46039BB3F913
:1034AC0008309A421EDD79E1039B5B68029A5278E0
:1034BC009818029B03F11C02012302210EF066F8FE
:1034CC00029B5B780833DAB2029B5A70029B5B78E2
:1034DC001A46039BB3F908309A4200F3548102E078
:1034EC0000BF00E000BF029B93F82D30022B20D0D0
:1034FC00022B3DDC002B38D0012B39D1039B5B68B0
:10350C00029A52789818029B03F12D020123012193
:10351C000EF03CF8029B5B780233DAB2029B5A70D5
:10352C00029B5B781A46039BB3F908309A421EDD66
:10353C0034E1039B5B68029A52789818029B03F162
:10354C002D02012302210EF021F8029B5B78083337
:10355C00DAB2029B5A70029B5B781A46039BB3F952
:10356C0008309A4200F3118102E000BF00E000BF76
:10357C00029BDB79012B04D1029B1B7A022B40F0BE
:10358C000681029BDB78002B40F00381029BDB79E8
:10359C00012B40F0DB80039B5B68029A527813444A
:1035AC001B788DF81D30029B5B780133DAB2029BDD
:1035BC005A709DF81D301AB2039B5B6802994978CA
:1035CC000B441B781B021BB213431BB2ADF81A3011
:1035DC00029B5B780133DAB2029B5A70BDF81A3049
:1035EC00B3F57C5F04D1039B012283F89E20ADE0F0
:1035FC00BDF81A30B3F57E5F04D1039B002283F82B
:10360C009E20A3E0BDF91A30002BC0F28880BDF8D3
:10361C001A3003F07F03ADF81830BDF81A30DB1107
:10362C008DF817309DF817301E2B67D1039B5B6804
:10363C00029A527813441B788DF81630039B5A6803
:10364C00029B5B78013313441B788DF815309DF881
:10365C0015301B021AB29DF816301BB213431BB265
:10366C00ADF81230BDF91230002B04DA039B0122A5
:10367C0083F8A02003E0039B002283F8A020BDF870
:10368C00123003F40063002B09D0BDF812306FEA3E
:10369C0003536FEA13539BB2ADF81E3005E0BDF92E
:1036AC001230C3F30B03ADF81E30BDF91E303D4A8A
:1036BC0082FB03121A441211DB17D31AADF81E3019
:1036CC00029BBDF81E20DA87029B5A78BDF8183091
:1036DC00DBB21344DAB2029B5A70039B5B68029A0A
:1036EC0052781A44039B9A6500BF029B5B781A467A
:1036FC00039BB3F908309A421FD11AE0029B5B7806
:10370C00023BDAB2029B5A70039B5B68029A5278B6
:10371C001A44039B9A65029B01221A703EE0029B9D
:10372C005B78023BDAB2029B5A70029B01221A7040
:10373C000CE0029B01221A7030E0029B5B781A4667
:10374C00039BB3F908309A4225DC24E7039B5B68A2
:10375C00029A52781A44039B9A65029802F0E2FE90
:10376C000346002B19D0029B01221A7016E000BFF1
:10377C0014E000BF12E000BF10E000BF0EE000BF7D
:10378C000CE000BF0AE000BF08E000BF06E000BF8D
:10379C0004E000BF02E000BF00E000BF09B05DF82C
:1037AC0004FB00BF8988888808B50C4B00221A706E
:1037BC000A4B01225A70094B00229A7010220021E8
:1037CC0007480EF089FB054B0022DA741022002109
:1037DC0004480EF081FB00BF08BD00BFC0070020ED
:1037EC00C3070020D4070020014B9B781846704774
:1037FC00C0070020014BDB7C18467047C007002037
:10380C0010B483B0034600918DF80730094A9DF837
:10381C0007309370074B009A033314685068916813
:10382C00D2681C6058609960DA6000BF03B05DF824
:10383C00044B7047C007002010B483B003460091BE
:10384C008DF80730094A9DF80730D374074B009A5E
:10385C0003F114041346186859689A68DB680FC49E
:10386C0000BF03B05DF8044B704700BFC0070020D9
:10387C00094B1B78002B01D101230AE0064B9B78E6
:10388C00002B05D0044BDB7C002B01D0012300E086
:10389C0000231846704700BFC007002082B001907B
:1038AC000023184602B0704782B0019000231846DE
:1038BC0002B0704782B001900023184602B07047E6
:1038CC0082B001900023184602B0704782B001907C
:1038DC0000910123184602B07047000030B583B048
:1038EC004FF4DC72002133480EF0F6FA102200215E
:1038FC0031480EF0F1FA2F4B002283F87E212D4B2C
:10390C00012283F89D212B4B002283F89E21294B09
:10391C004FF42472A3F8A221264B0122C3F85C2198
:10392C00244B264A03F5C07413460FCB84E80F00D2
:10393C000CF0B0FB0346012B03D1012002F098FBE5
:10394C0002E0002002F094FB02F0EEFB1C4B002284
:10395C009A71FDF793F81B48FDF760F81A48FDF7CC
:10396C0067F800210120FEF7EFFB03461A46114BC6
:10397C0083F8A4210F4B93F8A4410E4BB3F8A2315A
:10398C001D46FDF75FFA0246104B009301232946B2
:10399C002046FEF7ABFDFFF707FF00210020FEF7E6
:1039AC00D3FB03461A46034B83F8AC2100BF03B08C
:1039BC0030BD00BFE4070020AC090020A0210100AD
:1039CC009C090020553C0000293D0000853A000070
:1039DC0084B0019072B600BF264B1A78019B1B78FD
:1039EC009A4204D062B600BF4FF0FF333EE0002392
:1039FC000393204BB3F801309AB2019BB3F801301A
:103A0C009BB29A420CD162B600BF1A4BB3F803308A
:103A1C009BB21A46019BB3F803309BB2D31A25E034
:103A2C00144BB3F801309BB21A46019BB3F801302A
:103A3C009BB2D31A012B13D10E4BB3F803309BB2AC
:103A4C000393019BB3F803309BB21A46039B9B1A5A
:103A5C0003F57F43FF330393039B0133039302E08E
:103A6C004FF0FF33039362B600BF039B184604B0BC
:103A7C00704700BFE407002000B585B003468DF801
:103A8C000F30FEF7EFFE03461B4AC2F8A8311A4B63
:103A9C0093F8A401184BD3F8A821184B00930123D9
:103AAC004FF42471FEF722FD134B4FF42472A3F84C
:103ABC00A221114B1B7C002B13D10CF0EBFA03460B
:103ACC00012B0BD1012002F0D3FA01F0C3FE05F05B
:103ADC004DFB03461A46084B1A8104E000F0CCF962
:103AEC0001E000F04FFC064B1B680133044A1360E5
:103AFC0000BF05B05DF804FBE4070020853A000028
:103B0C00AC09002000B585B003468DF80F30464B4C
:103B1C0093F86031023B162B6CD801A252F823F0BB
:103B2C00213C0000013C0000893B00008F3B000061
:103B3C00953B00009B3B0000A13B0000A73B000015
:103B4C00AD3B0000B33B0000B93B0000BF3B0000A5
:103B5C00013C0000C53B0000CB3B0000D13B00000A
:103B6C00D73B0000DD3B0000E33B0000E93B0000DD
:103B7C00EF3B0000F53B0000FB3B000000F0C6FDF6
:103B8C0049E000F029FE46E000F03EFE43E000F084
:103B9C005BFE40E000F0A4FE3DE000F023FF3AE0C5
:103BAC0000F054FF37E000F069FF34E000F086FFCE
:103BBC0031E000F0E3FF2EE001F026F92BE001F0FC
:103BCC0057F928E001F06CF925E001F089F922E0C1
:103BDC0001F0C4F91FE001F0ADFB1CE001F08AFC20
:103BEC0019E001F09FFC16E001F0BCFC13E001F0C1
:103BFC0005FD10E00C4B93F860319AB20A4BDB8850
:103C0C0000931346342209210120FDF7A3FD02F095
:103C1C0037FB00E000BF054B5B680133034A536080
:103C2C0000BF05B05DF804FBE4070020AC090020E0
:103C3C0000B583B003468DF80730FDF795FF00BF44
:103C4C0003B05DF804FB000000B587B00390314B66
:103C5C00D3F8A831039AD31A05932E4B1B7C002B57
:103C6C0003D1059800F0C8F94AE02A4B93F860316B
:103C7C00073B102B34D801A252F823F0CD3C0000A6
:103C8C00ED3C0000ED3C0000ED3C0000D53C00009C
:103C9C00D53C0000ED3C0000ED3C0000ED3C00008C
:103CAC00ED3C0000DD3C0000DD3C0000ED3C000084
:103CBC00ED3C0000ED3C0000ED3C0000E53C00005C
:103CCC00059800F0D9FD1BE0059800F023FF17E0E4
:103CDC00059801F00BF913E0059801F05BFC0FE07F
:103CEC000C4B93F860319AB20A4BDB880093134665
:103CFC00352209210220FDF72DFD02F0C1FA00BF8B
:103D0C00054B9B680133044A936000BF07B05DF814
:103D1C0004FB00BFE4070020AC09002000B587B00D
:103D2C000390314BD3F8A831039AD31A05932E4B39
:103D3C001B7C002B03D1059800F07AF94AE02A4B42
:103D4C0093F86031083B102B34D801A252F823F0C1
:103D5C00A13D0000C13D0000C13D0000C13D00007F
:103D6C00C13D0000A93D0000C13D0000C13D000067
:103D7C00C13D0000C13D0000C13D0000B13D00004F
:103D8C00C13D0000C13D0000C13D0000C13D00002F
:103D9C00B93D0000059800F0BBFD1BE0059800F054
:103DAC0005FF17E0059801F0F1F813E0059801F014
:103DBC003DFC0FE00C4B93F860319AB20A4BDB8858
:103DCC0000931346362209210220FDF7C3FC02F0B2
:103DDC0057FA00BF054BDB680133044AD36000BFC0
:103DEC0007B05DF804FB00BFE4070020AC0900201D
:103DFC0000B583B00D4B1B788DF800300B4BB3F82E
:103E0C0001309BB2ADF80130084BB3F803309BB2D4
:103E1C00ADF803306B46052219460420FDF756FC1D
:103E2C000123184603B05DF804FB00BFE407002033
:103E3C0000B583B000238DF80730084B1B7C8DF840
:103E4C0007300DF10703012219460020FDF73EFC57
:103E5C000123184603B05DF804FB00BFE407002003
:103E6C0008B50F2203490520FDF730FC0123184645
:103E7C0008BD00BF9C09002000B583B05A4B93F8D5
:103E8C006031022B00F0AB80FCF7DCFF0346564A96
:103E9C00C2F89431544B012283F89C21524B93F875
:103EAC006031012B1CD0012002F0A6F9FCF7F4FDC7
:103EBC000DF0C4F80346DBB203F00F03DBB20B3397
:103ECC00DAB2494B83F87C21474B93F87C310221C1
:103EDC001846FCF7B7FDFCF757FEFCF773FE3CE009
:103EEC00424BD3F80730404AB2F8A22113443F4A60
:103EFC00C2F807303D4BD3F80B303B4AB2F8A22145
:103F0C0013443A4AC2F80B30374BB3F803309AB229
:103F1C00374BA3FB0213D9090B469B000B445B01E7
:103F2C00D31A9BB2002B14D1FCF7B6FD0DF086F81A
:103F3C000346DBB203F00F03DBB20B33DAB22A4BCE
:103F4C0083F87C21284B93F87C3102211846FCF72E
:103F5C0079FDFCF719FEFCF735FE234B93F8603125
:103F6C00012B20D1204B93F87F31012B1BD1FCF777
:103F7C0093FD1D4B93F87E31184602F017F903465A
:103F8C001A46194B83F87C21174B93F87C3102218C
:103F9C001846FCF757FDFCF7F7FDFCF713FE124B28
:103FAC00002283F87F21104BB3F803309BB201330E
:103FBC009AB20D4BA3F803200B4B93F8AC010A4BB0
:103FCC00B3F8A231213B1946074BD3F8A821094B72
:103FDC0000930123FEF78AFAFDF7D4FD00E000BF41
:103FEC0003B05DF804FB00BFE40700209C0900202F
:103FFC00CDCCCCCC3D3C000000B583B001900B4B3C
:10400C0093F86031012B0DD1FDF7AEFD022002F0CB
:10401C00F3F8064A019BC2F87431044A019BC2F8BA
:10402C00783100E000BF03B05DF804FBE40700202A
:10403C0030B597B00390A94B93F86031022B0BD09D
:10404C00A64B93F860319BB20022009232220921D8
:10405C000220FDF77FFB3FE1032002F0CDF80920A1
:10406C000CF0B2FA03469D4AC2F868319B4BD3F868
:10407C006831002B08D1002300930023462209212C
:10408C000220FDF767FB27E1944BD3F86831092236
:10409C001A70924BD3F8683109225A708F4BD3F8AF
:1040AC0068218E4BD3F86831C5325A608B4BD3F8EC
:1040BC0068315868894BD3F8683103F10801874B94
:1040CC00D3F8683103F1C104844BD3F86831C2339F
:1040DC00824AD2F86821C33201920093234682228D
:1040EC00FCF782FD7D4BD3F86831B3F90830012B16
:1040FC0006DD7A4BD3F86831B3F90830802B0DDD2F
:10410C00764BD3F86831B3F908309BB20093002397
:10411C00402209210220FDF71DFBD0E0022170484E
:10412C000DF0E1FB6D4BD3F8683193F8C330002BE5
:10413C0000F0BC80694BD3F8683106AA11461846CA
:10414C00FFF770F89DF81830002B00F0B180634B2E
:10415C00D3F868319DF81A2083F84E205F4BD3F8C2
:10416C0068319DF8212083F84F205C4BD3F86831DF
:10417C003D331A460DF145031D685C689868D96893
:10418C00156054609060D1601B7C1374534BD3F852
:10419C00683106AA11461846FFF798FB0346002B18
:1041AC0000F088804D4BD3F8683193F8A530002B84
:1041BC0013D04A4B1B7C002B40F081809DF81A30A9
:1041CC00002B7CD1454BD3F8683106AA1146184612
:1041DC0001F0ACFB0346002B6ED09DF819309BB25E
:1041EC0019463F480DF00DFB0023ADF816309DF835
:1041FC001830012B22D19DF81F30012B1ED19DF8B8
:10420C001A30002B1AD104200BF07EFF024606ABAD
:10421C000B33114618460DF05BF90346002B0DD0FD
:10422C002E4BD3F868310DF116021146184600F0EA
:10423C0059F80346002B01D0012300E00023002B8A
:10424C003CD0FCF729FCFCF7FDFD0246234BD3F8D0
:10425C009431D21A214BD3F8983113441F4AC2F827
:10426C009831BDF8163019461D480DF0CAFA1B4B93
:10427C00D3F87831184601F04FFE012001F0F8FE1A
:10428C00164BDB8800220092302209210320FDF717
:10429C0061FA124BD3F86831184601F027FF0F4B27
:1042AC000022C3F8682101F0EBFF15E000BF06E027
:1042BC0000BF04E000BF02E000BF00E000BF074BFE
:1042CC00D3F8683118460CF0E3F9044B0022C3F81C
:1042DC006821012001F090FF17B030BDE4070020E9
:1042EC004C09002000B587B0039002910299039805
:1042FC0001F080FB0346012B34D101F07BFD204BF8
:10430C00DB88184604F008FF04F030FF03461A4619
:10431C001B4B1A8100238DF8173010E0184B93F8C3
:10432C007C310B3B9DF8172015490A4492F88021EB
:10433C00934209D09DF8173001338DF817309DF852
:10434C0017300F2BEAD900E000BF04F095FF0346AD
:10435C001A469DF817309B1ADAB2094B83F87D2167
:10436C00012308E0002300930323292209210220C2
:10437C00FDF7F0F90023184607B05DF804FB00BF09
:10438C00E407002000B58BB000238DF8263001F037
:10439C0009FAFCF7A8F8A14BDB88002B01D1FCF73C
:1043AC008BF80BF077FE0346002B28D19B4BDA6879
:1043BC009A4BD3F85C319A4208D9984BDA68974BF0
:1043CC00D3F85C31D31A954AD36018E0934B012291
:1043DC00C3F85C21002001F04BFE904BDB880022DF
:1043EC0000922F2209210220FDF7B4F98C4B9B7906
:1043FC000133DAB28A4B9A7101F042FF7EE1874BAE
:10440C0093F86031002B0FD0844B93F860319AB243
:10441C00824BDB8800931346332209210220FDF7DF
:10442C0099F901F02DFF69E17C4B0122C3F85C2165
:10443C0004F09CFE03461A46784B1A81774BDA88B7
:10444C00764B1B899A426FD104F080FE04F014FF66
:10445C000346184601F0AAFE03461A466F4B83F832
:10446C007C2104F083FE03461A466C4B1A810BF038
:10447C0039FE0346002B5AD00BF00CFE0346002BE2
:10448C0055D1664B1A89654BDB889A420AD9634B26
:10449C001B891A46614BDB88D31A1A465F4BC3F84B
:1044AC005C210DE004F076FE03461A465B4B1B893B
:1044BC0013445A4AD2889B1A1A46584BC3F85C21AB
:1044CC00564B93F8A401554BD3F85C314FF424723E
:1044DC0002FB03F1514BD3F8A821524B009301235B
:1044EC00FEF704F84D4BD3F85C319BB21A469200A0
:1044FC001A44D20013441B019AB2484BA3F8A221D0
:10450C0000238DF8273006E001F04CF99DF8273098
:10451C0001338DF827309DF82720404BD3F85C31C0
:10452C00013B9A42F0D302E001F0AAFEE6E004F06F
:10453C0043FE03468DF825309DF82530032B08D01B
:10454C00032B00F3CC80012B03D0022B00F0B380A3
:10455C00C5E0324B0022C3F8642105AB184604F0C9
:10456C0061FE04F09BFE0346002B4AD005AB1846B7
:10457C000CF09DFE0346002B2FD105AB18460CF01A
:10458C0057FC0346254AC2F86431244BD3F86431F6
:10459C00002B07D105AB18460CF0F6FA03461F4A60
:1045AC00C2F8643104F01AFE0346002B29D11B4BD0
:1045BC00D3F86431002B0AD0184BD3F864310122A4
:1045CC0083F8A42005AB0121184602F027F805ABAF
:1045DC000121184602F01AF813E00CF027FB0346F1
:1045EC000E4AC2F864310D4BD3F86431002B08D15C
:1045FC0001238DF826300CF07BFA0346074AC2F8EB
:10460C006431064BD3F86431002B0DD19DF8253065
:10461C00012B50D101F034FE70E000BFE407002004
:10462C009C090020853A0000042001F0E5FD354B83
:10463C00D3F8643109225A709DF82630012B20D111
:10464C0003AB184601F01EF90AF0B2FB03461B0A35
:10465C009BB2DBB2013BDBB28DF80B30294BD3F8AC
:10466C006431D3F8943003A9052218460DF0FEFBF3
:10467C00244BD3F86431D3F8943005339DF80B20D8
:10468C001A70204BD3F8643193F851200132D2B216
:10469C0083F851201B4B93F8A4011A4BD3F87431B7
:1046AC0003F19801174BD3F8A821174B0093012362
:1046BC00FDF71CFF22E00F2001F09EFD114B93F83B
:1046CC00A401104BD3F8743103F175010D4BD3F8E1
:1046DC00A8210D4B00930123FDF708FF0EE09DF878
:1046EC0025309AB2074BDB88009313462D22092103
:1046FC000120FDF72FF801F0C3FD00BF0BB05DF8F2
:10470C0004FB00BFE4070020113B000000B585B09E
:10471C00052001F071FD2D4B93F8A4012B4BD3F820
:10472C00743103F1A501294BD3F8A821284B009330
:10473C000123FDF7DBFE254BD3F8643119462548E0
:10474C000DF0FCF8214B93F8B930002B08D0214820
:10475C00FFF7AAF80346002B02D001F091FD32E0DE
:10476C001C4B039303AB022118460DF08EF8034645
:10477C00012B08D1154BD3F86431012283F850205A
:10478C0001F07EFD1FE0114B93F87C31012118469E
:10479C00FCF758F90D4B9B690C4AB2F91C2092B2EC
:1047AC0011461846FCF796F9FCF7C4F9FCF74AFBDE
:1047BC000346064AC2F89431044B012283F89C212B
:1047CC00062001F019FD05B05DF804FBE40700209C
:1047DC00113B0000F807002000B583B0094B93F89B
:1047EC0060319AB2074BDB880093134637220921BC
:1047FC000220FCF7AFFF01F043FD00BF03B05DF8F2
:10480C0004FB00BFE407002000B583B0072001F0D3
:10481C00F3FC0B4B93F8A401094BD3F8743103F15F
:10482C00D101074BD3F8A821064B00930123FDF7C8
:10483C005DFEFCF79DF900BF03B05DF804FB00BF03
:10484C00E4070020113B000000B583B0094B93F83E
:10485C0060319AB2074BDB88009313463C22092146
:10486C000220FCF777FF01F00BFD00BF03B05DF8F1
:10487C0004FB00BFE407002000B585B003900820BE
:10488C0001F0BAFC134B93F8A401124BB3F8A2310C
:10489C001946104BD3F8A8210F4B00930123FDF7B9
:1048AC0025FE0C4A039BC2F874310A4B93F8A40101
:1048BC00084BD3F8743103F1A601064BD3F8A821A9
:1048CC00064B00930123FDF711FE00BF05B05DF808
:1048DC0004FB00BFE4070020853A0000113B0000F8
:1048EC0000B583B0094B93F860319AB2074BDB8863
:1048FC00009313463B2209210220FCF72BFF01F009
:10490C00BFFC00BF03B05DF804FB00BFE407002050
:10491C0000B587B00390092001F06EFC2E4B93F884
:10492C00A4012D4BB3F8A23119462B4BD3F8A82177
:10493C002A4B00930123FDF7D9FDFCF7ADF8FCF7EA
:10494C0081FA0246244BD3F89431D21A224BD3F875
:10495C0098311344204AC2F898311F4A039BC2F87D
:10496C0074311D4BD3F864313D3318460CF09FFC69
:10497C000346012B03D100238DF8173002E00123ED
:10498C008DF817309DF81730012B10D1124B93F87E
:10499C00A401114BD3F8743103F194010E4BD3F8ED
:1049AC00A8210F4B00930123FDF7A0FD10E001217E
:1049BC00094804F0EBFC084BD3F86431002118468D
:1049CC0001F072FB044B0022C3F8642101F058FC87
:1049DC0000BF07B05DF804FBE4070020853A000037
:1049EC00113B000000B583B00A2001F005FC154B0B
:1049FC0093F8A401134BD3F8743103F1A101114BBB
:104A0C00D3F8A821104B00930123FDF76FFD0D4B3C
:104A1C0093F87C3102211846FCF714F8FCF7B4F833
:104A2C00FCF710FA0346074AC2F89431054B0122F1
:104A3C0083F89C210B2001F0DFFB00BF03B05DF875
:104A4C0004FB00BFE4070020113B000000B583B05D
:104A5C00094B93F860319AB2074BDB8800931346ED
:104A6C00382209210220FCF775FE01F009FC00BF79
:104A7C0003B05DF804FB00BFE407002000B583B071
:104A8C000C2001F0B9FBFCF79DF80A4B93F8A4013C
:104A9C00084BD3F8743103F1CF01064BD3F8A8219E
:104AAC00054B00930123FDF721FD00BF03B05DF81A
:104ABC0004FB00BFE4070020113B000008B50021F7
:104ACC00134804F063FC124BD3F8643193F8502074
:104ADC00013AD2B283F850200D4BD3F8643193F8DD
:104AEC005030002B07D10A4BD3F864310121184602
:104AFC0001F0DAFA04E0064BD3F864310A225A705A
:104B0C00034B0022C3F8642101F0BAFB00BF08BDBF
:104B1C00E407002000B585B003900D2001F06CFB7C
:104B2C00134B93F8A401124BB3F8A2311946104B56
:104B3C00D3F8A8210F4B00930123FDF7D7FC0C4AA7
:104B4C00039BC2F874310A4B93F8A401084BD3F8B9
:104B5C00743103F16401064BD3F8A821064B009382
:104B6C000123FDF7C3FC00BF05B05DF804FB00BFDB
:104B7C00E4070020853A0000113B000000B583B02B
:104B8C00094B93F860319AB2074BDB8800931346BC
:104B9C003E2209210220FCF7DDFD01F071FB00BF74
:104BAC0003B05DF804FB00BFE407002030B595B0FE
:104BBC0003900E2001F020FB904B93F8A4018F4B37
:104BCC00B3F8A23119468D4BD3F8A8218C4B009326
:104BDC000123FDF78BFCFBF75FFFFCF733F9024673
:104BEC00864BD3F89431D21A844BD3F898311344B2
:104BFC00824AC2F89831814A039BC2F87431092069
:104C0C000BF0E2FC03467D4AC2F870317B4BD3F8C3
:104C1C007031002B0AD10023009300234622092176
:104C2C000220FCF797FD01F02BFBE5E0734BD3F86A
:104C3C00703109221A70714BD3F8703109225A70F5
:104C4C006E4BD3F870216D4BD3F87031C5325A606E
:104C5C006A4BD3F870315868684BD3F8703103F154
:104C6C000801664BD3F8703103F1C104634BD3F8E0
:104C7C007031C233614AD2F87021C3320192009371
:104C8C0023468222FBF7B0FF5C4BD3F87031B3F9AB
:104C9C000830012B06DD594BD3F87031B3F90830CD
:104CAC00802B0DDD554BD3F87031B3F908309BB226
:104CBC0000930123402209210220FCF74BFD8FE0D9
:104CCC00022150480CF00FFE4C4BD3F8703193F886
:104CDC00C330002B7BD0494BD3F8703104AA11465A
:104CEC001846FEF79FFA9DF81030002B71D0434BFD
:104CFC00D3F870319DF8122083F84E203F4BD3F837
:104D0C0070319DF8192083F84F203C4BD3F870314B
:104D1C003D331A460DF13D031D685C689868D968EF
:104D2C00156054609060D1601B7C1374334BD3F8C6
:104D3C00703104AA11461846FEF7C8FD0346002B35
:104D4C0049D02E4BD3F8703193F8A530002B08D0F6
:104D5C002A4BD3F870311846FEF7ACFD0346002BF6
:104D6C003BD19DF811309BB2194626480CF049FDF9
:104D7C00224BD3F8642104AB1146184600F0DCFC3E
:104D8C000346002B2BD00BF085F90346002B0ED1DC
:104D9C001A4BD3F870313D33184609F0DBFF03464C
:104DAC00002B04D0BDF94E30184601F019F9012141
:104DBC00124804F0EBFA114BD3F864310021184679
:104DCC0001F072F90D4B0022C3F8642108E000BF1A
:104DDC0006E000BF04E000BF02E000BF00E000BF3F
:104DEC00064BD3F8703118460BF052FC034B0022E3
:104DFC00C3F8702101F044FA15B030BDE40700206F
:104E0C00853A00005409002000B583B0102001F051
:104E1C00F3F9154B93F8A401134BD3F8743103F148
:104E2C008201114BD3F8A821104B00930123FDF7FD
:104E3C005DFB0D4B93F87C3102211846FBF702FE0B
:104E4C00FBF7A2FEFBF7FEFF0346074AC2F89431BC
:104E5C00054B012283F89C21112001F0CDF900BFF4
:104E6C0003B05DF804FB00BFE4070020113B000019
:104E7C0000B583B0094B93F860319AB2074BDB88CD
:104E8C0000931346392209210220FCF763FC01F040
:104E9C00F7F900BF03B05DF804FB00BFE407002086
:104EAC0000B583B0122001F0A7F9FBF78BFE0A4B7B
:104EBC0093F8A401084BD3F8743103F1D801064BD5
:104ECC00D3F8A821054B00930123FDF70FFB00BF7E
:104EDC0003B05DF804FB00BFE4070020113B0000A9
:104EEC0008B501F0CDF900BF08BD000000B585B0D4
:104EFC000390132001F080F9154B93F8A401144B87
:104F0C00B3F8A2311946124BD3F8A821114B0093D8
:104F1C000123FDF7EBFA0E4A039BC2F874310C4ADD
:104F2C00039BC2F878310A4B93F8A401084BD3F8D1
:104F3C00743103F1A601064BD3F8A821064B00935C
:104F4C000123FDF7D3FA00BF05B05DF804FB00BFE9
:104F5C00E4070020853A0000113B000000B583B047
:104F6C00094B93F860319AB2074BDB8800931346D8
:104F7C003B2209210220FCF7EDFB01F081F900BF77
:104F8C0003B05DF804FB00BFE407002030B59FB010
:104F9C0003900023ADF83630142001F02DF9B54BF9
:104FAC0093F8A401B34BB3F8A2311946B14BD3F823
:104FBC00A821B14B00930123FDF798FAFBF76CFD88
:104FCC00FBF740FF0246AB4BD3F89431D21AA94BF6
:104FDC00D3F898311344A74AC2F8983109200BF042
:104FEC00F3FA0346A34AC2F86831A24BD3F86831EE
:104FFC00002B0AD100230093002346220921022012
:10500C00FCF7A8FB01F03CF990E19A4BD3F868311E
:10501C0009221A70974BD3F8683109225A70954BB4
:10502C00D3F86821934BD3F86831C5325A60914B51
:10503C00D3F8683158688F4BD3F8683103F1080105
:10504C008C4BD3F8683103F1C1048A4BD3F8683127
:10505C00C233884AD2F86821C332019200932346A6
:10506C008222FBF7C1FD834BD3F86831B3F90830CA
:10507C00012B06DD7F4BD3F86831B3F90830802B58
:10508C000DDD7C4BD3F86831B3F908309BB20222AA
:10509C000092402209210220FCF75CFB3AE102213C
:1050AC0076480CF020FC734BD3F8683193F8C3307E
:1050BC00002B00F024816F4BD3F868310EAA1146F7
:1050CC001846FEF7AFF89DF83830002B00F0198128
:1050DC00684BD3F868319DF83A2083F84E20654B25
:1050EC00D3F868319DF8412083F84F20614BD3F8F9
:1050FC0068319DF83F2083F89D205E4BD3F86831D2
:10510C003D331A460DF165031D685C689868D968D3
:10511C00156054609060D1601B7C1374554BD3F8B0
:10512C0068310EAA11461846FEF7D0FB0346002B39
:10513C0000F0E9804F4BD3F8683193F8A530002B81
:10514C0020D0FEF795FB0346002B09D0494BD3F832
:10515C0068311846FEF7AEFB0346002B12D0D9E09F
:10516C00444BD3F8683193F84E30002B40F0CD808F
:10517C00404BD3F8683193F8B9309BB219463F488D
:10518C000CF0B1FB9DF839309BB219463B480CF042
:10519C0038FB9DF83A30002B1DD19DF83F30012B88
:1051AC0019D104200AF0B0FF02460EAB0B331146A6
:1051BC0018460CF08DF90346002B0CD02D4BD3F870
:1051CC0068310DF1360211461846FFF78BF803468D
:1051DC00002B00F09C80BDF83630194627480CF0A7
:1051EC0010FB244A039BC2F874310EAB184600F036
:1051FC006FFA0346002B00F08C8004AB184609F0C4
:10520C0087FD0346002B0DD004AA0EAB2D3311469F
:10521C0018460CF05DF90346002B03D0154B012208
:10522C00C3F8B021134BD3F878319BB2C3F1AD0363
:10523C009AB2104BD3F8683112B2A3F8A2209DF8A1
:10524C003D30012B1ED10B4B93F89D31012B19D105
:10525C00084B93F8A401074BD3F8743103F1A30165
:10526C00044BD3F8A821064B00930123FDF73EF91C
:10527C005CE000BFE4070020853A00004C090020E8
:10528C00113B00000AF006FF0346002B2AD1284BE5
:10529C00D3F868313D33184609F05CFD0346002B0A
:1052AC001AD1FEF7E5FA0346002B15D009AB1846C8
:1052BC0009F02EFD0346002B0ED009AB184609F061
:1052CC0027FD0346002B0DD009AB0121184603F036
:1052DC0071FE0346002B05D1154BD3F878311846D7
:1052EC0000F01AFE124BD3F86831184600F0FEFE9F
:1052FC000F4B0022C3F8682100F0C2FF16E000BF7C
:10530C0008E000BF06E000BF04E000BF02E000BF01
:10531C0000E000BF064BD3F8683118460BF0B8F923
:10532C00034B0022C3F8682100F0AAFF1FB030BD68
:10533C00E407002000B583B0152000F05DFF6A4B38
:10534C0093F8A401684BD3F8743103F1B001664BA8
:10535C00D3F8A821654B00930123FDF7C7F809206A
:10536C000BF032F90346604AC2F86C315E4BD3F84D
:10537C006C31002B14D10023009300234622092109
:10538C000220FCF7E7F9584BD3F86831184600F0C7
:10539C00ADFE554B0022C3F8682100F071FF9FE071
:1053AC00514BD3F86C3109221A704F4BD3F86C3136
:1053BC0009225A704C4BD3F878319BB2C3F1AD0330
:1053CC009BB21AB2484BA3F8A021474BD3F86C31CF
:1053DC00022283F84E20444BD3F86821424BD3F879
:1053EC006C3192F84F2083F84F203F4BD3F8682153
:1053FC003D4BD3F86C3192F8A52083F8A5203A4B9D
:10540C00D3F86821384BD3F86C3192F8A62083F886
:10541C00A620354BD3F86821334BD3F86C3192F876
:10542C00A72083F8A720304BD3F86C012E4BD3F870
:10543C006C3193F84E102C4BD3F8683193F84F2005
:10544C00294BD3F868313D33009313460022FDF706
:10545C0003FD254BD3F86C3193F8A530002B11D0FC
:10546C00214BD3F86C311846FEF71EFA0346002B7D
:10547C0008D01D4BD3F86C3118460BF009F900F02D
:10548C00FFFE2DE002211A480CF0FFF90346012B18
:10549C0002D100F0F5FE23E0134B93F87C3101218F
:1054AC001846FBF7CFFA104BD3F86C315A680E4BF9
:1054BC00D3F86C31B3F908309BB219461046FBF7A0
:1054CC0009FBFBF737FBFBF7BDFC0346064AC2F8AA
:1054DC009431054B012283F89C21162000F08CFEA0
:1054EC0003B05DF804FB00BFE4070020113B000093
:1054FC005009002000B583B0094B93F860319AB283
:10550C00074BDB88009313463A2209210220FCF753
:10551C0021F900F0B5FE00BF03B05DF804FB00BF3D
:10552C00E407002000B583B0172000F065FE0B4B9C
:10553C0093F8A401094BD3F8743103F1DC01074B48
:10554C00D3F8A821064B00930123FCF7CFFFFBF700
:10555C000FFB00BF03B05DF804FB00BFE4070020A5
:10556C00113B000000B583B0094B93F860319AB23F
:10557C00074BDB88009313463D2209210220FCF7E0
:10558C00E9F800F07DFE00BF03B05DF804FB00BF3E
:10559C00E407002000B585B00390182000F02CFE25
:1055AC00134B93F8A401124BB3F8A2311946104BCC
:1055BC00D3F8A8210F4B00930123FCF797FF0C4A5B
:1055CC00039BC2F874310A4B93F8A401084BD3F82F
:1055DC00743103F16401064BD3F8A821064B0093F8
:1055EC000123FCF783FF00BF05B05DF804FB00BF8F
:1055FC00E4070020853A0000113B000000B583B0A1
:10560C00094B93F860319AB2074BDB880093134631
:10561C003E2209210220FCF79DF800F031FE00BF6C
:10562C0003B05DF804FB00BFE407002000B585B0B3
:10563C000390192000F0E0FD234B93F8A401224BBA
:10564C00B3F8A2311946204BD3F8A8211F4B009375
:10565C000123FCF74BFF1C4A039BC2F874311A4B15
:10566C00D3F86C3118460BF013F8174B0022C3F823
:10567C006C210AF00FFD0346002B09D1124BD3F815
:10568C0068313D33184609F065FB0346002B04D105
:10569C00FEF7EEF80346002B05D10B4BD3F878310F
:1056AC00184600F039FC084BD3F86831184600F066
:1056BC001DFD054B0022C3F8682100F0E1FD00BF81
:1056CC0005B05DF804FB00BFE4070020853A00003C
:1056DC0010B582B00190019B1B78012B27D1019B47
:1056EC009B78012B03D0019B9B78002B1FD1019B36
:1056FC0003F10B0404200AF007FD0346194620466B
:10570C000BF0E6FE0346002B11D0019B1C33184610
:10571C000AF0A2FD0346002B07D1019B1C3318464F
:10572C000BF0C5FD0346002B01D0012300E0002344
:10573C00DBB2184602B010BD10B582B001900091DA
:10574C00019B1B78012B27D1019B9B78022B23D12A
:10575C00019B03F10B0404200AF0D6FC0346194606
:10576C0020460BF0B5FE0346002B15D0019B1C33D5
:10577C0018460AF071FD0346002B0DD0019B03F176
:10578C002D02009B3D33194610460BF0A1FE03463B
:10579C00002B01D0012300E00023DBB2184602B03D
:1057AC0010BD000000B583B0294BB3F803309BB299
:1057BC0001339AB2264BA3F80320254BB3F80330E0
:1057CC009BB2002B14D1224BB3F801309BB20133A6
:1057DC009AB21F4BA3F801201D4BB3F801309BB2BA
:1057EC00002B05D11A4B1B780133DAB2184B1A7007
:1057FC0003F0D0FC0346ADF80630BDF80630002BA4
:10580C0006D1134BDB8801339AB2114BDA800CE0D2
:10581C000F4BDB880133BDF8062093FBF2F101FB43
:10582C0002F29B1A9AB20A4BDA80094B93F87D313B
:10583C0001335A4203F00F0302F00F0258BF5342D8
:10584C00DAB2034B83F87D2100BF03B05DF804FB93
:10585C00E40700200A4B0022DA80094B002283F86F
:10586C007D21074B00221A70054B00225A70002232
:10587C009A70034B0022DA7000221A7100BF704735
:10588C00E407002082B00190154BB3F803309BB2B3
:10589C00DAB2019B1A70124BB3F803309BB21B0A9D
:1058AC009AB2019B0133D2B21A700D4BB3F801308E
:1058BC009AB2019B0233D2B21A70094BB3F8013081
:1058CC009BB21B0A9AB2019B0333D2B21A70019B92
:1058DC000433034A12781A7000BF02B0704700BF3D
:1058EC00E407002082B0054BB3F8A031ADF80630C8
:1058FC00BDF80630184602B0704700BFE407002020
:10590C0082B003468DF80730074BD3F868319DF809
:10591C00072083F89C20044BD3F86831012283F8CC
:10592C009F2000BF02B07047E407002010B584B080
:10593C0001900091009B5B789AB201AB114618461E
:10594C000BF05FFF0023ADF80E30009B1B78012B92
:10595C0021D1009BDB79012B1DD1009B9B78002B67
:10596C0019D1009B03F10B0404200AF0CDFB034674
:10597C00194620460BF0ACFD0346002B0BD0019BC7
:10598C000DF10E0211461846FEF7ACFC0346002B37
:10599C0001D0012300E00023002B01D1002326E0DD
:1059AC00009B5B789AB201AB114618460BF0C2FE15
:1059BC000346012B01D1002319E0FDF759FF0346E3
:1059CC00002B08D0019B1846FDF774FF0346002BF3
:1059DC000CD101230BE0019B93F8B9309AB201ABC7
:1059EC00114618460BF07FFF012300E000231846F8
:1059FC0004B010BD00B58FB00390029100238DF858
:105A0C00373000238DF8363000238DF835300023E5
:105A1C008DF8343000238DF8333000238DF832307C
:105A2C003AE0039B5A689DF8333013441B78ADF869
:105A3C002C30039B5A689DF83330013313441B7888
:105A4C001B021AB2BDF92C3013431BB2ADF82C302B
:105A5C009DF8333002338DF83330BDF82C308DF88F
:105A6C003030BDF82C30DB1203F00F03012B03D1C7
:105A7C00BDF92C30002B07DB9DF833209DF830301E
:105A8C0013448DF8333007E001238DF832309DF844
:105A9C0033308DF8313006E09DF83330039AB2F98B
:105AAC0008209342BDDB9DF83230002B40F03F8143
:105ABC00002372E1039B5A689DF8333013441B7822
:105ACC00ADF82C30039B5A689DF8333001331344E6
