:1000000000000420190200000102000003020000A9
:1000100005020000070200000902000000000000C5
:100020000000000000000000000000000B020000C3
:100030000D020000000000000F020000110200008D
:10004000257100000D0B00000912000013020000D2
:10005000130200001302000013020000130200004C
:10006000130200001302000013020000D10B000075
:10007000130200001302000013020000130200002C
:10008000130200001302000013020000130200001C
:10009000090C00001302000013020000130200000C
:1000A00013020000130200001302000013020000FC
:1000B0001302000013020000000000000000000016
:1000C00013020000130200001302000013020000DC
:1000D0001302000013020000130200000594000048
:1000E00013020000130200001302000000000000D1
:1000F00000000000130200000000000013020000D6
:1001000000000000000000000000000000000000EF
:1001100000000000000000000000000000000000DF
:1001200000000000000000000000000000000000CF
:1001300000000000000000000000000000000000BF
:1001400000000000000000000000000000000000AF
:10015000000000000000000000000000000000009F
:10016000000000000000000000000000000000008F
:10017000000000000000000000000000000000007F
:10018000000000000000000000000000000000006F
:10019000000000000000000000000000000000005F
:1001A000000000000000000000000000000000004F
:1001B000000000000000000000000000000000003F
:1001C000000000000000000000000000000000002F
:1001D000000000000000000000000000000000001F
:1001E000000000000000000000000000000000000F
:1001F00000000000000000000000000000000000FF
:10020000FEE7FEE7FEE7FEE7FEE7FEE7FEE7FEE7C6
:10021000FEE7FEE700F002B8FFF7FCBF0A484FF028
:100220000701884385460948804709480949016014
:100230000948016841F470010160BFF34F8FBFF3BB
:100240006F8F00F00BB8000000000420950F000035
:1002500008ED00E00000000088ED00E0334934487C
:100260000A1A02D0072291438D46324932480A1AAF
:1002700006D00722914381F30988022282F3148871
:100280002E482F492F4A00F03FF82F482F49304A77
:1002900000F03AF82F483049304A00F035F830483D
:1002A0003049314A00F030F830483149314A00F0E5
:1002B0002BF831483149324A00F026F831483249AA
:1002C000324A00F021F832483249002200F027F883
:1002D00031483249002200F022F831483149091AE8
:1002E00009F0B2FE1F482049884205D00268043058
:1002F00003B4904703BCF7E700208646EC46002095
:100300000021294A9047FEE7884207D0521A05D0BB
:10031000037801300B700131013AF9D170478842FE
:1003200002D002700130FAE770470000000004209C
:1003300000E003200000042000000420E4B60000D8
:100340004800002089000020AC030000AC0300003E
:100350005CA00000E4B60000480000204800002037
:1003600008A1000008A1000008A1000008A10000E9
:1003700008A1000008A1000008A1000008A10000D9
:10038000E4B6000028B700008C0000208C0000209C
:100390008C000020F40B0020F40B0020F40B002054
:0C03A000F40B0020F42B002035060000B8
:1003AC0082B00190019B184602B0704700B583B033
:1003BC0001900B468DF803309DF80330032B26D8A3
:1003CC0001A252F823F000BF050400001B0400003A
:1003DC00E5030000F70300000F4B01221A704022C6
:1003EC000E490F4803F080FF12E00B4B00221A70ED
:1003FC000C4B00221A700BE0094803F067FF034610
:10040C009AB2094B1A80074B01221A7000E000BF08
:10041C0000BF03B05DF804FBCC0000208C00002072
:10042C0008A10000CD000020CE00002000B583B054
:10043C0003468DF807309DF807300A2B0CD00A2B99
:10044C000DDC082B02D0092B03D008E001F0DCFCFA
:10045C0006E001F0DFFC03E001F0F0FC00E000BF7F
:10046C0000BF03B05DF804FB00B585B001900B46EE
:10047C00ADF802300F4B1B7883F00103DBB2002B7D
:10048C0003D1BDF80230402B01D900230DE0BDF89B
:10049C0002301A460199084803F0CCFE0390039BE6
:1004AC00002B0CBF01230023DBB2184605B05DF80E
:1004BC0004FB00BFCC00002008A1000000B583B0F5
:1004CC0001900091134B1B7883F00103DBB2002BDE
:1004DC0006D1114B1B7883F00103DBB2002B01D04A
:1004EC00002313E00D4B1B881A460D49019809F0A7
:1004FC003FFD0A4B1A88009B1A80074B00221A708A
:10050C0040220749074803F0EFFE0123184603B0C9
:10051C005DF804FBCC000020CD000020CE000020B4
:10052C008C00002008A1000000B583B000F06BF92E
:10053C00144801F091FB0190019B002B02D000F0BC
:10054C0052F91BE000F06FF90F48FFF729FF0090FC
:10055C00009801F0ADFF0190019B002B02D000F040
:10056C0042F90BE000F05FF901F024FC00F05BF9BC
:10057C0001F04AFC00F067F901F060FC03B05DF893
:10058C0004FB00BF38A1000008A1000082B04FF6A8
:10059C00FF73ADF8063006E0BDF806309BB2013BA8
:1005AC009BB2ADF80630BDF806309BB2002BF3D1F0
:1005BC0000BF00BF02B0704700B595B000F03AF82C
:1005CC00FFF7B2FF00F01FF9154A11AB07CA83E819
:1005DC00070000F028F900BF01F0F0FE0346002BE5
:1005EC00FAD1104B1B78002B06D011AB0B211846FF
:1005FC00FFF73AFFFFF7CAFF00F025F90DF10202F1
:10060C0001AB11461846FFF759FF0346002BE0D00B
:10061C00BDF8022001AB11461846FFF725FFD8E7BD
:10062C002CA10000CC00002008B5FFF7C5FF034645
:10063C00184608BD08B54FF080430022C3F80021CE
:10064C004FF0804301221A6000BF4FF08043D3F873
:10065C000031002BF9D000F0A1F800F024F800F0E4
:10066C0085FD00F057FA00F081F900F053F800F026
:10067C0002F800BF08BD82B04FF08043D3F840367B
:10068C000193019B002B0BD104E04FF0804301221E
:10069C00C3F878254FF08043D3F87835002BF4D08D
:1006AC0000BF02B070474FF0A0434FF08062C3F818
:1006BC0018254FF0A0434FF00062C3F818254FF0F7
:1006CC00A0434FF08052C3F818254FF0A0434FF0D1
:1006DC000052C3F818254FF0A0434FF08042C3F8E6
:1006EC0018254FF0A0434FF00042C3F8182500BF67
:1006FC0070474FF0A0434FF08042C3F8082500BF6D
:10070C0070474FF0A0434FF08042C3F80C2500BF58
:10071C007047000008B5202000F022F8182000F0E7
:10072C001FF80E4B0022C3F800250C4B2022C3F8F7
:10073C0008250A4B1822C3F80C25084B4FF0C86249
:10074C00C3F82425054B4FF49052C3F80022034BF9
:10075C000622C3F8002500BF08BD00BF00300040D2
:10076C0084B00190019B1F2B05D84FF0A04303933D
:10077C00019B029305E0084B0393019B03F01F03BD
:10078C000293039B029A02F5E07240F20C6143F86B
:10079C00221000BF04B070470003005008B54FF0A2
:1007AC00A0434FF40052C3F818254FF0A0434FF468
:1007BC008042C3F818254FF0A0434FF40042C3F811
:1007CC0018254FF0A0434FF48032C3F8182500F0E1
:1007DC0042F800BF08BD4FF0A0434FF40052C3F8DD
:1007EC00082500BF70474FF0A0434FF40052C3F8E8
:1007FC000C2500BF70474FF0A0434FF48042C3F864
:10080C00082500BF70474FF0A0434FF48042C3F857
:10081C000C2500BF70474FF0A0434FF40042C3F8C3
:10082C00082500BF70474FF0A0434FF40042C3F8B7
:10083C000C2500BF70474FF0A0434FF48032C3F833
:10084C00082500BF70474FF0A0434FF48032C3F827
:10085C000C2500BF704708B5FFF7DDFFFFF7CBFF96
:10086C00FFF7E9FFFFF7B7FF00BF08BD82B00346F3
:10087C008DF807309DF90730002B0CDB9DF8073005
:10088C0003F01F0205499DF907305B09012000FAAE
:10089C0002F241F8232000BF02B0704700E100E0F3
:1008AC0082B003468DF807309DF90730002B13DB1F
:1008BC009DF8073003F01F0209499DF907305B09C9
:1008CC00012000FA02F2203341F82320BFF34F8FAE
:1008DC0000BFBFF36F8F00BF00BF02B0704700BFF7
:1008EC0000E100E082B003468DF807309DF9073037
:1008FC00002B0DDB9DF8073003F01F0206499DF914
:10090C0007305B09012000FA02F2603341F8232022
:10091C0000BF02B0704700BF00E100E082B00346A8
:10092C0000918DF807309DF90730002B0ADB009BF6
:10093C00DAB20C499DF907305201D2B20B4483F85C
:10094C0000230BE0009BDAB207499DF8073003F057
:10095C000F03043B5201D2B20B441A7600BF02B013
:10096C00704700BF00E100E000ED00E008B5444B2B
:10097C000F22C3F81025424BD3F81435404A23F00C
:10098C000F03C2F814353E4BD3F814353C4A43F0F0
:10099C000803C2F814353A4BD3F81435384A23F00F
:1009AC004073C2F81435364BD3F81435344A43F03F
:1009BC000073C2F81435324BD3F81835304A23F093
:1009CC00FF03C2F818352E4BD3F818352C4A43F0D8
:1009DC007F03C2F818352A4BA722C3F86026284B90
:1009EC00D3F81435264A23F08063C2F81435244B0F
:1009FC00D3F81435224A43F08063C2F81435204BE7
:100A0C00D3F834351E4A23F00303C2F834351C4B9B
:100A1C00D3F834351A4A43F00203C2F83435184B74
:100A2C00D3F83435164A23F44073C2F83435144BDA
:100A3C00D3F83435124A43F40073C2F83435104BF2
:100A4C00104AC3F838250E4B0022C3F83C250C4B3A
:100A5C000D4AC3F804250120FFF722FF084B44F28E
:100A6C000802C3F8042300210120FFF757FF0120DF
:100A7C00FFF738FF0120FFF7F9FE00BF08BD00BFEC
:100A8C0000100040211001006801002000B583B067
:100A9C00184BD3F804350193174BD3F83831002B8E
:100AAC0010D0154B01225A61144B1B68002B03D03C
:100ABC00124B1B68019898470F4B0022C3F8382142
:100ACC00012313E00C4BD3F80C31002B0DD00B4B46
:100ADC005B68002B03D0094B5B6801989847064B69
:100AEC000022C3F80C21012300E00023184603B0B8
:100AFC005DF804FB00B000400010004058010020DD
:100B0C0008B5FFF7F6FDFFF7C1FFFFF7FAFD00BFD1
:100B1C0008BD000008B508220021264809F05EFA3D
:100B2C00254B002283F80B23234B4FF400621A60F1
:100B3C004FF080430122DA6000BF4FF08043D3F8BE
:100B4C00183403F48033012BF7D01C4B0022C3F86C
:100B5C0008254FF080430122C3F818254FF080433D
:100B6C0001229A6000BF4FF08043D3F8183403F48D
:100B7C008033002BF7D0114B0022C3F840210F4BD0
:100B8C004FF48032C3F804230C4B01221A600A4B39
:100B9C00002283F81423084B4FF480121A60084B80
:100BAC000022C3F80021064B0122C3F8042300BF26
:100BBC0008BD00BFF001002000E100E000B00040E3
:100BCC000040014008B5FFF794FD0A4BD3F84031C3
:100BDC00002B0AD0074B0022C3F84021064B1B68A0
:100BEC00002B02D0044B1B689847FFF78AFD00BF0F
:100BFC0008BD00BF00B00040F001002008B5FFF7B1
:100C0C0078FD0A4BD3F80031002B0AD0074B002299
:100C1C00C3F80021064B1B68002B02D0044B1B6849
:100C2C009847FFF76EFD00BF08BD00BF00400140B4
:100C3C00F001002082B0164B1B680193154B1B680A
:100C4C000093019B082B1FD1009B052B1AD801A2E6
:100C5C0052F823F0790C00007D0C0000810C000090
:100C6C00850C0000890C00008D0C000001230CE0A9
:100C7C0001230AE0012308E0012306E0012304E03C
:100C8C00012302E0012300E00023184602B0704764
:100C9C00300100103401001082B0164B1B68019318
:100CAC00154B1B680093019B082B1FD1009B052B38
:100CBC001AD801A252F823F0DD0C0000E10C000060
:100CCC00E50C0000E90C0000ED0C0000F10C00003C
:100CDC0001230CE001230AE0012308E0012306E0D4
:100CEC00012304E0012302E0012300E00023184665
:100CFC0002B07047300100103401001082B0164B66
:100D0C001B680193154B1B680093019B082B1FD18B
:100D1C00009B052B1AD801A252F823F0410D0000BC
:100D2C00450D0000490D00004D0D0000510D000057
:100D3C00550D000001230CE000230AE0002308E01D
:100D4C00002306E0002304E0002302E0002300E07F
:100D5C000023184602B07047300100103401001017
:100D6C0082B0164B1B680193154B1B680093019BBB
:100D7C00082B1FD1009B052B1AD801A252F823F087
:100D8C00A50D0000A90D0000AD0D0000B10D000077
:100D9C00B50D0000B90D000001230CE000230AE0A2
:100DAC00002308E0002306E0002304E0002302E017
:100DBC00002300E00023184602B0704730010010F9
:100DCC003401001082B0164B1B680193154B1B6845
:100DDC000093019B082B1FD1009B052B1AD801A255
:100DEC0052F823F0090E00000D0E0000110E000049
:100DFC00150E0000190E00001D0E000001230CE062
:100E0C0000230AE0002308E0002306E0002304E0AE
:100E1C00002302E0002300E00023184602B07047D4
:100E2C00300100103401001082B0164B1B68019386
:100E3C00154B1B680093019B082B1FD1009B052BA6
:100E4C001AD801A252F823F06D0E0000710E0000AA
:100E5C00750E0000790E00007D0E0000810E000062
:100E6C0001230CE000230AE0002308E0002306E045
:100E7C00002304E0002302E0002300E000231846D6
:100E8C0002B07047300100103401001082B0164BD4
:100E9C001B680193154B1B680093019B082B1FD1FA
:100EAC00009B052B1AD801A252F823F0D10E00009A
:100EBC00D50E0000D90E0000DD0E0000E10E000082
:100ECC00E50E000001230CE001230AE0012308E0F9
:100EDC00012306E0012304E0012302E0012300E0EA
:100EEC000023184602B07047300100103401001086
:100EFC0082B0164B1B680193154B1B680093019B2A
:100F0C00082B1FD1009B052B1AD801A252F823F0F5
:100F1C00350F0000390F00003D0F0000410F00009D
:100F2C00450F0000490F000000230CE000230AE0ED
:100F3C00002308E0002306E0012304E0012302E083
:100F4C00012300E00023184602B070473001001066
:100F5C003401001008B5FFF7CBFF0346002B07D078
:100F6C004FF010234FF08042D3F80832C2F85835B6
:100F7C0000BF08BD024B034A1A6000BF704700BF98
:100F8C004C0000200090D00308B5FFF753FE034639
:100F9C00002B0ED04FF080430022C3F80C214FF0F1
:100FAC0080430022C3F810214FF080430022C3F885
:100FBC003825FFF771FE0346002B76D04FF0805397
:100FCC00624AD3F80434C2F820354FF080535F4A9C
:100FDC00D3F80834C2F824354FF080535B4AD3F869
:100FEC000C34C2F828354FF08053584AD3F81034DB
:100FFC00C2F82C354FF08053544AD3F81434C2F84D
:10100C0030354FF08053514AD3F81834C2F8343588
:10101C004FF080534D4AD3F81C34C2F840354FF092
:10102C0080534A4AD3F82034C2F844354FF08053E9
:10103C00464AD3F82434C2F848354FF08053434A1B
:10104C00D3F82834C2F84C354FF080533F4AD3F8CC
:10105C002C34C2F850354FF080533C4AD3F830341E
:10106C00C2F854354FF08053384AD3F83434C2F8B0
:10107C0060354FF08053354AD3F83834C2F86435B4
:10108C004FF08053314AD3F83C34C2F868354FF0F6
:10109C0080532E4AD3F84034C2F86C354FF080534D
:1010AC002A4AD3F84434C2F87035FFF727FE0346BA
:1010BC00002B02D0264B274A1A60FFF751FE03463D
:1010CC00002B03D0244BFB22C3F81825FFF77AFE24
:1010DC000346002B0AD0214B1B6823F00F02204B38
:1010EC001B6803F00F031D4913430B60FFF79CFEB5
:1010FC000346002B03D01B4B4FF400721A60FFF712
:10110C00C5FE0346002B0DD04FF08043D3F80034BE
:10111C0003F00103002B05D04FF080436FF0010268
:10112C00C3F80024104BD3F888300F4A43F47003F3
:10113C00C2F88830BFF34F8F00BFBFF36F8F00BF73
:10114C00FFF708FFFFF716FF00BF08BD00C0004007
:10115C008C5600404881030000F00040E40E004033
:10116C00580200104096024000ED00E008B50C2239
:10117C0000211E4808F032FF4FF0A0430322C3F8B1
:10118C0018274FF0A0430022C3F82027184B062243
:10119C00C3F80C25164B0822C3F81425144B002257
:1011AC00C3F86C25124B134AC3F82425104B0022AC
:1011BC00C3F81C210E4B0022C3F808210C4B8422CF
:1011CC00C3F804230C4B402283F802230A4B04225D
:1011DC001A60074B0422C3F80025054B01229A60C4
:1011EC00034B01221A6000BF08BD00BFF8010020AC
:1011FC000020004000E0D70100E100E008B5FFF757
:10120C0078FA0D4BD3F80831002B05D00A4B00228D
:10121C00C3F8082100F034F8074BD3F81C31002B2D
:10122C0005D0054B0022C3F81C2100F007F8FFF78E
:10123C0068FA00BF08BD00BF0020004008B50E4B87
:10124C001B7A012B0BD10C4B00221A720A4B5B7AC6
:10125C0083F01003DAB2094BC3F81C2508E0064BE7
:10126C001B68002B04D0044B1B689847012300E03B
:10127C000023184608BD00BFF801002000200040E4
:10128C0008B5064B5B68002B04D0044B5B68984791
:10129C00012300E00023184608BD00BFF801002020
:1012AC00024BD3F88034DBB2184670470070024012
:1012BC00024BD3F88434DBB21846704700700240FE
:1012CC0008B508F09FF90023184608BD00B585B095
:1012DC0003468DF807300B468DF8063013468DF813
:1012EC0005309DF8073003F01F029DF806305B01B6
:1012FC0003F060031A439DF80530DB01DBB21343A6
:10130C000393039BFF2B04D905494FF4AC7004F0F5
:10131C00FAF9039BDBB2184605B05DF804FB00BF7D
:10132C0044A1000082B00190019B1B7A184602B0C8
:10133C007047000000B585B001900B468DF8033066
:10134C00019B002B04D10F494FF4887004F0DBF99A
:10135C000198FFF7E7FF03461A469DF803309342C6
:10136C0001D3002309E0019B093303939DF803206B
:10137C0013465B001344039A1344184605B05DF8FA
:10138C0004FB00BFB4A1000082B00190019B1B784C
:10139C00184602B0704782B00190019B5B781846EA
:1013AC0002B0704700B585B001900B468DF8033044
:1013BC00019B002B04D10D4940F2431004F0A3F91A
:1013CC00019B5B789DF803209A4201D3002309E02E
:1013DC00019B9B781A46019B134403939DF80330A1
:1013EC00039A1344184605B05DF804FBB4A1000041
:1013FC0082B00190019B1B78184602B0704782B0F6
:10140C000190019B1B68184602B0704700B583B071
:10141C000190019B002B04D1064940F2432004F0BB
:10142C0072F90198FFF7EBFF03461B68184603B0EF
:10143C005DF804FB24A2000000B583B00190019B71
:10144C00002B04D1064940F25F2004F05CF90198AE
:10145C00FFF7D5FF03465B68184603B05DF804FB45
:10146C0024A2000000B583B00190019B002B04D195
:10147C00064940F27B2004F046F90198FFF7BFFFC4
:10148C0003465B68184603B05DF804FB24A2000019
:10149C00014B1846704700BFDCA500004FF080439D
:1014AC00D3F838341846704708B5FFF7F7FF0346F2
:1014BC0003F00103002B14BF01230023DBB21846F9
:1014CC0008BD08B5FFF7EAFF034603F00203002B43
:1014DC0014BF01230023DBB2184608BD00B583B04E
:1014EC0001900091019B002B04D1114940F20F1087
:1014FC0004F009F9019B5B68002B04D10C494FF4F3
:10150C00887004F000F9019B5B681B68002B04D108
:10151C00074940F2111004F0F6F8019B5B681B6858
:10152C000099019898470346184603B05DF804FBF0
:10153C00B0A2000000B583B001900091019B002B7C
:10154C0004D1114940F2191004F0DDF8019B1B681D
:10155C00002B04D10C494FF48D7004F0D4F8019B8E
:10156C001B689B68002B04D1074940F21B1004F048
:10157C00CAF8019B1B689B68009A528810469847D2
:10158C0000BF03B05DF804FBB0A2000000B583B04F
:10159C0001900B468DF80330074B1B68002B06D0CF
:1015AC00054B1B689DF8032011460198984700BF16
:1015BC0003B05DF804FB00BFB403002000B583B09A
:1015CC0003468DF80730074B5B68002B05D0054BA5
:1015DC005B689DF807201046984700BF03B05DF884
:1015EC0004FB00BFB403002010B58EB00390019330
:1015FC000B468DF80B3013468DF80A3000230993F7
:10160C0000230D9302E00D9B01330D93039B5B684C
:10161C005C6809A8012300220399A0470346002B0C
:10162C00F1D100238DF8233000230C9300238DF887
:10163C002F30002306934FE0039B5B685C680DF131
:10164C00230206A801230399A047039B5B685C68EF
:10165C000DF1170206A801230399A0479DF8173036
:10166C009DF80B209A4227D19DF82F209DF80A3027
:10167C009A421CD19DF823301A46109B1A60019B8C
:10168C005A1C01929DF823201A70019B5A1C01923E
:10169C009DF80B201A70039B5B685C689DF82330E7
:1016AC00023B06A8019A0399A047002319E09DF874
:1016BC002F3001338DF82F30039B5B685C689DF8ED
:1016CC002330023B06A800220399A0479DF8233043
:1016DC001A460C9B13440C930C9A0D9B9A42ABD359
:1016EC00052318460EB010BD00B585B003468DF825
:1016FC0007309DF90730002B14DA9DF8073003F002
:10170C000F038DF80E309DF80E30082B04D91149BB
:10171C004FF4CC7003F0F7FF9DF80E30DB000E4A4F
:10172C00134413E09DF8073003F00F038DF80F30CE
:10173C009DF80F30082B04D906494FF4CF7003F0F5
:10174C00E2FF9DF80F30DB00044A1344184605B045
:10175C005DF804FBB0A20000140300205C03002021
:10176C0000B583B003468DF807309DF80730184656
:10177C00FFF7BAFF03461B68184603B05DF804FB7D
:10178C0000B585B0034600918DF807309DF8073001
:10179C001846FFF7A9FF0390039B009A1A60009B61
:1017AC00002B10D19DF80730002B03D09DF807308B
:1017BC00802B04D108494FF4E17003F0A4FF039B84
:1017CC0000225A6004E0009B5B681A68039B5A6015
:1017DC0000BF05B05DF804FBB0A2000000B583B0FB
:1017EC000190064B5B68054A1268019910469847B0
:1017FC000346184603B05DF804FB00BF5C030020F1
:10180C0000B58BB00190019B0893089B1B78052BAE
:10181C001AD1FFF74DFD03468DF81F30FFF740FD41
:10182C0003468DF82730002200210020FFF74EFDE3
:10183C0003461A469DF82730934205D19DF81F3078
:10184C00052B01D1334B0893089B1B78002B27D118
:10185C0000F032FF069007E008990698FFF76AFE41
:10186C000698FFF7FFFD0690069B002BF4D1002095
:10187C0003F0E6FE284B1B68002B03D1089B5A880B
:10188C00264B1A800121244804F09CF8002003F018
:10189C00EBFE01210898FFF779FE1F4B1B6835E022
:1018AC001F4A03AB1946104603F0EBFF0590059B4E
:1018BC00002B2BD0059A089B1B681360002003F0AB
:1018CC00BFFE164B1A88144B1B689BB2D31A9BB2E3
:1018DC0001339AB2059BDA8000210F4804F02BF8F3
:1018EC0003469AB2059B9A80002003F0BDFE0C4A79
:1018FC0003AB1946104603F0DDFF03468DF8133099
:10190C009DF8133019460898FFF740FE0BB05DF8B0
:10191C0004FB00BF24A300000C03002010030020D4
:10192C005000002000B583B003468DF807309DF8B9
:10193C000730022B0ED0022B10DC002B02D0012B17
:10194C0004D00BE00A48FFF75BFF0DE00948FFF7F6
:10195C0057FF09E00848FFF753FF05E0074940F23D
:10196C00622003F0D0FE00BF00BF03B05DF804FBA3
:10197C0018A300001CA3000020A30000B0A20000CC
:10198C0000B583B001900198FFF73AFF00BF03B098
:10199C005DF804FB00B583B003468DF807309DF865
:1019AC000730002B04D0064940F27B2003F0ABFE3D
:1019BC000448FFF725FF00BF03B05DF804FB00BF30
:1019CC00B0A2000028A3000082B003468DF80730B7
:1019DC009DF80730082B27D801A252F823F000BF3E
:1019EC00111A0000151A0000191A00001D1A000027
:1019FC00211A0000251A0000291A00002D1A0000D7
:101A0C00311A0000002310E000230EE001230CE04B
:101A1C0000230AE0002308E0012306E0012304E090
:101A2C00012302E0012300E00023184602B07047B6
:101A3C0082B003468DF807309DF80730082B27D865
:101A4C0001A252F823F000BF791A00007D1A0000A1
:101A5C00811A0000851A0000891A00008D1A0000F6
:101A6C00911A0000951A0000991A0000002310E04A
:101A7C0000230EE001230CE000230AE0002308E021
:101A8C00002306E0002304E0002302E0012300E031
:101A9C000023184602B07047014B1B78184670475C
:101AAC00B003002010B582B003468DF807309DF8C6
:101ABC0007301846FFF788FF03461C461C4B1B7863
:101ACC001846FFF781FF03469C420DD09DF8073066
:101ADC001846FFF779FF0346002B03D0154804F096
:101AEC00A9F801E004F0F6F89DF807301846FFF766
:101AFC009FFF03461C460E4B1B781846FFF798FFBA
:101B0C0003469C420CD09DF807301846FFF790FF17
:101B1C000346002B02D007F011FF01E007F004FF91
:101B2C00034A9DF80730137000BF02B010BD00BF10
:101B3C00B00300206400002000B587B001900B4674
:101B4C008DF8033013468DF802300198FFF7EAFB4D
:101B5C0003461A469DF80330934204D91B4940F2C0
:101B6C00F92003F0D0FD9DF80230002B01D00723A3
:101B7C0028E09DF8033019460198FFF7DBFB049031
:101B8C000498FFF708FC03468DF80F3000238DF8FE
:101B9C00173010E09DF8173019460498FFF702FC37
:101BAC000290029B1B78184600F04EFD9DF81730F2
:101BBC0001338DF817309DF817209DF80F309A429D
:101BCC00E8D30023184607B05DF804FBB0A2000070
:101BDC0000B587B001900B468DF803300198FFF7E4
:101BEC00A1FB03461A469DF80330934204D91949C8
:101BFC004FF4467003F087FD9DF8033019460198A9
:101C0C00FFF798FB04900498FFF7C5FB03468DF88B
:101C1C000F3000238DF8173010E09DF8173019465F
:101C2C000498FFF7BFFB0290029B1B78184600F04C
:101C3C0029FD9DF8173001338DF817309DF81720CA
:101C4C009DF80F309A42E8D300BF00BF07B05DF893
:101C5C0004FB00BFB0A2000000B589B0019003F0F6
:101C6C00C7FF0346002B04D1484940F2313003F042
:101C7C004AFD474808234FF48472464903F0CEFDD1
:101C8C000690069B002B01D003237BE0424807F013
:101C9C0035FC0690069B002B01D0069B72E03F4B57
:101CAC0000221A703E4B00221A603E4B00221A6032
:101CBC00482200213C4808F091F9482200213B4879
:101CCC0008F08CF9019B002B09D1394B00221A60CA
:101CDC00374B00225A60364B00221A7204E0344B08
:101CEC00019A07CA83E80700002004F01DF806904B
:101CFC00069B002B08D0069B852B05D0234A40F26F
:101D0C005F31069803F0BAFBFFF7C2FB0590002386
:101D1C008DF81F3018E000238DF81E3007E0039873
:101D2C00FFF766FB034605991846FFF729FD9DF85A
:101D3C001E305A1C8DF81E2019460498FFF732FBF2
:101D4C000390039B002BEAD19DF81F305A1C8DF891
:101D5C001F2019460598FFF7EDFA0490049B002B01
:101D6C00D9D10B238DF8083002AB19460598FFF733
:101D7C00B5FB0690069B002B03D0FFF7A1FA069B40
:101D8C0000E00023184609B05DF804FBB0A2000087
:101D9C0050000020040200208D190000B003002028
:101DAC00A4030020A8030020140300205C030020DF
:101DBC00B403002000B583B007F01CFD034683F08C
:101DCC000103DBB2002B04D107F020FD0346002BEE
:101DDC0001D008230FE00A4803F0C8FF0190019BD3
:101DEC000093009B002B05D0064A40F2C2310098AC
:101DFC0003F044FB0023184603B05DF804FB00BF5E
:101E0C002CA30000B0A2000008B507F013FC00BF23
:101E1C0008BD000008B507F005FD034683F001037B
:101E2C00DBB2002B04D1044940F2D13003F06BFC3F
:101E3C0007F068FC00BF08BDB0A2000008B507F0B1
:101E4C00E5FC0346002B0DD10D494FF4767003F0E1
:101E5C005AFC07E0FFF728FB034683F00103DBB2D3
:101E6C00002B0BD1FFF72DFB034683F00103DBB2F4
:101E7C00002BEFD10348FFF7C3FC00E000BF08BD07
:101E8C00B0A2000030A3000000B587B00190DD4B7C
:101E9C001B68002B04D1DC4940F2254003F033FCD5
:101EAC0003F015FC0346052B04D8D74940F22C400F
:101EBC0003F029FC019B1B78852B00F26A8201A29E
:101ECC0052F823F0E921000047220000D52200003F
:101EDC006922000099220000FD2200000D23000061
:101EEC009F23000075230000832300009123000032
:101EFC009F2300009F2300009F2300009F230000CE
:101F0C00EF2200009F2300009F2300009F2300006E
:101F1C009F2300009F2300009F2300009F230000AD
:101F2C009F2300009F2300009F2300009F2300009D
:101F3C009F2300009F2300009F2300009F2300008D
:101F4C009F2300009F2300009F2300009F2300007D
:101F5C009F2300009F2300009F2300009F2300006D
:101F6C009F2300009F2300009F2300009F2300005D
:101F7C009F2300009F2300009F2300009F2300004D
:101F8C009F2300009F2300009F2300009F2300003D
:101F9C009F2300009F2300009F2300009F2300002D
:101FAC009F2300009F2300009F2300009F2300001D
:101FBC009F2300009F2300009F2300009F2300000D
:101FCC009F2300009F2300009F2300009F230000FD
:101FDC009F2300009F2300009F2300009F230000ED
:101FEC009F2300009F2300009F2300009F230000DD
:101FFC009F2300009F2300009F2300009F230000CD
:10200C009F2300009F2300009F2300009F230000BC
:10201C009F2300009F2300009F2300009F230000AC
:10202C009F2300009F2300009F2300009F2300009C
:10203C009F2300009F2300009F2300009F2300008C
:10204C009F2300009F2300009F2300009F2300007C
:10205C009F2300009F2300009F2300009F2300006C
:10206C009F2300009F2300009F2300009F2300005C
:10207C009F2300009F2300009F2300009F2300004C
:10208C009F2300009F2300009F2300009F2300003C
:10209C009F2300009F2300009F2300009F2300002C
:1020AC009F2300009F2300009F2300009F2300001C
:1020BC009F2300009F2300009F2300009F2300000C
:1020CC009F23000067210000E92000002D21000063
:1020DC009B210000BB210000052300004B48FFF7AB
:1020EC007DFB4A4800F072FB0D20FFF767FA00F009
:1020FC0091FC03F034F8464B1B68002B03D1454B85
:10210C001B7A002B01D0012300E0002303F0010314
:10211C00DBB2184607F016FB0120FFF7C3FC45E1C4
:10212C0000F078FC07F042FB0020FFF7BBFC3A48BC
:10213C0000F04CFB3848FFF751FB0E20FFF73EFA3E
:10214C00FFF7AAFC03461846FFF73EFC0346002B9C
:10215C0000F0258103F0BEFD21E1FFF79DFC034655
:10216C00072B0ED0072B10DC052B02D0062B04D02E
:10217C000BE00220FFF796FC08E00820FFF792FC2A
:10218C0004E00220FFF78EFC00E000BF0EE1FFF739
:10219C0083FC0346032B40F0048107F057FB0346F6
:1021AC00002B00F0FE800420FFF77CFCF9E0FFF729
:1021BC0073FC0346032B07D107F048FB0346002BA7
:1021CC0002D00420FFF76EFC07F070FB0346002BD7
:1021DC0000F0E9800620FFF765FCE4E0FFF75CFC0B
:1021EC000346032B04D0FFF757FC0346082B02D100
:1021FC000A48FFF749FE0020FFF7E0F900F056FA15
:10220C00059016E0A4030020B0A2000034A3000047
:10221C00A8030020B403002038A300003CA3000056
:10222C0001990598FFF75AF903900598FFF704F9FF
:10223C000590059B002BF3D1B8E000F0EBFB02F00E
:10224C0085FF0220FFF72EFC0120FFF7B7F901985C
:10225C00FFF7C4FA019800F0B9FAA7E0FFF71CFCED
:10226C000346082B05D10220FFF71CFC07F070FB7E
:10227C0002E00520FFF716FC0320FFF79FF90198F9
:10228C00FFF7ACFA019800F0A1FA8FE00320FFF7FA
:10229C0095F94848FFF7A2FA464800F097FAFFF77D
:1022AC00FBFB0346062B02D0082B04D007E00720CB
:1022BC00FFF7F8FB07E00220FFF7F4FB03E0022036
:1022CC00FFF7F0FB72E071E00320FFF7EBFB02205D
:1022DC00FFF774F9019800F079FA0198FFF77EFA8C
:1022EC0064E00F20FFF76AF9019800F06FFA5DE0E7
:1022FC000198FFF773FA59E00198FFF76FFA55E070
:10230C00019B9B781846FFF7EFF90490049B1B6820
:10231C00002B04D1284940F2025003F0F4F9049B3D
:10232C005B68002B04D1244940F2035003F0EBF915
:10233C00049B5B68049A12680199104698470346FF
:10234C00002B32D0019B9B7803F00F03002B2CD079
:10235C00019B9B7803F00803002B26D1019B9B78F3
:10236C00184607F036FD20E00820FFF727F9019802
:10237C0000F02CFA1AE00920FFF720F9019800F080
:10238C0025FA13E00A20FFF719F9019800F01EFA5C
:10239C000CE0094940F2265003F0B5F906E000BF05
:1023AC0004E000BF02E000BF00E000BF00BF07B0C8
:1023BC005DF804FB40A30000B0A2000000B583B0A0
:1023CC0000230193354B1B68002B07D1344B354947
:1023DC00184603F083FA0346304A13602F4B1B68F0
:1023EC00002B32D02D4B1B689B88002B1ED02B4B07
:1023FC001B68DB88B3F5006F03D3284B1B680022E6
:10240C00DA80264B1B68DA88511C89B2D9801346B6
:10241C00ADF80630214B1B689A88013A92B29A802B
:10242C0001AB1846FFF730FD012333E01B4B1B6853
:10243C001846FFF729FD1A4B1A49184603F067FA9C
:10244C00164B00221A60012324E0174B1B68002B4B
:10245C001FD0002003F0F4F8144B1B88B3F5006F69
:10246C0002D3124B00221A80104B1B885A1C91B2BB
:10247C000E4A1180ADF8063001210B4803F0D2FA58
:10248C00002003F0F1F801AB1846FFF7FDFC012327
:10249C0000E00023184603B05DF804FBC0030020E5
:1024AC0050000020C40300200C0300201003002067
:1024BC0000B589B00190019B002B04D15A4940F220
:1024CC006A5003F020F9019B5B68002B04D156493C
:1024DC0040F26B5003F017F9019B5B681B68002BF3
:1024EC0004D1514940F26C5003F00DF90198FEF7FC
:1024FC0086FF03461B68002B04D04B4940F26D50FD
:10250C0003F001F907F082F9034683F00103DBB213
:10251C00002B04D007F06EF90346002B04D142497E
:10252C0040F2715003F0EFF800238DF81F301CE0DF
:10253C0000238DF81E300BE00398FEF759FF03467D
:10254C001846FFF70DF90346002B01D0112367E065
:10255C009DF81E305A1C8DF81E2019460598FEF762
:10256C0021FF0390039B002BE6D19DF81F305A1CD2
:10257C008DF81F2019460198FEF7DCFE0590059B8F
:10258C00002BD5D100238DF81F3018E000238DF8D7
:10259C001D3007E00498FEF72BFF034601991846FF
:1025AC00FFF7EEF89DF81D305A1C8DF81D201946CA
:1025BC000598FEF7F7FE0490049B002BEAD19DF8DA
:1025CC001F305A1C8DF81F2019460198FEF7B2FED9
:1025DC000590059B002BD9D1144B069310E0069B5C
:1025EC001B68019A9A4204D10F4940F2975003F0AC
:1025FC008AF8069B1B681846FEF701FF03460693F4
:10260C00069B1B68002BEAD1069B019A1A600B23D0
:10261C008DF8083002AB19460198FEF75FFF0346B0
:10262C00184609B05DF804FBB0A20000A40300201A
:10263C00044B1B78002B14BF01230023DBB218467C
:10264C00704700BFB103002000B583B003468DF87E
:10265C0007309DF8073003F00803002B09D19DF8D3
:10266C000730184607F0FDFB9DF80730184607F0B9
:10267C00C2FB9DF80730184607F0E8F900BF03B01D
:10268C005DF804FB00B583B003468DF807309DF868
:10269C000730184607F02AFA00BF03B05DF804FBB8
:1026AC00014B1B6818467047A4030020014B1B68A4
:1026BC0018467047A8030020014B1B68184670474A
:1026CC00AC03002000B587B0034600918DF80730AD
:1026DC00FFF7E6FF059031E00598FEF723FE034671
:1026EC008DF8123000238DF813301DE09DF8133057
:1026FC0019460598FEF71EFE03900398FEF744FE5C
:10270C0003461A469DF80730934208D1009B002BD4
:10271C0003D0009B9DF813201A70059B12E09DF8C6
:10272C00133001338DF813309DF813209DF81230BF
:10273C009A42DBD30598FEF769FE0590059B002BAA
:10274C00CAD10023184607B05DF804FB00B585B06C
:10275C0003900B4601928DF80B3001990398FEF70C
:10276C00BDFE0346184605B05DF804FB00B585B008
:10277C00034600918DF807309DF90730002B05DAE0
:10278C009DF8073003F00F03082B09DD9DF9073086
:10279C00002B16DB9DF8073003F00F03082B10DC21
:1027AC009DF807301846FEF79FFF03461B680393FE
:1027BC00039B002B05D000990398FEF78FFE034670
:1027CC0000E01023184605B05DF804FB00B585B099
:1027DC000190FFF765FF039007E001990398FEF75E
:1027EC007DFE0398FEF712FE0390039B002BF4D1A1
:1027FC0000BF00BF05B05DF804FB00B585B00190CB
:10280C0006230293FFF74CFF03900BE0019903980A
:10281C00FEF764FE0290029B062B07D10398FEF78D
:10282C00F5FD0390039B002BF0D100E000BF029B51
:10283C00184605B05DF804FB00B583B00346009163
:10284C008DF807309DF80730184607F0ECF8034672
:10285C0083F00103DBB2002B01D008230CE0084B02
:10286C001B78022B01D0082306E09DF80730009955
:10287C00184607F05BF90346184603B05DF804FBF5
:10288C00B003002000B583B0034600918DF80730EB
:10289C009DF80730184607F0C6F8034683F001038D
:1028AC00DBB2002B01D008230CE0084B1B78022B69
:1028BC0001D0082306E09DF807300099184607F070
:1028CC0003FA0346184603B05DF804FBB00300207E
:1028DC0000B585B001900B468DF8033013468DF88A
:1028EC00023006230393019B5B689B68002B09D085
:1028FC00019B5B689B689DF802209DF80310019872
:10290C0098470390039B062B08D19DF802209DF855
:10291C00033019460198FFF70FF90390039B1846F3
:10292C0005B05DF804FB00B583B001900B468DF843
:10293C000330019B5B68DB68002B07D0019B5B6855
:10294C00DB689DF803201146019898479DF80330E9
:10295C0019460198FFF73CF900BF03B05DF804FB82
:10296C0000B585B001900B468DF8033000238DF82F
:10297C000F30019B5B681B69002B0AD0019B5B68C5
:10298C001B699DF8032011460198984703468DF862
:10299C000F309DF80F30184605B05DF804FB0000B1
:1029AC0000B585B0FFF77CFE039028E00398FEF796
:1029BC00B9FC03468DF80A3000238DF80B3014E077
:1029CC009DF80B30002219460398FFF781FF019008
:1029DC00019B002B04D00E4940F26A7002F093FE6A
:1029EC009DF80B3001338DF80B309DF80B209DF8C2
:1029FC000A309A42E4D30398FEF708FD0390039B38
:102A0C00002BD3D100BF00BF05B05DF804FB00BFA5
:102A1C00B0A2000000B583B0FFF742FE01901EE0AB
:102A2C000198FEF77FFC03468DF8023000238DF8E9
:102A3C0003300AE09DF8033019460198FFF773FF45
:102A4C009DF8033001338DF803309DF803209DF879
:102A5C0002309A42EED30198FEF7D8FC0190019B0C
:102A6C00002BDDD100BF00BF03B05DF804FB82B0CA
:102A7C0003468DF807309DF8073003F01F03DBB2D7
:102A8C00184602B0704782B003468DF807309DF8A7
:102A9C0007305B0903F00303DBB2184602B0704742
:102AAC0082B003468DF807309DF80730DB09DBB2A6
:102ABC00184602B0704782B00190019B1B7A1846F1
:102ACC0002B0704700B585B001900B468DF803300D
:102ADC00019B002B04D10F494FF4887002F013FEB8
:102AEC000198FFF7E8FF03461A469DF8033093421E
:102AFC0001D3002309E0019B093303939DF80320C4
:102B0C0013465B001344039A1344184605B05DF852
:102B1C0004FB00BFB8A3000082B00190019B1B789E
:102B2C00184602B0704782B00190019B5B78184642
:102B3C0002B0704700B585B001900B468DF803309C
:102B4C00019B002B04D10D4940F2431002F0DBFD38
:102B5C00019B5B789DF803209A4201D3002309E086
:102B6C00019B9B781A46019B134403939DF80330F9
:102B7C00039A1344184605B05DF804FBB8A3000093
:102B8C0082B00190019B1B78184602B0704782B04E
:102B9C000190019B184602B07047000000B583B04D
:102BAC000190019B002B03D10449522002F0ABFD94
:102BBC00019B184603B05DF804FB00BF34A4000071
:102BCC0000B583B00190019B002B03D109495F2014
:102BDC0002F099FD019B1B68002B03D10549602075
:102BEC0002F091FD019B1B680C33184603B05DF895
:102BFC0004FB00BF34A4000000B585B001900B4667
:102C0C008DF803300198FFF7C9FF0390039BDB6934
:102C1C00002B06D0039BDB699DF80320114601981D
:102C2C00984700BF05B05DF804FB00B585B0019076
:102C3C0000210198FFF746FF039000210398FFF74E
:102C4C0079FF02900298FFF79BFF0346184605B0E8
:102C5C005DF804FB00B585B0019001210198FFF7E8
:102C6C0031FF039000210398FFF764FF0290029854
:102C7C00FFF786FF0346184605B05DF804FB00B568
:102C8C0085B0019001210198FFF71CFF03900121F1
:102C9C000398FFF74FFF02900298FFF771FF03466E
:102CAC00184605B05DF804FB00B589B0039002919D
:102CBC00029B5B781846FFF7DAFE0346012B28D1FE
:102CCC00029B9B78062B24D10023059304AB18465A
:102CDC0002F0BAFA0790029B1979029BDA7805ABDD
:102CEC000093079B0398FEF77FFC0690069B052B31
:102CFC000FD0059B3F2B03D90849C92002F003FDD7
:102D0C00029B0133059A0799184602F031FA0346E3
:102D1C0000E00623184609B05DF804FB34A400005B
:102D2C0082B00190009100BF0623184602B0704794
:102D3C0000B585B0019000910198FFF72FFF03902B
:102D4C000398FFF73DFF0290009B9B78212B11D13C
:102D5C00009BB3F807309BB2072B01D006230BE086
:102D6C00009B581C029B0C330722194602F000FAF8
:102D7C00034601E000BF0623184605B05DF804FBCE
:102D8C0000B585B0034600918DF807309DF80730EB
:102D9C00002B01D0032316E0009B03930398FFF74D
:102DAC000FFF0290029B1B78202B0BD1029B03F18F
:102DBC000C00029B02330722194607F0D9F800BF1A
:102DCC00002300E00623184605B05DF804FB000064
:102DDC0000B58BB0019000910198FFF7DFFE0890D1
:102DEC000898FFF7EDFE0790009B9A78079B1A70E6
:102DFC00009BB3F807309BB2DAB2079B5A70079B63
:102E0C0002330493079B5B78059300230693002001
:102E1C0002F016FC04AB19460020FFF70DFD0990DB
:102E2C00099B002B09D1094B0293089B039302AB1E
:102E3C001946002002F0EAF90990002002F014FC77
:102E4C00099B18460BB05DF804FB00BF8D2D0000EC
:102E5C0000B585B001900198FFF7A0FE0390039890
:102E6C00FFF7AEFE0290029B00229A82029B002288
:102E7C009A61029B00221A62029B0022DA66029B74
:102E8C0000221A67029B00225A67029B00229A6753
:102E9C00029B03F12802029B9A6600BF05B05DF805
:102EAC0004FB00B587B0019000910198FFF776FE06
:102EBC0005900598FFF784FE0490009B9B78202BCF
:102ECC0004D0222B10D000BF06237BE0009BB3F86C
:102EDC0007309BB2072B01D0062373E000990198B1
:102EEC00FFF776FF03466DE0009BB3F807309BB20B
:102EFC00002B01D0062365E0049B9B8A03F00103A1
:102F0C00002B14BF012300238DF80F30009BB3F866
:102F1C0003309AB2049B9A82049B9B8A03F00103B0
:102F2C00002B14BF012300238DF80E309DF80F20C9
:102F3C009DF80E309A4201D1002343E09DF80E30EB
:102F4C00002B01D0022300E003238DF80D309DF8F7
:102F5C000D3019460198FFF74FFE9DF80E3083F0A7
:102F6C000103DBB2002B2CD00198FFF773FE034654
:102F7C008DF80C309DF80C30184605F0D5FB0198F7
:102F8C00FFF77DFE03468DF80C309DF80C3018468B
:102F9C0005F0CAFB049B00229A61049B00221A6272
:102FAC00049B0022DA66049B00221A67049B002211
:102FBC005A67049B00229A67049B03F12802049B26
:102FCC009A660023184607B05DF804FB00B583B081
:102FDC0001900091019B002B04D124494FF4E47023
:102FEC0002F091FB009B002B04D1204940F2C91048
:102FFC0002F089FB009B5B781846FFF751FD0346F6
:10300C00012B16D1009B5B781846FFF73CFD03465D
:10301C00002B02D0012B06D022E000990198FFF77B
:10302C0043FE03461DE000990198FFF781FE03461D
:10303C0017E0009B5B781846FFF725FD0346002B35
:10304C0002D0012B06D00BE000990198FFF768FE27
:10305C00034606E000990198FFF723FF034600E0C2
:10306C000623184603B05DF804FB00BF34A400002F
:10307C0086B00390029101920093029B0593039BEF
:10308C00009A5A60059BDB69009A9A421DD8059BF1
:10309C009A69039B1A60059B9A69009B1A44059BCD
:1030AC009A61059B1A6F009B1A44059B1A67059B36
:1030BC00DA69009BD21A059BDA61059BDB69002B50
:1030CC0014BF01230023DBB208E0059B03F12802A7
:1030DC00039B1A60059B009A9A670023184606B05A
:1030EC007047000000B58BB001900198FFF756FDBA
:1030FC0008900898FFF764FD07900198FFF7BFFD53
:10310C0003468DF81B306C4B0393079B0493079B72
:10311C00DB69002B26D1079B1A6F079B5A67079B0D
:10312C0000221A67079B0022DA66079B1B6A002B9A
:10313C0013D0079B079A1833203292E8030083E8D8
:10314C000300079B00221A6203AA9DF81B3011464C
:10315C001846FFF797FB0346A9E0079B00229A61EC
:10316C000023A4E0079B9B6F0593059B0993079B8A
:10317C00DB69059A9A4202D9079BDB690993079B85
:10318C009869079B2833099A194606F0F1FE079BAC
:10319C001A6F099B1A44079B5A67079B00221A67F0
:1031AC00059A099BD21A079BDA66079B03F1280242
:1031BC00099B1A44079B9A66079B1B6A002B65D0D8
:1031CC00079B079A1833203292E8030083E8030028
:1031DC00079B00221A6254E0079BDA6E079BDB699F
:1031EC009A4232D3079B9869079B996E079BDB69C0
:1031FC001A4606F0BDFE079BDA6E079BDB69D21AF6
:10320C00079BDA66079B9A6E079BDB691A44079B40
:10321C009A66079BDA69079B5A6700210198FFF7AA
:10322C00EBFC079B1B6A002B0BD0079B079A1833F0
:10323C00203292E8030083E80300079B00221A6205
:10324C001FE0079B00229A6123E0079B9869079B6C
:10325C00996E079BDB6E1A4606F08AFE079BDA6EA8
:10326C00079B1A67079BDA69079BDB6ED21A079BD1
:10327C00DA61079B9A69079BDB6E1A44079B9A617C
:10328C0007E0079BDB6E002BA6D102E0079B002218
:10329C009A61079B9B69002B08D003AA9DF81B30F1
:1032AC0011461846FFF7EEFA034600E000231846D5
:1032BC000BB05DF804FB00BF7D30000000B585B09D
:1032CC00019000910198FFF7B0FC03461A46009B51
:1032DC009B789A4201D1002334E0009B9B785BB22F
:1032EC00002B10DA009BDB78002B02D0032B06D0CE
:1032FC0007E001210198FFF77FFC002322E0002367
:10330C0020E003231EE0009B9B785BB2002B18DBB4
:10331C00009BDB78032B10D0032B10DC002B02D08E
:10332C00012B0AD00BE00198FFF7DCFE0390002183
:10333C000198FFF761FC039B04E0002302E00323E8
:10334C0000E00623184605B05DF804FB00B585B017
:10335C0001900091019B002B04D12B4940F2DD2000
:10336C0002F0D1F9009B002B04D1274940F2DE205A
:10337C0002F0C9F900230393009B1B780E2B39D85C
:10338C0001A252F823F000BF07340000D133000033
:10339C00073400000734000001340000D93300006A
:1033AC00E53300000134000001340000F13300006B
:1033BC00013400000734000007340000073400001B
:1033CC00073400000198FFF743FD17E000990198BE
:1033DC00FFF7FCFD039011E000990198FFF76EFFD9
:1033EC0003900BE003210198FFF706FC0198FFF70F
:1033FC002FFD03E00623039300E000BF039B184658
:10340C0005B05DF804FB00BF34A4000010B58AB011
:10341C0003900291019200930298FFF74CFB034634
:10342C001A46C34B1A700298FFF7B8FB0990039B1E
:10343C00002B04D1BF494FF4447002F064F9019B96
:10344C00059300230693009B0793039B0893089B0B
:10345C001B68002B00F00C81B3F5647F80F0D986DB
:10346C0040F213329342C0F0D486A3F213337C2B78
:10347C0000F2CF8601A252F823F000BF9B36000069
:10348C00D136000009370000473700007D370000B7
:10349C00B3370000EB370000213800001F4200005A
:1034AC001F4200001F4200001F4200001F4200008C
:1034BC001F42000061380000973800001F420000D6
:1034CC001F4200001F4200001F420000E9380000AC
:1034DC001F3900005F3900001F4200001F4200002E
:1034EC001F420000A9390000DF390000173A000024
:1034FC001F4200001F4200001F4200001F4200003C
:10350C00613A00009F3A0000D33A00001F420000CD
:10351C001F4200001F4200001F4200001F4200001B
:10352C001F420000133B00001F4200001F4200001E
:10353C001F4200001F4200005D3B0000913B000059
:10354C00C53B0000F93B00002D3C00001F42000071
:10355C001F420000613C0000953C0000C93C00008B
:10356C00FD3C00003B3D00001F4200001F420000DC
:10357C006F3D0000A33D0000D73D00000B3E000056
:10358C001F4200001F4200003F3E0000733E00003F
:10359C00A73E0000DD3E0000133F00001F4200006C
:1035AC001F4200001F4200001F4200001F4200008B
:1035BC001F4200001F4200001F4200001F4200007B
:1035CC001F4200001F4200001F4200001F4200006B
:1035DC001F4200001F4200001F4200001F4200005B
:1035EC001F4200001F420000813F0000B53F000059
:1035FC001F4200001F4200001F4200000940000053
:10360C001F4200001F4200001F4200001F4200002A
:10361C00514000001F4200001F4200001F420000EA
:10362C001F4200009B4000001F4200001F42000090
:10363C001F4200001F4200001F4200001F420000FA
:10364C00DB4000000F4100001F4200001F42000041
:10365C001F4200001F4200005B4100001F4200009F
:10366C001F4200001F4200001F420000BB4100002F
:10367C00089B08221A71069A079B9A4206D3089B4C
:10368C0040F213321A60012300F0C7BD00BF059B46
:10369C00002B05D0089A0599069B0B4412791A70D9
:1036AC00069B01330693089B0B221A71069A079B03
:1036BC009A4206D3089B4FF445721A60012300F01E
:1036CC00ACBD00BF059B002B05D0089A0599069B45
:1036DC000B4412791A70069B01330693089B099AC6
:1036EC00127D1A71069A079B9A4206D3089B40F2E8
:1036FC0015321A60012300F090BD00BF059B002B12
:10370C0005D0089A0599069B0B4412791A70069BF2
:10371C0001330693089B02221A71069A079B9A4260
:10372C000AD3089B40F216321A60012300F075BDD3
:10373C00C803002034A4000000BF059B002B05D05B
:10374C00089A0599069B0B4412791A70069B013353
:10375C000693089B02221A71069A079B9A4206D37B
:10376C00089B40F217321A60012300F056BD00BFCF
:10377C00059B002B05D0089A0599069B0B441279E2
:10378C001A70069B01330693089B02221A71069A43
:10379C00079B9A4206D3089B4FF446721A6001238A
:1037AC0000F03BBD00BF059B002B05D0089A059986
:1037BC00069B0B4412791A70069B01330693089BE7
:1037CC00099A527E1A71069A079B9A4206D3089B55
:1037DC0040F219321A60012300F01FBD00BF059B97
:1037EC00002B05D0089A0599069B0B4412791A7088
:1037FC00069B01330693089B00221A71069A079BBD
:10380C009A4206D3089B40F21A321A60012300F048
:10381C0004BD00BF059B002B05D0089A0599069B9B
:10382C000B4412791A70069B01330693964B0022B7
:10383C001A7000F0E1BC089B09221A71069A079BCA
:10384C009A4206D3089B40F221321A60012300F001
:10385C00E4BC00BF059B002B05D0089A0599069B7C
:10386C000B4412791A70069B01330693089B0422B1
:10387C001A71069A079B9A4206D3089B40F2223291
:10388C001A60012300F0C9BC00BF059B002B05D0BA
:10389C00089A0599069B0B4412791A70069B013302
:1038AC000693794B1B7819460298FFF70BF90346E0
:1038BC00764A1360754B1B68089C1846FFF72CF969
:1038CC0003462371069A079B9A4206D3089B40F243
:1038DC0027321A60012300F0A0BC00BF059B002B0F
:1038EC0005D0089A0599069B0B4412791A70069B11
:1038FC0001330693089B00221A71069A079B9A4281
:10390C0006D3089B4FF44A721A60012300F085BC61
:10391C0000BF059B002B05D0089A0599069B0B440C
:10392C0012791A70069B01330693584B1B68089C3E
:10393C001846FFF7F8F803462371069A079B9A423C
:10394C0006D3089B40F229321A60012300F065BCB3
:10395C0000BF059B002B05D0089A0599069B0B44CC
:10396C0012791A70069B01330693099B1C7D474BF9
:10397C001B681846FFF7D0F803469C4252D1089BAF
:10398C0002221A71069A079B9A4206D3089B40F2B0
:10399C002D321A60012300F040BC00BF059B002BA8
:1039AC0005D0089A0599069B0B4412791A70069B50
:1039BC0001330693089B02221A71069A079B9A42BE
:1039CC0006D3089B40F22E321A60012300F025BC6E
:1039DC0000BF059B002B05D0089A0599069B0B444C
:1039EC0012791A70069B01330693089B099A527E32
:1039FC001A71069A079B9A4206D3089B40F22F3203
:103A0C001A60012300F009BC00BF059B002B05D0F8
:103A1C00089A0599069B0B4412791A70069B013380
:103A2C00069362E0099B9C7D184B1B681846FFF7B8
:103A3C0073F803469C4253D1089B0A221A71069ACA
:103A4C00079B9A4205D3089B4FF44D721A600123D1
:103A5C00E3E300BF059B002B05D0089A0599069B54
:103A6C000B4412791A70069B01330693089B0022B3
:103A7C001A71069A079B9A420AD3089B40F2353278
:103A8C001A600123C9E300BFC9030020CC03002046
:103A9C0000BF059B002B05D0089A0599069B0B448B
:103AAC0012791A70069B01330693089B00221A7137
:103ABC00069A079B9A4205D3089B40F236321A604D
:103ACC000123AAE300BF059B002B05D0089A05999A
:103ADC00069B0B4412791A70069B0133069304E083
:103AEC00904940F23A3001F00EFE089B00221A7108
:103AFC00069A079B9A4205D3089B40F23D321A6006
:103B0C0001238AE300BF059B002B05D0089A059979
:103B1C00069B0B4412791A70069B01330693099B82
:103B2C001C7D814B1B681846FEF7F6FF03469C4232
:103B3C0040F0F681089B05221A71069A079B9A425F
:103B4C0005D3089B40F242321A60012365E300BFA3
:103B5C00059B002B05D0089A0599069B0B441279FE
:103B6C001A70069B01330693089B24221A71069A3D
:103B7C00079B9A4205D3089B40F243321A600123FB
:103B8C004BE300BF059B002B05D0089A0599069BBB
:103B9C000B4412791A70069B01330693089B002282
:103BAC001A71069A079B9A4205D3089B4FF45172DF
:103BBC001A60012331E300BF059B002B05D0089A46
:103BCC000599069B0B4412791A70069B01330693D8
:103BDC00089B10221A71069A079B9A4205D3089BE0
:103BEC0040F245321A60012317E300BF059B002BFE
:103BFC0005D0089A0599069B0B4412791A70069BFE
:103C0C0001330693089B01221A71069A079B9A426C
:103C1C0005D3089B40F246321A600123FDE200BF37
:103C2C00059B002B05D0089A0599069B0B4412792D
:103C3C001A70069B01330693089B05221A71069A8B
:103C4C00079B9A4205D3089B40F249321A60012324
:103C5C00E3E200BF059B002B05D0089A0599069B53
:103C6C000B4412791A70069B01330693089B24228D
:103C7C001A71069A079B9A4205D3089B40F24A3266
:103C8C001A600123C9E200BF059B002B05D0089ADE
:103C9C000599069B0B4412791A70069B0133069307
:103CAC00089B01221A71069A079B9A4205D3089B1E
:103CBC0040F24B321A600123AFE200BF059B002B90
:103CCC0005D0089A0599069B0B4412791A70069B2D
:103CDC0001330693089B03221A71069A079B9A429A
:103CEC0005D3089B4FF453721A60012395E200BF71
:103CFC00059B002B05D0089A0599069B0B4412795D
:103D0C001A70069B01330693089B099A927D1A71CF
:103D1C00069A079B9A4209D3089B40F24D321A60CF
:103D2C0001237AE234A40000CC03002000BF059BE1
:103D3C00002B05D0089A0599069B0B4412791A7032
:103D4C00069B01330693089B04221A71069A079B63
:103D5C009A4205D3089B4FF454721A6001235CE21B
:103D6C0000BF059B002B05D0089A0599069B0B44B8
:103D7C0012791A70069B01330693089B24221A7140
:103D8C00069A079B9A4205D3089B40F251321A605F
:103D9C00012342E200BF059B002B05D0089A059930
:103DAC00069B0B4412791A70069B01330693089BF1
:103DBC0002221A71069A079B9A4205D3089B40F27D
:103DCC0052321A60012328E200BF059B002B05D05C
:103DDC00089A0599069B0B4412791A70069B0133BD
:103DEC000693089B02221A71069A079B9A4205D3E6
:103DFC00089B40F253321A6001230EE200BF059B70
:103E0C00002B05D0089A0599069B0B4412791A7061
:103E1C00069B01330693089B05221A71069A079B91
:103E2C009A4205D3089B40F256321A600123F4E102
:103E3C0000BF059B002B05D0089A0599069B0B44E7
:103E4C0012791A70069B01330693089B24221A716F
:103E5C00069A079B9A4205D3089B40F257321A6088
:103E6C000123DAE100BF059B002B05D0089A0599C8
:103E7C00069B0B4412791A70069B01330693089B20
:103E8C0006221A71069A079B9A4205D3089B4FF497
:103E9C0056721A600123C0E100BF059B002B05D0B0
:103EAC00089A0599069B0B4412791A70069B0133EC
:103EBC000693089B099A127D1A71069A079B9A42DF
:103ECC0005D3089B40F259321A600123A5E100BFCB
:103EDC00059B002B05D0089A0599069B0B4412797B
:103EEC001A70069B01330693089B099A927D1A71EE
:103EFC00069A079B9A4205D3089B40F25A321A60E5
:103F0C0001238AE100BF059B002B05D0089A059977
:103F1C00069B0B4412791A70069B013306930EE034
:103F2C00099B9C7D9C4B1B681846FEF7F5FD0346D0
:103F3C009C4204D0994940F2633001F0E4FB964B6B
:103F4C001B681846FEF7EFFD03461A46944B1A7091
:103F5C00944B00221A7042E1089B07221A71069AB0
:103F6C00079B9A4205D3089B40F26E321A600123DC
:103F7C0053E100BF059B002B05D0089A0599069BC1
:103F8C000B4412791A70069B01330693089B052289
:103F9C001A71069A079B9A4205D3089B40F26F321E
:103FAC001A60012339E100BF059B002B05D0089A4C
:103FBC000599069B0B4412791A70069B01330693E4
:103FCC00754B1B68774A127811461846FEF7B2FDFE
:103FDC000346754A1360744B1B68089C1846FEF721
:103FEC00CFFD03462371069A079B9A4205D3089B83
:103FFC0040F273321A6001230FE100BF059B002BC6
:10400C0005D0089A0599069B0B4412791A70069BE9
:10401C0001330693099B1C7D5F4B1B681846FEF70A
:10402C007BFD03469C421AD1089B03221A71069A07
:10403C00079B9A4205D3089B4FF45E721A600123CA
:10404C00EBE000BF059B002B05D0089A0599069B59
:10405C000B4412791A70069B0133069329E0099BD5
:10406C009C7D4D4B1B681846FEF756FD03469C4243
:10407C001AD1089B02221A71069A079B9A4205D301
:10408C00089B40F27D321A600123C6E000BF059BFD
:10409C00002B05D0089A0599069B0B4412791A70CF
:1040AC00069B0133069304E03C4940F2813001F059
:1040BC002AFB089B40221A71069A079B9A4205D349
:1040CC00089B4FF461721A600123A6E000BF059BA8
:1040DC00002B05D0089A0599069B0B4412791A708F
:1040EC00069B01330693089B00221A71069A079BC4
:1040FC009A4205D3089B40F285321A6001238CE06A
:10410C0000BF059B002B05D0089A0599069B0B4414
:10411C0012791A70069B01330693099B1C7D1E4B6A
:10412C001B681846FEF7F8FC03469C421CD1099B01
:10413C001A6A089B12781A71069A079B9A4205D341
:10414C00089B40F28A321A60012366E000BF059B8F
:10415C00002B05D0089A0599069B0B4412791A700E
:10416C00069B0133069334E0099B9C7D0A4B1B682C
:10417C001846FEF7D1FC03469C4225D1089B002231
:10418C001A71069A079B9A4210D3089B40F28F3201
:10419C001A60012341E000BFCC03002034A40000CE
:1041AC00D0030020D1030020D403002000BF059BC6
:1041BC00002B05D0089A0599069B0B4412791A70AE
:1041CC00069B0133069304E0154940F2933001F04D
:1041DC009AFA144B1B780133DAB2124B1A70114B4A
:1041EC001A78114B1B789A42FFF4B6AE0F4B1B7822
:1041FC000133DAB20D4B1A700C4B1A780C4B1B783E
:10420C009A42FFF418AB089B40F29A321A600123D1
:10421C0003E0089B00221A60002318460AB010BD68
:10422C0034A40000D1030020D0030020C9030020D7
:10423C00C803002000B58FB003900291019203983F
:10424C00FEF7A5FC0D900398FEF7BAFC0C900C9BA6
:10425C009B8A03F00103002B14BF012300238DF86C
:10426C002F309DF82F3083F00103DBB2002B01D0EF
:10427C00082327E00D98FEF7EDFC03468DF82E3051
:10428C00019B03F03F03002B0ED1029B0893019B73
:10429C00099301230A9308AA9DF82E30114618465B
:1042AC00FEF7CAFA03460DE0029B0593019B0693A9
:1042BC000023079305AA9DF82E3011461846FEF7E9
:1042CC00BBFA034618460FB05DF804FB00B585B089
:1042DC0001900198FEF774FC0390039B5B6F1846EA
:1042EC0005B05DF804FB000000B58BB003900291A3
:1042FC000192029B002B04D1454940F2D73001F0CA
:10430C0002FA0398FEF75CFC0890089B9B8A03F06A
:10431C000103002B01D1082375E0089B9B69002B3E
:10432C0061D1089BDB6E019A9A4218D8089B9B6E50
:10433C00019A1946029805F01BFE089BDA6E019B48
:10434C00D21A089BDA66089B9A6E019B1A44089B4A
:10435C009A66089B019A5A670023099352E0089BBE
:10436C00029A9A61089B019ADA610398FEF70FFC96
:10437C0003461846FEF783FC03468DF81F30254B89
:10438C000593089B0693089BDB6E002B1DD0089BA6
:10439C009869089B996E089BDB6E1A4605F0E8FD40
:1043AC00089BDA69089BDB6ED21A089BDA61089BC2
:1043BC009A69089BDB6E1A44089B9A61089BDA6E1B
:1043CC00089B1A67089B0022DA6605AA9DF81F3025
:1043DC0011461846FEF756FA0990099B002B11D18D
:1043EC00922309930EE0089B1B6A002B08D1089BB3
:1043FC00029A1A62089B019A5A629223099301E06D
:10440C0011230993099B18460BB05DF804FB00BF00
:10441C0034A400007D30000082B00190019B03F1B8
:10442C00804303F51C33184602B0704700B583B0C7
:10443C0003468DF807309DF807301846FFF7ECFF60
:10444C00034601221A60BFF36F8F00BFBFF34F8F7B
:10445C0000BF00BF03B05DF804FB82B003468DF8CB
:10446C0007309DF8073003F01F03DBB2184602B08B
:10447C00704782B003468DF807309DF807305B0912
:10448C0003F00303DBB2184602B0704782B0034658
:10449C008DF807309DF80730DB09DBB2184602B007
:1044AC00704782B00190019B1B7A184602B070478E
:1044BC0082B00190019B1B68184602B07047000047
:1044CC0000B583B00190019B002B04D1064940F24A
:1044DC00432001F018F90198FFF7EAFF03461B6827
:1044EC00184603B05DF804FBBCA4000082B0019038
:1044FC00019B1B78184602B07047000000B583B0D2
:10450C0003468DF807300E4B1B789DF807209A4216
:10451C0011D00B4A9DF8073013709DF80730052B0E
:10452C0006D0084B1B7823F00203DAB2054B1A7045
:10453C000548FDF7A9FC00BF03B05DF804FB00BF04
:10454C00D8030020D9030020FCA50000014B1B78E8
:10455C0018467047D80300204FF08043D3F8383406
:10456C0003F00103002B14BF01230023DBB2184618
:10457C0070470000024B00221A6000BF704700BF5A
:10458C002004002000B585B003468DF807300B4B96
:10459C001B680393039B002B0AD0FFF7EBFF074B21
:1045AC0059689DF80720039B10469847034600E086
:1045BC000E23184605B05DF804FB00BF2004002054
:1045CC00044B1B68002B14BF01230023DBB21846DD
:1045DC00704700BF2004002082B0034600918DF884
:1045EC0007300023184602B07047000010B58EB09B
:1045FC0003900291019201238DF83730029B0993AD
:10460C00099B5B68002B15D1099B1B681846FFF7AB
:10461C0057FF0346002B0DD1099B9B68002B09D13A
:10462C0000238DF83730039B00221A60039B002275
:10463C005A60AAE0019B402B04D9564940F29710CE
:10464C0001F061F800230C9300238DF82B3005F05A
:10465C00A7FB0890099BDB68019A934228BF13467D
:10466C000B9386E0099B9B680B9A934228BF1346D9
:10467C000793099B5B68002B0CD0089A0C9BD018F5
:10468C00099B5B68079A194605F072FC099B00228E
:10469C005A6014E0099B9B68002B10D0099B1B6887
:1046AC005B685C68099B03F11000099B1968089A08
:1046BC000C9B1A44079BA04701238DF82B30099BB8
:1046CC009A68079BD21A099B9A60099BDA68079B28
:1046DC00D21A099BDA600B9A079BD31A0B930C9A8C
:1046EC00079B13440C93099B9B68002B0BD19DF8E3
:1046FC002B30002B07D0099B1B681846FFF7E0FEF8
:10470C000246099B1A60099BDB68002B03D100232E
:10471C008DF837302DE0099B9B68002B29D1099B24
:10472C001B68002B0DD1099B00225A600C9B002B9F
:10473C0024D00C9A019B9A4220D200238DF837305A
:10474C001CE00023059304E0099B9B685A1C099B01
:10475C009A60099B1B685B685C68099B196805A8D3
:10476C0001230022A0470346002BEDD1099B002218
:10477C001A610B9B002B7FF475AF00E000BF039B0D
:10478C00089A1A60039B0C9A5A609DF837301846A9
:10479C000EB010BD38A5000000B587B00190019B8C
:1047AC005B781846FFF765FE0346002B01D0062305
:1047BC0083E0019B5B798DF81730FFF7C7FE03464A
:1047CC008DF81630019B9B78032B29D0032B6EDCC4
:1047DC00002B02D0012B44D069E09DF81630052B3C
:1047EC0005D09DF8173003F00F03002B16D103AB47
:1047FC00184600F029FD04909DF81730184605F076
:10480C001DFB03469AB2049B1A80019B01330222C2
:10481C000499184600F0ACFC03464EE008234CE02B
:10482C009DF8173003F00803002B42D1019BB3F81D
:10483C0003309BB2002B3CD19DF8173003F00F03D3
:10484C00002B01D1062338E09DF81630052B06D13C
:10485C009DF81730184605F0BCFA00232DE008230C
:10486C002BE09DF8173003F00803002B23D1019B9C
:10487C00B3F803309BB2002B1DD19DF8173003F019
:10488C000F03002B01D1062317E09DF81630052BE2
:10489C000BD19DF81730184605F0E3FA9DF8173048
:1048AC00184605F0A8FA002307E0082305E000BF2E
:1048BC0002E000BF00E000BF0623184607B05DF819
:1048CC0004FB00B58BB003900B4601928DF80B30B6
:1048DC00019B5B781846FFF7CCFD0346002B01D0FB
:1048EC0006236AE0FFF732FE03468DF82730019B62
:1048FC005B781846FFF7CAFD0346012B3BD1019BA1
:10490C009B78002B02D00A2B17D055E09DF827304E
:10491C00052B01D0082350E006AB184600F094FCA0
:10492C000790079B00221A80019B013302220799F2
:10493C00184600F01DFC03463FE09DF82730052B80
:10494C0001D0082339E005AB184600F07DFC089037
:10495C009DF80B3019460398FEF702F803461A46E9
:10496C00089B1A70019B013301220899184600F02C
:10497C00FFFB034621E0019B9B780B2B1BD19DF881
:10498C002730052B01D0082317E0019BB3F8033027
:10499C009BB2FF2B01D907230FE0019BDB788DF82D
:1049AC0026309DF826209DF80B3019460398FDF70C
:1049BC008FFF034601E000BF062318460BB05DF8DD
:1049CC0004FB000000B585B00190009102AB1846C5
:1049DC0000F03AFC0390029B012B04D8184940F2DA
:1049EC009F2000F090FE02220021039805F0F6FAB9
:1049FC00C02303F04003002B06D0039B1B7843F02D
:104A0C000103DAB2039B1A700E4B1B785B08DBB206
:104A1C0003F00103002B06D0039B1B7843F0020329
:104A2C00DAB2039B1A70009B0133022203991846D9
:104A3C0000F09EFB0346184605B05DF804FB00BF72
:104A4C0038A50000D903002010B58EB0019000915C
:104A5C00009B1B79032B00F0BC80032B00F3E78039
:104A6C00012B02D0022B11D0E1E0009BB3F80730F0
:104A7C009BB2002B01D10023DBE0009B01331222FF
:104A8C006D49184600F074FB0346D2E0009BB3F866
:104A9C0007309BB2002B01D10023CAE0009BB3F876
:104AAC0007309BB2092B28BF09239BB2069309231D
:104ABC000D9300238DF83330FDF7F2FD0B9037E0AA
:104ACC000B9B5B68002B04D15C4940F2D12000F0B9
:104ADC001AFE0B9B5B685B68002B04D1574940F2B4
:104AEC00D22000F010FE00230A930023029302E070
:104AFC000A9B01330A930B9B5B685C6802A8012339
:104B0C0000220B99A0470346002BF1D10D9A0A9B6A
:104B1C0013440D930B98FFF7C4FC03461A469DF8FB
:104B2C00333013448DF833300B98FFF7C9FC0B90DE
:104B3C000B9B002BC4D104AB184600F085FB0590F1
:104B4C00049B069A9A4204D93C4940F2E72000F0B3
:104B5C00DAFD069A3A49059805F00AFA059B9DF884
:104B6C0033201A710D9B9AB2059B5A80FDF760FD9C
:104B7C000346002B06D0059BDB7943F02003DAB209
:104B8C00059BDA71FDF78CFD03462E4A13602D4A06
:104B9C00059B53602B4A069B9360009BB3F8073030
:104BAC009BB21A46274BDA60002000F049FD2649DB
:104BBC008020FDF767FE0990099B002B04D1234947
:104BCC00802000F023FB0990002000F04DFD099B94
:104BDC002FE0009BB3F807309BB2002B01D10023D0
:104BEC0027E0009BDB788DF82330009B5A799B796A
:104BFC001B021343ADF82030BDF820209DF8233064
:104C0C001146184600F092FB0790079B002B01D130
:104C1C0006230EE0009B5C1C0798FFF767FC03461D
:104C2C001A460799204600F0A3FA034601E000BF9C
:104C3C00062318460EB010BDA8A5000038A500002C
:104C4C00BCA5000034040020F4A50000ECA5000075
:104C5C0000B587B00190009103AB184600F0F4FA50
:104C6C000590FFF773FC03468DF813309DF8133055
:104C7C00052B03D1059B01221A7009E09DF8133016
:104C8C00042B03D1059B00221A7001E0062307E0D8
:104C9C00009B013301220599184600F069FA03467E
:104CAC00184607B05DF804FB00B585B00190009183
:104CBC00FFF74CFC03468DF80F309DF80F30052B99
:104CCC0005D09DF80F30042B01D0082316E0009B73
:104CDC00DB78002B05D1FDF79DFE0420FFF70EFCC1
:104CEC000BE0009BDB78012B05D1FDF759FE05206D
:104CFC00FFF704FC01E0072300E00023184605B091
:104D0C005DF804FB00B583B001900091019B002B72
:104D1C0004D150494FF45A7000F0F5FC009B002B65
:104D2C0004D14C4940F2693000F0EDFC009B5B78FB
:104D3C001846FFF79EFB0346002B01D0062385E0A7
:104D4C00009B5B781846FFF7A1FB0346012B1FD194
:104D5C00009B9B78082B12D0082B16DC002B02D062
:104D6C00062B06D011E000990198FFF72BFE0346A5
:104D7C006CE000990198FFF767FE034666E0009926
:104D8C000198FFF765FF034660E000BF06235DE076
:104D9C00009B9B78013B082B52D801A252F823F0C0
:104DAC000F4E00004D4E0000DD4D00004D4E00003A
:104DBC00D14D00004D4E00004D4E00004D4E0000F8
:104DCC00414E000023494FF4637000F09CFC3CE022
:104DDC00009BB3F803309BB2012B33D1FDF728FCB9
:104DEC00034683F00103DBB2002B01D00F232DE02F
:104DFC00194B1B7843F00203DAB2174B1A700023DD
:104E0C0024E0009BB3F803309BB2012B1CD1FDF7BF
:104E1C000FFC034683F00103DBB2002B01D00F2300
:104E2C0014E00D4B1B7823F00203DAB20A4B1A7014
:104E3C0000230BE000990198FFF736FF034605E0CD
:104E4C0000BF02E000BF00E000BF0623184603B01D
:104E5C005DF804FB38A50000D903002000B58BB029
:104E6C0001900623099305238DF8103004AB013310
:104E7C00184605F005F8FFF7A3FBFFF77BFB9DF841
:104E8C0011301846FFF7E9FA0346032B63D801A249
:104E9C0052F823F0B14E0000CF4E00001D4F000021
:104EAC00574F000004AB19460198FFF72BFF0990F0
:104EBC00099B062B51D104AB1846FDF79EFC0990BB
:104ECC004BE09DF815308DF822300DF10F029DF856
:104EDC00223011461846FDF7F5FB0790079B002B77
:104EEC0002D1102309933AE09DF80F3004AA194619
:104EFC000798FDF72BFC0990099B062B2FD19DF8E9
:104F0C000F3004AA19460798FFF7DBFC099026E03E
:104F1C00062309939DF815308DF823309DF8233026
:104F2C0003F00F03002B07D004AA9DF82330114681
:104F3C001846FDF71BFC0990099B062B11D104ABFD
:104F4C001846FFF729FC09900BE004AB1846FDF757
:104F5C0054FC099006E000BF04E000BF02E000BF73
:104F6C0000E000BF099B002B0FD1FFF729FB034684
:104F7C00002B07D004F0C0FF0346002B07D104F030
:104F8C00A9FF04E004F0ACFF01E004F0AFFF099BC3
:104F9C0018460BB05DF804FB00B585B0019000918C
:104FAC0006230393009B1B780E2B25DC002B40F370
:104FBC00BD80013B0D2B00F2B98001A252F823F009
:104FCC000B50000013500000195000003951000024
:104FDC005F500000E15000003951000039510000D1
:104FEC003951000039510000695000008350000015
:104FFC00A3500000C1500000852B1DD096E003206B
:10500C00FFF77CFA99E00023039396E04D4800F0FB
:10501C002FFD0346002B02D05C20FFF707FAFFF7A9
:10502C0095FA0346002B04D1474940F2424000F068
:10503C006AFB0023039380E0FFF788FA03468DF8A0
:10504C000B309DF80B30032B72D10420FFF756FA6E
:10505C006EE00198FFF702FF03906EE0FFF776FA1F
:10506C000346002B04D0384940F2564000F04BFB6D
:10507C000023039361E0FFF769FA0346012B04D088
:10508C00314940F25C4000F03EFB0020FFF736FA5D
:10509C000023039351E0FFF75FFA0346002B03D084
:1050AC000220FFF72BFA02E00120FFF727FA00237A
:1050BC00039342E0FFF74AFA0346012B04D8224936
:1050CC004FF48E6000F01FFB0120FFF717FA00234E
:1050DC00039332E0009BDB78032B2BD0009B9B7857
:1050EC00002B08D0009B9B78802B04D0164940F2F3
:1050FC007E4000F008FB009BDB781846FFF742FA75
:10510C000390039B002B0ED1FFF75AFA0346002B9A
:10511C0006D0009B9B78002B0ED104F0DBFE0BE03D
:10512C0004F0DEFE08E004F0E1FE05E000BF04E060
:10513C0000BF02E000BF00E000BF039B184605B0B3
:10514C005DF804FBDC03002038A5000008B5002046
:10515C00FDF77AFA8020FDF777FA00BF08BD08B595
:10516C000020FDF78FFA8020FDF78CFA00BF08BDF8
:10517C0000B58DB0039002910192039BDB889BB22A
:10518C000A93019A0A9B934228BF13460993019AEA
:10519C000A9B9A420ED2802004F034FC03461A4635
:1051AC00019BB3FBF2F101FB02F29B1A002B01D124
:1051BC00012300E000238DF823309DF8233003F009
:1051CC0001038DF82330029B0593099B06939DF8F0
:1051DC0023300793002000F033FA05AB19468020EA
:1051EC00FDF72AFB0B900B9B002B04D1064980206A
:1051FC0000F00CF80B90002000F036FA0B9B1846D0
:10520C000DB05DF804FB00BFECA5000000B583B049
:10521C00034600918DF8073004F06EFE03461A46E3
:10522C009DF80730934201D0102306E0054B009AFD
:10523C0092E8030083E803000023184603B05DF8EE
:10524C0004FB00BF2004002082B00190019B002BC6
:10525C0002D0019B40221A60014B184602B07047E5
:10526C00E003002000B587B003460A468DF80730EE
:10527C001346ADF804309DF80720BDF804302949D9
:10528C00134451F823301B78002B09D19DF80720CB
:10529C00BDF804302349134451F8233002333DE068
:1052AC000020FFF7D1FF039000238DF817309DF8F5
:1052BC000720BDF804301B49134451F823300493E4
:1052CC0018E09DF817301E2B03D91749FC2000F06D
:1052DC001AFA9DF8173001338DF81730049B1978A2
:1052EC009DF817305B00039A13448AB21A80049B12
:1052FC0001330493049B1B78002BE2D19DF81730EB
:10530C0001339BB25B009BB21BB2DBB21BB243F40A
:10531C0040731BB29AB2039B1A80039B184607B0CA
:10532C005DF804FB6C00002060A6000000B585B0A1
:10533C0003460A468DF807301346ADF804309DF845
:10534C000730002B05D100210020FFF78BFF03460F
:10535C0040E000238DF80D3000238DF80F30002332
:10536C008DF80E3016E09DF80E301C4A12F81330F2
:10537C009DF807209A4208D19DF80E30174A5B0021
:10538C0013445B788DF80F3008E09DF80E30013334
:10539C008DF80E309DF80E30052BE4D99DF80F30AA
:1053AC00002B01D1002315E09DF80F209DF80D3046
:1053BC000B49134451F82330002B01D1002309E091
:1053CC009DF80D309AB29DF80F3011461846FFF734
:1053DC0049FF0346184605B05DF804FB00A6000023
:1053EC006C00002086B003900291019201238DF88D
:1053FC0017309DF81730204A039B13601E4A029BFE
:10540C0053601D4A019B9360039B44F2010293423B
:10541C0012D0039B44F20202934220D1019B164A04
:10542C00D360154BDB681B68134A9361124BDB6826
:10543C005B68114AD36112E0019B0F4A13610E4B5A
:10544C001B699B680C4A53610B4B1B691B680A4A0E
:10545C009361094B1B695B68074AD36100BF72B645
:10546C0000BF00BF9DF81730DBB2002BFAD162B63B
:10547C0000BF00BF06B070475C04002084B00390EE
:10548C000291019200BF04B07047000030B58BB0A0
:10549C0007900691059272B600BF01F039F900BF72
:1054AC0000F034FF0346002BFAD1079B44F20102B3
:1054BC0093421AD0079B44F2020293424AD1059BB5
:1054CC000993374B5B88002B55D0364A364BD31A91
:1054DC00DB081B0443F00100099B5B681A46099B1F
:1054EC001B68324900F0D5FE45E0059B08932C4B18
:1054FC005B88002B1ED02B4A2B4BD31ADB081B04CA
:10550C0043F00104089B9D68089B9B68184601F0BA
:10551C0087FA03461846089B5B681946089B1B686C
:10552C00069A02920193009103462A46204920468E
:10553C0000F0C3FE1A4B5B88002B1ED0194A1A4B85
:10554C00D31ADB081B0443F001031A49184600F078
:10555C0081FE12E0124B5B88002B10D0114A124BCB
:10556C00D31ADB081B0443F00103069A12491846B0
:10557C0000F07EFE03E000BF02E000BF00E000BFD1
:10558C000E4B1B6803F00103002B00D000BE059AE4
:10559C0006990798FFF726FF00BF0BB030BD00BF80
:1055AC00080000206CA000005CA00000D4A6000045
:1055BC00F0A6000018A700002CA70000F0ED00E0FA
:1055CC0082B003468DF807309DF90730002B09DBBC
:1055DC000B4A9DF90730134493F80033DBB25B0997
:1055EC00DBB20AE0074A9DF8073003F00F03043BD7
:1055FC0013441B7EDBB25B09DBB2184602B070476A
:10560C0000E100E000ED00E072B600BF034B1B6848
:10561C000133024A136000BF704700BF7C040020B6
:10562C00064B1B68013B054A1360044B1B68002B9F
:10563C0001D162B600BF00BF704700BF7C040020E0
:10564C0000B583B0019000F025F80346012B03D080
:10565C000449432000F057F8FFF7D6FF00BF03B012
:10566C005DF804FB44A7000000B583B003468DF839
:10567C00073000F00FF80346012B03D004495120EA
:10568C0000F041F8FFF7CCFF00BF03B05DF804FB5E
:10569C0044A7000084B0EFF305830193019BC3F38F
:1056AC0008030393039B002B0DD1EFF3148300939A
:1056BC00009B0293029B03F00103002B0CBF012300
:1056CC000023DBB200E00123184604B0704700B59C
:1056DC0085B0EFF305830193019BC3F30803039398
:1056EC00039B002B0AD0039B103B0293029B5BB2E3
:1056FC001846FFF765FF0346DBB200E00F231846A0
:10570C0005B05DF804FB00B585B003460091ADF81B
:10571C000630BDF806300293009B039302AB1A4689
:10572C00002144F20200FFF7B1FE00BF05B05DF8A6
:10573C0004FB86B001900091019B53E8011F8AB2D3
:10574C00D88902449889824228BF121A1889824249
:10575C0002BFBFF32F8F002307E0C2EA010243E828
:10576C0001200028E9D14FF001038DF80F3005908E
:10577C0002910492029A009B1A609DF80F30DBB2E2
:10578C00184606B0704784B00190019951E8013F6A
:10579C00C3EA034341E80132002AF7D10392029392
:1057AC0000BF04B0704786B001900091019B53E894
:1057BC00021F1FFAA1F2D888824202BFBFF32F8FBB
:1057CC0000230DE0D88902449889824228BF121A1E
:1057DC00C1EA024243E802200028E8D14FF001035D
:1057EC008DF80F30059002910492029A009B1A607A
:1057FC009DF80F30DBB2184606B0704784B00190AC
:10580C00019951E8023FC3EA234341E80232002ADE
:10581C00F7D10392029300BF04B0704784B0039099
:10582C00029111461A460B46ADF806301346ADF8F8
:10583C000430029B002B01D10E231FE0BDF8063073
:10584C00BDF80420B3FBF2F101FB02F29B1A9BB2F0
:10585C00002B01D0092311E0039B029A1A60039BD1
:10586C0000225A60039B00229A60039BBDF806201D
:10587C009A81039BBDF80420DA810023184604B0FA
:10588C00704700B585B001900091009B19460198B6
:10589C00FFF74FFF0346002B07D0019B1B68009AB4
:1058AC00128813440393039B00E00023184605B0B1
:1058BC005DF804FB00B583B001900091009B1A8841
:1058CC00009B5B889A4204D10198FFF75CFF01238F
:1058DC0000E00023184603B05DF804FB00B585B06A
:1058EC0001900091009B19460198FFF75CFF03465D
:1058FC00002B07D0019B1B68009A5288134403931A
:10590C00039B00E00023184605B05DF804FB00B5CE
:10591C0083B001900091009B1A88009B5B889A428F
:10592C0004D10198FFF76AFF012300E00023184619
:10593C0003B05DF804FB10B487B001900091019B9B
:10594C00009A53E8004F104643E8000191F0000F15
:10595C00F7D1059404900391059B184607B05DF8A8
:10596C00044B704710B487B001900091019B009AD2
:10597C0053E8004F44EA020043E8000191F0000FA5
:10598C00F6D1059404900391049B184607B05DF87A
:10599C00044B704710B487B001900091019B009AA2
:1059AC0053E8004F04EA020043E8000191F0000FB5
:1059BC00F6D1059404900391059B184607B05DF849
:1059CC00044B704710B487B001900091019B009A72
:1059DC0053E8004F04EB020043E8000191F0000F84
:1059EC00F6D1059404900391049B184607B05DF81A
:1059FC00044B704710B487B001900091019B009A42
:105A0C0053E8004FA4EB020043E8000191F0000FB3
:105A1C00F6D1059404900391049B184607B05DF8E9
:105A2C00044B704710B487B001900091019B009A11
:105A3C0053E8004F94422CBFA01A204643E80001C3
:105A4C0091F0000FF4D1059404900391049B184637
:105A5C0007B05DF8044B704700B583B0019001218D
:105A6C000198FFF77FFF0346184603B05DF804FB6F
:105A7C0000B583B0019000210198FFF78BFF03461E
:105A8C00184603B05DF804FB00B583B001900B46DB
:105A9C008DF80330019B002B03D10849E820FFF758
:105AAC0032FE019BDA689DF803300199098B01FBEA
:105ABC0003F31344184603B05DF804FB04A900007B
:105ACC0000B583B001900091019B002B03D10849D4
