:1000000000000420190200000102000003020000A9
:1000100005020000070200000902000000000000C5
:100020000000000000000000000000000B020000C3
:100030000D020000000000000F020000110200008D
:10004000E9600000890A0000C952000013020000A4
:10005000130200001302000013020000130200004C
:100060001302000013020000130200004D0B0000F9
:10007000130200001302000013020000130200002C
:10008000130200001302000013020000130200001C
:10009000850B000013020000130200001302000091
:1000A00013020000130200001302000013020000FC
:1000B0001302000013020000000000000000000016
:1000C00013020000130200001302000013020000DC
:1000D000130200001302000013020000C983000095
:1000E00013020000130200001302000000000000D1
:1000F00000000000130200000000000013020000D6
:1001000000000000000000000000000000000000EF
:1001100000000000000000000000000000000000DF
:1001200000000000000000000000000000000000CF
:1001300000000000000000000000000000000000BF
:1001400000000000000000000000000000000000AF
:10015000000000000000000000000000000000009F
:10016000000000000000000000000000000000008F
:10017000000000000000000000000000000000007F
:10018000000000000000000000000000000000006F
:10019000000000000000000000000000000000005F
:1001A000000000000000000000000000000000004F
:1001B000000000000000000000000000000000003F
:1001C000000000000000000000000000000000002F
:1001D000000000000000000000000000000000001F
:1001E000000000000000000000000000000000000F
:1001F00000000000000000000000000000000000FF
:10020000FEE7FEE7FEE7FEE7FEE7FEE7FEE7FEE7C6
:10021000FEE7FEE700F002B8FFF7FCBF0A484FF028
:100220000701884385460948804709480949016014
:100230000948016841F470010160BFF34F8FBFF3BB
:100240006F8F00F00BB8000000000420110F0000B9
:1002500008ED00E00000000088ED00E0334934487C
:100260000A1A02D0072291438D46324932480A1AAF
:1002700006D00722914381F30988022282F3148871
:100280002E482F492F4A00F03FF82F482F49304A77
:1002900000F03AF82F483049304A00F035F830483D
:1002A0003049314A00F030F830483149314A00F0E5
:1002B0002BF831483149324A00F026F831483249AA
:1002C000324A00F021F832483249002200F027F883
:1002D00031483249002200F022F831483149091AE8
:1002E00008F094FE1F482049884205D00268043077
:1002F00003B4904703BCF7E700208646EC46002095
:100300000021294A9047FEE7884207D0521A05D0BB
:10031000037801300B700131013AF9D170478842FE
:1003200002D002700130FAE770470000000004209C
:1003300000E00320000004200000042034990000A5
:100340000000002029000020AC030000AC030000E6
:1003500020900000349900000000002000000020E0
:1003600020900000209000002090000020900000CD
:1003700020900000209000002090000020900000BD
:1003800034990000609900002C0000202C0000200F
:100390002C000020A4060020A4060020A4060020B3
:0C03A000A4060020A4260020F1050000A7
:1003AC0082B00190019B184602B0704700B583B033
:1003BC0001900B468DF803309DF80330032B26D8A3
:1003CC0001A252F823F000BF050400001B0400003A
:1003DC00E5030000F70300000F4B01221A704022C6
:1003EC000E490F4803F0A4FE12E00B4B00221A70CA
:1003FC000C4B00221A700BE0094803F08BFE0346ED
:10040C009AB2094B1A80074B01221A7000E000BF08
:10041C0000BF03B05DF804FB6C0000202C00002032
:10042C00209000006D0000206E00002000B583B00D
:10043C0003468DF807309DF807300A2B0CD00A2B99
:10044C000DDC082B02D0092B03D008E001F000FCD6
:10045C0006E001F003FC03E001F014FC00E000BF37
:10046C0000BF03B05DF804FB00B585B001900B46EE
:10047C00ADF802300F4B1B7883F00103DBB2002B7D
:10048C0003D1BDF80230402B01D900230DE0BDF89B
:10049C0002301A460199084803F0F0FD0390039BC3
:1004AC00002B0CBF01230023DBB2184605B05DF80E
:1004BC0004FB00BF6C0000202090000000B583B04E
:1004CC0001900091134B1B7883F00103DBB2002BDE
:1004DC0006D1114B1B7883F00103DBB2002B01D04A
:1004EC00002313E00D4B1B881A460D49019808F0A8
:1004FC0021FD0A4B1A88009B1A80074B00221A70A8
:10050C0040220749074803F013FE0123184603B0A5
:10051C005DF804FB6C0000206D0000206E000020D4
:10052C002C0000202090000000B583B0074801F09B
:10053C00B7FA0748FFF734FF0190019801F0DCFE91
:10054C0001F05CFB00BF03B05DF804FB50900000B1
:10055C002090000082B04FF6FF73ADF8063006E035
:10056C00BDF806309BB2013B9BB2ADF80630BDF82E
:10057C0006309BB2002BF3D100BF00BF02B0704716
:10058C0000B595B000F034F8FFF7CEFF134A11AB6D
:10059C0007CA83E8070000BF01F034FE0346002BB6
:1005AC00FAD10F4B1B78002B06D011AB0B21184640
:1005BC00FFF75AFFFFF7CEFF0DF1020201AB114618
:1005CC001846FFF77BFF0346002BE4D0BDF8022052
:1005DC0001AB11461846FFF747FFDCE744900000DB
:1005EC006C00002008B5FFF7CBFF0346184608BD8A
:1005FC0008B54FF080430022C3F800214FF0804330
:10060C0001221A6000BF4FF08043D3F80031002B59
:10061C00F9D000F0A1F800F024F804F007FE00F087
:10062C0037FA00F061F900F053F800F002F800BF5F
:10063C0008BD82B04FF08043D3F840360193019B44
:10064C00002B0BD104E04FF080430122C3F8782536
:10065C004FF08043D3F87835002BF4D000BF02B0B4
:10066C0070474FF0A0434FF08062C3F818254FF04D
:10067C00A0434FF00062C3F818254FF0A0434FF091
:10068C008052C3F818254FF0A0434FF00052C3F826
:10069C0018254FF0A0434FF08042C3F818254FF0B7
:1006AC00A0434FF00042C3F8182500BF70474FF02D
:1006BC00A0434FF08042C3F8082500BF70474FF0AD
:1006CC00A0434FF08042C3F80C2500BF70470000D8
:1006DC0008B5202000F022F8182000F01FF80E4B6F
:1006EC000022C3F800250C4B2022C3F808250A4B26
:1006FC001822C3F80C25084B4FF0C862C3F8242508
:10070C00054B4FF49052C3F80022034B0622C3F85A
:10071C00002500BF08BD00BF0030004084B0019030
:10072C00019B1F2B05D84FF0A0430393019B029311
:10073C0005E0084B0393019B03F01F030293039BFB
:10074C00029A02F5E07240F20C6143F8221000BFED
:10075C0004B070470003005008B54FF0A0434FF4AD
:10076C000052C3F818254FF0A0434FF48042C3F851
:10077C0018254FF0A0434FF40042C3F818254FF052
:10078C00A0434FF48032C3F8182500F022F800BFC4
:10079C0008BD4FF0A0434FF40052C3F8082500BF2A
:1007AC0070474FF0A0434FF48042C3F8082500BFB8
:1007BC0070474FF0A0434FF40042C3F8082500BF28
:1007CC0070474FF0A0434FF48032C3F8082500BFA8
:1007DC00704708B5FFF7EDFFFFF7E3FFFFF7F1FFF9
:1007EC00FFF7D7FF00BF08BD82B003468DF8073076
:1007FC009DF90730002B0CDB9DF8073003F01F022E
:10080C0005499DF907305B09012000FA02F241F815
:10081C00232000BF02B0704700E100E082B0034625
:10082C008DF807309DF90730002B13DB9DF807304E
:10083C0003F01F0209499DF907305B09012000FAFA
:10084C0002F2203341F82320BFF34F8F00BFBFF3D8
:10085C006F8F00BF00BF02B0704700BF00E100E027
:10086C0082B003468DF807309DF90730002B0DDB65
:10087C009DF8073003F01F0206499DF907305B090C
:10088C00012000FA02F2603341F8232000BF02B0CD
:10089C00704700BF00E100E082B0034600918DF884
:1008AC0007309DF90730002B0ADB009BDAB20C49AC
:1008BC009DF907305201D2B20B4483F800230BE0B0
:1008CC00009BDAB207499DF8073003F00F03043B95
:1008DC005201D2B20B441A7600BF02B0704700BF6F
:1008EC0000E100E000ED00E008B5444B0F22C3F836
:1008FC001025424BD3F81435404A23F00F03C2F8AD
:10090C0014353E4BD3F814353C4A43F00803C2F877
:10091C0014353A4BD3F81435384A23F04073C2F8E7
:10092C001435364BD3F81435344A43F00073C2F8FF
:10093C001435324BD3F81835304A23F0FF03C2F884
:10094C0018352E4BD3F818352C4A43F07F03C2F8D8
:10095C0018352A4BA722C3F86026284BD3F8143538
:10096C00264A23F08063C2F81435244BD3F814358F
:10097C00224A43F08063C2F81435204BD3F8343547
:10098C001E4A23F00303C2F834351C4BD3F834351C
:10099C001A4A43F00203C2F83435184BD3F83435F5
:1009AC00164A23F44073C2F83435144BD3F834355B
:1009BC00124A43F40073C2F83435104B104AC3F892
:1009CC0038250E4B0022C3F83C250C4B0D4AC3F8BE
:1009DC0004250120FFF722FF084B44F20802C3F85C
:1009EC00042300210120FFF757FF0120FFF738FFF8
:1009FC000120FFF7F9FE00BF08BD00BF001000404A
:100A0C00211001000801002000B583B0184BD3F869
:100A1C0004350193174BD3F83831002B10D0154BFC
:100A2C0001225A61144B1B68002B03D0124B1B681C
:100A3C00019898470F4B0022C3F83821012313E08B
:100A4C000C4BD3F80C31002B0DD00B4B5B68002BEF
:100A5C0003D0094B5B6801989847064B0022C3F8FA
:100A6C000C21012300E00023184603B05DF804FBC1
:100A7C0000B0004000100040F800002008B5FFF75F
:100A8C0016FEFFF7C1FFFFF71AFE00BF08BD0000FE
:100A9C0008B508220021264808F082FA254B0022CE
:100AAC0083F80B23234B4FF400621A604FF0804302
:100ABC000122DA6000BF4FF08043D3F8183403F4FE
:100ACC008033012BF7D01C4B0022C3F808254FF0C4
:100ADC0080430122C3F818254FF0804301229A600D
:100AEC0000BF4FF08043D3F8183403F48033002B4D
:100AFC00F7D0114B0022C3F840210F4B4FF480323A
:100B0C00C3F804230C4B01221A600A4B002283F811
:100B1C001423084B4FF480121A60084B0022C3F8C0
:100B2C000021064B0122C3F8042300BF08BD00BFFF
:100B3C009001002000E100E000B0004000400140C6
:100B4C0008B5FFF7B4FD0A4BD3F84031002B0AD09F
:100B5C00074B0022C3F84021064B1B68002B02D028
:100B6C00044B1B689847FFF7AAFD00BF08BD00BFE8
:100B7C0000B000409001002008B5FFF798FD0A4B2B
:100B8C00D3F80031002B0AD0074B0022C3F8002108
:100B9C00064B1B68002B02D0044B1B689847FFF7D1
:100BAC008EFD00BF08BD00BF004001409001002039
:100BBC0082B0164B1B680193154B1B680093019B6D
:100BCC00082B1FD1009B052B1AD801A252F823F039
:100BDC00F50B0000F90B0000FD0B0000010C0000F0
:100BEC00050C0000090C000001230CE001230AE0B5
:100BFC00012308E0012306E0012304E0012302E0C5
:100C0C00012300E00023184602B0704730010010A9
:100C1C003401001082B0164B1B680193154B1B68F6
:100C2C000093019B082B1FD1009B052B1AD801A206
:100C3C0052F823F0590C00005D0C0000610C000010
:100C4C00650C0000690C00006D0C000001230CE029
:100C5C0001230AE0012308E0012306E0012304E05C
:100C6C00012302E0012300E00023184602B0704784
:100C7C00300100103401001082B0164B1B68019338
:100C8C00154B1B680093019B082B1FD1009B052B58
:100C9C001AD801A252F823F0BD0C0000C10C0000C0
:100CAC00C50C0000C90C0000CD0C0000D10C0000DC
:100CBC0001230CE000230AE0002308E0002306E0F7
:100CCC00002304E0002302E0002300E00023184688
:100CDC0002B07047300100103401001082B0164B86
:100CEC001B680193154B1B680093019B082B1FD1AC
:100CFC00009B052B1AD801A252F823F0210D0000FD
:100D0C00250D0000290D00002D0D0000310D0000F7
:100D1C00350D000001230CE000230AE0002308E05D
:100D2C00002306E0002304E0002302E0002300E09F
:100D3C000023184602B07047300100103401001037
:100D4C0082B0164B1B680193154B1B680093019BDB
:100D5C00082B1FD1009B052B1AD801A252F823F0A7
:100D6C00850D0000890D00008D0D0000910D000017
:100D7C00950D0000990D000001230CE000230AE002
:100D8C00002308E0002306E0002304E0002302E037
:100D9C00002300E00023184602B070473001001019
:100DAC003401001082B0164B1B680193154B1B6865
:100DBC000093019B082B1FD1009B052B1AD801A275
:100DCC0052F823F0E90D0000ED0D0000F10D0000CC
:100DDC00F50D0000F90D0000FD0D000001230CE0E5
:100DEC0000230AE0002308E0002306E0002304E0CF
:100DFC00002302E0002300E00023184602B07047F5
:100E0C00300100103401001082B0164B1B680193A6
:100E1C00154B1B680093019B082B1FD1009B052BC6
:100E2C001AD801A252F823F04D0E0000510E00000A
:100E3C00550E0000590E00005D0E0000610E000002
:100E4C0001230CE001230AE0012308E0012306E062
:100E5C00012304E0012302E0012300E000231846F3
:100E6C0002B07047300100103401001082B0164BF4
:100E7C001B680193154B1B680093019B082B1FD11A
:100E8C00009B052B1AD801A252F823F0B10E0000DA
:100E9C00B50E0000B90E0000BD0E0000C10E000022
:100EAC00C50E000000230CE000230AE0002308E03C
:100EBC00002306E0012304E0012302E0012300E00B
:100ECC000023184602B070473001001034010010A6
:100EDC0008B5FFF7CBFF0346002B07D04FF01023CC
:100EEC004FF08042D3F80832C2F8583500BF08BD25
:100EFC00024B034A1A6000BF704700BF0400002079
:100F0C000090D00308B5FFF753FE0346002B0ED01C
:100F1C004FF080430022C3F80C214FF08043002295
:100F2C00C3F810214FF080430022C3F83825FFF797
:100F3C0071FE0346002B76D04FF08053624AD3F8F3
:100F4C000434C2F820354FF080535F4AD3F808348C
:100F5C00C2F824354FF080535B4AD3F80C34C2F8F6
:100F6C0028354FF08053584AD3F81034C2F82C353A
:100F7C004FF08053544AD3F81434C2F830354FF044
:100F8C008053514AD3F81834C2F834354FF080539B
:100F9C004D4AD3F81C34C2F840354FF080534A4ABE
:100FAC00D3F82034C2F844354FF08053464AD3F876
:100FBC002434C2F848354FF08053434AD3F82834D0
:100FCC00C2F84C354FF080533F4AD3F82C34C2F85A
:100FDC0050354FF080533C4AD3F83034C2F8543576
:100FEC004FF08053384AD3F83434C2F860354FF0A0
:100FFC008053354AD3F83834C2F864354FF08053F7
:10100C00314AD3F83C34C2F868354FF080532E4A3D
:10101C00D3F84034C2F86C354FF080532A4AD3F8D9
:10102C004434C2F87035FFF727FE0346002B02D07C
:10103C00264B274A1A60FFF751FE0346002B03D0BC
:10104C00244BFB22C3F81825FFF77AFE0346002B2E
:10105C000AD0214B1B6823F00F02204B1B6803F0B6
:10106C000F031D4913430B60FFF79CFE0346002B37
:10107C0003D01B4B4FF400721A60FFF7C5FE0346FA
:10108C00002B0DD04FF08043D3F8003403F0010354
:10109C00002B05D04FF080436FF00102C3F8002401
:1010AC00104BD3F888300F4A43F47003C2F88830E1
:1010BC00BFF34F8F00BFBFF36F8F00BFFFF708FF69
:1010CC00FFF716FF00BF08BD00C000408C56004063
:1010DC004881030000F00040E40E0040580200106C
:1010EC004096024000ED00E0024BD3F88034DBB2B6
:1010FC001846704700700240024BD3F88434DBB2C0
:10110C00184670470070024008B507F05DFA0023DE
:10111C00184608BD00B585B003468DF807300B4660
:10112C008DF8063013468DF805309DF8073003F026
:10113C001F029DF806305B0103F060031A439DF813
:10114C000530DB01DBB213430393039BFF2B04D964
:10115C0005494FF4AC7004F024FA039BDBB218463B
:10116C0005B05DF804FB00BF5C90000082B00190FC
:10117C00019B1B7A184602B07047000000B585B081
:10118C0001900B468DF80330019B002B04D10F49C5
:10119C004FF4887004F005FA0198FFF7E7FF034657
:1011AC001A469DF80330934201D3002309E0019BBA
:1011BC00093303939DF8032013465B001344039AF1
:1011CC001344184605B05DF804FB00BFD090000036
:1011DC0082B00190019B1B78184602B0704782B018
:1011EC000190019B5B78184602B0704700B585B042
:1011FC0001900B468DF80330019B002B04D10D4957
:10120C0040F2431004F0CDF9019B5B789DF803206C
:10121C009A4201D3002309E0019B9B781A46019B5B
:10122C00134403939DF80330039A1344184605B0F6
:10123C005DF804FBD090000082B00190019B1B78FC
:10124C00184602B0704782B00190019B1B6818468B
:10125C0002B0704700B583B00190019B002B04D104
:10126C00064940F2432004F09CF90198FFF7EBFF8C
:10127C0003461B68184603B05DF804FB449100005C
:10128C0000B583B00190019B002B04D1064940F2BC
:10129C005F2004F086F90198FFF7D5FF03465B68E1
:1012AC00184603B05DF804FB4491000000B583B010
:1012BC000190019B002B04D1064940F27B2004F0E5
:1012CC0070F90198FFF7BFFF03465B68184603B03F
:1012DC005DF804FB44910000014B1846704700BFB9
:1012EC00C89400004FF08043D3F838341846704748
:1012FC0008B5FFF7F7FF034603F00103002B14BFFB
:10130C0001230023DBB2184608BD08B5FFF7EAFF3E
:10131C00034603F00203002B14BF01230023DBB2AE
:10132C00184608BD00B583B001900091019B002BBD
:10133C0004D1114940F20F1004F033F9019B5B68A2
:10134C00002B04D10C494FF4887004F02AF9019B4E
:10135C005B681B68002B04D1074940F2111004F0A4
:10136C0020F9019B5B681B6800990198984703461C
:10137C00184603B05DF804FBB091000000B583B0D3
:10138C0001900091019B002B04D1114940F21910DE
:10139C0004F007F9019B1B68002B04D10C494FF496
:1013AC008D7004F0FEF8019B1B689B68002B04D128
:1013BC00074940F21B1004F0F4F8019B1B689B6872
:1013CC00009A52881046984700BF03B05DF804FBA2
:1013DC00B091000000B583B001900B468DF803303E
:1013EC00074B1B68002B06D0054B1B689DF8032090
:1013FC0011460198984700BF03B05DF804FB00BF8D
:10140C005803002000B583B003468DF80730074B16
:10141C005B68002B05D0054B5B689DF807201046D8
:10142C00984700BF03B05DF804FB00BF58030020D1
:10143C0010B58EB0039001930B468DF80B3013460C
:10144C008DF80A300023099300230D9302E00D9BC5
:10145C0001330D93039B5B685C6809A80123002290
:10146C000399A0470346002BF1D100238DF82330BC
:10147C0000230C9300238DF82F30002306934FE0AC
:10148C00039B5B685C680DF1230206A8012303999A
:10149C00A047039B5B685C680DF1170206A801234B
:1014AC000399A0479DF817309DF80B209A4227D13D
:1014BC009DF82F209DF80A309A421CD19DF82330BC
:1014CC001A46109B1A60019B5A1C01929DF823200E
:1014DC001A70019B5A1C01929DF80B201A70039BE9
:1014EC005B685C689DF82330023B06A8019A03995F
:1014FC00A047002319E09DF82F3001338DF82F30D1
:10150C00039B5B685C689DF82330023B06A80022B5
:10151C000399A0479DF823301A460C9B13440C9357
:10152C000C9A0D9B9A42ABD3052318460EB010BDF6
:10153C0000B585B003468DF807309DF90730002BB8
:10154C0014DA9DF8073003F00F038DF80E309DF878
:10155C000E30082B04D911494FF4CC7004F021F84B
:10156C009DF80E30DB000E4A134413E09DF8073053
:10157C0003F00F038DF80F309DF80F30082B04D9B2
:10158C0006494FF4CF7004F00CF89DF80F30DB00D7
:10159C00044A1344184605B05DF804FBB0910000F2
:1015AC00B80200200003002000B583B003468DF87C
:1015BC0007309DF807301846FFF7BAFF03461B6843
:1015CC00184603B05DF804FB00B585B003460091E6
:1015DC008DF807309DF807301846FFF7A9FF0390E8
:1015EC00039B009A1A60009B002B10D19DF80730CA
:1015FC00002B03D09DF80730802B04D108494FF401
:10160C00E17003F0CEFF039B00225A6004E0009BC4
:10161C005B681A68039B5A6000BF05B05DF804FB59
:10162C00B091000000B583B00190064B5B68054A91
:10163C0012680199104698470346184603B05DF8A6
:10164C0004FB00BF0003002000B589B00190019B92
:10165C000793079B1B78052B1AD1FFF74DFD03460B
:10166C008DF81730FFF740FD03468DF81630002239
:10167C0000210020FFF74EFD03461A469DF8163058
:10168C00934205D19DF81730052B01D1334B0793AD
:10169C00079B1B78002B27D100F032FF069007E048
:1016AC0007990698FFF76AFE0698FFF7FFFD06906C
:1016BC00069B002BF4D1002003F010FF284B1B6875
:1016CC00002B03D1079B5A88264B1A8001212448F2
:1016DC0004F0AEF8002003F015FF01210798FFF786
:1016EC0079FE1F4B1B6835E01F4A02AB19461046AA
:1016FC0004F015F80490049B002B2BD0049A079B44
:10170C001B681360002003F0E9FE164B1A88144B7B
:10171C001B689BB2D31A9BB201339AB2049BDA803A
:10172C0000210F4804F055F803469AB2049B9A80A6
:10173C00002003F0E7FE0C4A02AB1946104604F0F9
:10174C0007F803468DF80F309DF80F3019460798AF
:10175C00FFF740FE09B05DF804FB00BF28920000C3
:10176C00B0020020B4020020A002002000B583B01B
:10177C0003468DF807309DF80730022B0ED0022B54
:10178C0010DC002B02D0012B04D00BE00A48FFF731
:10179C005BFF0DE00948FFF757FF09E00848FFF72A
:1017AC0053FF05E0074940F2622003F0FAFE00BF48
:1017BC0000BF03B05DF804FB1C92000020920000F7
:1017CC0024920000B091000000B583B00190019804
:1017DC00FFF73AFF00BF03B05DF804FB00B583B020
:1017EC0003468DF807309DF80730002B04D00649CE
:1017FC0040F27B2003F0D5FE0448FFF725FF00BF25
:10180C0003B05DF804FB00BFB09100002C92000007
:10181C0082B003468DF807309DF80730082B27D887
:10182C0001A252F823F000BF591800005D18000007
:10183C006118000065180000691800006D180000A0
:10184C00711800007518000079180000002310E0D2
:10185C0000230EE001230CE000230AE0002308E043
:10186C00012306E0012304E0012302E0012300E050
:10187C000023184602B0704782B003468DF807303B
:10188C009DF80730082B27D801A252F823F000BF8F
:10189C00C1180000C5180000C9180000CD180000C0
:1018AC00D1180000D5180000D9180000DD18000070
:1018BC00E1180000002310E000230EE001230CE0EF
:1018CC0000230AE0002308E0002306E0002304E0E4
:1018DC00002302E0012300E00023184602B0704709
:1018EC00014B1B78184670475403002010B582B08A
:1018FC0003468DF807309DF807301846FFF788FF30
:10190C0003461C461C4B1B781846FFF781FF034609
:10191C009C420DD09DF807301846FFF779FF03461F
:10192C00002B03D0154803F0F3FF01E004F040F85E
:10193C009DF807301846FFF79FFF03461C460E4BD9
:10194C001B781846FFF798FF03469C420CD09DF875
:10195C0007301846FFF790FF0346002B02D006F025
:10196C00CFFF01E006F0C2FF034A9DF80730137069
:10197C0000BF02B010BD00BF5403002008000020BF
:10198C0000B587B001900B468DF8033013468DF8E7
:10199C0002300198FFF7EAFB03461A469DF8033024
:1019AC00934204D91B4940F2F92003F0FAFD9DF84B
:1019BC000230002B01D0072328E09DF80330194694
:1019CC000198FFF7DBFB04900498FFF708FC034633
:1019DC008DF80F3000238DF8173010E09DF817307C
:1019EC0019460498FFF702FC0290029B1B781846DC
:1019FC0000F04EFD9DF8173001338DF817309DF82F
:101A0C0017209DF80F309A42E8D30023184607B0F0
:101A1C005DF804FBB091000000B587B001900B4657
:101A2C008DF803300198FFF7A1FB03461A469DF889
:101A3C000330934204D919494FF4467003F0B1FDB9
:101A4C009DF8033019460198FFF798FB0490049811
:101A5C00FFF7C5FB03468DF80F3000238DF81730C8
:101A6C0010E09DF8173019460498FFF7BFFB029061
:101A7C00029B1B78184600F029FD9DF817300133A6
:101A8C008DF817309DF817209DF80F309A42E8D347
:101A9C0000BF00BF07B05DF804FB00BFB0910000B1
:101AAC0000B589B0019003F011FF0346002B04D15F
:101ABC00484940F2313003F074FD474808234FF495
:101ACC008472464903F0F8FD0690069B002B01D06A
:101ADC0003237BE0424806F0F3FC0690069B002BA8
:101AEC0001D0069B72E03F4B00221A703E4B002245
:101AFC001A603E4B00221A60482200213C4807F035
:101B0C004FFA482200213B4807F04AFA019B002B70
:101B1C0009D1394B00221A60374B00225A60364BE0
:101B2C0000221A7204E0344B019A07CA83E80700BA
:101B3C00002003F067FF0690069B002B08D0069B45
:101B4C00852B05D0234A40F25F31069803F054FCF4
:101B5C00FFF7C2FB059000238DF81F3018E000231F
:101B6C008DF81E3007E00398FFF766FB03460599D6
:101B7C001846FFF729FD9DF81E305A1C8DF81E20C3
:101B8C0019460498FFF732FB0390039B002BEAD114
:101B9C009DF81F305A1C8DF81F2019460598FFF729
:101BAC00EDFA0490049B002BD9D10B238DF808304F
:101BBC0002AB19460598FFF7B5FB0690069B002B68
:101BCC0003D0FFF7A1FA069B00E00023184609B0EA
:101BDC005DF804FBB0910000A002002098010020E9
:101BEC00D517000054030020480300204C030020AC
:101BFC00B8020020000300205803002000B583B079
:101C0C0006F0DAFD034683F00103DBB2002B04D1AE
:101C1C0006F0DEFD0346002B01D008230FE00A4836
:101C2C0003F012FF0190019B0093009B002B05D049
:101C3C00064A40F2C231009803F0DEFB002318463E
:101C4C0003B05DF804FB00BF30920000B0910000BF
:101C5C0008B506F0D1FC00BF08BD000008B506F0C1
:101C6C00C3FD034683F00103DBB2002B04D104490E
:101C7C0040F2D13003F095FC06F026FD00BF08BD04
:101C8C00B091000008B506F0A3FD0346002B0DD162
:101C9C000D494FF4767003F084FC07E0FFF728FB46
:101CAC00034683F00103DBB2002B0BD1FFF72DFBB6
:101CBC00034683F00103DBB2002BEFD10348FFF79F
:101CCC00C3FC00E000BF08BDB091000034920000DE
:101CDC0000B587B00190DD4B1B68002B04D1DC49AB
:101CEC0040F2254003F05DFC03F03FFC0346052B5E
:101CFC0004D8D74940F22C4003F053FC019B1B78CD
:101D0C00852B00F26A8201A252F823F031200000E8
:101D1C008F2000001D210000B1200000E1200000F8
:101D2C004521000055210000E7210000BD210000E5
:101D3C00CB210000D9210000E7210000E7210000A1
:101D4C00E7210000E721000037210000E721000017
:101D5C00E7210000E7210000E7210000E721000057
:101D6C00E7210000E7210000E7210000E721000047
:101D7C00E7210000E7210000E7210000E721000037
:101D8C00E7210000E7210000E7210000E721000027
:101D9C00E7210000E7210000E7210000E721000017
:101DAC00E7210000E7210000E7210000E721000007
:101DBC00E7210000E7210000E7210000E7210000F7
:101DCC00E7210000E7210000E7210000E7210000E7
:101DDC00E7210000E7210000E7210000E7210000D7
:101DEC00E7210000E7210000E7210000E7210000C7
:101DFC00E7210000E7210000E7210000E7210000B7
:101E0C00E7210000E7210000E7210000E7210000A6
:101E1C00E7210000E7210000E7210000E721000096
:101E2C00E7210000E7210000E7210000E721000086
:101E3C00E7210000E7210000E7210000E721000076
:101E4C00E7210000E7210000E7210000E721000066
:101E5C00E7210000E7210000E7210000E721000056
:101E6C00E7210000E7210000E7210000E721000046
:101E7C00E7210000E7210000E7210000E721000036
:101E8C00E7210000E7210000E7210000E721000026
:101E9C00E7210000E7210000E7210000E721000016
:101EAC00E7210000E7210000E7210000E721000006
:101EBC00E7210000E7210000E7210000E7210000F6
:101ECC00E7210000E7210000E7210000E7210000E6
:101EDC00E7210000E7210000E7210000E7210000D6
:101EEC00E7210000E7210000E7210000E7210000C6
:101EFC00E7210000E7210000E7210000E7210000B6
:101F0C00E7210000E7210000E7210000AF1F0000DF
:101F1C00311F0000751F0000E31F000003200000AC
:101F2C004D2100004B48FFF77DFB4A4800F072FB47
:101F3C000D20FFF767FA00F091FC03F034F8464BE4
:101F4C001B68002B03D1454B1B7A002B01D00123BE
:101F5C0000E0002303F00103DBB2184606F0D4FBCB
:101F6C000120FFF7C3FC45E100F078FC06F000FC13
:101F7C000020FFF7BBFC3A4800F04CFB3848FFF759
:101F8C0051FB0E20FFF73EFAFFF7AAFC034618465A
:101F9C00FFF73EFC0346002B00F0258103F008FD03
:101FAC0021E1FFF79DFC0346072B0ED0072B10DC1D
:101FBC00052B02D0062B04D00BE00220FFF796FC79
:101FCC0008E00820FFF792FC04E00220FFF78EFCEB
:101FDC0000E000BF0EE1FFF783FC0346032B40F04B
:101FEC00048106F015FC0346002B00F0FE80042053
:101FFC00FFF77CFCF9E0FFF773FC0346032B07D1DA
:10200C0006F006FC0346002B02D00420FFF76EFC02
:10201C0006F02EFC0346002B00F0E9800620FFF7AB
:10202C0065FCE4E0FFF75CFC0346032B04D0FFF7F0
:10203C0057FC0346082B02D10A48FFF749FE002043
:10204C00FFF7E0F900F056FA059016E0480300207F
:10205C00B0910000389200004C030020580300207F
:10206C003C9200004092000001990598FFF75AF944
:10207C0003900598FFF704F90590059B002BF3D10D
:10208C00B8E000F0EBFB02F085FF0220FFF72EFC1E
:10209C000120FFF7B7F90198FFF7C4FA019800F097
:1020AC00B9FAA7E0FFF71CFC0346082B05D1022068
:1020BC00FFF71CFC06F02EFC02E00520FFF716FCD7
:1020CC000320FFF79FF90198FFF7ACFA019800F095
:1020DC00A1FA8FE00320FFF795F94848FFF7A2FA21
:1020EC00464800F097FAFFF7FBFB0346062B02D09D
:1020FC00082B04D007E00720FFF7F8FB07E00220CD
:10210C00FFF7F4FB03E00220FFF7F0FB72E071E055
:10211C000320FFF7EBFB0220FFF774F9019800F0A6
:10212C0079FA0198FFF77EFA64E00F20FFF76AF95D
:10213C00019800F06FFA5DE00198FFF773FA59E02F
:10214C000198FFF76FFA55E0019B9B781846FFF753
:10215C00EFF90490049B1B68002B04D1284940F232
:10216C00025003F01EFA049B5B68002B04D1244937
:10217C0040F2035003F015FA049B5B68049A126852
:10218C000199104698470346002B32D0019B9B784F
:10219C0003F00F03002B2CD0019B9B7803F008035A
:1021AC00002B26D1019B9B78184606F0F4FD20E00D
:1021BC000820FFF727F9019800F02CFA1AE0092003
:1021CC00FFF720F9019800F025FA13E00A20FFF739
:1021DC0019F9019800F01EFA0CE0094940F226505A
:1021EC0003F0DFF906E000BF04E000BF02E000BF2F
:1021FC0000E000BF00BF07B05DF804FB4492000094
:10220C00B091000000B583B000230193354B1B68DF
:10221C00002B07D1344B3549184603F0ADFA034671
:10222C00304A13602F4B1B68002B32D02D4B1B6890
:10223C009B88002B1ED02B4B1B68DB88B3F5006FE3
:10224C0003D3284B1B680022DA80264B1B68DA88E4
:10225C00511C89B2D9801346ADF80630214B1B684E
:10226C009A88013A92B29A8001AB1846FFF730FD7A
:10227C00012333E01B4B1B681846FFF729FD1A4B53
:10228C001A49184603F091FA164B00221A600123E2
:10229C0024E0174B1B68002B1FD0002003F01EF905
:1022AC00144B1B88B3F5006F02D3124B00221A801B
:1022BC00104B1B885A1C91B20E4A1180ADF8063097
:1022CC0001210B4803F0CCFA002003F01BF901AB01
:1022DC001846FFF7FDFC012300E00023184603B06D
:1022EC005DF804FB64030020A002002068030020BA
:1022FC00B0020020B402002000B589B00190019B0F
:10230C00002B04D15A4940F26A5003F04AF9019B60
:10231C005B68002B04D1564940F26B5003F041F935
:10232C00019B5B681B68002B04D1514940F26C5037
:10233C0003F037F90198FEF786FF03461B68002B64
:10234C0004D04B4940F26D5003F02BF906F040FAE3
:10235C00034683F00103DBB2002B04D006F02CFA09
:10236C000346002B04D1424940F2715003F019F995
:10237C0000238DF81F301CE000238DF81E300BE07D
:10238C000398FEF759FF03461846FFF70DF903466D
:10239C00002B01D0112367E09DF81E305A1C8DF8DC
:1023AC001E2019460598FEF721FF0390039B002B76
:1023BC00E6D19DF81F305A1C8DF81F201946019844
:1023CC00FEF7DCFE0590059B002BD5D100238DF884
:1023DC001F3018E000238DF81D3007E00498FEF73D
:1023EC002BFF034601991846FFF7EEF89DF81D30B8
:1023FC005A1C8DF81D2019460598FEF7F7FE04901F
:10240C00049B002BEAD19DF81F305A1C8DF81F201D
:10241C0019460198FEF7B2FE0590059B002BD9D109
:10242C00144B069310E0069B1B68019A9A4204D148
:10243C000F4940F2975003F0B4F8069B1B681846FE
:10244C00FEF701FF03460693069B1B68002BEAD19F
:10245C00069B019A1A600B238DF8083002AB1946C3
:10246C000198FEF75FFF0346184609B05DF804FBC0
:10247C00B091000048030020044B1B78002B14BFC4
:10248C0001230023DBB21846704700BF5503002020
:10249C0000B583B003468DF807309DF8073003F084
:1024AC000803002B09D19DF80730184606F0BBFC39
:1024BC009DF80730184606F080FC9DF8073018464A
:1024CC0006F0A6FA00BF03B05DF804FB00B583B0BC
:1024DC0003468DF807309DF80730184606F0E8FAE9
:1024EC0000BF03B05DF804FB014B1B681846704736
:1024FC0048030020014B1B68184670474C03002012
:10250C00014B1B68184670475003002000B587B07C
:10251C00034600918DF80730FFF7E6FF059031E098
:10252C000598FEF723FE03468DF8123000238DF834
:10253C0013301DE09DF8133019460598FEF71EFE6A
:10254C0003900398FEF744FE03461A469DF80730A5
:10255C00934208D1009B002B03D0009B9DF81320C5
:10256C001A70059B12E09DF8133001338DF813306F
:10257C009DF813209DF812309A42DBD30598FEF794
:10258C0069FE0590059B002BCAD10023184607B0A5
:10259C005DF804FB00B585B003900B4601928DF8F5
:1025AC000B3001990398FEF7BDFE0346184605B0A3
:1025BC005DF804FB00B585B0034600918DF807303B
:1025CC009DF90730002B05DA9DF8073003F00F0357
:1025DC00082B09DD9DF90730002B16DB9DF8073021
:1025EC0003F00F03082B10DC9DF807301846FEF79C
:1025FC009FFF03461B680393039B002B05D0009998
:10260C000398FEF78FFE034600E01023184605B032
:10261C005DF804FB00B585B00190FFF765FF0390F2
:10262C0007E001990398FEF77DFE0398FEF712FE72
:10263C000390039B002BF4D100BF00BF05B05DF8E5
:10264C0004FB00B585B0019006230293FFF74CFF05
:10265C0003900BE001990398FEF764FE0290029B35
:10266C00062B07D10398FEF7F5FD0390039B002B77
:10267C00F0D100E000BF029B184605B05DF804FBEA
:10268C0000B583B0034600918DF807309DF80730F4
:10269C00184606F0AAF9034683F00103DBB2002BBF
:1026AC0001D008230CE0084B1B78022B01D0082327
:1026BC0006E09DF807300099184606F019FA034613
:1026CC00184603B05DF804FB5403002000B583B03A
:1026DC00034600918DF807309DF80730184606F038
:1026EC0084F9034683F00103DBB2002B01D00823ED
:1026FC000CE0084B1B78022B01D0082306E09DF858
:10270C0007300099184606F0C1FA0346184603B084
:10271C005DF804FB5403002000B585B001900B4616
:10272C008DF8033013468DF8023006230393019B7A
:10273C005B689B68002B09D0019B5B689B689DF8CC
:10274C0002209DF80310019898470390039B062BD9
:10275C0008D19DF802209DF8033019460198FFF727
:10276C000FF90390039B184605B05DF804FB00B508
:10277C0083B001900B468DF80330019B5B68DB68DE
:10278C00002B07D0019B5B68DB689DF8032011468A
:10279C00019898479DF8033019460198FFF73CF9CA
:1027AC0000BF03B05DF804FB00B585B001900B468B
:1027BC008DF8033000238DF80F30019B5B681B698B
:1027CC00002B0AD0019B5B681B699DF80320114606
:1027DC000198984703468DF80F309DF80F30184636
:1027EC0005B05DF804FB000000B585B0FFF77CFE7A
:1027FC00039028E00398FEF7B9FC03468DF80A30E5
:10280C0000238DF80B3014E09DF80B300022194694
:10281C000398FFF781FF0190019B002B04D00E4918
:10282C0040F26A7002F0BDFE9DF80B3001338DF85A
:10283C000B309DF80B209DF80A309A42E4D3039894
:10284C00FEF708FD0390039B002BD3D100BF00BF04
:10285C0005B05DF804FB00BFB091000000B583B07B
:10286C00FFF742FE01901EE00198FEF77FFC034645
:10287C008DF8023000238DF803300AE09DF8033008
:10288C0019460198FFF773FF9DF8033001338DF85B
:10289C0003309DF803209DF802309A42EED3019844
:1028AC00FEF7D8FC0190019B002BDDD100BF00BFCF
:1028BC0003B05DF804FB82B003468DF807309DF839
:1028CC00073003F01F03DBB2184602B0704782B02A
:1028DC0003468DF807309DF807305B0903F00303BE
:1028EC00DBB2184602B0704782B003468DF8073051
:1028FC009DF80730DB09DBB2184602B0704782B096
:10290C000190019B1B7A184602B0704700B585B048
:10291C0001900B468DF80330019B002B04D10F491D
:10292C004FF4887002F03DFE0198FFF7E8FF034674
:10293C001A469DF80330934201D3002309E0019B12
:10294C00093303939DF8032013465B001344039A49
:10295C001344184605B05DF804FB00BFBC920000A0
:10296C0082B00190019B1B78184602B0704782B070
:10297C000190019B5B78184602B0704700B585B09A
:10298C0001900B468DF80330019B002B04D10D49AF
:10299C0040F2431002F005FE019B5B789DF803208A
:1029AC009A4201D3002309E0019B9B781A46019BB4
:1029BC00134403939DF80330039A1344184605B04F
:1029CC005DF804FBBC92000082B00190019B1B7867
:1029DC00184602B0704782B00190019B184602B0B5
:1029EC007047000000B583B00190019B002B03D110
:1029FC000449522002F0D5FD019B184603B05DF846
:102A0C0004FB00BF3093000000B583B00190019B24
:102A1C00002B03D109495F2002F0C3FD019B1B6809
:102A2C00002B03D10549602002F0BBFD019B1B6804
:102A3C000C33184603B05DF804FB00BF3093000064
:102A4C0000B585B001900B468DF803300198FFF767
:102A5C00C9FF0390039BDB69002B06D0039BDB694A
:102A6C009DF8032011460198984700BF05B05DF80A
:102A7C0004FB00B585B0019000210198FFF746FFDB
:102A8C00039000210398FFF779FF02900298FFF75B
:102A9C009BFF0346184605B05DF804FB00B585B0F6
:102AAC00019001210198FFF731FF03900021039859
:102ABC00FFF764FF02900298FFF786FF0346184663
:102ACC0005B05DF804FB00B585B0019001210198BB
:102ADC00FFF71CFF039001210398FFF74FFF0290B3
:102AEC000298FFF771FF0346184605B05DF804FB2A
:102AFC0000B589B003900291029B5B781846FFF7F2
:102B0C00DAFE0346012B28D1029B9B78062B24D19D
:102B1C000023059304AB184602F0BAFA0790029B07
:102B2C001979029BDA7805AB0093079B0398FEF7A3
:102B3C007FFC0690069B052B0FD0059B3F2B03D9E2
:102B4C000849C92002F02DFD029B0133059A079913
:102B5C00184602F031FA034600E00623184609B085
:102B6C005DF804FB3093000082B00190009100BF2F
:102B7C000623184602B0704700B585B0019000914D
:102B8C000198FFF72FFF03900398FFF73DFF02908A
:102B9C00009B9B78212B11D1009BB3F807309BB283
:102BAC00072B01D006230BE0009B581C029B0C3317
:102BBC000722194602F000FA034601E000BF062383
:102BCC00184605B05DF804FB00B585B003460091CE
:102BDC008DF807309DF80730002B01D0032316E049
:102BEC00009B03930398FFF70FFF0290029B1B7847
:102BFC00202B0BD1029B03F10C00029B023307220A
:102C0C00194606F097F900BF002300E0062318468A
:102C1C0005B05DF804FB000000B58BB0019000918D
:102C2C000198FFF7DFFE08900898FFF7EDFE07907C
:102C3C00009B9A78079B1A70009BB3F807309BB2E5
:102C4C00DAB2079B5A70079B02330493079B5B789D
:102C5C00059300230693002002F040FC04AB1946B8
:102C6C000020FFF70DFD0990099B002B09D1094BA2
:102C7C000293089B039302AB1946002002F0EAF979
:102C8C000990002002F03EFC099B18460BB05DF841
:102C9C0004FB00BFD52B000000B585B00190019856
:102CAC00FFF7A0FE03900398FFF7AEFE0290029B85
:102CBC0000229A82029B00229A61029B00221A62D5
:102CCC00029B0022DA66029B00221A67029B0022FA
:102CDC005A67029B00229A67029B03F12802029B0F
:102CEC009A6600BF05B05DF804FB00B587B0019093
:102CFC0000910198FFF776FE05900598FFF784FE8A
:102D0C000490009B9B78202B04D0222B10D000BF6A
:102D1C0006237BE0009BB3F807309BB2072B01D056
:102D2C00062373E000990198FFF776FF03466DE0E8
:102D3C00009BB3F807309BB2002B01D0062365E053
:102D4C00049B9B8A03F00103002B14BF0123002377
:102D5C008DF80F30009BB3F803309AB2049B9A8223
:102D6C00049B9B8A03F00103002B14BF0123002357
:102D7C008DF80E309DF80F209DF80E309A4201D13F
:102D8C00002343E09DF80E30002B01D0022300E01D
:102D9C0003238DF80D309DF80D3019460198FFF77F
:102DAC004FFE9DF80E3083F00103DBB2002B2CD0CC
:102DBC000198FFF773FE03468DF80C309DF80C302C
:102DCC00184604F093FC0198FFF77DFE03468DF83E
:102DDC000C309DF80C30184604F088FC049B002243
:102DEC009A61049B00221A62049B0022DA66049BFF
:102DFC0000221A67049B00225A67049B00229A67E0
:102E0C00049B03F12802049B9A660023184607B022
:102E1C005DF804FB00B583B001900091019B002B81
:102E2C0004D124494FF4E47002F0BBFB009B002B4F
:102E3C0004D1204940F2C91002F0B3FB009B5B782F
:102E4C001846FFF751FD0346012B16D1009B5B780A
:102E5C001846FFF73CFD0346002B02D0012B06D091
:102E6C0022E000990198FFF743FE03461DE000990C
:102E7C000198FFF781FE034617E0009B5B7818462C
:102E8C00FFF725FD0346002B02D0012B06D00BE0EB
:102E9C0000990198FFF768FE034606E00099019837
:102EAC00FFF723FF034600E00623184603B05DF846
:102EBC0004FB00BF3093000086B003900291019296
:102ECC000093029B0593039B009A5A60059BDB6958
:102EDC00009A9A421DD8059B9A69039B1A60059B20
:102EEC009A69009B1A44059B9A61059B1A6F009B7B
:102EFC001A44059B1A67059BDA69009BD21A059B3D
:102F0C00DA61059BDB69002B14BF01230023DBB2C4
:102F1C0008E0059B03F12802039B1A60059B009AAD
:102F2C009A670023184606B07047000000B58BB0B6
:102F3C0001900198FFF756FD08900898FFF764FD83
:102F4C0007900198FFF7BFFD03468DF81B306C4BC3
:102F5C000393079B0493079BDB69002B26D1079BEC
:102F6C001A6F079B5A67079B00221A67079B002260
:102F7C00DA66079B1B6A002B13D0079B079A183342
:102F8C00203292E8030083E80300079B00221A62B8
:102F9C0003AA9DF81B3011461846FFF797FB034612
:102FAC00A9E0079B00229A610023A4E0079B9B6F7A
:102FBC000593059B0993079BDB69059A9A4202D9F5
:102FCC00079BDB690993079B9869079B2833099A30
:102FDC00194605F0AFFF079B1A6F099B1A44079B14
:102FEC005A67079B00221A67059A099BD21A079BFE
:102FFC00DA66079B03F12802099B1A44079B9A6621
:10300C00079B1B6A002B65D0079B079A183320324D
:10301C0092E8030083E80300079B00221A6254E045
:10302C00079BDA6E079BDB699A4232D3079B986940
:10303C00079B996E079BDB691A4605F07BFF079B84
:10304C00DA6E079BDB69D21A079BDA66079B9A6ECE
:10305C00079BDB691A44079B9A66079BDA69079BF7
:10306C005A6700210198FFF7EBFC079B1B6A002BAA
:10307C000BD0079B079A1833203292E8030083E8A1
:10308C000300079B00221A621FE0079B00229A6133
:10309C0023E0079B9869079B996E079BDB6E1A468A
:1030AC0005F048FF079BDA6E079B1A67079BDA69E6
:1030BC00079BDB6ED21A079BDA61079B9A69079B09
:1030CC00DB6E1A44079B9A6107E0079BDB6E002BB3
:1030DC00A6D102E0079B00229A61079B9B69002BFB
:1030EC0008D003AA9DF81B3011461846FFF7EEFADC
:1030FC00034600E0002318460BB05DF804FB00BF4C
:10310C00C52E000000B585B0019000910198FFF725
:10311C00B0FC03461A46009B9B789A4201D10023CF
:10312C0034E0009B9B785BB2002B10DA009BDB78C1
:10313C00002B02D0032B06D007E001210198FFF7EA
:10314C007FFC002322E0002320E003231EE0009BF1
:10315C009B785BB2002B18DB009BDB78032B10D029
:10316C00032B10DC002B02D0012B0AD00BE00198B2
:10317C00FFF7DCFE039000210198FFF761FC039B35
:10318C0004E0002302E0032300E00623184605B008
:10319C005DF804FB00B585B001900091019B002BFC
:1031AC0004D12B4940F2DD2002F0FBF9009B002BEF
:1031BC0004D1274940F2DE2002F0F3F900230393F7
:1031CC00009B1B780E2B39D801A252F823F000BFBC
:1031DC004F320000193200004F3200004F32000015
:1031EC0049320000213200002D320000493200002B
:1031FC004932000039320000493200004F320000E1
:10320C004F3200004F3200004F3200000198FFF7A0
:10321C0043FD17E000990198FFF7FCFD039011E0C6
:10322C0000990198FFF76EFF03900BE003210198C2
:10323C00FFF706FC0198FFF72FFD03E0062303932D
:10324C0000E000BF039B184605B05DF804FB00BF0F
:10325C003093000010B58AB0039002910192009354
:10326C000298FFF74CFB03461A46C34B1A700298A0
:10327C00FFF7B8FB0990039B002B04D1BF494FF417
:10328C00447002F08EF9019B059300230693009B7A
:10329C000793039B0893089B1B68002B00F00C8181
:1032AC00B3F5647F80F0D98640F213329342C0F0BC
:1032BC00D486A3F213337C2B00F2CF8601A252F8F2
:1032CC0023F000BFE3340000193500005135000035
:1032DC008F350000C5350000FB350000333600008B
:1032EC00693600006740000067400000674000003E
:1032FC00674000006740000067400000A9360000EE
:10330C00DF360000674000006740000067400000A7
:10331C00674000003137000067370000A737000016
:10332C00674000006740000067400000F137000074
:10333C00273800005F38000067400000674000003D
:10334C006740000067400000A9380000E738000023
:10335C001B39000067400000674000006740000018
:10336C006740000067400000674000005B390000C8
:10337C0067400000674000006740000067400000A5
:10338C00A5390000D93900000D3A0000413A00007F
:10339C00753A00006740000067400000A93A000041
:1033AC00DD3A0000113B0000453B0000833B000070
:1033BC006740000067400000B73B0000EB3B00009B
:1033CC001F3C0000533C00006740000067400000B9
:1033DC00873C0000BB3C0000EF3C0000253D00009A
:1033EC005B3D000067400000674000006740000044
:1033FC006740000067400000674000006740000025
:10340C006740000067400000674000006740000014
:10341C006740000067400000674000006740000004
:10342C0067400000674000006740000067400000F4
:10343C00C93D0000FD3D00006740000067400000F2
:10344C0067400000513E00006740000067400000EC
:10345C006740000067400000993E00006740000094
:10346C00674000006740000067400000E33E00003A
:10347C0067400000674000006740000067400000A4
:10348C006740000067400000233F0000573F0000EA
:10349C006740000067400000674000006740000084
:1034AC00A33F000067400000674000006740000039
:1034BC006740000003400000089B08221A71069A1E
:1034CC00079B9A4206D3089B40F213321A600123E1
:1034DC0000F0C7BD00BF059B002B05D0089A0599CD
:1034EC00069B0B4412791A70069B01330693089BBA
:1034FC000B221A71069A079B9A4206D3089B4FF42B
:10350C0045721A60012300F0ACBD00BF059B002B77
:10351C0005D0089A0599069B0B4412791A70069BE4
:10352C0001330693089B099A127D1A71069A079B20
:10353C009A4206D3089B40F215321A60012300F020
:10354C0090BD00BF059B002B05D0089A0599069BE2
:10355C000B4412791A70069B01330693089B0222C6
:10356C001A71069A079B9A420AD3089B40F21632AC
:10357C001A60012300F075BD6C030020309300002D
:10358C0000BF059B002B05D0089A0599069B0B44A0
:10359C0012791A70069B01330693089B02221A714A
:1035AC00069A079B9A4206D3089B40F217321A6080
:1035BC00012300F056BD00BF059B002B05D0089AD7
:1035CC000599069B0B4412791A70069B01330693DE
:1035DC00089B02221A71069A079B9A4206D3089BF3
:1035EC004FF446721A60012300F03BBD00BF059BEF
:1035FC00002B05D0089A0599069B0B4412791A707A
:10360C00069B01330693089B099A527E1A71069AFF
:10361C00079B9A4206D3089B40F219321A60012389
:10362C0000F01FBD00BF059B002B05D0089A059923
:10363C00069B0B4412791A70069B01330693089B68
:10364C0000221A71069A079B9A4206D3089B40F2F5
:10365C001A321A60012300F004BD00BF059B002B39
:10366C0005D0089A0599069B0B4412791A70069B93
:10367C0001330693964B00221A7000F0E1BC089BB4
:10368C0009221A71069A079B9A4206D3089B40F2AC
:10369C0021321A60012300F0E4BC00BF059B002B13
:1036AC0005D0089A0599069B0B4412791A70069B53
:1036BC0001330693089B04221A71069A079B9A42BF
:1036CC0006D3089B40F222321A60012300F0C9BCD9
:1036DC0000BF059B002B05D0089A0599069B0B444F
:1036EC0012791A70069B01330693794B1B78194695
:1036FC000298FFF70BF90346764A1360754B1B686B
:10370C00089C1846FFF72CF903462371069A079B71
:10371C009A4206D3089B40F227321A60012300F02C
:10372C00A0BC00BF059B002B05D0089A0599069BF1
:10373C000B4412791A70069B01330693089B0022E6
:10374C001A71069A079B9A4206D3089B4FF44A7249
:10375C001A60012300F085BC00BF059B002B05D02F
:10376C00089A0599069B0B4412791A70069B013333
:10377C000693584B1B68089C1846FFF7F8F803464D
:10378C002371069A079B9A4206D3089B40F2293272
:10379C001A60012300F065BC00BF059B002B05D00F
:1037AC00089A0599069B0B4412791A70069B0133F3
:1037BC000693099B1C7D474B1B681846FFF7D0F8F6
:1037CC0003469C4252D1089B02221A71069A079B0F
:1037DC009A4206D3089B40F22D321A60012300F066
:1037EC0040BC00BF059B002B05D0089A0599069B91
:1037FC000B4412791A70069B01330693089B022224
:10380C001A71069A079B9A4206D3089B40F22E32F5
:10381C001A60012300F025BC00BF059B002B05D0CE
:10382C00089A0599069B0B4412791A70069B013372
:10383C000693089B099A527E1A71069A079B9A4224
:10384C0006D3089B40F22F321A60012300F009BC0A
:10385C0000BF059B002B05D0089A0599069B0B44CD
:10386C0012791A70069B0133069362E0099B9C7DCA
:10387C00184B1B681846FFF773F803469C4253D14C
:10388C00089B0A221A71069A079B9A4205D3089B39
:10389C004FF44D721A600123E3E300BF059B002B2C
:1038AC0005D0089A0599069B0B4412791A70069B51
:1038BC0001330693089B00221A71069A079B9A42C1
:1038CC000AD3089B40F235321A600123C9E300BFCA
:1038DC006D0300207003002000BF059B002B05D05A
:1038EC00089A0599069B0B4412791A70069B0133B2
:1038FC000693089B00221A71069A079B9A4205D3DD
:10390C00089B40F236321A600123AAE300BF059BE4
:10391C00002B05D0089A0599069B0B4412791A7056
:10392C00069B0133069304E0904940F23A3001F0D3
:10393C0038FE089B00221A71069A079B9A4205D3FF
:10394C00089B40F23D321A6001238AE300BF059BBD
:10395C00002B05D0089A0599069B0B4412791A7016
:10396C00069B01330693099B1C7D814B1B681846F3
:10397C00FEF7F6FF03469C4240F0F681089B0522B9
:10398C001A71069A079B9A4205D3089B40F2423261
:10399C001A60012365E300BF059B002B05D0089A34
:1039AC000599069B0B4412791A70069B01330693FA
:1039BC00089B24221A71069A079B9A4205D3089BEE
:1039CC0040F243321A6001234BE300BF059B002BEE
:1039DC0005D0089A0599069B0B4412791A70069B20
:1039EC0001330693089B00221A71069A079B9A4290
:1039FC0005D3089B4FF451721A60012331E300BFC9
:103A0C00059B002B05D0089A0599069B0B4412794F
:103A1C001A70069B01330693089B10221A71069AA2
:103A2C00079B9A4205D3089B40F245321A6001234A
:103A3C0017E300BF059B002B05D0089A0599069B40
:103A4C000B4412791A70069B01330693089B0122D2
:103A5C001A71069A079B9A4205D3089B40F246328C
:103A6C001A600123FDE200BF059B002B05D0089ACC
:103A7C000599069B0B4412791A70069B0133069329
:103A8C00089B05221A71069A079B9A4205D3089B3C
:103A9C0040F249321A600123E3E200BF059B002B80
:103AAC0005D0089A0599069B0B4412791A70069B4F
:103ABC0001330693089B24221A71069A079B9A429B
:103ACC0005D3089B40F24A321A600123C9E200BFB9
:103ADC00059B002B05D0089A0599069B0B4412797F
:103AEC001A70069B01330693089B01221A71069AE1
:103AFC00079B9A4205D3089B40F24B321A60012374
:103B0C00AFE200BF059B002B05D0089A0599069BD8
:103B1C000B4412791A70069B01330693089B0322FF
:103B2C001A71069A079B9A4205D3089B4FF453725D
:103B3C001A60012395E200BF059B002B05D0089A63
:103B4C000599069B0B4412791A70069B0133069358
:103B5C00089B099A927D1A71069A079B9A4209D37F
:103B6C00089B40F24D321A6001237AE23093000038
:103B7C007003002000BF059B002B05D0089A059907
:103B8C00069B0B4412791A70069B01330693089B13
:103B9C0004221A71069A079B9A4205D3089B4FF48C
:103BAC0054721A6001235CE200BF059B002B05D008
:103BBC00089A0599069B0B4412791A70069B0133DF
:103BCC000693089B24221A71069A079B9A4205D3E6
:103BDC00089B40F251321A60012342E200BF059B60
:103BEC00002B05D0089A0599069B0B4412791A7084
:103BFC00069B01330693089B02221A71069A079BB7
:103C0C009A4205D3089B40F252321A60012328E2F3
:103C1C0000BF059B002B05D0089A0599069B0B4409
:103C2C0012791A70069B01330693089B02221A71B3
:103C3C00069A079B9A4205D3089B40F253321A60AE
:103C4C0001230EE200BF059B002B05D0089A0599B5
:103C5C00069B0B4412791A70069B01330693089B42
:103C6C0005221A71069A079B9A4205D3089B40F2CB
:103C7C0056321A600123F4E100BF059B002B05D0DE
:103C8C00089A0599069B0B4412791A70069B01330E
:103C9C000693089B24221A71069A079B9A4205D315
:103CAC00089B40F257321A600123DAE100BF059BF2
:103CBC00002B05D0089A0599069B0B4412791A70B3
:103CCC00069B01330693089B06221A71069A079BE2
:103CDC009A4205D3089B4FF456721A600123C0E137
:103CEC0000BF059B002B05D0089A0599069B0B4439
:103CFC0012791A70069B01330693089B099A127D60
:103D0C001A71069A079B9A4205D3089B40F25932C6
:103D1C001A600123A5E100BF059B002B05D0089A72
:103D2C000599069B0B4412791A70069B0133069376
:103D3C00089B099A927D1A71069A079B9A4205D3A1
:103D4C00089B40F25A321A6001238AE100BF059B9E
:103D5C00002B05D0089A0599069B0B4412791A7012
:103D6C00069B013306930EE0099B9C7D9C4B1B68C4
:103D7C001846FEF7F5FD03469C4204D0994940F2E3
:103D8C00633001F00EFC964B1B681846FEF7EFFDF6
:103D9C0003461A46944B1A70944B00221A7042E157
:103DAC00089B07221A71069A079B9A4205D3089B17
:103DBC0040F26E321A60012353E100BF059B002BC9
:103DCC0005D0089A0599069B0B4412791A70069B2C
:103DDC0001330693089B05221A71069A079B9A4297
:103DEC0005D3089B40F26F321A60012339E100BF02
:103DFC00059B002B05D0089A0599069B0B4412795C
:103E0C001A70069B01330693754B1B68774A127820
:103E1C0011461846FEF7B2FD0346754A1360744B03
:103E2C001B68089C1846FEF7CFFD03462371069AC3
:103E3C00079B9A4205D3089B40F273321A60012308
:103E4C000FE100BF059B002B05D0089A0599069B36
:103E5C000B4412791A70069B01330693099B1C7D47
:103E6C005F4B1B681846FEF77BFD03469C421AD13C
:103E7C00089B03221A71069A079B9A4205D3089B4A
:103E8C004FF45E721A600123EBE000BF059B002B20
:103E9C0005D0089A0599069B0B4412791A70069B5B
:103EAC000133069329E0099B9C7D4D4B1B681846FA
:103EBC00FEF756FD03469C421AD1089B02221A714A
:103ECC00069A079B9A4205D3089B40F27D321A60F2
:103EDC000123C6E000BF059B002B05D0089A05996D
:103EEC00069B0B4412791A70069B0133069304E06F
:103EFC003C4940F2813001F054FB089B40221A717E
:103F0C00069A079B9A4205D3089B4FF461721A607C
:103F1C000123A6E000BF059B002B05D0089A05994C
:103F2C00069B0B4412791A70069B01330693089B6F
:103F3C0000221A71069A079B9A4205D3089B40F2FD
:103F4C0085321A6001238CE000BF059B002B05D045
:103F5C00089A0599069B0B4412791A70069B01333B
:103F6C000693099B1C7D1E4B1B681846FEF7F8FC3C
:103F7C0003469C421CD1099B1A6A089B12781A7141
:103F8C00069A079B9A4205D3089B40F28A321A6024
:103F9C00012366E000BF059B002B05D0089A05990C
:103FAC00069B0B4412791A70069B0133069334E07E
:103FBC00099B9C7D0A4B1B681846FEF7D1FC0346F7
:103FCC009C4225D1089B00221A71069A079B9A42A3
:103FDC0010D3089B40F28F321A60012341E000BFDE
:103FEC007003002030930000740300207503002040
:103FFC007803002000BF059B002B05D0089A05997B
:10400C00069B0B4412791A70069B0133069304E04D
:10401C00154940F2933001F0C4FA144B1B7801336C
:10402C00DAB2124B1A70114B1A78114B1B789A4258
:10403C00FFF4B6AE0F4B1B780133DAB20D4B1A708E
:10404C000C4B1A780C4B1B789A42FFF418AB089B5C
:10405C0040F29A321A60012303E0089B00221A6096
:10406C00002318460AB010BD3093000075030020E1
:10407C00740300206D0300206C03002000B58FB08A
:10408C000390029101920398FEF7A5FC0D90039802
:10409C00FEF7BAFC0C900C9B9B8A03F00103002BDF
:1040AC0014BF012300238DF82F309DF82F3083F09F
:1040BC000103DBB2002B01D0082327E00D98FEF79B
:1040CC00EDFC03468DF82E30019B03F03F03002BD3
:1040DC000ED1029B0893019B099301230A9308AA12
:1040EC009DF82E3011461846FEF7CAFA03460DE02D
:1040FC00029B0593019B06930023079305AA9DF849
:10410C002E3011461846FEF7BBFA034618460FB080
:10411C005DF804FB00B585B001900198FEF774FCC6
:10412C000390039B5B6F184605B05DF804FB000021
:10413C0000B58BB0039002910192029B002B04D12D
:10414C00454940F2D73001F02CFA0398FEF75CFC9D
:10415C000890089B9B8A03F00103002B01D10823D4
:10416C0075E0089B9B69002B61D1089BDB6E019A63
:10417C009A4218D8089B9B6E019A1946029804F033
:10418C00D9FE089BDA6E019BD21A089BDA66089B53
:10419C009A6E019B1A44089B9A66089B019A5A676F
:1041AC000023099352E0089B029A9A61089B019A9A
:1041BC00DA610398FEF70FFC03461846FEF783FC02
:1041CC0003468DF81F30254B0593089B0693089BDF
:1041DC00DB6E002B1DD0089B9869089B996E089B81
:1041EC00DB6E1A4604F0A6FE089BDA69089BDB6EB0
:1041FC00D21A089BDA61089B9A69089BDB6E1A44F9
:10420C00089B9A61089BDA6E089B1A67089B002230
:10421C00DA6605AA9DF81F3011461846FEF756FAC5
:10422C000990099B002B11D1922309930EE0089B56
:10423C001B6A002B08D1089B029A1A62089B019AF0
:10424C005A629223099301E011230993099B1846A2
:10425C000BB05DF804FB00BF30930000C52E0000CE
:10426C0082B00190019B03F1804303F51C33184687
:10427C0002B0704700B583B003468DF807309DF847
:10428C0007301846FFF7ECFF034601221A60BFF314
:10429C006F8F00BFBFF34F8F00BF00BF03B05DF83F
:1042AC0004FB82B003468DF807309DF8073003F00D
:1042BC001F03DBB2184602B0704782B003468DF87C
:1042CC0007309DF807305B0903F00303DBB2184697
:1042DC0002B0704782B003468DF807309DF8073066
:1042EC00DB09DBB2184602B0704782B00190019B2B
:1042FC001B7A184602B0704782B00190019B1B6874
:10430C00184602B07047000000B583B00190019BC5
:10431C00002B04D1064940F2432001F042F90198E8
:10432C00FFF7EAFF03461B68184603B05DF804FB71
:10433C00B893000082B00190019B1B78184602B024
:10434C007047000000B583B003468DF807300E4B64
:10435C001B789DF807209A4211D00B4A9DF8073024
:10436C0013709DF80730052B06D0084B1B7823F0F3
:10437C000203DAB2054B1A700548FDF7A9FC00BF21
:10438C0003B05DF804FB00BF7C0300207D0300201C
:10439C00E8940000014B1B78184670477C03002002
:1043AC004FF08043D3F8383403F00103002B14BFD3
:1043BC0001230023DBB2184670470000024B002299
:1043CC001A6000BF704700BFC403002000B585B061
:1043DC0003468DF807300B4B1B680393039B002B94
:1043EC000AD0FFF7EBFF074B59689DF80720039B9A
:1043FC0010469847034600E00E23184605B05DF8BA
:10440C0004FB00BFC4030020044B1B68002B14BF2B
:10441C0001230023DBB21846704700BFC403002001
:10442C0082B0034600918DF807300023184602B085
:10443C007047000010B58EB00390029101920123D9
:10444C008DF83730029B0993099B5B68002B15D1C3
:10445C00099B1B681846FFF757FF0346002B0DD12D
:10446C00099B9B68002B09D100238DF83730039BE7
:10447C0000221A60039B00225A60AAE0019B402B89
:10448C0004D9564940F2971001F08BF800230C9395
:10449C0000238DF82B3004F065FC0890099BDB6839
:1044AC00019A934228BF13460B9386E0099B9B68A5
:1044BC000B9A934228BF13460793099B5B68002B0A
:1044CC000CD0089A0C9BD018099B5B68079A19466C
:1044DC0004F030FD099B00225A6014E0099B9B6894
:1044EC00002B10D0099B1B685B685C68099B03F16F
:1044FC001000099B1968089A0C9B1A44079BA0474B
:10450C0001238DF82B30099B9A68079BD21A099BC3
:10451C009A60099BDA68079BD21A099BDA600B9A9E
:10452C00079BD31A0B930C9A079B13440C93099B70
:10453C009B68002B0BD19DF82B30002B07D0099BCF
:10454C001B681846FFF7E0FE0246099B1A60099BA0
:10455C00DB68002B03D100238DF837302DE0099B4D
:10456C009B68002B29D1099B1B68002B0DD1099B43
:10457C0000225A600C9B002B24D00C9A019B9A426F
:10458C0020D200238DF837301CE00023059304E083
:10459C00099B9B685A1C099B9A60099B1B685B686A
:1045AC005C68099B196805A801230022A0470346F3
:1045BC00002BEDD1099B00221A610B9B002B7FF481
:1045CC0075AF00E000BF039B089A1A60039B0C9A1E
:1045DC005A609DF8373018460EB010BD2494000078
:1045EC0000B587B00190019B5B781846FFF765FE1C
:1045FC000346002B01D0062383E0019B5B798DF8E9
:10460C001730FFF7C7FE03468DF81630019B9B78D9
:10461C00032B29D0032B6EDC002B02D0012B44D0B2
:10462C0069E09DF81630052B05D09DF8173003F086
:10463C000F03002B16D103AB184600F029FD049094
:10464C009DF81730184604F0DBFB03469AB2049B26
:10465C001A80019B013302220499184600F0ACFC2D
:10466C0003464EE008234CE09DF8173003F0080396
:10467C00002B42D1019BB3F803309BB2002B3CD1F1
:10468C009DF8173003F00F03002B01D1062338E0FF
:10469C009DF81630052B06D19DF81730184604F0FE
:1046AC007AFB00232DE008232BE09DF8173003F054
:1046BC000803002B23D1019BB3F803309BB2002BD2
:1046CC001DD19DF8173003F00F03002B01D10623E9
:1046DC0017E09DF81630052B0BD19DF817301846B6
:1046EC0004F0A1FB9DF81730184604F066FB00237C
:1046FC0007E0082305E000BF02E000BF00E000BFB8
:10470C000623184607B05DF804FB00B58BB0039088
:10471C000B4601928DF80B30019B5B781846FFF726
:10472C00CCFD0346002B01D006236AE0FFF732FED6
:10473C0003468DF82730019B5B781846FFF7CAFDBE
:10474C000346012B3BD1019B9B78002B02D00A2BFB
:10475C0017D055E09DF82730052B01D0082350E0E9
:10476C0006AB184600F094FC0790079B00221A80B9
:10477C00019B013302220799184600F01DFC0346E9
:10478C003FE09DF82730052B01D0082339E005AB1D
:10479C00184600F07DFC08909DF80B3019460398E4
:1047AC00FEF702F803461A46089B1A70019B013368
:1047BC0001220899184600F0FFFB034621E0019BFB
:1047CC009B780B2B1BD19DF82730052B01D0082390
:1047DC0017E0019BB3F803309BB2FF2B01D90723E1
:1047EC000FE0019BDB788DF826309DF826209DF894
:1047FC000B3019460398FDF78FFF034601E000BF0D
:10480C00062318460BB05DF804FB000000B585B01C
:10481C000190009102AB184600F03AFC0390029B09
:10482C00012B04D8184940F29F2000F0BAFE022256
:10483C000021039804F0B4FBC02303F04003002BC9
:10484C0006D0039B1B7843F00103DAB2039B1A706A
:10485C000E4B1B785B08DBB203F00103002B06D078
:10486C00039B1B7843F00203DAB2039B1A70009B84
:10487C00013302220399184600F09EFB03461846AA
:10488C0005B05DF804FB00BF249400007D030020FC
:10489C0010B58EB001900091009B1B79032B00F09A
:1048AC00BC80032B00F3E780012B02D0022B11D02C
:1048BC00E1E0009BB3F807309BB2002B01D1002341
:1048CC00DBE0009B013312226D49184600F074FBAB
:1048DC000346D2E0009BB3F807309BB2002B01D10A
:1048EC000023CAE0009BB3F807309BB2092B28BF0A
:1048FC0009239BB2069309230D9300238DF83330C3
:10490C00FDF7F2FD0B9037E00B9B5B68002B04D19D
:10491C005C4940F2D12000F044FE0B9B5B685B6865
:10492C00002B04D1574940F2D22000F03AFE00236C
:10493C000A930023029302E00A9B01330A930B9B18
:10494C005B685C6802A8012300220B99A047034610
:10495C00002BF1D10D9A0A9B13440D930B98FFF782
:10496C00C4FC03461A469DF8333013448DF833309B
:10497C000B98FFF7C9FC0B900B9B002BC4D104AB1D
:10498C00184600F085FB0590049B069A9A4204D9C0
:10499C003C4940F2E72000F004FE069A3A4905989B
:1049AC0004F0C8FA059B9DF833201A710D9B9AB23E
:1049BC00059B5A80FDF760FD0346002B06D0059B36
:1049CC00DB7943F02003DAB2059BDA71FDF78CFD3D
:1049DC0003462E4A13602D4A059B53602B4A069BB7
:1049EC009360009BB3F807309BB21A46274BDA60F2
:1049FC00002000F073FD26498020FDF767FE09902A
:104A0C00099B002B04D12349802000F023FB099043
:104A1C00002000F077FD099B2FE0009BB3F80730D6
:104A2C009BB2002B01D1002327E0009BDB788DF893
:104A3C002330009B5A799B791B021343ADF820302D
:104A4C00BDF820209DF823301146184600F092FB4B
:104A5C000790079B002B01D106230EE0009B5C1CEA
:104A6C000798FFF767FC03461A460799204600F0A3
:104A7C00A3FA034601E000BF062318460EB010BD92
:104A8C009494000024940000A8940000D803002003
:104A9C00E0940000D894000000B587B0019000911C
:104AAC0003AB184600F0F4FA0590FFF773FC0346CD
:104ABC008DF813309DF81330052B03D1059B012283
:104ACC001A7009E09DF81330042B03D1059B0022CA
:104ADC001A7001E0062307E0009B013301220599BF
:104AEC00184600F069FA0346184607B05DF804FB57
:104AFC0000B585B001900091FFF74CFC03468DF892
:104B0C000F309DF80F30052B05D09DF80F30042B7E
:104B1C0001D0082316E0009BDB78002B05D1FDF7B4
:104B2C009DFE0420FFF70EFC0BE0009BDB78012BB5
:104B3C0005D1FDF759FE0520FFF704FC01E0072322
:104B4C0000E00023184605B05DF804FB00B583B007
:104B5C0001900091019B002B04D150494FF45A70E5
:104B6C0000F01FFD009B002B04D14C4940F2693032
:104B7C0000F017FD009B5B781846FFF79EFB034681
:104B8C00002B01D0062385E0009B5B781846FFF7CD
:104B9C00A1FB0346012B1FD1009B9B78082B12D045
:104BAC00082B16DC002B02D0062B06D011E0009946
:104BBC000198FFF72BFE03466CE000990198FFF774
:104BCC0067FE034666E000990198FFF765FF034610
:104BDC0060E000BF06235DE0009B9B78013B082B47
:104BEC0052D801A252F823F0574C0000954C00000B
:104BFC00254C0000954C0000194C0000954C000011
:104C0C00954C0000954C0000894C000023494FF452
:104C1C00637000F0C6FC3CE0009BB3F803309BB221
:104C2C00012B33D1FDF728FC034683F00103DBB2E3
:104C3C00002B01D00F232DE0194B1B7843F00203FE
:104C4C00DAB2174B1A70002324E0009BB3F8033040
:104C5C009BB2012B1CD1FDF70FFC034683F0010323
:104C6C00DBB2002B01D00F2314E00D4B1B7823F08B
:104C7C000203DAB20A4B1A7000230BE00099019878
:104C8C00FFF736FF034605E000BF02E000BF00E07F
:104C9C0000BF0623184603B05DF804FB2494000003
:104CAC007D03002000B58BB00190062309930523EA
:104CBC008DF8103004AB0133184604F0C3F8FFF73D
:104CCC00A3FBFFF77BFB9DF811301846FFF7E9FAC1
:104CDC000346032B63D801A252F823F0F94C0000D1
:104CEC00174D0000654D00009F4D000004AB1946A8
:104CFC000198FFF72BFF0990099B062B51D104ABB0
:104D0C001846FDF79EFC09904BE09DF815308DF888
:104D1C0022300DF10F029DF8223011461846FDF796
:104D2C00F5FB0790079B002B02D1102309933AE067
:104D3C009DF80F3004AA19460798FDF72BFC099033
:104D4C00099B062B2FD19DF80F3004AA1946079802
:104D5C00FFF7DBFC099026E0062309939DF815303C
:104D6C008DF823309DF8233003F00F03002B07D070
:104D7C0004AA9DF8233011461846FDF71BFC099038
:104D8C00099B062B11D104AB1846FFF729FC09909F
:104D9C000BE004AB1846FDF754FC099006E000BF8D
:104DAC0004E000BF02E000BF00E000BF099B002B45
:104DBC000FD1FFF729FB0346002B07D004F07EF838
:104DCC000346002B07D104F067F804E004F06AF8FE
:104DDC0001E004F06DF8099B18460BB05DF804FB7C
:104DEC0000B585B00190009106230393009B1B78BE
:104DFC000E2B25DC002B40F3BD80013B0D2B00F26C
:104E0C00B98001A252F823F0534E00005B4E000013
:104E1C00614E0000814F0000A74E0000294F00009A
:104E2C00814F0000814F0000814F0000814F000036
:104E3C00B14E0000CB4E0000EB4E0000094F0000BD
:104E4C00852B1DD096E00320FFF77CFA99E0002318
:104E5C00039396E04D4800F01DFD0346002B02D055
:104E6C005C20FFF707FAFFF795FA0346002B04D1F5
:104E7C00474940F2424000F094FB0023039380E04A
:104E8C00FFF788FA03468DF80B309DF80B30032B97
:104E9C0072D10420FFF756FA6EE00198FFF702FF7B
:104EAC0003906EE0FFF776FA0346002B04D03849E6
:104EBC0040F2564000F075FB0023039361E0FFF7CE
:104ECC0069FA0346012B04D0314940F25C4000F0F2
:104EDC0068FB0020FFF736FA0023039351E0FFF73D
:104EEC005FFA0346002B03D00220FFF72BFA02E0F7
:104EFC000120FFF727FA0023039342E0FFF74AFA59
:104F0C000346012B04D822494FF48E6000F049FB74
:104F1C000120FFF717FA0023039332E0009BDB78A4
:104F2C00032B2BD0009B9B78002B08D0009B9B78ED
:104F3C00802B04D0164940F27E4000F032FB009BDF
:104F4C00DB781846FFF742FA0390039B002B0ED137
:104F5C00FFF75AFA0346002B06D0009B9B78002BD8
:104F6C000ED103F099FF0BE003F09CFF08E003F077
:104F7C009FFF05E000BF04E000BF02E000BF00E0BF
:104F8C0000BF039B184605B05DF804FB80030020AE
:104F9C002494000008B50020FDF77AFA8020FDF774
:104FAC0077FA00BF08BD08B50020FDF78FFA802006
:104FBC00FDF78CFA00BF08BD00B58DB003900291CF
:104FCC000192039BDB889BB20A93019A0A9B934242
:104FDC0028BF13460993019A0A9B9A420ED280204D
:104FEC0003F0F2FC03461A46019BB3FBF2F101FB02
:104FFC0002F29B1A002B01D1012300E000238DF853
:10500C0023309DF8233003F001038DF82330029BED
:10501C000593099B06939DF823300793002000F01D
:10502C005DFA05AB19468020FDF72AFB0B900B9B14
:10503C00002B04D10649802000F00CF80B900020C6
:10504C0000F060FA0B9B18460DB05DF804FB00BF36
:10505C00D894000000B583B0034600918DF807305A
:10506C0003F02CFF03461A469DF80730934201D0FB
:10507C00102306E0054B009A92E8030083E8030036
:10508C000023184603B05DF804FB00BFC4030020E6
:10509C0082B00190019B002B02D0019B40221A6030
:1050AC00014B184602B070478403002000B587B04E
:1050BC0003460A468DF807301346ADF804309DF8C8
:1050CC000720BDF804302949134451F823301B78CC
:1050DC00002B09D19DF80720BDF804302349134457
:1050EC0051F8233002333DE00020FFF7D1FF03904D
:1050FC0000238DF817309DF80720BDF804301B49AC
:10510C00134451F82330049318E09DF817301E2BEC
:10511C0003D91749FC2000F044FA9DF817300133ED
:10512C008DF81730049B19789DF817305B00039AA3
:10513C0013448AB21A80049B01330493049B1B789A
:10514C00002BE2D19DF8173001339BB25B009BB270
:10515C001BB2DBB21BB243F440731BB29AB2039B7B
:10516C001A80039B184607B05DF804FB1000002062
:10517C005C95000000B585B003460A468DF80730F3
:10518C001346ADF804309DF80730002B05D10021F3
:10519C000020FFF78BFF034640E000238DF80D3015
:1051AC0000238DF80F3000238DF80E3016E09DF89B
:1051BC000E301C4A12F813309DF807209A4208D181
:1051CC009DF80E30174A5B0013445B788DF80F3056
:1051DC0008E09DF80E3001338DF80E309DF80E303E
:1051EC00052BE4D99DF80F30002B01D1002315E0DD
:1051FC009DF80F209DF80D300B49134451F82330C6
:10520C00002B01D1002309E09DF80D309AB29DF8D6
:10521C000F3011461846FFF749FF0346184605B0F4
:10522C005DF804FBEC9400001000002008B50C2283
:10523C0000211E4803F0B4FE4FF0A0430322C3F834
:10524C0018274FF0A0430022C3F82027184B062242
:10525C00C3F80C25164B0822C3F81425144B002256
:10526C00C3F86C25124B134AC3F82425104B0022AB
:10527C00C3F81C210E4B0022C3F808210C4B8422CE
:10528C00C3F804230C4B402283F802230A4B04225C
:10529C001A60074B0422C3F80025054B01229A60C3
:1052AC00034B01221A6000BF08BD00BFF0030020B1
:1052BC000020004000E0D70100E100E008B5FBF75A
:1052CC00F6F90D4BD3F80831002B05D00A4B002210
:1052DC00C3F8082100F034F8074BD3F81C31002B2D
:1052EC0005D0054B0022C3F81C2100F007F8FBF792
:1052FC00E6F900BF08BD00BF0020004008B50E4B0A
:10530C001B7A012B0BD10C4B00221A720A4B5B7AC5
:10531C0083F01003DAB2094BC3F81C2508E0064BE6
:10532C001B68002B04D0044B1B689847012300E03A
:10533C000023184608BD00BFF003002000200040E9
:10534C0008B5064B5B68002B04D0044B5B68984790
:10535C00012300E00023184608BD00BFF003002025
:10536C0086B003900291019201238DF817309DF8BD
:10537C001730204A039B13601E4A029B53601D4A40
:10538C00019B9360039B44F20102934212D0039B56
:10539C0044F20202934220D1019B164AD360154B72
:1053AC00DB681B68134A9361124BDB685B68114A1C
:1053BC00D36112E0019B0F4A13610E4B1B699B6872
:1053CC000C4A53610B4B1B691B680A4A9361094BCE
:1053DC001B695B68074AD36100BF72B600BF00BF90
:1053EC009DF81730DBB2002BFAD162B600BF00BFBC
:1053FC0006B07047FC03002084B003900291019228
:10540C0000BF04B07047000000B587B00390029154
:10541C00019272B600BF039B44F20102934207D083
:10542C00039B44F20202934205D1019B059303E0D6
:10543C00019B049300E000BF074B1B6803F00103C2
:10544C00002B00D000BE019A02990398FFF788FF49
:10545C0000BF07B05DF804FBF0ED00E082B003463E
:10546C008DF807309DF90730002B09DB0B4A9DF9AD
:10547C000730134493F80033DBB25B09DBB20AE06C
:10548C00074A9DF8073003F00F03043B13441B7EBF
:10549C00DBB25B09DBB2184602B0704700E100E0FA
:1054AC0000ED00E072B600BF034B1B680133024AEB
:1054BC00136000BF704700BF1C040020064B1B6824
:1054CC00013B054A1360044B1B68002B01D162B6EB
:1054DC0000BF00BF704700BF1C04002000B583B0A4
:1054EC00019000F025F80346012B03D0044943201A
:1054FC0000F057F8FFF7D6FF00BF03B05DF804FBD0
:10550C00D495000000B583B003468DF8073000F049
:10551C000FF80346012B03D00449512000F041F849
:10552C00FFF7CCFF00BF03B05DF804FBD49500007F
:10553C0084B0EFF305830193019BC3F3080303933A
:10554C00039B002B0DD1EFF314830093009B02936C
:10555C00029B03F00103002B0CBF01230023DBB2E1
:10556C0000E00123184604B0704700B585B0EFF396
:10557C0005830193019BC3F308030393039B002B47
:10558C000AD0039B103B0293029B5BB21846FFF7B9
:10559C0065FF0346DBB200E00F23184605B05DF84B
:1055AC0004FB00B585B003460091ADF80630BDF89C
:1055BC0006300293009B039302AB1A46002144F27F
:1055CC000200FFF721FF00BF05B05DF804FB86B0B9
:1055DC0001900091019B53E8011F8AB2D8890244C3
:1055EC009889824228BF121A1889824202BFBFF3DF
:1055FC002F8F002307E0C2EA010243E801200028B4
:10560C00E9D14FF001038DF80F300590029104920F
:10561C00029A009B1A609DF80F30DBB2184606B058
:10562C00704784B00190019951E8013FC3EA0343EC
:10563C0041E80132002AF7D10392029300BF04B073
:10564C00704786B001900091019B53E8021F1FFA2E
:10565C00A1F2D888824202BFBFF32F8F00230DE046
:10566C00D88902449889824228BF121AC1EA0242A0
:10567C0043E802200028E8D14FF001038DF80F30E9
:10568C00059002910492029A009B1A609DF80F30CB
:10569C00DBB2184606B0704784B00190019951E80E
:1056AC00023FC3EA234341E80232002AF7D10392B6
:1056BC00029300BF04B0704784B00390029111466E
:1056CC001A460B46ADF806301346ADF80430029B73
:1056DC00002B01D10E231FE0BDF80630BDF80420CD
:1056EC00B3FBF2F101FB02F29B1A9BB2002B01D02F
:1056FC00092311E0039B029A1A60039B00225A6053
:10570C00039B00229A60039BBDF806209A81039BA1
:10571C00BDF80420DA810023184604B0704700B5A8
:10572C0085B001900091009B19460198FFF74FFF3F
:10573C000346002B07D0019B1B68009A1288134468
:10574C000393039B00E00023184605B05DF804FBAF
:10575C0000B583B001900091009B1A88009B5B8878
:10576C009A4204D10198FFF75CFF012300E000236B
:10577C00184603B05DF804FB00B585B001900091AC
:10578C00009B19460198FFF75CFF0346002B07D0DE
:10579C00019B1B68009A528813440393039B00E0FF
:1057AC000023184605B05DF804FB00B583B00190EA
:1057BC000091009B1A88009B5B889A4204D1019847
:1057CC00FFF76AFF012300E00023184603B05DF8E1
:1057DC0004FB10B487B001900091019B009A53E830
:1057EC00004F104643E8000191F0000FF7D10594EB
:1057FC0004900391059B184607B05DF8044B704765
:10580C0010B487B001900091019B009A53E8004FAF
:10581C0004EA020043E8000191F0000FF6D1059470
:10582C0004900391059B184607B05DF8044B704734
:10583C0010B487B001900091019B009A53E8004F7F
:10584C0004EB020043E8000191F0000FF6D105943F
:10585C0004900391049B184607B05DF8044B704705
:10586C0010B487B001900091019B009A53E8004F4F
:10587C0094422CBFA01A204643E8000191F0000F7F
:10588C00F4D1059404900391049B184607B05DF87D
:10589C00044B704700B583B0019000210198FFF7CD
:1058AC00AFFF0346184603B05DF804FB08B500F0E3
:1058BC0055F900BF08BD000008B500F069F9024BAE
:1058CC0000225A7000BF08BD20040020014B1B7839
:1058DC00184670472004002084B001900091019B71
:1058EC001B68039306E0039A009B9A420DD0039B1E
:1058FC001B680393039B002BF5D1019B1A68009B3B
:10590C001A60019B009A1A6000E000BF04B0704757
:10591C0000B583B00190234B1B78002B04D1224996
:10592C0040F23310FFF73DFE1E4B5B78DBB2002BD1
:10593C0012D0019B002B03D0019B5B680020984781
:10594C000020FFF7CBFD174B5B680133154A536002
:10595C000020FFF7D7FD17E00020FFF7BFFD019BEC
:10596C00002B03D001991148FFF7B6FF0D4B5B6874
:10597C00002B01D1FFF79AFF0A4B5B680133094AF0
:10598C0053600020FFF7BEFD064B5B68002B04D173
:10599C00054940F24F10FFF704FE00BF03B05DF85D
:1059AC0004FB00BF200400203C96000028040020CB
:1059BC0008B5124B1B78002B04D111494FF4AA7077
:1059CC00FFF7EFFD0D4B5B68002B04D10C4940F247
:1059DC005510FFF7E6FD0020FFF780FD074B5B68D5
:1059EC00013B064A5360054B5B68002B01D1FFF766
:1059FC0063FF0020FFF786FD00BF08BD20040020D8
:105A0C003C96000000B585B001900D4B1B78002B27
:105A1C0001D085230FE0019B002B01D1094B019391
:105A2C00019800F055FA0390039B002B02D1044B14
:105A3C0001221A70039B184605B05DF804FB00BFE9
:105A4C0034040020A096000000B583B0019000F053
:105A5C000AF8019800F06AFA00F084FA002318465C
:105A6C0003B05DF804FB08B500F083FA00F088FA87
:105A7C0000BF08BD10B487B001900091019B009A43
:105A8C0053E8004F04EA020043E8000191F0000FD4
:105A9C00F6D1059404900391059B184607B05DF868
:105AAC00044B704782B001904FF08042019BC2F8CA
:105ABC00043300BF02B0704782B001904FF08042B7
:105ACC00019BC2F8083300BF02B0704782B0034696
