:1000000000000420190200000102000003020000A9
:1000100005020000070200000902000000000000C5
:100020000000000000000000000000000B020000C3
:100030000D020000000000000F020000110200008D
:10004000130200000D0900003D1100001302000022
:10005000130200001302000013020000130200004C
:10006000130200001302000013020000490A0000FE
:10007000130200001302000013020000130200002C
:10008000130200001302000013020000130200001C
:10009000810A000013020000130200001302000096
:1000A00013020000130200001302000013020000FC
:1000B0001302000013020000000000000000000016
:1000C00013020000130200001302000013020000DC
:1000D00013020000130200001302000013020000CC
:1000E00013020000130200001302000000000000D1
:1000F00000000000130200000000000013020000D6
:1001000000000000000000000000000000000000EF
:1001100000000000000000000000000000000000DF
:1001200000000000000000000000000000000000CF
:1001300000000000000000000000000000000000BF
:1001400000000000000000000000000000000000AF
:10015000000000000000000000000000000000009F
:10016000000000000000000000000000000000008F
:10017000000000000000000000000000000000007F
:10018000000000000000000000000000000000006F
:10019000000000000000000000000000000000005F
:1001A000000000000000000000000000000000004F
:1001B000000000000000000000000000000000003F
:1001C000000000000000000000000000000000002F
:1001D000000000000000000000000000000000001F
:1001E000000000000000000000000000000000000F
:1001F00000000000000000000000000000000000FF
:10020000FEE7FEE7FEE7FEE7FEE7FEE7FEE7FEE7C6
:10021000FEE7FEE700F002B8FFF7FCBF0A484FF028
:100220000701884385460948804709480949016014
:100230000948016841F470010160BFF34F8FBFF3BB
:100240006F8F00F00BB80000000004200D0E0000BE
:1002500008ED00E00000000088ED00E0334934487C
:100260000A1A02D0072291438D46324932480A1AAF
:1002700006D00722914381F30988022282F3148871
:100280002E482F492F4A00F03FF82F482F49304A77
:1002900000F03AF82F483049304A00F035F830483D
:1002A0003049314A00F030F830483149314A00F0E5
:1002B0002BF831483149324A00F026F831483249AA
:1002C000324A00F021F832483249002200F027F883
:1002D00031483249002200F022F831483149091AE8
:1002E00005F00EF91F482049884205D00268043005
:1002F00003B4904703BCF7E700208646EC46002095
:100300000021294A9047FEE7884207D0521A05D0BB
:10031000037801300B700131013AF9D170478842FE
:1003200002D002700130FAE770470000000004209C
:1003300000E003200000042000000420805A000098
:100340000000002018000020AC030000AC030000F7
:1003500014550000805A000000000020000000201A
:1003600014550000145500001455000014550000E9
:1003700014550000145500001455000014550000D9
:10038000805A0000985A0000180000201800002031
:10039000180000203C3200203C3200203C3200207B
:0C03A0003C3200203C520020F903000019
:1003AC0008B500F029F800F031FF03F0EBFF012055
:1003BC0002F036FD024801F07FF80023184608BD14
:1003CC0014550000BFF34F8F00BF064BDB6803F4DE
:1003DC00E0620449044B1343CB60BFF34F8F00BF63
:1003EC0000BFFDE700ED00E00400FA0508B5FFF7DB
:1003FC00D7FF0346184608BD08B54FF080430022CE
:10040C00C3F800214FF0804301221A6000BF4FF067
:10041C008043D3F80031002BF9D000F0A3F800F0A2
:10042C0027F800F0DFFD00F075FA00F09FF900F0FE
:10043C0055F800F005F800BF08BD08B5FFF7C2FF7E
:10044C0082B04FF08043D3F840360193019B002BD0
:10045C000BD104E04FF080430122C3F878254FF014
:10046C008043D3F87835002BF4D000BF02B070472E
:10047C004FF0A0434FF08062C3F818254FF0A04313
:10048C004FF00062C3F818254FF0A0434FF0805294
:10049C00C3F818254FF0A0434FF00052C3F81825AD
:1004AC004FF0A0434FF08042C3F818254FF0A04303
:1004BC004FF00042C3F8182500BF70474FF0A0431F
:1004CC004FF08042C3F8082500BF70474FF0A0439F
:1004DC004FF08042C3F80C2500BF704708B52020B0
:1004EC0000F022F8182000F01FF80E4B0022C3F881
:1004FC0000250C4B2022C3F808250A4B1822C3F800
:10050C000C25084B4FF0C862C3F82425054B4FF45B
:10051C009052C3F80022034B0622C3F8002500BFFB
:10052C0008BD00BF0030004084B00190019B1F2B20
:10053C0005D84FF0A0430393019B029305E0084BB1
:10054C000393019B03F01F030293039B029A02F592
:10055C00E07240F20C6143F8221000BF04B0704707
:10056C000003005008B54FF0A0434FF40052C3F8FD
:10057C0018254FF0A0434FF48042C3F818254FF0D4
:10058C00A0434FF40042C3F818254FF0A0434FF49A
:10059C008032C3F8182500F039F800BF08BD4FF0C1
:1005AC00A0434FF40052C3F8082500BF70474FF02A
:1005BC00A043D3F8043503F40053002B06D04FF0BE
:1005CC00A0434FF40052C3F80C2505E04FF0A043B4
:1005DC004FF40052C3F8082500BF70474FF0A043FA
:1005EC004FF48042C3F8082500BF70474FF0A0437A
:1005FC004FF40042C3F8082500BF70474FF0A043EA
:10060C004FF48032C3F8082500BF704708B5FFF7D8
:10061C00EDFFFFF7E3FFFFF7F1FFFFF7C0FF00BFB0
:10062C0008BD000000B583B0FFF7F0FF00238DF884
:10063C00073010E0FFF7BBFF0023009302E0009BA4
:10064C0001330093009B084A9342F8D99DF8073078
:10065C0001338DF807309DF80730632BEAD900BFC2
:10066C0000BF03B05DF804FBFEFF010082B003463F
:10067C008DF807309DF90730002B0CDB9DF8073007
:10068C0003F01F0205499DF907305B09012000FAB0
:10069C0002F241F8232000BF02B0704700E100E0F5
:1006AC0082B003468DF807309DF90730002B13DB21
:1006BC009DF8073003F01F0209499DF907305B09CB
:1006CC00012000FA02F2203341F82320BFF34F8FB0
:1006DC0000BFBFF36F8F00BF00BF02B0704700BFF9
:1006EC0000E100E082B003468DF807309DF9073039
:1006FC00002B0DDB9DF8073003F01F0206499DF916
:10070C0007305B09012000FA02F2603341F8232024
:10071C0000BF02B0704700BF00E100E082B00346AA
:10072C0000918DF807309DF90730002B0ADB009BF8
:10073C00DAB20C499DF907305201D2B20B4483F85E
:10074C0000230BE0009BDAB207499DF8073003F059
:10075C000F03043B5201D2B20B441A7600BF02B015
:10076C00704700BF00E100E000ED00E008B5444B2D
:10077C000F22C3F81025424BD3F81435404A23F00E
:10078C000F03C2F814353E4BD3F814353C4A43F0F2
:10079C000803C2F814353A4BD3F81435384A23F011
:1007AC004073C2F81435364BD3F81435344A43F041
:1007BC000073C2F81435324BD3F81835304A23F095
:1007CC00FF03C2F818352E4BD3F818352C4A43F0DA
:1007DC007F03C2F818352A4BA722C3F86026284B92
:1007EC00D3F81435264A23F08063C2F81435244B11
:1007FC00D3F81435224A43F08063C2F81435204BE9
:10080C00D3F834351E4A23F00303C2F834351C4B9D
:10081C00D3F834351A4A43F00203C2F83435184B76
:10082C00D3F83435164A23F44073C2F83435144BDC
:10083C00D3F83435124A43F40073C2F83435104BF4
:10084C00104AC3F838250E4B0022C3F83C250C4B3C
:10085C000D4AC3F804250120FFF722FF084B44F290
:10086C000802C3F8042300210120FFF757FF0120E1
:10087C00FFF738FF0120FFF7F9FE00BF08BD00BFEE
:10088C0000100040211001002800002000B583B0AA
:10089C00184BD3F804350193174BD3F83831002B90
:1008AC0010D0154B01225A61144B1B68002B03D03E
:1008BC00124B1B68019898470F4B0022C3F8382144
:1008CC00012313E00C4BD3F80C31002B0DD00B4B48
:1008DC005B68002B03D0094B5B6801989847064B6B
:1008EC000022C3F80C21012300E00023184603B0BA
:1008FC005DF804FB00B00040001000401800002020
:10090C0008B5FFF7DBFDFFF7C1FFFFF7DFFD00BF09
:10091C0008BD000008B508220021264804F02CF977
:10092C00254B002283F80B23234B4FF400621A60F3
:10093C004FF080430122DA6000BF4FF08043D3F8C0
:10094C00183403F48033012BF7D01C4B0022C3F86E
:10095C0008254FF080430122C3F818254FF080433F
:10096C0001229A6000BF4FF08043D3F8183403F48F
:10097C008033002BF7D0114B0022C3F840210F4BD2
:10098C004FF48032C3F804230C4B01221A600A4B3B
:10099C00002283F81423084B4FF480121A60084B82
:1009AC000022C3F80021064B0122C3F8042300BF28
:1009BC0008BD00BFB000002000E100E000B0004026
:1009CC000040014084B00190154BD3F804350393DB
:1009DC00039A019BD31A23F07F434FF6FE72934286
:1009EC0006D8104B01221A600F4B01221A7114E029
:1009FC00019A039BD31A23F07F43042B06D8094B8F
:100A0C0001221A60084B02221A7106E0044A019B6B
:100A1C00C2F84035044B00221A7100BF04B0704775
:100A2C0000B0004000400140B0000020024BD3F861
:100A3C0004351846704700BF00B0004008B5FFF7FA
:100A4C003DFD0A4BD3F84031002B0AD0074B002256
:100A5C00C3F84021064B1B68002B02D0044B1B68CB
:100A6C009847FFF733FD00BF08BD00BF00B0004042
:100A7C00B000002008B5FFF721FD0A4BD3F8003178
:100A8C00002B0AD0074B0022C3F80021064B1B6831
:100A9C00002B02D0044B1B689847FFF717FD00BFD3
:100AAC0008BD00BF00400140B000002082B0164BD2
:100ABC001B680193154B1B680093019B082B1FD1DE
:100ACC00009B052B1AD801A252F823F0F10A000062
:100ADC00F50A0000F90A0000FD0A0000010B0000F5
:100AEC00050B000001230CE001230AE0012308E0C0
:100AFC00012306E0012304E0012302E0012300E0CE
:100B0C000023184602B07047300100103401001069
:100B1C0082B0164B1B680193154B1B680093019B0D
:100B2C00082B1FD1009B052B1AD801A252F823F0D9
:100B3C00550B0000590B00005D0B0000610B000011
:100B4C00650B0000690B000001230CE001230AE097
:100B5C00012308E0012306E0012304E0012302E065
:100B6C00012300E00023184602B07047300100104A
:100B7C003401001082B0164B1B680193154B1B6897
:100B8C000093019B082B1FD1009B052B1AD801A2A7
:100B9C0052F823F0B90B0000BD0B0000C10B000094
:100BAC00C50B0000C90B0000CD0B000001230CE0AD
:100BBC0000230AE0002308E0002306E0002304E001
:100BCC00002302E0002300E00023184602B0704727
:100BDC00300100103401001082B0164B1B680193D9
:100BEC00154B1B680093019B082B1FD1009B052BF9
:100BFC001AD801A252F823F01D0C0000210C0000A1
:100C0C00250C0000290C00002D0C0000310C0000FC
:100C1C0001230CE000230AE0002308E0002306E097
:100C2C00002304E0002302E0002300E00023184628
:100C3C0002B07047300100103401001082B0164B26
:100C4C001B680193154B1B680093019B082B1FD14C
:100C5C00009B052B1AD801A252F823F0810C00003E
:100C6C00850C0000890C00008D0C0000910C00001C
:100C7C00950C000001230CE000230AE0002308E09F
:100C8C00002306E0002304E0002302E0002300E040
:100C9C000023184602B070473001001034010010D8
:100CAC0082B0164B1B680193154B1B680093019B7C
:100CBC00082B1FD1009B052B1AD801A252F823F048
:100CCC00E50C0000E90C0000ED0C0000F10C00003C
:100CDC00F50C0000F90C000001230CE000230AE0E5
:100CEC00002308E0002306E0002304E0002302E0D8
:100CFC00002300E00023184602B0704730010010BA
:100D0C003401001082B0164B1B680193154B1B6805
:100D1C000093019B082B1FD1009B052B1AD801A215
:100D2C0052F823F0490D00004D0D0000510D00004C
:100D3C00550D0000590D00005D0D000001230CE065
:100D4C0001230AE0012308E0012306E0012304E06B
:100D5C00012302E0012300E00023184602B0704793
:100D6C00300100103401001082B0164B1B68019347
:100D7C00154B1B680093019B082B1FD1009B052B67
:100D8C001AD801A252F823F0AD0D0000B10D0000ED
:100D9C00B50D0000B90D0000BD0D0000C10D000027
:100DAC0000230CE000230AE0002308E0002306E007
:100DBC00012304E0012302E0012300E00023184694
:100DCC0002B07047300100103401001008B5FFF775
:100DDC00CBFF0346002B07D04FF010234FF080427F
:100DEC00D3F80832C2F8583500BF08BD024B034A8D
:100DFC001A6000BF704700BF000000200090D003B5
:100E0C0008B5FFF753FE0346002B0ED04FF080437E
:100E1C000022C3F80C214FF080430022C3F81021AC
:100E2C004FF080430022C3F83825FFF771FE0346CC
:100E3C00002B76D04FF08053624AD3F80434C2F8BA
:100E4C0020354FF080535F4AD3F80834C2F824356C
:100E5C004FF080535B4AD3F80C34C2F828354FF06E
:100E6C008053584AD3F81034C2F82C354FF08053C5
:100E7C00544AD3F81434C2F830354FF08053514AE9
:100E8C00D3F81834C2F834354FF080534D4AD3F8A8
:100E9C001C34C2F840354FF080534A4AD3F8203402
:100EAC00C2F844354FF08053464AD3F82434C2F884
:100EBC0048354FF08053434AD3F82834C2F84C35A8
:100ECC004FF080533F4AD3F82C34C2F850354FF0D2
:100EDC0080533C4AD3F83034C2F854354FF0805329
:100EEC00384AD3F83434C2F860354FF08053354A61
:100EFC00D3F83834C2F864354FF08053314AD3F804
:100F0C003C34C2F868354FF080532E4AD3F8403445
:100F1C00C2F86C354FF080532A4AD3F84434C2F8E7
:100F2C007035FFF727FE0346002B02D0264B274ACD
:100F3C001A60FFF751FE0346002B03D0244BFB2213
:100F4C00C3F81825FFF77AFE0346002B0AD0214B75
:100F5C001B6823F00F02204B1B6803F00F031D4985
:100F6C0013430B60FFF79CFE0346002B03D01B4B77
:100F7C004FF400721A60FFF7C5FE0346002B0DD02C
:100F8C004FF08043D3F8003403F00103002B05D05D
:100F9C004FF080436FF00102C3F80024104BD3F8DC
:100FAC0088300F4A43F47003C2F88830BFF34F8F78
:100FBC0000BFBFF36F8F00BFFFF708FFFFF716FFEF
:100FCC0000BF08BD00C000408C56004048810300A3
:100FDC0000F00040E40E0040580200104096024021
:100FEC0000ED00E008B50C2200211E4803F0C4FD02
:100FFC004FF0A0430322C3F818274FF0A043002260
:10100C00C3F82027184B0622C3F80C25164B0822D0
:10101C00C3F81425144B0022C3F86C25124B134A49
:10102C00C3F82425104B0022C3F81C210E4B0022C0
:10103C00C3F808210C4B8422C3F804230C4B402228
:10104C0083F802230A4B04221A60074B0422C3F8CC
:10105C000025054B01229A60034B01221A6000BF48
:10106C0008BD00BFB80000200020004000E0D70100
:10107C0000E100E082B001900091044A019B1360F2
:10108C00024A009B536000BF02B07047B8000020BA
:10109C00024B8422C3F8042300BF70470020004099
:1010AC0082B003468DF807309DF80730012B04D130
:1010BC00054B1122C3F81C2503E0034B1322C3F884
:1010CC001C2500BF02B070470020004082B00346D0
:1010DC008DF807309DF80730112B07D09DF807309D
:1010EC00132B03D09DF80730122B0BD10A4B012286
:1010FC001A72094A9DF807305372084B1222C3F832
:10110C001C2505E0054A9DF80730C2F81C3500BFC8
:10111C0000BF02B0704700BFB800002000200040A4
:10112C00024BD3F81835DBB218467047002000404C
:10113C0008B5FFF7C3F90D4BD3F80831002B05D0D8
:10114C000A4B0022C3F8082100F034F8074BD3F8FF
:10115C001C31002B05D0054B0022C3F81C2100F0DC
:10116C0007F8FFF7B3F900BF08BD00BF002000402F
:10117C0008B50E4B1B7A012B0BD10C4B00221A72AB
:10118C000A4B5B7A83F01003DAB2094BC3F81C25C7
:10119C0008E0064B1B68002B04D0044B1B689847D7
:1011AC00012300E00023184608BD00BFB800002052
:1011BC000020004008B5064B5B68002B04D0044BA4
:1011CC005B689847012300E00023184608BD00BF68
:1011DC00B800002082B003460A46ADF8063013462C
:1011EC008DF80530BDF806301B0A9AB2BDF8061012
:1011FC009DF805304B40DBB2034931F813305340B6
:10120C009BB2184602B070472055000000B583B061
:10121C0040F2DC420021234803F0AEFC214B0022BB
:10122C001A70204B00225A701E4B00229A701D4BD4
:10123C00002283F8CF201B4B002283F8D220194BBD
:10124C00002283F8CD20174B0022A3F8D624154B8F
:10125C000022A3F8D424134B002283F8D8240F21A6
:10126C00FF2000F067FF03461A460E4BDA700F2181
:10127C00FF2000F05FFF03461A460A4B1A71094B18
:10128C001879094B009300230022642100F0C2FF5F
:10129C0006490748FFF7EEFEFFF7FAFE00BF03B062
:1012AC005DF804FBC4000020611D0000512000000B
:1012BC00C11F000000B585B0034600918DF80730C2
:1012CC0013468DF8063000F05BFD532000F074FDE2
:1012DC00012002F0D9FE03465B78184600F06CFD45
:1012EC00012002F0D1FE03469B78184600F064FD05
:1012FC009DF80730184600F05FFD00238DF80F3085
:10130C000CE09DF80F30009A13441B78184600F03F
:10131C0053FD9DF80F3001338DF80F309DF80F20E1
:10132C009DF806309A42ECD300F090FD00F0EAFBF9
:10133C000023184605B05DF804FB000010B586B01C
:10134C000446084611461A4623468DF80F300346CC
:10135C008DF80E300B468DF80D301346ADF80A3073
:10136C009DF80F30013B052B35D801A252F823F024
:10137C00BD130000B5130000AD130000A513000051
:10138C009D1300009513000056238DF8173024E0B0
:10139C0049238DF8173020E057238DF817301CE0C7
:1013AC0055238DF8173018E045238DF8173014E0CD
:1013BC0043238DF81730FFF735F901F0E7F9049066
:1013CC000F4BD8780F4B00930023049A42F2107104
:1013DC0001F082F801E001230EE0BDF80A409DF80F
:1013EC000D209DF80E109DF81700BDF820300093CD
:1013FC00234600F0E7FB0346184606B010BD00BFBD
:10140C00C4000020771D000000B585B001900B468C
:10141C008DF8033002AB184601F07CFC00F0B0FCF8
:10142C00442000F0C9FC012002F02EFE03465B783C
:10143C00184600F0C1FC012002F026FE03469B7802
:10144C00184600F0B9FC9DF80830184600F0B4FCC2
:10145C009DF80930184600F0AFFC9DF80A3018468C
:10146C0000F0AAFC9DF80B30184600F0A5FC9DF886
:10147C000C30184600F0A0FC00238DF80F300CE067
:10148C009DF80F30019A13441B78184600F094FC19
:10149C009DF80F3001338DF80F309DF80F209DF81B
:1014AC0003309A42ECD300F0D1FC00F02BFB00236C
:1014BC00184605B05DF804FB0FB400B58FB08D4B2A
:1014CC000A9311AB009301AB184601F023FC00F01A
:1014DC0057FC462000F070FC012002F0D5FD0346BD
:1014EC005B78184600F068FC012002F0CDFD034645
:1014FC009B78184600F060FC00238DF837300DE027
:10150C009DF8373038336B4413F8343C184600F0F0
:10151C0053FC9DF8373001338DF837309DF8373058
:10152C00042BEDD9109B0C93D4E00C9B1B78252B32
:10153C0040F0C8800C9B01330C930C9B1B78252B23
:10154C0000F0AC80252BC0F2AD80782B00F3AA8084
:10155C00632BC0F2A780633B152B00F2A38001A282
:10156C0052F823F0C915000007160000B116000050
:10157C00B1160000B1160000B1160000B116000043
:10158C00B1160000B1160000B1160000B116000033
:10159C00B1160000B116000073160000B116000061
:1015AC00B1160000E1150000B1160000B1160000E4
:1015BC00B1160000B11600003D160000009B1A1D6C
:1015CC0000921B688DF81F309DF81F30184600F0F4
:1015DC00F3FB7CE0009B1A1D00921B680B9307E049
:1015EC000B9B1B78184600F0E7FB0B9B01330B930E
:1015FC000B9B1B78002BF3D169E0009B1A1D00920A
:10160C001B68099303A8099B3B4A102103F0A4FB18
:10161C0003AB0B9307E00B9B1B78184600F0CCFB3D
:10162C000B9B01330B930B9B1B78002BF3D14EE0E0
:10163C00009B1A1D00921B68099303A8099B2F4A53
:10164C00102103F089FB03AB0B9307E00B9B1B787A
:10165C00184600F0B1FB0B9B01330B930B9B1B78D3
:10166C00002BF3D133E0009B1A1D00921B680893EA
:10167C0003A8089B224A102103F06EFB03AB0B93CB
:10168C0007E00B9B1B78184600F096FB0B9B013375
:10169C000B930B9B1B78002BF3D118E0252000F04B
:1016AC008BFB14E00A9B0B9307E00B9B1B781846F3
:1016BC0000F082FB0B9B01330B930B9B1B78002BD5
:1016CC00F3D104E00C9B1B78184600F075FB0C9BC7
:1016DC0001330C930C9B1B78002B7FF426AF00F08E
:1016EC00B5FB00F00FFA002318460FB05DF804EBC1
:1016FC0004B07047205700004057000044570000CA
:10170C00485700000FB400B58DB0784B09930FAB60
:10171C00019300F035FB462000F04EFB0E9B0B9323
:10172C00D4E00B9B1B78252B40F0C8800B9B01331E
:10173C000B930B9B1B78252B00F0AC80252BC0F258
:10174C00AD80782B00F3AA80632BC0F2A780633B9B
:10175C00152B00F2A38001A252F823F0C117000050
:10176C00FF170000A9180000A9180000A918000014
:10177C00A9180000A9180000A9180000A918000059
:10178C00A9180000A9180000A9180000A918000049
:10179C006B180000A9180000A9180000D917000048
:1017AC00A9180000A9180000A9180000A918000029
:1017BC0035180000019B1A1D01921B688DF81B3017
:1017CC009DF81B30184600F0F7FA7CE0019B1A1DBF
:1017DC0001921B680A9307E00A9B1B78184600F0DD
:1017EC00EBFA0A9B01330A930A9B1B78002BF3D16B
:1017FC0069E0019B1A1D01921B68089302A8089BC3
:10180C003B4A102103F0A8FA02AB0A9307E00A9BAB
:10181C001B78184600F0D0FA0A9B01330A930A9BF6
:10182C001B78002BF3D14EE0019B1A1D01921B6813
:10183C00089302A8089B2F4A102103F08DFA02ABE3
:10184C000A9307E00A9B1B78184600F0B5FA0A9B2E
:10185C0001330A930A9B1B78002BF3D133E0019BD5
:10186C001A1D01921B68079302A8079B224A10219C
:10187C0003F072FA02AB0A9307E00A9B1B78184636
:10188C0000F09AFA0A9B01330A930A9B1B78002BEF
:10189C00F3D118E0252000F08FFA14E0099B0A938D
:1018AC0007E00A9B1B78184600F086FA0A9B013366
:1018BC000A930A9B1B78002BF3D104E00B9B1B783B
:1018CC00184600F079FA0B9B01330B930B9B1B789A
:1018DC00002B7FF426AF00F0B9FA00F013F90023C7
:1018EC0018460DB05DF804EB04B0704720570000AB
:1018FC0040570000445700004857000000B583B023
:10190C0072B600BF524B9B788DF8073062B600BFA1
:10191C004F4BB3F8D4244E4BB3F8D6349A4240F024
:10192C0093809DF8073001338DF807309DF8073010
:10193C000D2B02D100238DF807309DF807300C2BAE
:10194C005DD801A252F823F0891900009319000008
:10195C009D190000A7190000B1190000BB19000067
:10196C00C5190000CF190000D9190000E3190000B7
:10197C00ED190000F7190000011A000001F0A6F99A
:10198C000346012B3FD002F0B1FC0346012B3CD0A7
:10199C0002F08DF80346012B39D000F0F5F8034620
:1019AC00012B36D001F072F90346012B33D001F034
:1019BC00A5F90346012B30D001F0B8FD0346012BED
:1019CC002DD001F057FE0346012B2AD002F0FCFC6F
:1019DC000346012B27D001F01DFD0346012B24D01B
:1019EC0002F07CF80346012B21D002F0ABFC03463D
:1019FC00012B1ED001F008FA0346012B1BD000234B
:101A0C008DF8073018E000BF16E000BF14E000BFEF
:101A1C0012E000BF10E000BF0EE000BF0CE000BF02
:101A2C000AE000BF08E000BF06E000BF04E000BF12
:101A3C0002E000BF00E000BF72B600BF044A9DF890
:101A4C000730937062B600E000BF03B05DF804FB92
:101A5C00C400002082B072B600BF074B93F8CD30A3
:101A6C008DF8073062B600BF9DF80730013BDBB242
:101A7C00184602B0704700BFC400002000B587B004
:101A8C0003900B468DF80B3072B600BF1B4B93F8CE
:101A9C00CD308DF8163062B600BF9DF80B209DF846
:101AAC001630013B9A4212DA9DF80B309AB29DF82F
:101ABC0016309BB2013B9BB200931346412204218A
:101ACC000220FFF73BFC00238DF817300FE09DF848
:101ADC001630013B8DF8173072B600BF9DF81730E9
:101AEC001A460749039803F011F862B600BF9DF837
:101AFC001730184607B05DF804FB00BFC400002087
:101B0C00CA00002008B572B600BF1E4B93F8D8343B
:101B1C00002B33D11B4B5B78012B0ED1194B1B784F
:101B2C00012B03D10020FFF7BBFA02E00120FFF7E5
:101B3C00B7FA144B00225A7020E0124B1B78012B81
:101B4C001CD0104BB3F8D4240E4BB3F8D6349A42B5
:101B5C0014D00C4BB3F8D6345A1C91B2094AA2F8E3
:101B6C00D614C3F30903074A134493F8D330184629
:101B7C00FFF7ACFA034B012283F8D82462B600BFFE
:101B8C0000BF08BDC400002000B583B072B600BF12
:101B9C000B4BB3F8D434ADF80430094BB3F8D6344E
:101BAC00ADF8063062B600BF01AB04221946032023
:101BBC00FFF780FB0123184603B05DF804FB00BF60
:101BCC00C400002010B582B00446084611461A46DF
:101BDC0023468DF8073003468DF806300B468DF8FA
:101BEC0005301346ADF8023000F0CAF89DF8073006
:101BFC00184600F0E1F8012002F046FA03465B7843
:101C0C00184600F0D9F8012002F03EFA03469B7802
:101C1C00184600F0D1F89DF80630184600F0CCF8C4
:101C2C009DF80530184600F0C7F8BDF802301B0AC5
:101C3C009BB2DBB2184600F0BFF8BDF80230DBB245
:101C4C00184600F0B9F8BDF810301B0A9BB2DBB295
:101C5C00184600F0B1F8BDF81030DBB2184600F0B1
:101C6C00ABF800F0F3F8FFF74DFF0023184602B075
:101C7C0010BD000000B583B02A4B5B798DF807309E
:101C8C009DF80730443B0F2B48D801A252F823F0A3
:101C9C00E91C0000291D0000291D0000291D000061
:101CAC00291D0000291D0000291D0000291D000010
:101CBC00291D0000031D0000291D0000291D000026
:101CCC00291D0000E31C0000DD1C0000EF1C0000BF
:101CDC0002F082FA22E0FEF7B0FB1FE001F0A5FF54
:101CEC001CE0104B93F8CD30013BDBB219460E488B
:101CFC0000F020F812E00D4B1B68002B0AD00B4BA8
:101D0C001B68084A92F8CD20013AD2B21146064817
:101D1C00984702E00648FFF7F5FC00BF00BF03B090
:101D2C005DF804FBC4000020CA000020C409002098
:101D3C004C57000000B583B001900B468DF8033072
:101D4C009DF8033019460198FFF75EFB00BF03B006
:101D5C005DF804FB00B583B003468DF80730FFF740
:101D6C00CDFD00BF03B05DF804FB00B583B00346A6
:101D7C008DF80730FEF761FB00BF03B05DF804FB84
:101D8C0072B600BF0B4B4FF6FF72A3F8DA24094B67
:101D9C00B3F8D4345A1C91B2064AA2F8D414C3F343
:101DAC000903044A13447E2283F8D32062B600BF91
:101DBC0000BF7047C400002000B583B003468DF807
:101DCC00073072B600BF204BB3F8DA349DF8072009
:101DDC0011461846FFF7FEF903461A461A4BA3F8AC
:101DEC00DA249DF807307E2B03D09DF807307D2B2D
:101DFC0014D1154BB3F8D4345A1C91B2124AA2F830
:101E0C00D414C3F30903104A13447D2283F8D3205E
:101E1C009DF8073083F020038DF807300A4BB3F898
:101E2C00D4345A1C91B2084AA2F8D414C3F309034F
:101E3C00054A13449DF8072083F8D32062B600BFEF
:101E4C0000BF03B05DF804FBC400002000B583B0F4
:101E5C0072B600BF144BB3F8DA34DB43ADF806307E
:101E6C00BDF80630DBB21846FFF7A6FFBDF806300A
:101E7C001B0A9BB2DBB21846FFF79EFF0A4BB3F866
:101E8C00D4345A1C91B2084AA2F8D414C3F30903EF
:101E9C00054A13447E2283F8D32062B600BF00BFEC
:101EAC0003B05DF804FB00BFC4000020054B00220A
:101EBC0083F8CD20034B4FF6FF72A3F8D02000BF60
:101ECC00704700BFC400002000B583B003468DF8F6
:101EDC0007309DF807307D2B04D11B4B012283F872
:101EEC00D2202DE0184B93F8D230012B09D19DF85C
:101EFC00073083F020038DF80730134B002283F852
:101F0C00D220114B93F8CD301A460F4B13449DF849
:101F1C0007205A710C4B93F8CD300133DAB20A4BCF
:101F2C0083F8CD20084BB3F8D0309DF8072011462C
:101F3C001846FFF74FF903461A46034BA3F8D02077
:101F4C0000BF03B05DF804FBC40000200A4BB3F8DB
:101F5C00D0304FF2B802934208D1074B93F8CD30F2
:101F6C00023BDAB2044B83F8CD2003E0024B002293
:101F7C0083F8CD2000BF7047C400002000B583B0AB
:101F8C00002300930023432204210220FFF7D6F9FB
:101F9C0000BF03B05DF804FB00B583B000230093D1
:101FAC000023422204210220FFF7C8F900BF03B02E
:101FBC005DF804FB08B5224B5B78012B12D1204B4A
:101FCC001B78012B07D10020FFF76AF81C4B00226D
:101FDC0083F8D82402E00120FFF762F8184B0022A6
:101FEC005A702AE0164B1B78012B04D1144B00229B
:101FFC0083F8D82421E0124BB3F8D424104BB3F857
:10200C00D6349A4215D00E4BB3F8D6345A1C91B232
:10201C000B4AA2F8D614C3F30903094A134493F8E4
:10202C00D3301846FFF752F8054B012283F8D82419
:10203C0003E0034B002283F8D82400BF08BD00BF87
:10204C00C400002000B583B000238DF80730FFF7E3
:10205C0067F803468DF80630334B93F8CF30002BDE
:10206C0014D1314B93F8CE307E2B0FD19DF8063026
:10207C007E2B0BD02C4B012283F8CF20FFF716FFC1
:10208C009DF806301846FFF71FFF41E0264B93F8EA
:10209C00CF30012B1AD19DF806307E2B16D09DF82F
:1020AC0006301846FFF710FF1F4B93F8CD30C72BA7
:1020BC002ED90F211D4800F06FFB1B4B002283F81B
:1020CC00CD20194B002283F8CF2021E0164B93F83A
:1020DC00CF30012B1CD19DF806307E2B18D1FFF789
:1020EC0035FF114B002283F8CF200F4B93F8CD30E6
:1020FC00002B04D10F210E4800F04EFB08E0FFF737
:10210C00B9FD094B002283F8CD2001238DF807304F
:10211C00054A9DF8063082F8CE309DF807301846F7
:10212C0003B05DF804FB00BFC4000020891F000051
:10213C00A51F000084B003460A468DF807301346ED
:10214C008DF8063072B600BF9DF80730012B03D016
:10215C009DF80730002B1BD19DF807202C49134606
:10216C00DB009B1A9B000B4411331B78002B0FD107
:10217C009DF8072026491346DB009B1A9B000B4455
:10218C00113301221A7062B600BF9DF807303BE094
:10219C009DF80730FF2B34D102238DF80F302CE043
:1021AC009DF80F201A491346DB009B1A9B000B4429
:1021BC0011331B78002B1BD19DF80F2014491346AB
:1021CC00DB009B1A9B000B44113301221A709DF803
:1021DC000F200F491346DB009B1A9B000B4418334E
:1021EC009DF806201A7062B600BF9DF80F300BE008
:1021FC009DF80F3001338DF80F309DF80F300E2BFA
:10220C00CED962B600BFFF23184604B0704700BF9A
:10221C00A005002010B586B0009111461A46034661
:10222C008DF807300B468DF8063013468DF80530C7
:10223C0000238DF8173016E09DF81720A54913469A
:10224C00DB009B1A9B000B4411331B78002B05D031
:10225C009DF817209DF807309A4209D09DF8173049
:10226C0001338DF817309DF817300E2BE4D900E0B0
:10227C0000BF9DF817300F2B00F0288172B600BFFD
:10228C009DF8072093491346DB009B1A9B000B44D7
:10229C0012339DF805201A709DF80630002B02D0E1
:1022AC00012B26D045E09DF8072000990B465B01D9
:1022BC00194488481346DB009B1A9B0003441960A1
:1022CC00009A13465B011A4440F20113A3FB02135C
:1022DC00D21A52081344DB0D9DF8072098B27D49A1
:1022EC001346DB009B1A9B000B44083302461A80F2
:1022FC001FE09DF8072077491346DB009B1A9B00D3
:10230C000B44009A1A60009A40F20113A3FB0213CB
:10231C00D21A52081344DB0D9DF8072098B26D4970
:10232C001346DB009B1A9B000B44083302461A80B1
:10233C0000BF9DF8072067491346DB009B1A9B00E2
:10234C000B4408331B88002B19D19DF807206149D9
:10235C001346DB009B1A9B000B441C68FEF766FBC4
:10236C00034623449DF8072023F07F415948134628
:10237C00DB009B1A9B0003440433196012E0FEF748
:10238C0055FB034603F1FF1303F57F439DF807202C
:10239C0023F07F414F481346DB009B1A9B000344FC
:1023AC00043319609DF807204A491346DB009B1A39
:1023BC009B000B44103301221A709DF807204549ED
:1023CC001346DB009B1A9B000B441433089A1A60CB
:1023DC00404B93F8B031002B72D100238DF817309D
:1023EC0004E09DF8173001338DF817309DF8172055
:1023FC0038491346DB009B1A9B000B4410331B78A7
:10240C00002BEED09DF8172032491346DB009B1AA7
:10241C009B000B4404331A682E4BD3F8AC31D31AFF
:10242C0023F07F4304939DF817308DF816309DF8F8
:10243C00163001338DF817302BE09DF81720254905
:10244C001346DB009B1A9B000B4410331B78002BAC
:10245C001AD09DF817201F491346DB009B1A9B00CE
:10246C000B4404331A681B4BD3F8AC31D31A23F04A
:10247C007F430393039A049B9A4205D2039B0493D4
:10248C009DF817308DF816309DF8173001338DF804
:10249C0017309DF817300E2BCFD99DF816200D490B
:1024AC001346DB009B1A9B000B4404331B68094A40
:1024BC00C2F8A831074BD3F8A8311846FEF782FAB8
:1024CC00044B012283F8A42162B600E000BF06B0E1
:1024DC0010BD00BFA005002000B589B0029101928B
:1024EC001A4603468DF80F3013468DF80E30002334
:1024FC008DF81F3016E09DF81F20A3491346DB0012
:10250C009B1A9B000B4411331B78002B05D09DF8B4
:10251C001F209DF80F309A4209D09DF81F300133CF
:10252C008DF81F309DF81F300E2BE4D900E000BF52
:10253C009DF81F300F2B00F0238172B600BF9DF861
:10254C000F2091491346DB009B1A9B000B4412335E
:10255C0001221A709DF80E30002B02D0012B26D0D0
:10256C0045E09DF80F2002990B465B011944864803
:10257C001346DB009B1A9B0003441960029A134616
:10258C005B011A4440F20113A3FB0213D21A520846
:10259C001344DB0D9DF80F2098B27B491346DB00EA
:1025AC009B1A9B000B44083302461A801FE09DF8CF
:1025BC000F2075491346DB009B1A9B000B44029AB3
:1025CC001A60029A40F20113A3FB0213D21A5208AA
:1025DC001344DB0D9DF80F2098B26B491346DB00BA
:1025EC009B1A9B000B44083302461A8000BF9DF8CF
:1025FC000F2065491346DB009B1A9B000B440833E4
:10260C001B88002B17D19DF80F205F491346DB0068
:10261C009B1A9B000B441A68019B13449DF80F20D6
:10262C0023F07F4158481346DB009B1A9B00034460
:10263C000433196010E0019B03F1FF1303F57F4392
:10264C009DF80F2023F07F414F481346DB009B1A67
:10265C009B000344043319609DF80F204A4913462C
:10266C00DB009B1A9B000B44103301221A709DF85F
:10267C000F2045491346DB009B1A9B000B44143377
:10268C000A9A1A60404B93F8B031002B72D1002398
:10269C008DF81F3004E09DF81F3001338DF81F308A
:1026AC009DF81F2038491346DB009B1A9B000B44F6
:1026BC0010331B78002BEED09DF81F2032491346A7
:1026CC00DB009B1A9B000B4404331A682E4BD3F887
:1026DC00AC31D31A23F07F4306939DF81F308DF84D
:1026EC001E309DF81E3001338DF81F302BE09DF805
:1026FC001F2025491346DB009B1A9B000B4410330B
:10270C001B78002B1AD09DF81F201F491346DB00A5
:10271C009B1A9B000B4404331A681B4BD3F8AC3147
:10272C00D31A23F07F430593059A069B9A4205D250
:10273C00059B06939DF81F308DF81E309DF81F30B9
:10274C0001338DF81F309DF81F300E2BCFD99DF81B
:10275C001E200D491346DB009B1A9B000B440433CF
:10276C001B68094AC2F8A831074BD3F8A8311846A0
:10277C00FEF728F9044B012283F8A42162B600E08D
:10278C0000BF09B05DF804FBA005002008B5FEF7FA
:10279C004DF90346184608BD00B585B001900B46AF
:1027AC008DF8033072B600BF1D4B039302E0039B00
:1027BC000C330393039B1B68002B03D0039B194A18
:1027CC009342F4D9039B174A934203D9FDF72AFF8E
:1027DC00FDF733FE039B019A1A60039B9DF80320BF
:1027EC001A71114B029303E0029B1B68083302938E
:1027FC00029B1B68002B06D0029B1B681A79039B5B
:10280C001B799A42F0D9029B1A68039B9A60029B2F
:10281C00039A1A6062B600BF00BF05B05DF804FBF6
:10282C0054070020C0070020CC07002000B589B059
:10283C000390084611461A4603468DF80B300B469A
:10284C008DF80A3013468DF8093000238DF81E30B0
:10285C0000238DF81A30FF238DF81B30039B93F85F
:10286C00A530002B14BF01230023DBB28DF81930E7
:10287C00039A039B52689A659DF80A30012B15D177
:10288C0001238DF81E3003AB0221184602F0A6F886
:10289C000346012B00F09381039B5B6800221A70A6
:1028AC00039B5B6801333F221A7025E0039BB3F94D
:1028BC000830002B19D09DF81A30012B1CD10123A4
:1028CC008DF81E3003AB0221184602F087F8034640
:1028DC00012B00F07681039B5B6880221A70039BAE
:1028EC005B6801333F221A7006E09DF80B30022B17
:1028FC0002D101238DF81E309DF80B30022B54D1E0
:10290C0000F038FA0346ADF8163003AB0221184636
:10291C0002F064F80346012B00F05581BDF8163027
:10292C001A461201D31A5B009BB2ADF81630BDF8F3
:10293C001630C3F30B03ADF81C30039B93F8A03097
:10294C00002B07D0BDF81C306FEA43436FEA5343AA
:10295C00ADF81C30039B5B68BDF81C20D2B21A701A
:10296C00BDF81C301B0A9AB2039B5B680133D2B2D0
:10297C001A7003AB0221184602F030F80346012B03
:10298C0000F0238140F60273ADF81430039B5B68B2
:10299C00BDF81420D2B21A70BDF814301B0A9AB2CA
:1029AC00039B5B680133D2B21A709DF81930002B6F
:1029BC0007D0039B184600F05DF90346012B00F08D
:1029CC000681022001F060FB014603AB0122184690
:1029DC0001F09AFF0346012B00F0FB800A9801F0EE
:1029EC00E8FE0346002B1AD003AB0121184601F078
:1029FC00F5FF0346012B00F0EE80039B5B68FF2282
:102A0C001A7003AB0121184601F0E8FF0346012BB5
:102A1C0000F0E380039B5B68FF221A701AE00A9BAC
:102A2C001B78013B012B09D803AB01220A991846EC
:102A3C0001F06AFF0346012B0BD1D7E00A9B1B78F0
:102A4C009BB2012200924B2208210120FEF776FC5A
:102A5C0000E000BF039A039B5268C3F8982004203F
:102A6C0001F012FB014603AB0122184601F04CFFAA
:102A7C000346012B00F0B38003AB0121184601F093
:102A8C00ADFF0346012B00F0AC80039B5B689DF807
:102A9C0009201A7003AB0121184601F09FFF034671
:102AAC00012B00F0A08000238DF81F300A9801F054
:102ABC0080FE0346002B09D09DF81F3043F008031D
:102ACC008DF81F3002238DF81B301AE00A9B1B78FF
:102ADC00012B02D0022B0AD013E09DF81F3043F0DB
:102AEC0008038DF81F3002238DF81B3009E09DF888
:102AFC001F3043F00C038DF81F3003238DF81B306F
:102B0C0000BF9DF81F3063F03F038DF81F309DF818
:102B1C001E305B005AB29DF91F3013435BB28DF827
:102B2C001F309DF81F3043F020038DF81F30039B9E
:102B3C005B689DF81F201A7003AB0121184601F049
:102B4C004DFF0346012B50D000238DF81F309DF80C
:102B5C001F209DF80B3013438DF81F309DF8193052
:102B6C00DB005AB29DF91F3013435BB28DF81F3056
:102B7C009DF80B30022B0CD00A9801F01AFE03467C
:102B8C00002B06D19DF81F3043F020038DF81F3029
:102B9C0000E000BF9DF81B30022B06D19DF81F30C2
:102BAC0043F040038DF81F3002E09DF81B30032BDF
:102BBC00039B5B689DF81F201A70002317E000BF71
:102BCC0014E000BF12E000BF10E000BF0EE000BF39
:102BDC000CE000BF0AE000BF08E000BF06E000BF49
:102BEC0004E000BF02E000BF00E000BF0123184674
:102BFC0009B05DF804FB0000014BDB7C1846704704
:102C0C00D007002010B483B0034600918DF8073034
:102C1C00094A9DF807309370074B009A03331468E8
:102C2C0050689168D2681C6058609960DA6000BF87
:102C3C0003B05DF8044B7047D007002010B483B08C
:102C4C00034600918DF80730094A9DF80730D3747C
:102C5C00074B009A03F114041346186859689A68D4
:102C6C00DB680FC400BF03B05DF8044B704700BFB6
:102C7C00D007002082B001900023184602B07047A4
:102C8C0082B001900023184602B0704700B583B0A3
:102C9C000D4B1B788DF800300B4BB3F801309BB209
:102CAC00ADF80130084BB3F803309BB2ADF80330EC
:102CBC006B46052219460420FEF7FCFA0123184640
:102CCC0003B05DF804FB00BFF407002000B583B02F
:102CDC0000238DF80730084B1B7C8DF807300DF165
:102CEC000703012219460020FEF7E4FA01231846D7
:102CFC0003B05DF804FB00BFF407002008B50F22F9
:102D0C0003490520FEF7D6FA0123184608BD00BF7B
:102D1C00AC09002082B00190154BB3F803309BB284
:102D2C00DAB2019B1A70124BB3F803309BB21B0A38
:102D3C009AB2019B0133D2B21A700D4BB3F8013029
:102D4C009AB2019B0233D2B21A70094BB3F801301C
:102D5C009BB21B0A9AB2019B0333D2B21A70019B2D
:102D6C000433034A12781A7000BF02B0704700BFD8
:102D7C00F407002082B0054BB3F8A031ADF8063053
:102D8C00BDF80630184602B0704700BFF4070020AB
:102D9C00014B1B7C18467047F407002084B001904F
:102DAC00019BDB799BB21B029AB2019B1B7A9BB2F3
:102DBC001344ADF80E30BDF80E30074AA2FB0312D7
:102DCC005209642101FB02F29B1A9BB201339BB2A4
:102DDC00184604B0704700BF1F85EB5184B00190BA
:102DEC00019BDB799BB21B029AB2019B1B7A9BB2B3
:102DFC001344ADF80E30BDF80E30DBB203F00F0308
:102E0C00DBB2184604B0704708B5022203490C2007
:102E1C00FEF750FA0123184608BD00BFBC0900207C
:102E2C0000B583B003468DF807309DF80730012BB1
:102E3C0002D100F029F900BF00BF03B05DF804FB1C
:102E4C0082B0019072B600BF034A019B136062B658
:102E5C0000BF00BF02B07047C009002082B00190D3
:102E6C0072B600BF034A019B136062B600BF00BF7D
:102E7C0002B07047C409002000B583B0034600912E
:102E8C00ADF8063013468DF805300348FEF714FBF9
:102E9C0000BF03B05DF804FB8057000010B588B08C
:102EAC0001900B468DF803305448FEF72BFC0023A1
:102EBC008DF81F3000238DF81E305CE09DF81E400D
:102ECC00102001F0BFFA0246A30020336B4443F8F4
:102EDC00182C9DF81E309B0020336B4453F8183C83
:102EEC00002B06D19DF81E3019464548FEF70AFC0A
:102EFC0081E09DF81F30019A13441B788DF81B302C
:102F0C009DF81E309B0020336B4453F8183C5868D6
:102F1C009DF81F30019A13449DF81B20194601F0AF
:102F2C00F5FD9DF81F209DF81B3013448DF81F30C4
:102F3C009DF81E3002AA9B0013440121184601F093
:102F4C004DFD0346012B06D19DF81E3019462D4828
:102F5C00FEF7D8FB4FE09DF81E309B0020336B44EE
:102F6C0053F8183C5B689DF803201A709DF81E30CE
:102F7C0001338DF81E309DF81E30032B9ED9002393
:102F8C008DF81D3033E09DF81D3019461E48FEF7B4
:102F9C00B9FB00238DF81C3014E09DF81D309B000C
:102FAC0020336B4453F8183C5A689DF81C3013447A
:102FBC001B7819461548FEF7A5FB9DF81C3001330C
:102FCC008DF81C309DF81D309B0020336B4453F85A
:102FDC00183C5B681B789DF81C209A42DDD30C488A
:102FEC00FEF790FB9DF81D3001338DF81D309DF8D8
:102FFC001D30032BC7D908B010BD00BF945700007B
:10300C00B0570000D0570000F857000010580000CF
:10301C001858000000B583B001900B468DF80330B2
:10302C000348FEF76FFB00BF03B05DF804FB00BF65
:10303C001C58000000B585B001900B468DF803308C
:10304C00019B1B788DF80F309DF80F30002B02D0B0
:10305C00012B09D013E0019B01339DF80F20114681
:10306C001846FFF71BFF0AE0019B5A1C9DF8033022
:10307C00013BDBB219461046FFF7CCFF00BF00BF87
:10308C0005B05DF804FB000010B584B000238DF88A
:10309C000F304EE09DF80F202C4913465B00134473
:1030AC005B000B44023318889DF80F202749134608
:1030BC005B0013445B000B44043319789DF80F201C
:1030CC00224C13465B0013445B0023441B88019382
:1030DC00009100230022022100F026FB9DF80F2016
:1030EC001A4913465B0013445B000B4402331B88E4
:1030FC00043398B29DF80F20144913465B00134417
:10310C005B000B44043319789DF80F200F4C1346C9
:10311C005B0013445B0023441B8801930091002344
:10312C000022012100F000FB9DF80F3001338DF8D7
:10313C000F309DF80F30032BACD90548FFF780FEFC
:10314C000448FFF78BFE00BF04B010BD68570000A9
:10315C00852E00004130000082B003468DF8073008
:10316C009DF80720064913469B001344DB009B1A6D
:10317C000B4416331B889BB2184602B0704700BF35
:10318C00C809002082B003468DF807309DF807204F
:10319C00054913469B001344DB009B1A0B44233355
:1031AC001B78184602B07047C809002082B003464D
:1031BC008DF807309DF807200E4913469B001344E9
:1031CC00DB009B1A0B4403331B78002B0DD09DF8AE
:1031DC000720084913469B001344DB009B1A0B4441
:1031EC001B78002B01D0012300E00023DBB2184632
:1031FC0002B07047C809002084B003468DF8073030
:10320C009DF80720114913469B001344DB009B1AC1
:10321C000B441B78012B10D19DF807200B4913464A
:10322C009B001344DB009B1A0B441A331B78102BA6
:10323C0003D901238DF80F3002E000238DF80F30F5
:10324C009DF80F30184604B0704700BFC809002025
:10325C0000B587B003900B468DF80B3013468DF8F4
:10326C000A3000238DF817309DF80B30022B1FD13C
:10327C00039B581C9DF80A2013469B001344DB004B
:10328C009B1A144A134406330822194601F03EFCDB
:10329C00039B02221A709DF80A200E4913469B00CC
:1032AC001344DB009B1A0B441B788DF817300AE093
:1032BC009DF80B309BB2022200924B220D21012073
:1032CC00FEF73CF800BF9DF81730184607B05DF8C4
:1032DC0004FB00BFC809002082B003460A468DF8E3
:1032EC00073013468DF806309DF807200649134623
:1032FC009B001344DB009B1A0B4402339DF8062001
:10330C001A7000BF02B07047C809002084B0034691
:10331C008DF807309DF807203D4913469B00134458
:10332C00DB009B1A0B441B331B78002B38D19DF808
:10333C000720374913469B001344DB009B1A0B44B0
:10334C001A331B78042B26D99DF8072030491346D5
:10335C009B001344DB009B1A0B441A331B780F2B76
:10336C0014D89DF807202A4913469B001344DB0010
:10337C009B1A0B441A331B781A4613465B001344F2
:10338C00023B9BB21B02ADF80E303BE04FF6FF73D5
:10339C00ADF80E3036E04FF42063ADF80E3031E06E
:1033AC009DF807201A4913469B001344DB009B1A17
:1033BC000B441A331B789B020293029A13465B0050
:1033CC0013441B0218469DF80720114913469B0015
:1033DC001344DB009B1A0B441B331B78B0FBF3F339
:1033EC000293029BA3F500230293029BB3F1806F1F
:1033FC0004D34FF6FF73ADF80E3003E0029B9B0A2B
:10340C00ADF80E30BDF80E30184604B0704700BF52
:10341C00C8090020F0B58BB0234B93F894345A1C98
:10342C00224B83FB021313441911D317C91A0B46F1
:10343C001B015B1A5B00D11ACAB21B4B83F8942494
:10344C00194B93F894348DF80030174B93F894344F
:10345C001A46154913469B001344DB009B1A0B4478
:10346C000DF1010003F12004024619460F684E6865
:10347C008D68C968176056609560D1601033103044
:10348C00A342F1D102461968116099889B79918009
:10349C0093716B46282219460920FDF70BFF012377
:1034AC0018460BB0F0BD00BFC80900208988888879
:1034BC0000B589B00023ADF81C301B4BB3F8E038D5
:1034CC00002B02D1652000F0EFF8002000F008F985
:1034DC00012000F017F902AB11220021184601F06F
:1034EC004BFB06238DF80830BDF81C30ADF81E30B0
:1034FC000FE0BDF81E0002AB0193002300930023E4
:10350C000122032100F010F9BDF81E300133ADF893
:10351C001E30BDF81C20BDF81E309A42E9D200BF07
:10352C0000BF09B05DF804FB600E002030B589B017
:10353C004F4B93F8E83801334D4AB2F8E22893FB2D
:10354C00F2F101FB02F29B1ADAB2494B83F8E8283C
:10355C00474B93F8E8388DF80030454B93F8E83832
:10356C001946434A6C2301FB03F313441B88ADF843
:10357C0001303F4B93F8E83819463D4A6C2301FB68
:10358C0003F3134402331B788DF80330384B93F854
:10359C00E8381946364A6C2301FB03F31344033312
:1035AC001B788DF80430324B93F8E8381946304AC2
:1035BC006C2301FB03F3134405331B788DF80530A2
:1035CC002B4B93F8E8381A466C2302FB03F3284A7A
:1035DC0013449A1D0DF10603156854689068D16860
:1035EC001D605C609860D960127C1A74204B93F853
:1035FC00E83819461E4A6C2301FB03F313441733B6
:10360C001B788DF817301A4B93F8E8381946184A7E
:10361C006C2301FB03F3134418331B788DF818301B
:10362C00134B93F8E8381946114A6C2301FB03F34A
:10363C00134419331B788DF819300D4B93F8E83877
:10364C001A466C2302FB03F31833094A13449A1CE1
:10365C000DF11A031168196012791A716B461F2249
:10366C0019460620FDF726FE0123184609B030BD89
:10367C00600E002000B583B00A4B93F8E6388DF845
:10368C000430084B93F8E7388DF8053001AB022273
:10369C0019460720FDF70EFE0123184603B05DF80E
:1036AC0004FB00BF600E002082B00346ADF806306C
:1036BC0072B600BF094ABDF80630A2F8E038BDF872
:1036CC000630152B04D8054ABDF80630A2F8E238AE
:1036DC0062B600BF00BF02B0704700BF600E002092
:1036EC0082B003468DF8073072B600BF044A9DF8CD
:1036FC00073082F8E43862B600BF00BF02B07047F2
:10370C00600E002082B003468DF8073072B600BF01
:10371C00044A9DF8073082F8E53862B600BF00BF56
:10372C0002B07047600E002010B58AB004460846FF
:10373C0011461A462346ADF80E3003468DF80D306F
:10374C000B468DF80C3013468DF80B3072B600BF5B
:10375C0000238DF81F306A4B0993099B9B78002B33
:10376C0003D0099B6C33099303E001238DF81F30C0
:10377C000BE0634BB3F8E238013B6C2202FB03F322
:10378C005F4A1344099A9A42E7D99DF81F30002BDF
:10379C000BD162B600BF00230093002324220E211C
:1037AC000220FDF7CBFD0123A6E0099BBDF80E20FE
:1037BC001A80099B9DF80D209A70099B9DF80C208E
:1037CC00DA70099B9DF830205A71099B9DF80B20EB
:1037DC001A71099B063311220D99184601F096F9BE
:1037EC0004AB1846FFF796FA9DF811309BB21B02FA
:1037FC009AB29DF810309BB213449AB2099BA3F86D
:10380C001D209DF813309BB21B029AB29DF812300A
:10381C009BB213449AB2099BA3F81B209DF8142069
:10382C00099B9A76364BD3F8DC38002B07D1099BD1
:10383C00099A9A66324A099BC2F8DC3859E0304B37
:10384C00D3F8DC380893089B9B6E0693089B1A8868
:10385C00099B1B889A4205D2099B1A88069B1B88D8
:10386C009A4240D3089B1A88099B1B889A4205D21E
:10387C00069B1A88089B1B889A4234D9099B1A8884
:10388C00069B1B889A4205D2069B1A88089B1B88AC
:10389C009A4228D9089B1A88099B1B889A421FD1E7
:1038AC00099B1B880022009220220E210220FDF78A
:1038BC0045FD099B00221A80099B00229A70099BE6
:1038CC000022DA70099B00225A71099B06331122DF
:1038DC000021184601F050F962B600BF01230BE03D
:1038EC00069B0893AFE7089B099A9A66099B069A70
:1038FC009A6662B600BF002318460AB010BD00BF1E
:10390C00600E002000B585B0019072B600BF002398
:10391C008DF80F3038E09DF80F30214A6C2101FBF7
:10392C0003F3134403331B78012B28D19DF80F307C
:10393C001B4A6C2101FB03F3134402331B78012B4C
:10394C001DD19DF80F30164A6C2101FB03F3134473
:10395C0006331B78022B12D19DF80F306C2202FB20
:10396C0003F30F4A134406331946019800F06EFF17
:10397C000346002B03D062B600BF01230BE09DF879
:10398C000F3001338DF80F309DF80F30142BC2D946
:10399C0062B600BF0023184605B05DF804FB00BFFB
:1039AC00600E002000B585B001900B468DF80330F9
:1039BC0072B600BF00238DF80F303AE09DF80F303F
:1039CC00214A6C2101FB03F3134403331B78002BB6
:1039DC002AD19DF80F301C4A6C2101FB03F31344D0
:1039EC0002331B789DF803209A421DD19DF80F30AD
:1039FC00154A6C2101FB03F3134406331B78022B8D
:103A0C0012D19DF80F306C2202FB03F30E4A1344C3
:103A1C0006331946019800F019FF0346002B03D01A
:103A2C0062B600BF01230BE09DF80F3001338DF817
:103A3C000F309DF80F30142BC0D962B600BF002395
:103A4C00184605B05DF804FB600E002000B583B08D
:103A5C000190019B0C225A70019B012283F84E208D
:103A6C000198FFF70DF903461A46019B83F8A52030
:103A7C00019B002283F8A620FFF7BEF803461A46E6
:103A8C00019B83F8A720019B93F89E30002B05D156
:103A9C000021019800F036F8034604E0012101985A
:103AAC0000F030F80346184603B05DF804FB00B58F
:103ABC0083B00023ADF8063000F040F90346ADF8B2
:103ACC0006300DF10603022219460220FDF7F2FB27
:103ADC000123184603B05DF804FB000000B583B069
:103AEC00074B5B89ADF806300DF10603022219462F
:103AFC000A20FDF7DFFB0123184603B05DF804FB39
:103B0C004C17002010B584B003900B468DF80B3089
:103B1C00039B3D33184600F04CFE0346012B04D1A9
:103B2C00039B012283F8502003E0039B102283F8AF
:103B3C0050202E4B1B795A1CD1B22C4A1171039A6E
:103B4C0082F84F30039B002283F85120039B1F22E5
:103B5C0083F8C020039B93F84E10039B93F84F00FF
:103B6C00039B3D339DF80B20009303460398FEF70F
:103B7C005DFE0346012B01D1012334E0039B0A2295
:103B8C005A70039B3D33184600F013FE0346002B7E
:103B9C0028D1039B3D3301211846FFF703FF034651
:103BAC00002B1FD1039B3D331846FFF7ABFE03469A
:103BBC00002B17D1039B3D331846FFF7EFF8034654
:103BCC001C46039B3D331846FFF708F903461A467B
:103BDC00039B3D33019300920123012201212046D6
:103BEC00FFF7A2FD0023184604B010BD4C170020AF
:103BFC0000B585B00390039B12225A7000F01CFA9A
:103C0C000346002B09D10023009301231F2212210C
:103C1C000120FDF793FB012303E00398FFF716FF48
:103C2C000346184605B05DF804FB00B5A7B0FDF7D8
:103C3C0011FF03468DF897309DF897307E2B03D8F3
:103C4C009DF89730072B0AD89DF897309BB200222D
:103C5C0000924E2211210220FDF770FB51E09DF8DD
:103C6C00972003AB11461846FDF708FF00F0E4F966
:103C7C000346012B45D19DF89730002B41D01120E4
:103C8C0000F0E0FB03460293029B002B08D10023BB
:103C9C0000930023462211210220FDF74FFB30E058
:103CAC00029B11221A70029B11225A70029B022253
:103CBC0083F83D20029B3E3303A90822184600F0EE
:103CCC0025FF9DF897309BB2083B9AB202AB114688
:103CDC00184600F083FE029B58689DF89730083B0D
:103CEC001A4603AB0833194600F010FF029B184626
:103CFC00FFF77EFF0346012B03D1029B184600F011
:103D0C0005FC27B05DF804FB00B583B001901022D0
:103D1C000199074800F0FAFE10220199054800F0BD
:103D2C00F5FE054B01229A7000BF03B05DF804FB51
:103D3C00A3170020FE17002098170020024BB3F8A1
:103D4C0086301846704700BF9817002000B58BB01E
:103D5C0000F072F90346012B0BD1B14BB3F886304E
:103D6C00B3F5807F05D0AE4B4FF48072A3F886205C
:103D7C0052E1AB4B93F88D308DF81F30A84B93F874
:103D8C008C308DF81E30A64BB3F88A30ADF81C3051
:103D9C00A34B93F88C30012B3FD1A14B93F88D3072
:103DAC001846FFF7EFF90346012B05D19C4B4FF654
:103DBC00FF72A3F8862030E0994B93F88D301846AB
:103DCC00FFF71AFA0346002B00F02581944B93F869
:103DDC008D301846FFF79AFA0346ADF81A30904B1F
:103DEC0093F88D301846FFF7B7F90346ADF8183045
:103DFC00BDF81820BDF81A3013440893089BB3F58E
:103E0C00803F05D3864B4FF6FF72A3F8862004E063
:103E1C00089B9AB2824BA3F88620814BB3F886306C
:103E2C00ADF8163000238DF826307D4B002283F838
:103E3C008C2000238DF8273080E09DF82730184621
:103E4C00FFF7B4F90346002B73D09DF827301846C2
:103E5C00FFF798F90346012B64D09DF827301846DC
:103E6C00FFF754FA0346ADF81A309DF82730184680
:103E7C00FFF772F90346ADF81830BDF818304FF65D
:103E8C00FF72934250D0BDF81820BDF81A3013447D
:103E9C000893089BB3F5803F02D34FF6FF7308934A
:103EAC005F4BB3F888304FF6FE42934208D85C4B18
:103EBC00B3F8883003F540731A46089B934235D803
:103ECC00BDF81630089A9A4232D8BDF81620089BD5
:103EDC00D31AB3F5007F2BD301238DF82630504B2A
:103EEC00B3F886301A46089B934222D24C4BB3F857
:103EFC0088301A46089B934204D2089B9AB2484BCE
:103F0C00A3F88820089B9AB2454BA3F88620444A14
:103F1C009DF8273082F88D30414ABDF81A30A2F84E
:103F2C008A3006E000BF04E000BF02E000BF00E002
:103F3C0000BF9DF8273001338DF827309DF82730CE
:103F4C001D2B7FF67AAF9DF82630002B42D0344BD8
:103F5C00012283F88C209DF81E30002B19D19DF87E
:103F6C001F3000211846FFF7B7F92D4B93F88D3011
:103F7C0001211846FFF7B0F9294B93F88D2001ABBE
:103F8C0002211846FFF764F901AB184600F04AF815
:103F9C0034E0234B93F88D309DF81F209A422DD09E
:103FAC009DF81F3000211846FFF796F91C4B93F82B
:103FBC008D3001211846FFF78FF9194B93F88D209E
:103FCC0001AB02211846FFF743F901AB184600F08C
:103FDC0029F813E0124ABDF81630A2F88630104AC0
:103FEC009DF81F3082F88D300D4A9DF81E3082F8F6
:103FFC008C300B4ABDF81C30A2F88A30084BB3F851
:10400C0086304FF6FF72934206D1054B4FF6FF7286
:10401C00A3F8882000E000BF0BB05DF804FB00BFE4
:10402C009817002000B583B00190019800F0F4FAC5
:10403C0000BF03B05DF804FB82B072B600BF054B45
:10404C001B788DF8073062B600BF9DF80730184614
:10405C0002B070473818002000B583B003468DF8C5
:10406C00073072B600BF074A9DF807301370FFF790
:10407C006DFEFFF71DFA62B600BF00BF03B05DF81E
:10408C0004FB00BF3818002000B587B003468DF83C
:10409C000F3072B600BF9DF80F30013B042B19D8BE
:1040AC0001A252F823F000BFC9400000CF4000002D
:1040BC00E1400000D5400000DB4000000F4B0593B1
:1040CC0015E00F4B059312E00E4B05930FE00E4BD2
:1040DC0005930CE09DF80F309BB2002200924B220E
:1040EC0002210120FDF72AF90023059300BF62B6D7
:1040FC0000BF059B184607B05DF804FB4A1800206A
:10410C005B180020391800206C18002030B585B0E1
:10411C00039072B600BF039B1B78013B042B44D861
:10412C0001A252F823F000BF494100006541000094
:10413C00B7410000814100009D410000254B039ACE
:10414C001233156854689068D1681D605C60986083
:10415C00D960127C1A7436E01E4B039A233315680F
:10416C0054689068D1681D605C609860D960127C5E
:10417C001A7428E0174B039A013315685468906839
:10418C00D1681D605C609860D960127C1A741AE06A
:10419C00104B039A03F13404154628686968AA6821
:1041AC00EB680FC42B7C23700DE0039B1B789BB238
:1041BC00012200924B2202210120FDF7BFF862B6CA
:1041CC0000BF012302E062B600BF0023184605B011
:1041DC0030BD00BF3818002000B595B00BAB1A21CC
:1041EC001846FDF74BFC03468DF84F309DF84F30C9
:1041FC001A2B0AD09DF84F309BB2002200924E220F
:10420C0002210220FDF79AF86BE09DF82C30592B17
:10421C0006D0592B29DC4E2B0AD0542B10D024E07D
:10422C000120FFF719FF304B002283F8452025E0D1
:10423C000020FFF711FF2C4B012283F845201DE0D5
:10424C00FFF7FAFE0346002B07D00020FFF704FF10
:10425C00254B012283F8452010E00120FFF7FCFEDE
:10426C00214B002283F8452008E000230093002313
:10427C00532202210220FDF761F832E005238DF86C
:10428C0018300DF119030DF12D02116852681960E7
:10429C005A6006AB1846FFF739FF134A02AB3532AA
:1042AC001068516803C3104A04AB243292E803002F
:1042BC0083E8030002AB1846FFF726FD9DF8353066
:1042CC008DF84E300BAB0A3312939DF84E30129989
:1042DC001846FEF797FC9DF84E3012991846FEF7DB
:1042EC00ADFC15B05DF804FB3818002000B587B0A4
:1042FC00134B1B788DF80030114B5B88ADF80130F7
:10430C000F4BB3F813309BB2ADF803300C4B0DF1DF
:10431C000502243303CB10605160094A0DF10D03E3
:10432C0035321168526819605A606B46152219466D
:10433C000120FCF7BFFF0123184607B05DF804FB12
:10434C003818002000B583B00D4B93F856308DF81B
:10435C0000300B4BB3F857309BB2ADF80130084B23
:10436C00B3F859309BB2ADF803306B4605221946B1
:10437C000B20FCF79FFF0123184603B05DF804FBEC
:10438C003818002000B583B000238DF807300FE0FB
:10439C009DF807304FF4A47202FB03F3094A13444F
:1043AC00184600F0BBF99DF8073001338DF8073043
:1043BC009DF80730132BEBD900BF00BF03B05DF89D
:1043CC0004FB00BF9418002000B58DB000238DF8BD
:1043DC002F3025E09DF82F209DF82F3018494FF4F1
:1043EC00A47000FB02F20A4412785B0030336B4479
:1043FC0003F82C2C9DF82F209DF82F3010494FF4EA
:10440C00A47000FB02F20A44013212785B003033D4
:10441C006B4403F82B2C9DF82F3001338DF82F3083
:10442C009DF82F30132BD5D901AB28221946082023
:10443C00FCF740FF012318460DB05DF804FB00BFEC
:10444C009418002000B585B003468DF8073072B67D
:10445C0000BFFEF79DFC0346002B07D19DF80730EB
:10446C00092B03D962B600BF002349E000F0A0F885
:10447C000346002B07D19DF807300F2B03D962B6EA
:10448C0000BF00233CE000238DF80F3031E09DF895
:10449C000F301D4A4FF4A47101FB03F31344013395
:1044AC001B78002B20D19DF80F30174A4FF4A471C4
:1044BC0001FB03F313449DF807201A709DF80F308D
:1044CC00114A4FF4A47101FB03F31344013303228B
:1044DC001A7062B600BF9DF80F304FF4A47202FB45
:1044EC0003F3094A13440BE09DF80F3001338DF8A8
:1044FC000F309DF80F30132BC9D962B600BF0023C3
:10450C00184605B05DF804FB9418002000B587B080
:10451C00039072B600BF00238DF8173032E09DF87F
:10452C0017304FF4A47202FB03F3204A1344039A8E
:10453C009A4222D19DF817301C4A4FF4A47101FB0A
:10454C0003F3134401331B78002B07D10023009392
:10455C000023482203210120FCF7F0FE9DF81730C0
:10456C004FF4A47202FB03F3104A1344184600F0F4
:10457C00D5F862B600BF002313E09DF81730013365
:10458C008DF817309DF81730132BC8D900230093E2
:10459C000023492203210120FCF7D0FE62B600BFA4
:1045AC000123184607B05DF804FB00BF94180020E7
:1045BC0082B072B600BF00238DF8063000238DF850
:1045CC00073014E09DF80730124A4FF4A47101FB38
:1045DC0003F313441B780F2B04D99DF806300133D9
:1045EC008DF806309DF8073001338DF807309DF8B3
:1045FC000730132BE6D99DF806300F2B03D962B682
:10460C0000BF002302E062B600BF0123184602B0CF
:10461C00704700BF9418002000B585B0019072B6A9
:10462C0000BF00238DF80F306BE09DF80F303A4A35
:10463C004FF4A47101FB03F3134401331B780A2BD1
:10464C005AD1019B1B78022B56D19DF80F304FF499
:10465C00A47202FB03F338332F4A13440533194673
:10466C00019800F0F3F80346002B45D19DF80F306C
:10467C00294A4FF4A47101FB03F313441B78132B49
:10468C003AD99DF80F30244A4FF4A47101FB03F37F
:10469C0013443B331B78002B2ED19DF80F304FF475
:1046AC00A47202FB03F338331B4A13440533112263
:1046BC000199184600F02AFA00238DF80E3017E005
:1046CC009DF80E209DF80F3013494FF4A47000FB99
:1046DC0003F30B44983319689DF80E300B44019981
:1046EC000A4452781A709DF80E3001338DF80E3052
:1046FC009DF80E30072BE3D99DF80F3001338DF860
:10470C000F309DF80F30132B8FD962B600BF00BF4E
:10471C0005B05DF804FB00BF9418002082B0019036
:10472C00019B00221A70019B00225A70019B03F21C
:10473C004112019B5A60019B00221A81019B0022AD
:10474C009A72019BFA22DA72019B00221A73019B66
:10475C0000225A76019B002283F82A20019B00221A
:10476C0083F83B20019B002283F89120019B0022BF
:10477C0083F83D20019B052283F84E20019B0022EB
:10478C0083F85020019B002283F89D20019B00227E
:10479C0083F8A020019B002283F89E20019B00221D
:1047AC0083F8A420019B002283F8A52000BF02B04F
:1047BC00704700B587B00390039B1B78062B01D183
:1047CC0001233FE0039B1B78032B07D1039B5B78F2
:1047DC00FF2B01D1012335E0002333E0039B1B7831
:1047EC00012B02D0022B04D007E002238DF81630E7
:1047FC000FE008238DF816300BE0039B1B789BB25F
:10480C00042200924B2205210120FCF797FD002386
:10481C0018E000238DF817300DE09DF81730039A3F
:10482C0013445B78FF2B01D000230BE09DF817306D
:10483C0001338DF817309DF817209DF816309A42E9
:10484C00EBD30123184607B05DF804FB00B587B025
:10485C0003900291039B1A78029B1B789A4201D019
:10486C0000234DE0039B1B78062B8CBF01220022FA
:10487C00D2B2002A29D1012202FA03F303F0480232
:10488C00002A14BF01220022D2B2002A19D103F04F
:10489C002402002A14BF01220022D2B2002A0CD119
:1048AC0003F01203002B14BF01230023DBB2002BF7
:1048BC000BD002238DF8173013E008238DF8173036
:1048CC000FE010238DF817300BE0039B1B789BB285
:1048DC00052200924B2205210120FCF72FFD00231D
:1048EC000EE0039B581C029B01339DF817201946C0
:1048FC0000F072F90346002B01D1012300E00023E4
:10490C00184607B05DF804FB00B589B0059004911A
:10491C0013468DF80F30049B1B78013B042B19D8E0
:10492C0001A252F823F000BF494900005149000090
:10493C0059490000494900005149000002238DF8F3
:10494C001E3013E008238DF81E300FE010238DF875
:10495C001E300BE0049B1B789BB2072200924B226B
:10496C0005210120FCF7EAFC012333E000238DF83C
:10497C001F3028E00121059800F030F80346012B88
:10498C0001D1012326E09DF80F30002B09D09DF8B2
:10499C001F20059B1B685B6804990A4452781A70A7
:1049AC000CE09DF81E305A1E9DF81F30D21A059B44
:1049BC001B685B6804990A4452781A709DF81F3082
:1049CC0001338DF81F309DF81F209DF81E309A4240
:1049DC00D0D30023184609B05DF804FB00B587B0AE
:1049EC0003900B46ADF80A307D23ADF81630039BCF
:1049FC001B68B3F908301A46BDF80A301A44BDF9E1
:104A0C0016309A420FDD039B1B68B3F908309AB23B
:104A1C00BDF80A30009313464C2205210220FCF706
:104A2C008DFC01233DE0039B1B685968BDF80A30DF
:104A3C005A42039B1B680A445A60039B1B68B3F9D8
:104A4C0008309AB2BDF80A3013449AB2039B1B6823
:104A5C0012B21A81039B1B685A68039B1B68C433F0
:104A6C009A420DD3039B1B685B68039A1268B2F9D8
:104A7C0008201A44039B1B6803F243139A420FD974
:104A8C00039B1B68B3F908309AB2BDF80A30009347
:104A9C0013464C2205210120FCF750FC012300E0B9
:104AAC000023184607B05DF804FB0000411C820788
:104ABC000CD010F8012B3AB3820707D010F8012B59
:104ACC0012B3820702D010F8012BEAB14FF0013C6F
:104ADC0050F8042BCCFA52F37BB950F8042BCCFAD7
:104AEC0052F353B950F8042BCCFA52F32BB950F8BB
:104AFC00042BCCFA52F3002BEAD004381BBAB3FACD
:104B0C0083F300EBD3000130401A704772B3844634
:104B1C0090EA01039B0721D1830709D011F8013BCF
:104B2C0000F8013B013A20D08307F7D100E084461E
:104B3C00202A0AD32DE9F007B1E8F807A0E8F80716
:104B4C00203A202AF8D2BDE8F007042A06D351F8FF
:104B5C00043B40F8043B043A042AF8D22AB111F879
:104B6C00013B00F8013B013AF9D16046704700BFA8
:104B7C0000220B0011001A0084465AB3830704D09C
:104B8C0000F8011B013AF9D124E0C9B241EA012134
:104B9C0041EA0141202A11D3203A2DE9F0030B46BA
:104BAC000C460D460E460F4688468946A0E8FA0389
:104BBC00203AFBD2BDE8F00320320BD0042A05D3F7
:104BCC0040F8041B043A05D0042AF9D200F8011B62
:104BDC00013AFBD160467047042A08D350F804CB45
:104BEC000B689C4506D1043A0431032AF6D8A2B1CD
:104BFC00D0F800C0086880EA0C0191FAA1F1B1FA72
:104C0C0081F1B2EBD10F08D901F038012CFA01F285
:104C1C00C840C0B2D1B2081A70470020704700B526
:104C2C0039B102782AB1D0F800E0042903D2034646
:104C3C000CE0002000BD4FF0013C0346CCFA5EF2C4
:104C4C0022B953F804EF04390329F7D8181A4FF096
:104C5C000132C2FA5EF292FAA2F2B2FA82F2B1EB2D
:104C6C00D20F28BFD108084400BD10B582B004464D
:104C7C0000698DF8071078B1D4E900239A421CD250
:104C8C006269531C63618154D4E90501884214D1D3
:104C9C00204600F032F810E0D4F80CC0BCF1000F44
:104CAC0010D0D4E90023501C984204BF00218DF889
:104CBC0007109A4238BF0CF80210206801302060AF
:104CCC0002B010BDA06858B1D4E9002C6245F4D2F2
:104CDC00531CB3EB0C0318BFCBB240F82230ECE7FB
:104CEC00236A002BE9D0D4E900018842E5D20DF10A
:104CFC000701204601229847DFE710B5426932B11F
:104D0C000446036A0BB1216998470020606110BD0D
:104D1C0070B5012AB8BF70BD0C460546561C284616
:104D2C002146FFF7A2FF013E012EF8D870BDCB063D
:104D3C0048BF704789054CBF30212021FFF7E8BFE1
:104D4C0038B5044600F072FB0546204600212422AB
:104D5C00FFF712FFE56138BD81B0F0B58AB014469B
:104D6C000D4606460F930FA8009001AF3846FFF78B
:104D7C00E7FF0295009A04963846214600F006F8A3
:104D8C000AB0BDE8F04001B0704700002DE9F04FCB
:104D9C008DB00692894683460020CBF800000DF1B9
:104DAC001E04A4F10108CDF81080CDF804B019F858
:104DBC00011B252906D0002900F089825846FFF7EF
:104DCC0054FFF4E70027484619F8012BA2F1200301
:104DDC00102B0DD88021DFE803F0091B1B191B1BBE
:104DEC001B101B1B31131B151B1B170040210DE047
:104DFC005E2A0DD14FF4805108E04FF4004105E0DC
:104E0C00202103E0102101E04FF400710F43DAE799
:104E1C0000F10109A2F13000C0B209281DD800210F
:104E2C0019F8010B01EB810102EB41013039A0F1C2
:104E3C003002D2B20A2A0246F2D30BE0069A52F89A
:104E4C00041B0692002944BF47F0100749424278E0
:104E5C0000F1020921EAE17A01E04FF0000A2E2A62
:104E6C000DD1484610F8012B2A2A0AD1069899F838
:104E7C00012050F8045B069009F1020916E00025A8
:104E8C001CE0A2F13001C9B20025092913D810F891
:104E9C00011B05EB850302EB4302A2F13005A1F1E6
:104EAC003002D2B20A2A0A46F1D38146002D58BFED
:104EBC0047F4807702E0814647F48077A2F16800DE
:104ECC00C1B2C00140EA5100C0B209282AD8DFE8BB
:104EDC0000F00814172929290529290519F8012B8F
:104EEC0020E0484610F8012B682A15D199F80120CA
:104EFC0009F1020947F0080714E019F8012B08E042
:104F0C00484610F8012B6C2A09D199F8012009F1B7
:104F1C00020947F0020705E047F0040701E047F0FB
:104F2C0001078146622A15DDA2F1630015283FF6C0
:104F3C003EAFDFE800F0240C0B0B0B0B0C0B0B0B38
:104F4C000B37434D0B0B5B0B6A0B0B172FE747F41F
:104F5C0080475EE0252A00F0A980582A40F07C8129
:104F6C0047F40057F8054FEA076048BF27F400776D
:104F7C00782A43F2580108BF43F2780125E0069DD8
:104F8C00A0462C78AAF10106584639463246FFF75E
:104F9C00CEFE584621464446DDF81080FFF765FEEC
:104FAC0028467FE1380700F15B81B80700F1858165
:104FBC00069A1068DBF80010016056E1F8054FEA1C
:104FCC00076048BF27F40077302101EAE07321E045
:104FDC003806232101EAE070059047F48077069AA1
:104FEC00002152F8040B06920825CEE006980468BE
:104FFC00002C04BF45F65404C0F20004F80500F17F
:10500C0036812046FFF752FD35E1F80548BF27F4FD
:10501C000077002307F002007904059305D4AC4611
:10502C0050B90698031D00210DE0A8B9069951F856
:10503C00040B0691C11717E00698073020F0070003
:10504C0000F10803416800687D0715D417F00805C6
:10505C001CBFC0B2002111E00698073020F00703F6
:10506C00596853F8080B06937B070AD417F008030A
:10507C001CBFC0B2002107E080B200210693654638
:10508C001BE040F3C03100B2002909DBBB0612D48F
:10509C007B06A446059C48BF2024059464460CE07E
:1050AC000023404263EB01012D2305E058462521E6
:1050BC00FFF7DBFD7BE62B230593FB0548BF27F4AD
:1050CC000077FB0558BF012500266E2A23DD6F3AB9
:1050DC00092A00F28080DFE802F005587E7E7E7E91
:1050EC00247E7E5850EA010274D0AC46C20842EAD3
:1050FC00417200260625134665F3DF00A0550136E4
:10510C0052EAD1004FEAD1014FEAD20040EA417293
:10511C001846F0D15CE0582A37D0642A18BF692AA7
:10512C0059D150EA010255D0CDE9025AA24607F4F2
:10513C00004B00260C460546BBF1000F09D006F0CB
:10514C000300032805D1D0462C200AF806000136AE
:10515C0000E0D046284621460A22002300F0CEF873
:10516C0000EB8002A5EB420242F0300208F8062068
:10517C000136D5F109024FF00002A241DAD35446B0
:10518C00DDE903A8DDE901B525E050EA010221D0F3
:10519C00AC46BA0445F63402C0F200025CBF45F6D8
:1051AC004402C0F200024FEA101343EA01734FF0BD
:1051BC00000600F00F051846535DA355013650EA62
:1051CC0011134FEA11114FEA101343EA0173F0D196
:1051DC00654600E00026AAEB06000599FF2988BF6A
:1051EC00013800290A4618BF0122801AAA1B22EA9C
:1051FC00E275A0EB050AB80507D458463946524665
:10520C00FFF795FD05994FF0000AFF2904D9090A0B
:10521C005846FFF72AFD059911B15846FFF725FDB1
:10522C00584639465246FFF782FD584630212A46E9
:10523C00FFF76EFD012E06DB18F806105846FFF737
:10524C0014FD013EF8D8F8067FF5B1AD5846202183
:10525C005246FFF75DFDAAE5002A7FF4A8AD47E0B2
:10526C00069A1068DBF80010017010462CE02046FE
:10527C002946FFF7D4FC054627F40077AAEB000675
:10528C00584639463246FFF752FD35B114F8011B2A
:10529C005846FFF7EAFC013DF8D1DDF8108006987E
:1052AC000DF11E0404300690F8067FF580AD5846CB
:1052BC0020213246FFF72CFD79E5069BDBF8001028
:1052CC001868002206C01846043006906FE5DBF81B
:1052DC000C0028B1DBE9001291423CBF0022425481
:1052EC005846FFF70AFDDBF800000DB0BDE8F08F63
:1052FC005846FFF702FD4FF0FF30F6E7002B35D193
:10530C0029B9B0FBF2FC0CFB1202604670479142CB
:10531C0015D22DE9F041B2FA82F39A409940D3F1BB
:10532C00200C30FA0CFC51EA0C01984000F04EF8BD
:10533C00280036FA03F200210023BDE8F081F0B515
:10534C00B1FBF2FC0CFB1211B2FA82F39A409940B9
:10535C00D3F1200630FA06F63143984000F036F8C7
:10536C00614628003200DA400023F0BDF3B5B3FAF1
:10537C0083FC49085FEA300013FA0CF3DCF12004DB
:10538C0032FA04F423430CB41A0000F01FF80CBCDE
:10539C0033FA0CF3DCF11F0C35FA0CF518BF013D98
:1053AC0003BCA5FB026705FB0377801BB941904248
:1053BC0071EB030C05D3821A71EB0303681C0021FB
:1053CC00F0BD02000B0028000021F0BD940D4FF63B
:1053DC00C2752D02B5FBF4F4D60A013604FB04F5B4
:1053EC00A5FB0656F64306EB0416550832BF0027FC
:1053FC007708013505FB1677A6FB07477F0807EBF7
:10540C00C63714001500E7FB02457F1B4D1C04003A
:10541C00E7FB014505FB1206A64284BF013DB61809
:10542C00964224BF0135B61A704700BF43F23421AF
:10543C00C2F20001086800B1704740F20400C2F2E9
:10544C000000086070479AB18446097848B2002879
:10545C0044BF6FF001007047BCF1000F18BFCCF8CF
:10546C0000100021C3E90011002818BF012070476B
:10547C00002070477F298EBF6FF001000170012062
:10548C0070477F2884BF0020704745F67022C0F219
:10549C000002515C45F6F012C0F20002105C0840AC
:1054AC007047A0F161011A2938BF20387047A0F16C
:1054BC0041011A2938BF203070477F2884BF002053
:1054CC00704745F67022C0F20002515C45F6F012AE
:1054DC00C0F20002105C08407047A0F161011A296B
:1054EC0038BF20387047A0F141011A2938BF20304D
:1054FC0070470000072904D90023024AC0E9003193
:08550C001060704738320020E6
:105514006D6F74655F6D61696E0A0000000089112A
:1055240012239B322446AD573665BF74488CC19D07
:105534005AAFD3BE6CCAE5DB7EE9F7F881100801E7
:1055440093331A22A5562C47B7753E64C99C408DE7
:10555400DBBF52AEEDDA64CBFFF976E802218B3083
:10556400100299132667AF763444BD554AADC3BCC7
:10557400588ED19F6EEBE7FA7CC8F5D983310A20A7
:1055840091121803A7772E66B5543C45CBBD42ACA7
:10559400D99E508FEFFB66EAFDD874C904428D533F
:1055A40016619F702004A9153227BB364CCEC5DF87
:1055B4005EEDD7FC6888E1997AABF3BA85520C4367
:1055C40097711E60A1142805B3373A26CDDE44CF67
:1055D400DFFD56ECE9986089FBBB72AA06638F7203
:1055E40014409D512225AB343006B9174EEFC7FE47
:1055F4005CCCD5DD6AA9E3B8788AF19B87730E6227
:1056040095501C41A3352A24B1163807CFFF46EE26
:10561400DDDC54CDEBB962A8F99A708B08848195CE
:105624001AA793B62CC2A5D33EE1B7F04008C91916
:10563400522BDB3A644EED5F766DFF7C89940085D6
:105644009BB712A6ADD224C3BFF136E0C1184809F6
:10565400D33B5A2AE55E6C4FF77D7E6C0AA583B472
:10566400188691972EE3A7F23CC0B5D14229CB38D6
:10567400500AD91B666FEF7E744CFD5D8BB502A496
:1056840099961087AFF326E2BDD034C1C3394A28B6
:10569400D11A580BE77F6E6EF55C7C4D0CC685D72E
:1056A4001EE597F42880A1913AA3B3B2444ACD5B96
:1056B4005669DF78600CE91D722FFB3E8DD604C756
:1056C4009FF516E4A9902081BBB332A2C55A4C4B76
:1056D400D7795E68E11C680DF33F7A2E0EE787F6F2
:1056E4001CC495D52AA1A3B03882B193466BCF7A56
:1056F4005448DD59622DEB3C700EF91F8FF706E616
:105704009DD414C5ABB122A0B9923083C77B4E6A35
:10571400D5585C49E33D6A2CF11E780F202D207585
:105724006E6B6E6F776E20666F726D61742073702E
:1057340065636966696572202D2000002564000098
:105744002578000025700000675F7063436D64482E
:10575400616E646C6572206973204E554C4C0D0A61
:10576400000000000100010000000200020000002F
:10577400030003000000040004000000726F6F7453
:105784004461746148616E646C65720A00000000D3
:10579400666F72776172645363686564756C65548F
:1057A4006F4C6561646572730A0000004E6F206679
:1057B400726565207061636B657420666F72206723
:1057C400726F75702025640D0A0000004661696CD3
:1057D400656420746F2072657365727665206865F0
:1057E4006164657220666F722067726F7570202520
:1057F400640D0A0047726F7570202564207061790A
:105804006C6F61643A200D0A000000002530327884
:10581400200000000D0A0000666F72776172644315
:105824006F6E74726F6C436F6D6D616E640D0A0000
:1058340030313233343536373839414243444546C2
:1058440030313233343536373839616263646566F2
:10585400286E756C6C290000685800009859000087
:105864006C580000430000008F540000AF54000047
:10587400BB540000C7540000E7540000F354000078
:10588400815400005354000053756E004D6F6E0038
:105894005475650057656400546875004672690064
:1058A40053617400004A616E00466562004D617286
:1058B40000417072004D6179004A756E004A756C42
:1058C4000041756700536570004F6374004E6F7636
:1058D4000044656300002E000053756E6461790016
:1058E4004D6F6E6461790054756573646179005716
:1058F40065646E657364617900546875727364617C
:1059040079004672696461790053617475726461E7
:105914007900004A616E756172790046656272753C
:10592400617279004D6172636800417072696C0044
:105934004D6179004A756E65004A756C7900417550
:10594400677573740053657074656D626572004F9A
:1059540063746F626572004E6F76656D6265720086
:10596400446563656D6265720000414D00504D00F1
:1059740000256D2F25642F25790025483A254D3AB9
:1059840025530025612025622025652025542025E6
:1059940059000000DA580000DC580000DC58000010
:1059A400DC580000DC580000DC580000DC58000023
:1059B400DC580000DC580000DC580000FFFFFFFF4B
:1059C400FFFFFFFFFFFFFFFFFFFF0000DD580000A8
:1059D4008C58000017590000A95800006E590000A7
:1059E400755900007E5900008759000020202020AE
:1059F400202020202068282828282020202020203B
:105A0400202020202020202020202020481010109A
:105A140010101010101010101010101084848484B2
:105A24008484848484841010101010101081818167
:105A340081818101010101010101010101010101D2
:105A44000101010101010110101010101082828265
:105A540082828202020202020202020202020202A2
:105A6400020202020202021010101020000703209A
:0C5A7400041702010857104080000000D9
:105A80000090D0035C5800005C5800005C58000097
:085A90005C5800005C580000A6
:0400000300000219DE
:00000001FF
